:020000040000fa
:080000000002040000000000f2
:020000040000fa
:04000800600600008e
:020000040000fa
:04000c00c00500002b
:020000040000fa
:04001000dc0500000b
:020000040000fa
:04001400980600004a
:020000040000fa
:040018007c06000062
:020000040000fa
:04001c00bc0600001e
:020000040000fa
:04002000f8050000df
:020000040000fa
:04002400bc06000016
:020000040000fa
:04002800bc06000012
:020000040000fa
:04002c00bc0600000e
:020000040000fa
:04003000bc0600000a
:020000040000fa
:04003400bc06000006
:020000040000fa
:040038007e05000041
:020000040000fa
:04003c00bc060000fe
:020000040000fa
:04004000bc060000fa
:020000040000fa
:04004400bc060000f6
:020000040000fa
:04004800bc060000f2
:020000040000fa
:04004c00bc060000ee
:020000040000fa
:04005000bc060000ea
:020000040000fa
:04005400bc060000e6
:020000040000fa
:04005800bc060000e2
:020000040000fa
:04005c00bc060000de
:020000040000fa
:04006000bc060000da
:020000040000fa
:04006400bc060000d6
:020000040000fa
:04006800bc060000d2
:020000040000fa
:04006c00bc060000ce
:020000040000fa
:04007000bc060000ca
:020000040000fa
:04007400bc060000c6
:020000040000fa
:04007800bc060000c2
:020000040000fa
:04007c00bc060000be
:020000040000fa
:04008000bc060000ba
:020000040000fa
:04008400bc060000b6
:020000040000fa
:04008800bc060000b2
:020000040000fa
:04008c004a05000021
:020000040000fa
:04009000bc060000aa
:020000040000fa
:04009400bc060000a6
:020000040000fa
:04009800bc060000a2
:020000040000fa
:04009c00bc0600009e
:020000040000fa
:0400a000bc0600009a
:020000040000fa
:0400a400bc06000096
:020000040000fa
:0400a800bc06000092
:020000040000fa
:0400ac00bc0600008e
:020000040000fa
:0400b000bc0600008a
:020000040000fa
:0400b400bc06000086
:020000040000fa
:0400b800bc06000082
:020000040000fa
:0400bc00bc0600007e
:020000040000fa
:0400c000bc0600007a
:020000040000fa
:0400c400bc06000076
:020000040000fa
:0400c800bc06000072
:020000040000fa
:0400cc00bc0600006e
:020000040000fa
:0400d000bc0600006a
:020000040000fa
:0400d400bc06000066
:020000040000fa
:0400d800bc06000062
:020000040000fa
:0400dc00a00500007b
:020000040000fa
:0400e000bc0600005a
:020000040000fa
:0400e400bc06000056
:020000040000fa
:0400e800bc06000052
:020000040000fa
:0400ec00bc0600004e
:020000040000fa
:0400f000bc0600004a
:020000040000fa
:0400f400bc06000046
:020000040000fa
:0400f800bc06000042
:020000040000fa
:0400fc00bc0600003e
:020000040000fa
:04010000bc06000039
:020000040000fa
:04010400bc06000035
:020000040000fa
:04010800bc06000031
:020000040000fa
:04010c00bc0600002d
:020000040000fa
:04011000bc06000029
:020000040000fa
:04011400bc06000025
:020000040000fa
:04011800bc06000021
:020000040000fa
:04011c00bc0600001d
:020000040000fa
:04012000bc06000019
:020000040000fa
:04012400bc06000015
:020000040000fa
:04012800bc06000011
:020000040000fa
:04012c00bc0600000d
:020000040000fa
:04013000bc06000009
:020000040000fa
:04013400bc06000005
:020000040000fa
:04013800bc06000001
:020000040000fa
:04013c00bc060000fd
:020000040000fa
:04014000bc060000f9
:020000040000fa
:04014400bc060000f5
:020000040000fa
:04014800bc060000f1
:020000040000fa
:04014c00bc060000ed
:020000040000fa
:04015000bc060000e9
:020000040000fa
:04015400bc060000e5
:020000040000fa
:04015800bc060000e1
:020000040000fa
:04015c00bc060000dd
:020000040000fa
:04016000bc060000d9
:020000040000fa
:04016400bc060000d5
:020000040000fa
:04016800bc060000d1
:020000040000fa
:04016c00bc060000cd
:020000040000fa
:04017000bc060000c9
:020000040000fa
:04017400bc060000c5
:020000040000fa
:04017800bc060000c1
:020000040000fa
:04017c00bc060000bd
:020000040000fa
:04018000bc060000b9
:020000040000fa
:04018400bc060000b5
:020000040000fa
:04018800bc060000b1
:020000040000fa
:04018c00bc060000ad
:020000040000fa
:04019000bc060000a9
:020000040000fa
:04019400bc060000a5
:020000040000fa
:04019800bc060000a1
:020000040000fa
:04019c00bc0600009d
:020000040000fa
:0401a000bc06000099
:020000040000fa
:0401a400bc06000095
:020000040000fa
:0401a800bc06000091
:020000040000fa
:0401ac00bc0600008d
:020000040000fa
:0401b000bc06000089
:020000040000fa
:0401b400bc06000085
:020000040000fa
:0401b800bc06000081
:020000040000fa
:0401bc00bc0600007d
:020000040000fa
:0401c000bc06000079
:020000040000fa
:0401c400bc06000075
:020000040000fa
:0401c800bc06000071
:020000040000fa
:0401cc00bc0600006d
:020000040000fa
:0401d000bc06000069
:020000040000fa
:0401d400bc06000065
:020000040000fa
:0401d800bc06000061
:020000040000fa
:0401dc00bc0600005d
:020000040000fa
:0401e000bc06000059
:020000040000fa
:0401e400bc06000055
:020000040000fa
:0401e800bc06000051
:020000040000fa
:0401ec00bc0600004d
:020000040000fa
:0401f000bc06000049
:020000040000fa
:0401f400bc06000045
:020000040000fa
:0401f800bc06000041
:020000040000fa
:0401fc00bc0600003d
:020000040000fa
:04020000bc06000038
:020000040000fa
:04020400bc06000034
:020000040000fa
:04020800bc06000030
:020000040000fa
:04020c00bc0600002c
:020000040000fa
:04021000bc06000028
:020000040000fa
:04021400bc06000024
:020000040000fa
:04021800bc06000020
:020000040000fa
:04021c00bc0600001c
:020000040000fa
:04022000bc06000018
:020000040000fa
:04022400bc06000014
:020000040000fa
:04022800bc06000010
:020000040000fa
:04022c00bc0600000c
:020000040000fa
:04023000bc06000008
:020000040000fa
:04023400bc06000004
:020000040000fa
:04023800bc06000000
:020000040000fa
:04023c00bc060000fc
:020000040000fa
:04024000bc060000f8
:020000040000fa
:04024400bc060000f4
:020000040000fa
:04024800bc060000f0
:020000040000fa
:04024c00bc060000ec
:020000040000fa
:04025000bc060000e8
:020000040000fa
:04025400bc060000e4
:020000040000fa
:04025800bc060000e0
:020000040000fa
:04025c00bc060000dc
:020000040000fa
:04026000bc060000d8
:020000040000fa
:04026400bc060000d4
:020000040000fa
:04026800bc060000d0
:020000040000fa
:04026c00bc060000cc
:020000040000fa
:04027000bc060000c8
:020000040000fa
:04027400bc060000c4
:020000040000fa
:04027800bc060000c0
:020000040000fa
:04027c00bc060000bc
:020000040000fa
:04028000bc060000b8
:020000040000fa
:04028400bc060000b4
:020000040000fa
:04028800bc060000b0
:020000040000fa
:04028c00bc060000ac
:020000040000fa
:04029000bc060000a8
:020000040000fa
:04029400bc060000a4
:020000040000fa
:04029800bc060000a0
:020000040000fa
:04029c00bc0600009c
:020000040000fa
:0402a000bc06000098
:020000040000fa
:0402a400bc06000094
:020000040000fa
:0402a800bc06000090
:020000040000fa
:0402ac00bc0600008c
:020000040000fa
:0402b000bc06000088
:020000040000fa
:0402b400bc06000084
:020000040000fa
:0402b800bc06000080
:020000040000fa
:0402bc00bc0600007c
:020000040000fa
:0402c000bc06000078
:020000040000fa
:0402c400bc06000074
:020000040000fa
:0402c800bc06000070
:020000040000fa
:0402cc00bc0600006c
:020000040000fa
:0402d000bc06000068
:020000040000fa
:0402d400bc06000064
:020000040000fa
:0402d800bc06000060
:020000040000fa
:0402dc00bc0600005c
:020000040000fa
:0402e000bc06000058
:020000040000fa
:0402e400bc06000054
:020000040000fa
:0402e800bc06000050
:020000040000fa
:0402ec00bc0600004c
:020000040000fa
:0402f000bc06000048
:020000040000fa
:0402f400bc06000044
:020000040000fa
:0402f800bc06000040
:020000040000fa
:0402fc00bc0600003c
:020000040000fa
:04030000bc06000037
:020000040000fa
:04030400bc06000033
:020000040000fa
:04030800bc0600002f
:020000040000fa
:04030c00bc0600002b
:020000040000fa
:04031000bc06000027
:020000040000fa
:04031400bc06000023
:020000040000fa
:04031800bc0600001f
:020000040000fa
:04031c00bc0600001b
:020000040000fa
:04032000bc06000017
:020000040000fa
:10040000ef8021000eff27000e0188000000200071
:100410000000e000020032000001200020028800fd
:1004200014000700560207000000e00003003a0035
:10043000e03b250001002000020037000000200002
:1004400001002000810f70004220ae000f00070065
:10045000000020000000e0004220ae00000002008a
:100460000000000074570200000000000040da00a5
:100470000000fe00a02020000000e000020032008a
:10048000002020009001880000000600a1028800e2
:10049000800478000000eb001f003700e284440075
:1004a00054a0b4009905ba00e284440054a0b400fa
:1004b0009906ba00e284440054a0b4000006eb00a0
:1004c000476fde00fd07b200ae018800636ce100fb
:1004d00003003a000ad801000000eb000e003700cc
:1004e000606ce10008003a00004deb000a05e800ee
:1004f000020039003420ec000af0a0008b05e9006e
:10050000f9ff3e00040037006168e100010032009d
:100510000086eb000b00070019c7ba001905ba00e6
:100520000e04e00003003a000a00e000dbff3a009e
:1005300000000600fe07b200ae0288008a047800c0
:10054000f5ff37000cd0a300e20f4d001c003b006c
:1005500089027800354dba000a05e800020039002a
:100560003420ec000af0a0008b05e9000f003200f7
:10057000254dba000a05e800020039003420ec00dd
:100580000af0a0008b05e900080032000c00e00032
:100590000600320015cdba000a05e8000200390055
:1005a0003420ec000af0a0008b05e9008984e80003
:1005b00054a0b4000b00e000e2ff3a000000060087
:1005c0009902ba00055d78008b05e900f7ff32005b
:1005d000c82ade00055d78008b05e900f3ff3200d4
:1005e0000c00e000f1ff320019ddba00eeff370029
:1005f00004082000010037000002eb000100e000c9
:100600004220ae00d561a9006100e1000100320086
:10061000100005003200f8003400f8008102780074
:1006200003d0fe003200be000100e0000c003200ea
:100630000470a70000f0a00032037800c733de008a
:10064000848343004220af008703e800a7018800ad
:10065000f607b2007f30e1000400320020002000e5
:100660003400f9003200f900000006008100e900c2
:100670000500e00003003a00018009003210030089
:10068000e8ff37000180090032900300d561ae0019
:10069000e4ff370030002000f1ff3700364104004e
:1006a00000000000ac46040000000000ae4604005c
:1006b00000000000b046040000000000b246040044
:1006c00000000000b446040000000000aa46040038
:1006d000000000008a450400000000007c43040084
:1006e000000000005e430400000000009040040091
:1006f00000000000ce430400000000000841040098
:1007000000000000de43040000000000b6460400c4
:10071000000000001e41040000000000264104000b
:10072000000000007a450400000000001c460400a0
:10073000000000008242040000000000104104009c
:100740000000000018410400000000006a45040099
:10075000000000009840040000000000f640040083
:10076000000000002e410400000000003841040099
:100770000000000040410400000000004841040067
:100780000000000050410400000000005841040037
:100790000000000060410400000000006841040007
:1007a000000000005c55040000000000f25404004a
:1007b000000000001a550400000000003e5504002f
:1007c00000000000425504000000000036550400ff
:1007d0000000000054550400000000005e550400b5
:1007e0000000000046550400000000004a550400c7
:1007f000000000004e55040000000000d24c040030
:10080000000000008c48040000000000f2480400d2
:1008100000000000c446040000000000fc46040084
:100820000000000034470400000000006c47040092
:1008300000000000a247040000000000da470400a6
:100840000000000012480400000000004a480400b4
:100850000000000054490400000000005e4904004c
:1008600000000000604e040000000000664e04001e
:1008700000000000ca4e040000000000c84e040042
:1008800000000000684e0400000000006c4e0400f0
:1008900000000000724e040000000000764e0400cc
:1008a000000000007c4e040000000000804e0400a8
:1008b00000000000844e0400000000008e4e040082
:1008c00000000000d44e040000000000084e0400a8
:1008d000000000000c4e040000000000104e040058
:1008e00000000000144e040000000000964e0400ba
:1008f00000000000ae4e040000000000184e04008e
:10090000000000001e4e040000000000244e040001
:10091000000000002a4e040000000000c64e040043
:1009200000000000f24e040000000000304e040001
:1009300000000000464e0400000000007055040056
:10094000000000008a550400000000009e550400cd
:1009500000000000a255040000000000b255040091
:1009600000000000d455040000000000c65504003b
:1009700000000000dc55040000000000e655040003
:10098000000000006c54040000000000ce51040080
:1009900000000000725104000000000096510400a5
:1009a00000000000b851040000000000bc51040029
:1009b000000000000852040000000000d0510400b4
:1009c00000000000ec51040000000000c0510400d1
:1009d00000000000c6510400000000001a5204008c
:1009e0000000000096520400000000003a5204008b
:1009f000000000005e52040000000000805204006d
:100a0000000000008452040000000000d0520400e6
:100a1000000000009852040000000000b4520400de
:100a20000000000088520400000000008e52040004
:100a300000000000e252040000000000fa5604002a
:100a400000000000c656040000000000d656040056
:100a500000000000e056040000000000e45604001e
:100a600000000000e856040000000000ba56040030
:100a700000000000c056040000000000ec56040016
:100a800000000000f256040000000000fc560400c4
:100a9000000000003600f800809fbe00829fbe006c
:100aa000849fbe00869fbe00ddc5ab0007003a00f4
:100ab0000328a9004f03be004f02be004f01be0035
:100ac0004f00be003600f900004006002081800083
:100ad0000000e0000100320000000100ddc5a900b7
:100ae0000328a9004f03be004f02be004f01be0005
:100af0004f00be003600f900004006003600f80046
:100b0000809fbe00829fbe00849fbe00869fbe0065
:100b1000218280000100e000020032000000eb00b2
:100b2000010001000088a9004f03be004f02be0073
:100b30004f01be004f00be003600f9000040060025
:100b40003600f800809fbe00829fbe00849fbe00da
:100b5000869fbe00808180000000e000010032001e
:100b60000000010005a8a9004f03be004f02be000f
:100b70004f01be004f00be003600f90000400600e5
:100b80003600f800809fbe00829fbe00849fbe009a
:100b9000869fbe00c068a900200020001a29070017
:100ba0004f03be004f02be004f01be004f00be000b
:100bb0003600f900004006003600f800809fbe00b5
:100bc000829fbe00849fbe00869fbe00c608a9000b
:100bd000700020000c2907004f03be004f02be002a
:100be0004f01be004f00be003600f9000040060075
:100bf0003600f800809fbe00829fbe00849fbe002a
:100c0000869fbe00c488ab000b003a00c4c8ab008e
:100c100025003a00c4a8ab001d003a00c508ab008f
:100c200015003a00c528ab000d003a00c408ab001f
:100c300007003a00ffff3700c488a900a000200089
:100c4000f1280700c4c8ab00f2ff320016003700dd
:100c5000c408a900b0002000eb280700f5ff37000a
:100c6000c528a900d0002000e7280700c408ab0071
:100c7000f0ff3200f6ff3700c508a900c0002000d1
:100c8000e1280700c528ab00e8ff3200f4ff370079
:100c9000c4a8a90090002000db280700c508ab000d
:100ca000e0ff3200f4ff3700c4c8a900e0002000d4
:100cb000d5280700c4a8ab00d8ff3200f4ff3700e6
:100cc0003600f800809fbe00829fbe00849fbe0059
:100cd000869fbe00c028a9000000eb00ca280700bc
:100ce0004f03be004f02be004f01be004f00be00ca
:100cf0003600f900004006003600f800809fbe0074
:100d0000829fbe00849fbe00869fbe00c088a9004f
:100d100030002000bc2807004f03be004f02be0079
:100d20004f01be004f00be003600f9000040060033
:100d30003600f800809fbe00829fbe00849fbe00e8
:100d4000869fbe00a027210080077800202921006f
:100d500000018800c048a90010002000aa28070050
:100d60004f03be004f02be004f01be004f00be0049
:100d70003600f900004006000040da000000fe00e6
:100d80000000050050052000b00e8800a00a2000d9
:100d9000b00e8800d3e1a800000006005005200036
:100da000b00e8800a00a2000b00e8800d3e1a90090
:100db000000006008001e90002814000828f50009f
:100dc00001003a0000000600b1697800fbff37001f
:020000040000fa
:100dd000000700000e0900001c1b00001215000097
:100de000383f000036310000242300002a2d000087
:100df000707700007e7900006c6b00006265000077
:100e0000484f000046410000545300005a5d000066
:100e1000e0e70000eee90000fcfb0000f2f5000056
:100e2000d8df0000d6d10000c4c30000cacd000046
:100e3000909700009e9900008c8b00008285000036
:100e4000a8af0000a6a10000b4b30000babd000026
:100e5000c7c00000c9ce0000dbdc0000d5d2000016
:100e6000fff80000f1f60000e3e40000edea000006
:100e7000b7b00000b9be0000abac0000a5a20000f6
:100e80008f88000081860000939400009d9a0000e6
:100e900027200000292e00003b3c000035320000d6
:100ea0001f18000011160000030400000d0a0000c6
:100eb00057500000595e00004b4c000045420000b6
:100ec0006f68000061660000737400007d7a0000a6
:100ed000898e000087800000959200009b9c000096
:100ee000b1b60000bfb80000adaa0000a3a4000086
:100ef000f9fe0000f7f00000e5e20000ebec000076
:100f0000c1c60000cfc80000ddda0000d3d4000065
:100f1000696e000067600000757200007b7c000055
:100f2000515600005f5800004d4a00004344000045
:100f3000191e000017100000050200000b0c000035
:100f4000212600002f2800003d3a00003334000025
:100f50004e49000040470000525500005c5b000015
:100f600076710000787f00006a6d00006463000005
:100f70003e39000030370000222500002c2b0000f5
:100f800006010000080f00001a1d000014130000e5
:100f9000aea90000a0a70000b2b50000bcbb0000d5
:100fa00096910000989f00008a8d000084830000c5
:100fb000ded90000d0d70000c2c50000cccb0000b5
:100fc000e6e10000e8ef0000fafd0000f4f30000a5
:100fd000000000000200000001000000604e000060
:100fe000664e0000ca4e0000c84e0000684e000069
:100ff0006c4e0000724e0000764e00007c4e0000e9
:10100000804e0000844e00008e4e0000d44e000042
:10101000084e00000c4e0000104e0000144e000060
:10102000964e0000ae4e0000184e00001e4e00000e
:10103000244e00002a4e0000c64e0000f24e000072
:10104000304e0000464e000000000000000000008e
:101050000000000000000000000000000000000090
:101060000000000000010000020300000405000071
:1010700006070000080c00001014000018200000f3
:10108000304000008a4500007c4300005e430000c1
:1010900090400000ce43000008410000de43000005
:1010a000b64600001e410000264100007a450000bf
:1010b0001c46000082420000104100001841000060
:1010c0006a45000098400000f64000002e410000f4
:1010d00038410000404100004841000050410000fc
:1010e0005841000060410000684100008c48000049
:1010f000f2480000c4460000fc46000034470000ef
:101100006c470000a2470000da47000012480000c8
:101110004a480000544900005e490000f2540000b3
:101120001a5500003e55000042550000365500009b
:10113000545500005e5500009e8800004655000092
:101140004a5500004e5500007251000096510000b3
:10115000b8510000bc51000008520000d0510000fe
:10116000ec510000c0510000c65100001a520000ae
:101170003a5200005e52000080520000845200008b
:10118000d052000098520000b45200008852000073
:101190008e520000e2520000c6560000d6560000f3
:1011a000e0560000e4560000e8560000ba56000081
:1011b000c0560000ec560000f2560000fc5600003d
:1011c000705500008a5500009e550000a255000091
:1011d000b2550000d4550000c6550000dc55000093
:0411e000e6550000d0
:020000040000fa
:1011e80000000000c80000001f000000000204000a
:1011f800000000001e0800009e070000ba0700005b
:10120800560800003a0800009a080000d6070000b7
:101218009a0800009a0800009a0800009a0800003e
:101228009a0800009a0800009a0800009a0800002e
:101238009a0800009a0800009a0800009a0800001e
:101248009a0800009a0800009a0800009a0800000e
:101258009a0800009a0800009a0800009a080000fe
:101268009a0800009a0800009a0800009a080000ee
:101278009a0800009a0800009a0800009a080000de
:101288009a0800009a0800009a0800009a080000ce
:101298009a0800009a0800009a0800009a080000be
:1012a8009a0800009a0800009a0800009a080000ae
:1012b8009a0800009a0800009a0800009a0800009e
:1012c8009a0800009a0800007a0800009a080000ae
:1012d8009a0800009a0800009a0800009a0800007e
:1012e8009a0800009a0800009a0800009a0800006e
:1012f8009a0800009a0800009a0800009a0800005e
:101308009a0800009a0800009a0800009a0800004d
:101318009a0800009a0800009a0800009a0800003d
:101328009a0800009a0800009a0800009a0800002d
:101338009a0800009a0800009a0800009a0800001d
:101348009a0800009a0800009a0800009a0800000d
:101358009a0800009a0800009a0800009a080000fd
:101368009a0800009a0800009a0800009a080000ed
:101378009a0800009a0800009a0800003206000047
:10138800fe040000c80500009a0800009a08000042
:101398009a0800009a0800009a0800009a080000bd
:1013a8009a0800009a080000ce0600009a0800007b
:1013b8009a0800009a0800009a0800000207000036
:1013c8009a0800009a0800009a0800009a0800008d
:1013d8009a0800009a0800009a0800009a0800007d
:1013e8009a0800009a0800009a0800009a0800006d
:1013f8009a0800009a0800009a0800009a0800005d
:101408009a0800009a0800009a0800009a0800004c
:101418009a0800009a0800009a0800009a0800003c
:101428009a0800009a0800009a0800009a0800002c
:101438009a0800009a0800009a0800009a0800001c
:101448009a0800009a0800009a0800009a0800000c
:101458009a0800009a0800009a0800009a080000fc
:101468009a0800009a0800009a0800009a080000ec
:101478009a0800009a0800009a0800009a080000dc
:101488009a0800009a0800009a0800009a080000cc
:101498009a0800009a0800009a0800009a080000bc
:1014a8009a0800009a0800009a0800009a080000ac
:1014b8009a0800009a0800009a0800009a0800009c
:1014c8009a0800009a0800009a0800009a0800008c
:1014d8009a0800009a0800009a0800009a0800007c
:1014e8009a0800009a0800009a0800009a0800006c
:1014f8009a0800009a0800009a0800009a0800005c
:101508009a0800009a0800009a08000000020000eb
:10151800000200001f0000008f2321002efd240080
:101528000e01880000000000000020000000e0001c
:101538000200320000012000200288001400070089
:10154800440307000000e00003003a00600e220098
:1015580001002000020037000000200001002000e8
:10156800810f7000010032000f000700000020000a
:101578000000e0000200320000000200000000004d
:101588004e250200000000000040da000000fe00c6
:10159800201320000000e00002003200002020009c
:1015a8009001880000000600a102880080047800ed
:1015b8000000eb001f003700e284440054a0b40090
:1015c8009905ba00e284440054a0b4009906ba0010
:1015d800e284440054a0b4000006eb00476fde002c
:1015e800fd07b200ae018800636ce10003003a0019
:1015f8000ad801000000eb000e003700606ce10023
:1016080008003a00004deb000a05e8000200390026
:101618003420ec000af0a0008b05e900f9ff3e0039
:10162800040037006168e100010032000086eb0029
:101638000b00070019c7ba001905ba000e04e0002c
:1016480003003a000a00e000dbff3a000000060051
:10165800fe07b200ae0288008a047800f5ff370062
:101668000cd0a300e20f4d001c003b00890278005b
:10167800354dba000a05e800020039003420ec00b4
:101688000af0a0008b05e9000f003200254dba00d2
:101698000a05e800020039003420ec000af0a00036
:1016a8008b05e900080032000c00e000060032005b
:1016b80015cdba000a05e800020039003420ec0014
:1016c8000af0a0008b05e9008984e80054a0b40062
:1016d8000b00e000e2ff3a00000006009902ba00a1
:1016e800055d78008b05e900f7ff3200c82ade00a7
:1016f800055d78008b05e900f3ff32000c00e0007f
:10170800f1ff320019ddba00eeff370000000000db
:1017180000000000000000000000000000000000c1
:1017280000000000000000000000000000000000b1
:1017380000000000000000000000000000000000a1
:101748000000000000000000000000000000000091
:101b1800000000003600f800809fbe00829fbe00d3
:101b2800849fbe00869fbe003200f8003400f80093
:101b380010002000a00188000020200000d0fe0036
:101b48005baea80023aea800f000200050200a00d9
:101b5800080b0000090ba80061608000a18b8800b9
:101b6800a08b8000218c80000100500000f0a700ad
:101b78000000ea00b08b880023aea900b18b80007a
:101b8800203a2000808f500003003400b08280008b
:101b9800e60f500039003e00006180007084880024
:101ba80071848000a0dd2000808f500027003c0059
:101bb80051618000518688006107210010002000d3
:101bc800850c07000004e0000e003a00a000200089
:101bd80050200a00080b00005f0507000b68a900e9
:101be8005baea9003400f9003200f9004f03be00d3
:101bf8004f02be004f01be004f00be003600f90084
:101c080000400600a10f0700a008210011c0b30082
:101c180010c87000a000200050200a00080b000027
:101c28004d0507000b68a9005baea9003400f90058
:101c38003200f9004f03be004f02be004f01be0044
:101c48004f00be003600f9000040060036d0a8005c
:101c58003610a9003630a800a30c07005161800097
:101c68005186880061072100100020005a0c0700e7
:101c78000004e000d5ff3200e2ff37003670a8000c
:101c88003610a9003630a800970c070000618000c4
:101c98007084880071848000a0dd2000808f50004f
:101ca800c3ff3400e9ff37003600f800809fbe000c
:101cb800829fbe00849fbe00869fbe003200f8004f
:101cc8003400f80010002000a00188000020200047
:101cd80000d0fe005baea8007060800050898800cc
:101ce80050898000d18980000100500000f0a700d1
:101cf8000000ea006089880061898000203a20009d
:101d0800808f500003003400b0828000e60f50003e
:101d18000b003e004f07070000060000000200000d
:101d28001f0000000b88a9005baea9003400f90071
:101d38003200f9004f03be004f02be004f01be0043
:101d48004f00be003600f900004006003690a8009b
:101d58003610a9003630a800660c070040070700b7
:101d68000b88a9005baea9003400f9003200f90025
:101d78004f03be004f02be004f01be004f00be0021
:101d88003600f900004006003600f800809fbe00cb
:101d9800829fbe00849fbe00869fbe003200f8006e
:101da8003400f80010002000a00188000020200066
:101db80000d0fe00a08280000000e0000100320098
:101dc800000001000ca8ab0033003a000d48ab003e
:101dd80027003a000b68ab001b003a000b88ab00e9
:101de80009003a000b48a9003400f9003200f90054
:101df8004f03be004f02be004f01be004f00be00a1
:101e08003600f90000400600716080009282800070
:101e18000200e00002003200300020000200010051
:101e28000b88a9000b48a9003400f9003200f9001a
:101e38004f03be004f02be004f01be004f00be0060
:101e48003600f90000400600616080009282800040
:101e58000200e00002003200200020000200010021
:101e68000b68a9000b88ab00deff3200e6ff3700e5
:101e780051618000928280000200e000020032007e
:101e880010002000020001000d48a9000b68ab00fb
:101e9800d2ff3200ecff370001618000928280009f
:101ea8000200e000020032000000eb000200010026
:101eb8000ca8a9000d48ab00c6ff3200ecff3700a4
:101ec8003600f800809fbe00829fbe00849fbe003f
:101ed800869fbe003200f8003400f8001000200091
:101ee800a00188000020200000d0fe0001618000d1
:101ef800928280000200e000020032000000eb0045
:101f0800020001000ca8a9003400f9003200f90011
:101f18004f03be004f02be004f01be004f00be007f
:101f28003600f900004006003600f800809fbe0029
:101f3800829fbe00849fbe00869fbe003200f800cc
:101f48003400f80010002000a001880000202000c4
:101f580000d0fe0051618000928280000200e00003
:101f68000200320010002000020001000d48a90004
:101f78003400f9003200f9004f03be004f02be00e2
:101f88004f01be004f00be003600f90000400600b9
:101f98003600f800809fbe00829fbe00849fbe006e
:101fa800869fbe003200f8003400f80010002000c0
:101fb800a00188000020200000d0fe0061608000a1
:101fc800928280000200e00002003200200020001f
:101fd800020001000b68a9003400f9003200f90082
:101fe8004f03be004f02be004f01be004f00be00af
:101ff8003600f900004006003600f800809fbe0059
:10200800829fbe00849fbe00869fbe003200f800fb
:102018003400f80010002000a001880000202000f3
:1020280000d0fe0071608000928280000200e00013
:102038000200320030002000020001000b88a900d5
:102048003400f9003200f9004f03be004f02be0011
:102058004f01be004f00be003600f90000400600e8
:102068003600f800809fbe00829fbe00849fbe009d
:10207800869fbe00c068a90020002000ec0e070063
:102088004f03be004f02be004f01be004f00be000e
:102098003600f900004006003600f800809fbe00b8
:1020a800829fbe00849fbe00869fbe00c608a9000e
:1020b80070002000de0e07004f03be004f02be0076
:1020c8004f01be004f00be003600f9000040060078
:1020d8003600f800809fbe00829fbe00849fbe002d
:1020e800869fbe00c488ab0007003a00c4a8ab00b6
:1020f80015003a00c508ab000d003a00c408ab0053
:1021080007003a00ffff3700c488a900a00020009c
:10211800c70e0700c4a8ab00f6ff32000a0037005c
:10212800c408a900b0002000c10e0700f5ff370061
:10213800c508a900c0002000bd0e0700c408ab00f8
:10214800f0ff3200f6ff3700c4a8a9009000200075
:10215800b70e0700c508ab00e8ff3200f4ff3700f0
:102168003600f800809fbe00829fbe00849fbe009c
:10217800869fbe00c028a9000000eb00ac0e070037
:102188004f03be004f02be004f01be004f00be000d
:102198003600f900004006003600f800809fbe00b7
:1021a800829fbe00849fbe00869fbe00c088a90093
:1021b800300020009e0e07004f03be004f02be00f5
:1021c8004f01be004f00be003600f9000040060077
:1021d8003600f800809fbe00829fbe00849fbe002c
:1021e800869fbe00802121008007780000232100ff
:1021f80000018800c048a900100020008c0e0700cc
:102208004f03be004f02be004f01be004f00be008c
:102218003600f900004006003600f800809fbe0036
:10222800829fbe00849fbe00869fbe007081800092
:102238000000e000010032000000010005a8a9002c
:102248004f03be004f02be004f01be004f00be004c
:102258003600f900004006000040da000000fe00e9
:10226800000005006022b800060220000000d0002f
:102278008180d2000482d2008582d2000000a000b2
:102288000202520083825a00030031000202420017
:1022980083824a000000a1000603e900f3ff3a0028
:1022a80000000600420c00009c0b00001c0a000005
:1022b800160a0000220a0000260a00002a0a000066
:1022c8002e0a0000f60c0000400a0000520a000026
:1022d800680a00007a0a0000320d0000580d00005c
:1022e800900a0000a60a0000b80a0000ca0a000006
:1022f800dc0a0000ee0a0000000b0000120b0000d0
:10230800280b00007e0d0000d80d00008c0e000088
:10231800320e000000000000000000000000000075
:10232800000000000000000000000000040a000097
:10233800f20900000e100000660b0000780b000088
:102348003a0b00004c0b00008a0b0000f20e000054
:102358002e0f00006a0f0000a60f0000380c0000c6
:1023680000000000e20f0000000000000000000074
:102378000200000001000000e21d0000bc1e000079
:10238800e61d0000ea1d0000f01d0000f41d00001d
:10239800fa1d0000fe1d0000421e0000021e000083
:1023a8001a1e00009a1d0000a01d0000a61d0000b6
:1023b800ac1d0000601e0000401e0000b21d0000a1
:1023c800c81d000000000000000000000000000020
:1023d80000000000000000000000000000000000f5
:1023e80016170000d8150000a0140000a41400005f
:1023f800a8140000ac140000b0140000b2140000cf
:10240800d414000000150000261500002a1500004d
:102418002e15000032150000a8160000081800004c
:1024280080890000b216000012170000bc160000d8
:102438000000000038150000621500008c1500002f
:10244800ae1500001a1800009e16000000000000db
:10245800a61a0000d21a0000e41a0000fe1a0000b2
:10246800081b0000101b00001e1b00002c1b000096
:10247800301b00000000000000000000341b0000ba
:102488004c1b0000541b0000b21b0000ba1b0000cc
:10249800cc1b00002a1c00005c1b00000000000090
:1024a8000000000000000000000000000000000024
:1024b800000000000c22000032220000562200001a
:1024c8005a2200004e2200006c22000076220000f2
:1024d800d88900005e220000622200006622000007
:1024e8003c2400004a240000542400005824000022
:1024f8005c24000030240000362400006024000022
:102508006624000070240000e10f5000050032002e
:10251800e20f500002003a0061e3a8000000060044
:1025280000000600000a0000000200001f00000072
:102538002be3a80000000600e10f50000500320060
:10254800e20f500002003a0061e3a9000000060013
:10255800000006002be3a900000006002be3a800fa
:1025680061e3a800000006002be3a90061e3a900cd
:102578000000060050188800000006004018880077
:10258800000006003018880000000600e10f500027
:1025980005003200e20f500002003a00411c88009a
:1025a8000000060000000600911a880000000600de
:1025b800e10f500005003200e20f500002003a001f
:1025c800211c88000000060000000600711a88001f
:1025d80000000600e10f500006003200e20f500034
:1025e80003003a00dd210a00620300000000060033
:1025f80000000600dd210a002c0300000000060090
:10260800e10f500005003200e20f500002003a00ce
:10261800111c88000000060000000600611a8800ee
:1026280000000600e10f500006003200e20f5000e3
:1026380003003a00ba210a00660300000000060001
:1026480000000600ba210a0030030000000006005e
:10265800e10f500006003200e20f500003003a007c
:10266800baa00a006603000000000600000005008a
:10267800baa00a003003000000000600e10f500075
:1026880005003200e20f500002003a0067a3a800dc
:10269800000006000000060031a3a80000000600a4
:1026a800e10f500005003200e20f500002003a002e
:1026b8006783a80000000600000006003183a80018
:1026c80000000600e10f500005003200e20f500044
:1026d80002003a0067a3a9000000060000000600f7
:1026e80031a3a90000000600e10f500005003200e8
:1026f800e20f500002003a006783a90000000600bc
:10270800000006003183a90000000600e10f500018
:1027180005003200e20f500002003a00811c8800d8
:102728000000060000000600d11a8800000006001c
:10273800e10f500005003200e20f500002003a009d
:10274800911c88000000060000000600e11a8800bd
:1027580000000600e10f500006003200e20f5000b2
:1027680003003a00811c8800911c880000000600c4
:1027780000000600d11a8800e11a8800000006004f
:10278800e10f500005003200e20f500002003a004d
:10279800511c88000000060000000600a11a8800ed
:1027a80000000600e10f500005003200e20f500063
:1027b80002003a006463a80000000600000006005a
:1027c8002e63a80000000600e10f50000700320049
:1027d800e20f500004003a00201b80004400de0095
:1027e80061406000000006000000050070198000cc
:1027f8004400de006140600000000600e10f500068
:1028080005003200e20f500002003a00611c880007
:102818000000060000000600b11a8800000006004b
:10282800e10f500005003200e20f500002003a00ac
:10283800711c88000000060000000600c11a88000c
:1028480000000600e10f500005003200e20f5000c2
:1028580002003a006ee3a80000000600000006002f
:1028680038e3a800000006002be3a90061e3a900f3
:102878002a23ef006023ef005e23ef003e23ef00e2
:102888003c23ef002c23ef004e23ef005023ef00f2
:102898005c23ef005a23ef003623ef003423ef00c8
:1028a8004223ef004023ef003a23ef003823ef00e4
:1028b8003223ef003023ef004a23ef004823ef00d4
:1028c8005223ef004c23ef004623ef004423ef0090
:1028d8002e23ef005423ef005623ef005823ef0078
:1028e8009423ef007423ef007223ef006223ef00bc
:1028f8008423ef008623ef009223ef009023ef005c
:102908006c23ef006a23ef007823ef007623ef00b3
:102918007023ef006e23ef006823ef006623ef00bb
:102928008023ef007e23ef008823ef008223ef004f
:102938007c23ef007a23ef006423ef008a23ef0063
:102948008c23ef008e23ef001023ef000e23ef00ff
:102958000223ef000423ef000c23ef001223ef0003
:102968001423ef001623ef001823ef001a23ef00bb
:102978001c23ef000823ef000a23ef000623ef00d3
:102988000023ef001e23ef002023ef002223ef0097
:102998002423ef002623ef002823ef000000060081
:1029a8000000e00001003200f0828800000006000c
:1029b800000006008008200050198800001b8800cd
:1029c8005e23ef003e23ef003c23ef0000002400cd
:1029d800601988004e23ef005023ef005c23ef00be
:1029e8005a23ef003623ef00b0102000a01988000a
:1029f8004223ef004023ef003a23ef003823ef0093
:102a0800c200200092198800012023008119880043
:102a18004a23ef004823ef0080c32900901a88005a
:102a28004c23ef004623ef004423ef002e23ef0052
:102a38005423ef005623ef005823ef009423ef00b0
:102a48007423ef007223ef0013002400131b880087
:102a58008423ef008623ef009223ef009023ef00fa
:102a68006c23ef0083102000531b88007823ef00ad
:102a78007623ef007023ef006e23ef00421b8800df
:102a8800311b88008023ef007e23ef00401c880064
:102a98008223ef007c23ef007a23ef006423ef000a
:102aa8008a23ef008c23ef008e23ef001023ef0022
:102ab8000e23ef000223ef000423ef000c23ef00a6
:102ac8001223ef001423ef001623ef001823ef0062
:102ad8001a23ef001c23ef000823ef00501888008a
:102ae8000623ef0030002000001888001e23ef00a6
:102af8002023ef002223ef002423ef002623ef00fa
:102b08002823ef0000c42000f08288009d0b0700f6
:102b18000004e000fdff320000000600e10f500055
:102b28000c003200e20f500009003a0020210a0090
:102b380060030000e28f50000f003200401b80004d
:102b480054400a0000000000401b880000000600f6
:102b58000000060020210a002a030000e28f50002e
:102b6800090032009019800054400a00000000005b
:102b780090198800000006001000200054200a0068
:102b8800680300000000060054200a003203000019
:102b980000000600e10f50000a003200e20f50006a
:102ba80007003a00aaa00a00660300008140d0008e
:102bb80080c07000ba210a00660300000000060009
:102bc80000000600aaa00a00300300008140d000df
:102bd80080c07000ba210a0030030000000006001f
:102be800e10f50000a003200e20f500007003a00df
:102bf800baa00a00660300006240600081407000cd
:102c0800ba210a0066030000000006000000060062
:102c1800baa00a00300300006240600081407000e2
:102c2800ba210a003003000000000600e10f50003e
:102c380011003200e20f50000a003a00e28f500003
:102c48001f003200e28f500007003600e38f50006b
:102c580019003200e48f50001c003a006d83a80070
:102c68000000060000000600e18f500016003a0040
:102c78006de3a80000000600e28f50001600320045
:102c8800e28f500006003600e38f50000800320043
:102c9800e48f50000f003a003783a80000000600b8
:102ca800e18f50000a003a0037e3a8000000060050
:102cb80037a3a800000006006da3a80000000600c6
:102cc8006dc3a80000000600000006000000060012
:102cd800000006000000060037c3a8000000060038
:102ce800e10f500011003200e20f50000a003a00d4
:102cf800e28f50001f003200e28f500007003600bc
:102d0800e38f500019003200e48f50001c003a0095
:102d18006d83a9000000060000000600e18f500046
:102d280016003a006de3a90000000600e28f50008b
:102d3800000e0000000200001f0000001600320014
:102d4800e28f500006003600e38f50000800320082
:102d5800e48f50000f003a003783a90000000600f6
:102d6800e18f50000a003a0037e3a900000006008e
:102d780037a3a900000006006da3a9000000060003
:102d88006dc3a90000000600000006000000060050
:102d9800000006000000060037c3a9000000060076
:102da800e10f500011003200e20f50000a003a0013
:102db800e28f50001f003200e28f500007003600fb
:102dc800e38f500019003200e48f50001c003a00d5
:102dd80065e3a9000000060000000600e18f50002e
:102de80016003a0065c3a90000000600e28f5000f3
:102df80016003200e28f500006003600e38f5000c4
:102e080008003200e48f50000f003a002fe3a900b9
:102e180000000600e18f50000a003a002fc3a90005
:102e2800000006002f83a900000006006583a900a2
:102e38000000060065a3a9000000060000000600c7
:102e48000000060000000600000006002fa3a900ed
:102e580000000600e10f500014003200e20f50009d
:102e68000c003a00e28f500027003200e28f500039
:102e780009003600e38f500020003200e48f500034
:102e880004003a00201b8000ff800a0000000000b8
:102e98000000060000000500e18f5000fdff3a0029
:102ea800eea00a006403000000000600e28f500054
:102eb80018003200e28f500008003600e38f5000ff
:102ec8000b003200e48f5000f2ff3a0070198000c6
:102ed800ff800a000000000000000600e18f50009b
:102ee800ecff3a00eea00a002e03000000000600e6
:102ef800cca00a002e03000000000600cca00a00a7
:102f08006403000000000600dda00a00640300005e
:102f180000000600dda00a002e03000000000600e5
:102f2800e10f50000a003200e20f500007003a009b
:102f3800e28f500010003200e38f5000140032007e
:102f4800e18f50000a003200000006000000060071
:102f5800e28f50000a003200e38f50000a0032006e
:102f6800e18f5000f8ff3a003503a8000000060082
:102f78006b03a800000006006b23a80000000600f1
:102f88003523a800000006003543a800000006000d
:102f98006b43a80000000600e10f50000a00320051
:102fa800e20f500007003a00e28f50001000320094
:102fb800e38f500014003200e18f50000a00320005
:102fc8000000060000000600e28f50000a003200f0
:102fd800e38f50000a003200e18f5000f8ff3a00fa
:102fe8003503a900000006006b03a90000000600d5
:102ff8006b23a900000006003523a9000000060085
:103008003543a900000006006b43a9000000060034
:10301800e10f50000a003200e20f500007003a00aa
:10302800e28f500010003200e38f5000140032008d
:10303800e18f50000a003200000006000000060080
:10304800e28f50000a003200e38f50000a0032007d
:10305800e18f5000f8ff3a0036a3a80000000600f0
:103068006ca3a800000006006cc3a80000000600be
:1030780036c3a8000000060036e3a80000000600da
:103088006ce3a80000000600e10f50000a003200bf
:10309800e20f500007003a00e28f500010003200a3
:1030a800e38f500014003200e18f50000a00320014
:1030b8000000060000000600e28f50000a003200ff
:1030c800e38f50000a003200e18f5000f8ff3a0009
:1030d80036a3a900000006006ca3a90000000600a2
:1030e8006cc3a9000000060036c3a9000000060052
:1030f80036e3a900000006006ce3a9000000060002
:10310800e10f500006003200e20f500003003a00c1
:103118000888ab000a003a0000000600000006001c
:103128000868ab00fcff3200f18280000100e0007b
:1031380001003200010001000868a9000000060033
:10314800f18280000100e00001003200010001006e
:103158000888a90000000600e10f500005003200b1
:10316800e20f500002003a00511c880000000600df
:1031780000000600a11a880000000600889fbe0013
:103188008a1f7800691a210033800a00190000009c
:10319800cc200a003e0e0000c08c80000000d10048
:1031a80070648800e08480000000e800e084880003
:1031b800108c80000000e800108c8800c089800016
:1031c8000000e800c0898800708480005281800077
:1031d800638180004f82de000203400083034a00bf
:1031e8005681880067818800b28b80006111b90020
:1031f80030818000418180000000410081804900c9
:103208003081880041818800a8182100228180002f
:103218001858a300020032001868a30010013200f9
:103228000200e0001d003200e2848000e10f51003e
:103238001a003600b184800001858800e28480008d
:103248000201e9000500090042bbd800b0848800eb
:103258002a30ef002c30ef002430ef000000eb00a4
:10326800e0848800ba828000e10f55001401320022
:10327800ea0f55001a00320055800a0018000000b5
:1032880066000a00180000001928a3004a003a0046
:103298004f0578004f04be0000000600e38480005c
:1032a80002f42100828f5100eeff3600b1848000c5
:1032b80001858800e28480000201e9000500090018
:1032c80042bbd800b08488002a30ef002c30ef00d1
:1032d8002430ef000000eb00e0848800e1ff3700b5
:1032e80010818000e10f5000e2003600108c800051
:1032f800e10f5000df003600148c8000328180001e
:10330800438180000402e900050009004499d800bf
:10331800e08b88002630ef002830ef001c30ef00eb
:103328001e30ef002230ef000000eb00108c880008
:1033380055800a001800000066000a001800000006
:10334800b284800000868000800f51000d00360096
:10335800800c210022c0b3001048710013c0b300d4
:1033680010c8710031a3a8003183a80067a3a80082
:103378006783a8009da3a8009d83a8005a2ea900d2
:103388005a0ea9007284800020868000800f5100a8
:10339800bdff31007284800030868000800f5100ac
:1033a800b9ff3600800c21001014a1001004a10000
:1033b8001928a300b6ff32001938a3001b013a00f0
:1033c800190078004400de006140600011820a00a4
:1033d80018000000824f5000040032001850a0006e
:1033e800d08c80000000e800d08c88001828a3004a
:1033f80051003200ea0f55001401320018a8a3004a
:1034080012013a001858a300130032001808a3004c
:1034180011003a001938a3000f003a001800a00064
:103428000000eb00608c88001948a3006a01320094
:103438001898a30007003a00408680000000d100d9
:103448000008a30003003a0031c3a8003183a90093
:1034580031a3a8001850a1001808a30012003200d8
:10346800608c80000000e800608c8800d2818000b9
:10347800820f50004b0139001800a100e001200024
:10348800608c8800208d80000008a30006003a00a8
:103498001948a3005b013200e80f5500020036000e
:1034a8005a2ea9005a0ea8001808a30022003a00b4
:1034b8001938a30020003a00ea0f55000200320034
:1034c80018a8a3001c003200f1858000800c2000a1
:1034d800808f500018003600b08b8000e103200078
:1034e800810f50004c013600808c80000000e800fd
:1034f800808c8800808c8000e60f50000300360026
:1035080060002000808c88001870a000808c8000eb
:103518000000e00003003a0010002000808c8800c2
:103528001870a1001878a300420132001948a300be
:103538004701320031a3a900e08480000012000096
:10354800000200001f0000000000e00005003a0033
:10355800208d80000008a3000d013200800c20009f
:10356800f08588001938a30039003a00418b8000a3
:10357800f08580000180b900a08c8800b18c88009b
:10358800a08c8000b18c8000c10add004f00de00f5
:1035980000807200cf08de00c08c8800b08b8000ed
:1035a8004400dd00c08b8800208d80000008a30047
:1035b800cd0032001898a30010003a00b1848000b2
:1035c800008b8000808f50000c003600b084800093
:1035d800028b800051188000020050000102b800e0
:1035e800b28480000500090042aad800718c8000ce
:1035f8004200de0001004000708c8800b08280002c
:10360800e50f5000de003200718c8000f06320006e
:10361800808f500002003e000000eb00708c880094
:10362800718c800000602900808f500001003600f6
:10363800708c8800708c80000000d100a01a88006f
:103648001808a30002003a00728c8000721a8800e1
:1036580044800a001900000011000a001800000048
:103668004f0578004f04be00000006000201e80084
:10367800228188002230ec002030ec00ebfe37007d
:10368800128c800000fa2000800f51002bff3600ba
:10369800148c800032818000438180000402e9009c
:1036a800050009004499d800e08b88002630ef0017
:1036b8002830ef001c30ef001e30ef002230ef0002
:1036c8000000eb00108c88001cff3700a28b8000e4
:1036d800e4808000f58080004f93de000401410003
:1036e80085014b00e2808800f380880054898000bf
:1036f8006122b900c0808000d180800000004200b3
:1037080081804a00c0808800d180880010818000b4
:10371800e10f500037003600108c8000e10f500098
:1037280034003600148c80000402e900050009000a
:103738004499d800208c88002630ef002830ef000c
:103748001c30ef001e30ef002230ef000000eb00cd
:10375800108c880000818000e10f500014003600b2
:10376800c0898000e10f500011003600c489800034
:10377800c2808000d38080000402e90005000900af
:103788004499d800d08988001830ef001a30ef002b
:103798002030ef000000eb00c089880055800a0047
:1037a8001800000066000a0018000000b9fe370083
:1037b800c289800000fa2000800f5100b1fe360057
:1037c800c4898000c2808000d38080000402e900a0
:1037d800050009004499d800d08988001830ef0006
:1037e8001a30ef002030ef000000eb00c08988009d
:1037f800eaff3700148c800000fa2000800f520086
:10380800d4ff3600148c80000402e900050009008a
:103818004499d800208c88002630ef002830ef002b
:103828001c30ef001e30ef002230ef000000eb00ec
:10383800108c8800c7ff370031a3a8003183a80087
:103848005a2ea9005a0ea9004e23ef00100020009e
:10385800808c8800ddfe3700f2858000500920004a
:10386800800f510003003e001898a30001003a00a1
:103878001880a0001888a300120032001858a3006e
:103888001000320011800a00180000000004e00057
:103898000c0032001890a0001880a100401a2100e6
:1038a80014c0b300104872000000eb00d08c8800f0
:1038b800f08c880031a3a8003183a8005a2ea900f3
:1038c8005a0ea900d08c8000e10f5000d0fe3600bf
:1038d8001890a100401a21001004a1000000eb007c
:1038e800d08c8800cafe37003790ab003400320015
:1038f800f0858000a11e25000100b800410bdd0005
:103908004f00de0000007300cf08de00f14f2600f4
:1039180000805000c0818800328b80006124200024
:10392800810f51000a003e00f085800001ae27009b
:103938000100b800c10bdd004f00de0000807300fd
:10394800cf08de00a183250000805000c0818800d8
:10395800c1cc2000810f500002003e00d0cc2000d6
:10396800c0818800708e8800c28c8000e318210016
:1039780081172100c01b2100740707000dff3700c5
:10398800501880004200de00708c88001eff37004f
:10399800d2858000e30b210061092100401e21002f
:1039a8002d0707001938a30029ff3a00effe37005a
:1039b800608c80004a00dd00701a8800bdfe370068
:1039c800c0cc2000c0818800708e8800c28c800026
:1039d800e318210081172100c01b21005b070700a5
:1039e800f4fe37001898a3009dfe3a004086800038
:1039f8000000d1000008a30099fe3a0031c3a900d5
:103a080031a3a9003183a8001850a10095fe370002
:103a1800e80f5500a7fe36005a0ea9005a2ea80036
:103a2800a4fe3700d1032000810f5000b4fe3e00f1
:103a3800808c80000000e900808c8800b0fe370090
:103a48001948a3000a00320031a3a800e0848000ce
:103a58000000e000c3fe3a00bdfe37003183a90034
:103a6800e08480000000e000befe3a00b8fe3700a7
:103a78003183a800e08480000000e000b9fe3a002d
:103a8800b3fe37000000060001eba80000000600a6
:103a980001eba9000000060008cba8000000060002
:103aa80008cba9000000060000000600e10f500046
:103ab800090032000000e0000b003200e20f500065
:103ac80007003200e30f500002003a0070608000e7
:103ad800000006000000050050618000000006009c
:103ae80060608000000006000061800000000600a1
:103af800e10f50000a0032000000e0000f00320021
:103b0800e20f50000a003200e30f500003003a00b1
:103b180011a00a00300b000000000600000005009c
:103b280080598000ff800a000000000000000600a5
:103b3800805980006140600000000600aaa00a00c9
:103b4800300b000000000600634060004801dd0003
:103b5800f1cf2f00b45e8000848160008301710082
:103b6800b35e8800d35e80008380600081007100ae
:103b7800d15e88004500dd0021b02000914078002a
:103b8800f2c9b30082c0600000c0700002ebb70049
:103b9800000006002b48a800000006002b48a900da
:103ba800000006000b48a90000000600a8200a0033
:103bb8006c08000000000600e10f50000a00320007
:103bc8000000e0000e003200e20f50000900320051
:103bd800e30f500003003a002b88a800202ba80010
:103be80000000600000006002d48a80021eba800f0
:103bf800000006002b68a800200ba80000000600a3
:103c08002ca8a800214ba80000000600e10f5000d6
:103c18000a0032000000e0000e003200e20f5000ff
:103c280009003200e30f500003003a002b88a90076
:103c3800202ba90000000600000006002d48a9005e
:103c480021eba900000006002b68a900200ba900a1
:103c5800000006002ca8a900214ba90000000600be
:103c6800e10f5000090032000000e0000b003200b4
:103c7800e20f500007003200e30f500002003a0044
:103c88000b88a90000000600000006000d48a900e6
:103c9800000006000b68a900000006000ca8a90097
:103ca80000000600e10f50000a0032000000e000aa
:103cb8000e003200e20f500009003200e30f5000fe
:103cc80003003a0020210a006e08000000000600e8
:103cd80000000600a8210a00740800000000060081
:103ce800ec210a006c0800000000060064210a00ac
:103cf800720800000000060001eba9006060800067
:103d08000b68a9002b68a900706080000b88a900c7
:103d18002b88a9000b48a9002b48a900002bef000d
:103d28000006200010588800042bef00062bef0037
:103d3800082bef000a2bef000c2bef000e2bef00e7
:103d4800102bef00122bef000016000000020000fd
:103d58001f000000142bef00202bef00222bef0098
:103d6800302bef00322bef00382bef00402bef0009
:103d7800482bef00502bef003a2bef00422bef00bf
:103d88004a2bef00522bef003c2bef00442bef00a7
:103d98004c2bef00542bef003e2bef00462bef008f
:103da8004e2bef00562bef00682bef006c2bef002b
:103db800702bef00742bef006a2bef006e2bef00d7
:103dc800722bef00762bef00802bef00822bef0099
:103dd800842bef00862bef00882bef008a2bef0057
:103de8008c2bef008e2bef00902bef00922bef0027
:103df800942bef00a02bef00a42bef00a82bef00d3
:103e0800ac2bef00d02bef00d22bef00d42bef0020
:103e1800d82bef0000302000b05e8800d05e88000c
:103e2800f02bef00f22bef00f82bef00fa2bef004e
:103e3800002cef00022cef000c2cef000e2cef00f2
:103e4800102cef00122cef00142cef00162cef00b2
:103e5800182cef001a2cef001c2cef001e2cef0082
:103e6800202cef00222cef00242cef00262cef0052
:103e7800282cef002a2cef002c2cef002e2cef0022
:103e8800302cef00322cef00342cef00000006003d
:103e980000eca800000ce200feff3d000aeba800c1
:103ea800000006000000e00001003200a082880047
:103eb80000000600000006000000e00001003200db
:103ec800908288000000060000000600e10f500004
:103ed800210032000000e00017003200e20f50001d
:103ee8000d003200e30f50000a003a0011a10a0049
:103ef800300b00000104e000050032007160800012
:103f0800928280000200e0000100320002000100fd
:103f18000000060000000600300bab00fcff32007a
:103f280061608000928280000200e000f8ff3200a9
:103f380002000100f6ff3700314bab00f4ff3200fe
:103f480001618000928280000200e000f0ff3200f0
:103f58000000eb0002040100300be200ecff3d0022
:103f680051618000928280000200e000e8ff320088
:103f780002000100e6ff370000000600000006000e
:103f8800002bef000006200010588800042bef00db
:103f9800062bef00082bef000a2bef003000200063
:103fa800605888000e2bef00102bef00122bef004b
:103fb800142bef0000598800222bef00302bef0064
:103fc800322bef00382bef00402bef00482bef008f
:103fd800502bef003a2bef00422bef004a2bef005b
:103fe800522bef003c2bef00442bef004c2bef0043
:103ff800542bef003e2bef00462bef004e2bef002b
:10400800562bef00682bef006c2bef00702bef00a6
:10401800742bef0000402000505b8800705b880024
:10402800905b8800b05b8800a02bef00a42bef000a
:10403800a82bef00ac2bef00d02bef00d22bef001a
:10404800d42bef00d82bef0000302000b05e8800a2
:10405800d05e8800f02bef00f22bef00f82bef007a
:10406800fa2bef00022cef000c2cef000e2cef00c7
:10407800102cef00122cef00142cef00162cef0080
:10408800182cef001a2cef001c2cef001e2cef0050
:10409800202cef00222cef00242cef00262cef0020
:1040a800282cef002a2cef002c2cef002e2cef00f0
:1040b800302cef00322cef00342cef00006b210085
:1040c800a0828800a06b2100908288000b48a9007c
:1040d8002b48a8000b68a9002b68a8000b88a9002a
:1040e8002b88a80010608000b8400a00000f00006c
:1040f8001060880001eba800000ca800010cab00c0
:10410800feff32000a0ba800002ca800012cab000f
:10411800feff32000a2ba80000eca800000ce20009
:10412800feff3d000aeba80040602000005c88000c
:10413800822bef00842bef00862bef00882bef00fb
:1041480040002000505c88008c2bef0000102000fd
:10415800705c8800902bef00922bef00942bef00ff
:10416800000006000b48ab0001003a000000060002
:10417800a08280000000e000010032000000010081
:104188000b48a900000006000000e000080032000b
:10419800e10f500005003a00002ca800012cab00ec
:1041a800feff32000a2ba8000000060000000600ef
:1041b800000ca800010cab00feff32000a0ba8009f
:1041c800000006001a020700fae1ab000200320004
:1041d800fa01ab0044003a00b18280000100780087
:1041e800f2ff2f00f3ff2f0002814000e081490019
:1041f800ea0f5100e08f590005003600e40f500027
:104208002e003e0000808800b08288000000060072
:10421800020601008d0037003e00370054003700c9
:104228006a00370096003700a2003700aa0037005e
:1042380003003700710037003a00370035003700b7
:10424800a1808000420121000109e9000100e0008d
:10425800b5003a00a11821001128a300b2003200cd
:10426800c3e8a900000000000000000010002000c2
:10427800808c88001170a100308a88000014210009
:104288001070a100c01b210027050700001d210098
:1042980025050700401e210023050700b084800083
:1042a800d0858800c3e8a8000000000000000000d6
:1042b8009000200030808800b0828800318d800016
:1042c8000128a300cfff3a005bcea9001503070021
:1042d800b0002000008088003610a9003630a80001
:1042e800b0828800000006001a020700b182800030
:1042f80001007800f2ff2f00f3ff2f000281400039
:10430800e0814900ea0f5100e08f5900bbff3e00f1
:10431800bfff370000000000e40f5000b9ff36006f
:10432800e6ff37003610ab00be003200e2858000a1
:10433800d1858000f4804000810f510094003e0038
:10434800e2858000d1858000f4805000810f510003
:104358008f003900a100200011808800b1828800f8
:10436800318d80000128a300a6ff3a00d6ff370050
:104378003610ab00820032003610a8003650a90073
:104388003670a9003690a90036b0a9003630a900c9
:1043980036d0a900601a21001044a100a0182100fd
:1043a8001010a100c01521001044a1000014210024
:1043b8001010a10000712200b08088004000200089
:1043c80070808800008088008fff3700b1808000ef
:1043d800620121000109e9000100e00064003a00df
:1043e8006000200060808800b0828800318d8000e5
:1043f8000128a30083ff3a00b3ff37003610ab0053
:10440800730032009100200021808800b18288006a
:1044180072848000d18580006109b100810f51004c
:10442800a6ff360072848000d18580006109b00043
:10443800810f5100a1ff3100ce020700b082880031
:10444800e40f50006fff36009cff3700318d80006d
:104458000128a30042003200908080002101210041
:104468008008e9000000e0007d00320080808000c4
:10447800b0828800e40f500062ff36008fff3700db
:104488003610ab0071003200b284800041b12000c8
:10449800810f5100470036006000200050808800de
:1044a800b0828800318d80000128a30055ff3a00b2
:1044b80085ff37005bcea800800c2000b080880004
:1044c80070002000b0828800318d80000128a30090
:1044d8004cff3a007cff3700b18080006201210068
:1044e8000109e9000100e00016003a00a1182100c6
:1044f8001128a30013003a001120a0000014210085
:104508001020a00010002000a0808800800020005b
:1045180040808800b0828800318d80000128a30087
:1045280038ff3a0068ff370081002000318088009a
:10453800b1828800318d80000128a30031ff3a0044
:1045480061ff37007100200041808800b182880037
:10455800318d8000001a0000000200001f000000da
:104568000128a3002aff3a005aff37001100200053
:10457800818088000080880026ff370041002000e5
:10458800618088000080880022ff37003100200009
:1045980071808800008088001eff3700a018210065
:1045a80010a0a0009000200010808800b082880031
:1045b800318d80000128a30015ff3a0045ff370020
:1045c8005100200051808800b1828800318d800020
:1045d8000128a3000eff3a003eff3700a018210073
:1045e8001020a100001421001020a1005002070093
:1045f8005bcea9003000200020808800b0828800af
:1046080072848000d18580006109b100828f5000da
:10461800fffe310072848000d18580006109b000fe
:10462800810f510087ff390000808800f9fe3700ac
:10463800a01821001020a100001421001020a100c2
:104648003b0207005bcea9003000200010808800e4
:1046580000808800effe3700350207003000200098
:104668005080880000808800eafe3700218c800096
:10467800407e2000808f500008003c00218c800084
:1046880050812000808f500004003400200020005a
:104698008080880000808800defe3700300020001f
:1046a8008080880000808800dafe3700000820003b
:1046b800c01188003a22ef003c22ef0020022000bf
:1046c800f0118800800d2000001288004222ef00bf
:1046d8004c22ef004e22ef005022ef005222ef0052
:1046e8005422ef005622ef005822ef005a22ef0022
:1046f8005c22ef0039e2a80038a2a8003882a8009e
:10470800000006003822ef003a22ef0000082000df
:10471800e0118800e0022000f01188004022ef003c
:104728004222ef000000060011a00a003e0200002d
:10473800e14f5000fcff320011a00a003c020000cb
:10474800e14f5000020032002012800000000600f5
:104758003c22a90020128000000006003e82ab0027
:10476800feff3a000080fb004012880000000600af
:1047780011a00a003e02000010c0b20000000600ae
:104788000040eb003e82ab0003003a00c0118000fd
:104798004500de0061406000000006000040eb00bc
:1047a8003ce2ab0003003200f01180004500de005f
:1047b800614060000000060038a2a8000000060062
:1047c80038a2a900000006005cc2a900614160008f
:1047d8004211dd00c1252000914078000124a1008c
:1047e80082c07000c22520000149780066200a00b6
:1047f8003802000000000600c01180004600de00fc
:104808006140600000000600e01280004200de0007
:1048180061406000000006006230ef000000eb001d
:104828003c62ab0022003a003cc2ab0019003a00df
:1048380011a10a003c020000e1cf50000f00320035
:104848003c02ab0007003a003ca2ab0001003a0072
:10485800000006000040a000108388003ca2a900c8
:10486800000006000030a000108388003c02a90068
:104878003ca2ab00f6ff3200f6ff37000020a00094
:10488800108388003c22a9003c02ab00eeff3200f6
:10489800f4ff37000010a0001083880011a10a005f
:1048a8003c020000e1cf5000e5ff3a00f3ff37007b
:1048b80010002000108388003cc2ab00dcff3200ef
:1048c800f4ff370000128800ef80600011128800a2
:1048d80000000600101280008000eb00c001dd001f
:1048e80002002000001280008000eb00020070002f
:1048f80083807000000006000002be00e005200072
:10490800800f5200e08f5a000a0036003b62a80070
:1049180038e2a9000401be0000102e00515f2000fb
:104928005ff60700001288006f8060001012880090
:10493800000006003b62a900f70f5200e08f5a0002
:104948000e00360038e2a8004229dd00ce21de0044
:10495800830171004221dd0000102e00515f20000c
:104968004ff6070061005000e080580000128800f0
:104978006f806000101288000000060038e2a9006d
:104988004429dd00cc21de00830171004421dd00d3
:1049980000102e00515f200041f607006100500012
:1049a800e0805800001288006f80600010128800b4
:1049b80000000600121280008001eb00c012dd002a
:1049c80004002000021280008001eb000401710045
:1049d800858171003b62ab000b003a006100410029
:1049e800e080490038e2ab000d003a004409dd00e0
:1049f800cc01de00830171004401dd0000102e00af
:104a0800515f200026f63700e00f5100e08f590073
:104a1800f2ff320000102e00515f200020f6370010
:104a28004209dd00ce01de00830171004201dd0094
:104a380000102e00515f200019f63700811f210059
:104a48000000eb00f60007000004e0001000320050
:104a5800821f210012007800c800de0053052000e4
:104a6800838f50000b00320001407800f30e2000c5
:104a7800838f500012003200c1cdb300814f500027
:104a88000c003200d1ccb300814f50002500320019
:104a9800000006000004e00014003a003610ab00e5
:104aa800020032003610a9003630a8000009eb00d9
:104ab80000000600d08f8000c0818800000006003a
:104ac800d08f8000e0858800e185800000fa200012
:104ad800808f500001003600e08588000000eb0060
:104ae80000097800d08f880000000600e14f5000d0
:104af8001200320001cab300814f50000c0032008e
:104b080011cab300814f50001200320001c6b30031
:104b1800814f5000e5ff3a005bcea8000009eb008a
:104b280000000600d08f8000d081880000000600b9
:104b38003790a9000009eb00000006003610ab0012
:104b4800daff3a003610a8003630a9000009eb0059
:104b5800000006003790a8000009eb0000000600de
:104b68004410ec002082880021032000810f5000af
:104b780001003e0000000600708c8000e00f8800f5
:104b8800408b8000e00f8800c0818000e00f880023
:104b980000932300e00f880000202300e00f880026
:104ba800c08c8000e00f8800e08b8000e00f880058
:104bb800f0858000e00f8800b18280008100e90064
:104bc800100020000100dd00e00f8800b0818000a7
:104bd800e00f8800d0858000e00f8800b084800056
:104be800e00f8800c000200001022000e00f8800cc
:104bf8000000e800810f5000fcff3a001082880096
:104c08004430ef0000000600708c8000e00f880040
:104c1800408b8000e00f8800c0818000e00f880092
:104c280000932300e00f880000202300e00f880095
:104c3800c08c8000e00f8800e08b8000e00f8800c7
:104c4800f0858000e00f8800b18280008100e900d3
:104c5800100020000100dd00e00f8800b081800016
:104c6800e00f8800d0858000e00f8800b0848000c5
:104c7800e00f8800c000200001022000e00f88003b
:104c88000000e800810f5000fcff3a001082880005
:104c98000000060099a00a00fa01000000000600c2
:104ca80088a00a00fa0100000000060011a00a000e
:104cb800fa01000000000600d00f8000614060008b
:104cc800000006000000e00006003200e10f50007e
:104cd80003003a0011a00a00d801000000000600f5
:104ce80000000500c00e8000614060000000060062
:104cf8000000e00007003200e10f500004003a0015
:104d080011a00a00d801000010c0b200000006007f
:104d180000000500c00e80006140600010c0b200b5
:104d280000000600d221ef0000000600d321a800f1
:104d38000000060088a00a00d40100000000060058
:104d4800d321a9000000060099a00a00d4010000a0
:104d580000000600d301a80000000600d301a90046
:104d6800001e0000000200001f00000000000600f6
:104d78000001eb000100e00007003200fb01ab007e
:104d880005003a00e31f2000131878000201e8002c
:104d9800828f5000f9ff3a000200780000000600f8
:104da8000100e0001000320011a20a00fa01000020
:104db8000204e0000001eb0009003a00b0017800ad
:104dc800e30f88000201e800828f500004003200df
:104dd80011a30a00fa0100000304e000f7ff320003
:104de8000200780000000600000005000000050031
:104df80040002000d401e20005003500dca10a00d3
:104e0800d401000030002000e2cf5000010036003d
:104e1800000006008180fb0081804000409228004d
:104e28008100400011007800000006000000e0004a
:104e38001e003200e10f50001b003a0011a20a00c8
:104e4800d80100000040eb000204e0001500320029
:104e5800401e200090087800300f800090009800d5
:104e6800400f8000a0009800500f8000b00098000c
:104e7800600f8000c0009800700f8000d00098007c
:104e8800800f8000e0009800900f8000f0009800ec
:104e9800a00f800080089800b00f8000900898004c
:104ea80010c0b30000000600000005000040eb0041
:104eb800d801ab00fbff3200a01d2000900878004d
:104ec800e00e800090009800f00e8000a00098008e
:104ed800000f8000b0009800100f8000c0009800fc
:104ee80010000500d221ef0000000600000120009c
:104ef800d0818800bf000700f10007005203d500e9
:104f0800c01a880000192000e01a8800d01a88000a
:104f18002be3a800901c8800801c880061e3a8008f
:104f28005a2ea9005a0ea9000000eb00d08588006f
:104f380080992100c08188000000060031a3a800e4
:104f48003183a80067a3a8006783a8005a2ea90088
:104f58005a0ea9000000eb00d0858800b0848800b4
:104f6800a11821001190a100411a21001104a100eb
:104f7800d08c8800011421001190a100a1152100f6
:104f88001104a100808a8800000006005a10ec0075
:104f9800d0828800fe0f50003c003600d18580008a
:104fa800e0858000808f5000d0858000e1858000fa
:104fb8000e003e0064004000810f500019003100cf
:104fc800d085800064004000e30f500015003600d3
:104fd800d085800064004000d0858800b0828000c1
:104fe800c08288005a30ef000000060064004000cc
:104ff800810f50000b003600d0858000640040000f
:10500800e30f500007003600d08580006400500090
:10501800d0858800b0828000c08288005a30ef00b6
:1050280000000600a0002000c0828800d285800011
:10503800d1858000c308de00828040000186880098
:10504800d1858000d28580004411de008280500026
:1050580011868800d2858000d1858000c508de00d1
:105068008280400021868800d1858000d28580001a
:105078004511de008280500031868800a118210089
:1050880011a0a1005a30ef0000000600b082800095
:10509800c0828800000006000000eb00e084880061
:1050a800b084880070848800808488009084880098
:1050b800c084880000858800f085880001c520002c
:1050c800e1858800d0858800608b8800308b880057
:1050d800f08a8800008b8800108b8800408b88003d
:1050e800908b8800108c8800e08b8800a08b88004b
:1050f800b08b8800c08b8800f08b8800a118210035
:105108001100a1001110a1001120a1001130a1006f
:105118001140a1001150a1001160a1001170a1005f
:105128001180a1001190a10011a0a100608c88003d
:10513800708c8800808c8800908c88006011b80082
:10514800a28c8800b38c8800c08c8800d08c880022
:10515800411a21001104a10010898800e088880004
:10516800a0888800b0888800c0888800f0888800f7
:1051780040898800c0898800908988005089880003
:105188006089880070898800a0898800011421003e
:105198001100a1001110a1001120a1001130a100df
:1051a8001140a1001150a1001160a1001170a100cf
:1051b8001180a1001190a10011a0a100108a8800ff
:1051c800208a8800308a8800408a8800528a8800ad
:1051d800638a8800708a8800808a8800a015210068
:1051e8001004a1003630ef003790a8003630a80030
:1051f80000000600e0042100e08d88000707210078
:10520800f78d880060ff2400008e8800a0ff24002e
:10521800108e8800a0042100808e8800a606210038
:10522800968e8800c0fe2400a08e880000ff24000f
:10523800b08e8800001b2100c51e21008000eb00f5
:1052480084262400d3ff2f00024729000108780094
:10525800240098001300980031009800420098003c
:1052680074004000850f5000f8ff3a00d47f2100f9
:1052780074828800836d200083828800c2ff270023
:10528800820b7800c14b200091838800004c2800d5
:10529800a08388005482880063828800020b78000b
:1052a80061838800708388004030ef003e30ef0053
:1052b800c01b210022010700001d2100200137002a
:1052c800401e2100610421000108780041062100e8
:1052d800318f880022fe2400428f880062fe24005d
:1052e800528f88000001eb00628f880003a425001c
:1052f800838f8800a3ff2f00738f8800928f880008
:1053080002d02700a28f8800420a2000328288003b
:105318002223200042828800c2ff270082087800ea
:10532800617b210031838800b17b2900418388009b
:105338003c30ef0002013700761000003201000017
:1053480080000000561000000200000082000000eb
:105358000100000036100000060000008000000078
:10536800f81100002000000080000000421000003a
:105378000400000080000000581000000200000037
:1053880082000000010000005a1000000200000026
:1053980080000000a81100005000000080000000fc
:1053a8003c100000060000008000000064100000af
:1053b8001200000080000000e24f00001e00000004
:1053c800800000004610000004000000800000007b
:1053d8004a10000004000000800000004e10000089
:1053e80004000000800000001810000016000000f3
:1053f800800000005210000004000000800000003f
:105408005c10000002000000800000005e10000038
:1054180002000000800000001812000020000000b8
:10542800800000002e10000008000000800000002e
:105438006010000002000000800000006210000000
:1054480002000000800000000010000018000000aa
:1054580082000000010001000001000001000100bd
:10546800000100000100010000010000204ec800fa
:1054780000204e000000000000000600c3e8a9005c
:105488000000000000000000d1010700c3e8a800e8
:1054980000000000000000006018220070818800f1
:1054a80025a8a8000000060000002800e0028800e7
:1054b80000000600000024000003880010c0b300ac
:1054c80034f0b700000006003470ef006800ab004d
:1054d800feff320080002000200388000000060044
:1054e8004003800061406000000006004103210085
:1054f800914078000140780000000600b003800069
:10550800a20380008000eb00c000dd000000200046
:105518008001eb000200700083807000000006002c
:10552800d0038000c20380008000eb00c000dd00d3
:10553800000020008001eb000200700083807000f2
:1055480000000600100e20006800b60000000600eb
:1055580070038000620380008000eb00c000dd0063
:10556800000020008001eb00020070000022000013
:10557800c60100001f0000008380700000000600c4
:105588000000e00001003200708188000000060081
:105598000004200000648800a0082000306488000f
:1055a80050052000206488008a2cef000020280085
:1055b80040648800d00c2000706488006064880013
:1055c800922cef00902cef00942cef004027220043
:1055d800e082880081eca8000000060081eca900a8
:1055e800802cef00a00820003064880050052000bf
:1055f800206488008a2cef00882cef008e2cef00a6
:105608008c2cef00922cef00902cef00942cef00e4
:1056180000000600406480004700de006140600032
:105628000000060081eca8000000060081eca9003b
:105638000000060089eca8000000060089eca9001b
:1056480000000600b0200a008e0c000000000600d2
:105658000000e00001003200e0828800000006003f
:105668000000060009c8ab0001003a00000006006f
:10567800e08280000000e00001003200000001002c
:1056880009c8a90000000600841f7800851f78005b
:10569800881f78008a1f78004400f800040a200058
:1056a8002402880030059000400490009a0290007f
:1056b800250598008a02900015059800910251006e
:1056c800882add00050d7800100490004604c30008
:1056d8004604c0000204c0001201c000000490008b
:1056e800200590004604c7000204c0001201c00053
:1056f8000400cd00e00290001301c000d002900029
:105708000500c8000400cd00f00290001520e60056
:1057180005027800800a900015a0e60005027800ce
:10572800faba9700050d780074bd9f0084097800c7
:105738004400f9004f0578004f047800cf02780044
:105748004f0278000080fe0000000600801f7800ed
:10575800200090000018eb000008eb004f007800d4
:10576800801f7800300090000018eb000018eb0054
:105778000008eb004f00780000000600841f780046
:10578800851f7800881f78008a1f78004400f80079
:10579800040a20002402880030059000400490008c
:1057a8009a029000250598008a0290001505980035
:1057b80091025100882add00050d78001004900040
:1057c8004604c3004604c0000204c0001201c00021
:1057d8000400cd00900a90001201c3001301c0001c
:1057e80000049000200590004604c7000204c00091
:1057f8001201c0000400cd00e00290001301c000b7
:10580800d00290000500c8000400cd0026e0af00db
:105818000002eb000401d100700390008602d10061
:105828001510e60006027800000b90008602d100f1
:105838001590e60006027800faba9700050d780080
:1058480074bd9f00840978004400f9004f05780072
