:020000040000fa
:080000000002040000000000f2
:020000040000fa
:04000800600600008e
:020000040000fa
:04000c00c00500002b
:020000040000fa
:04001000dc0500000b
:020000040000fa
:04001400980600004a
:020000040000fa
:040018007c06000062
:020000040000fa
:04001c00bc0600001e
:020000040000fa
:04002000f8050000df
:020000040000fa
:04002400bc06000016
:020000040000fa
:04002800bc06000012
:020000040000fa
:04002c00bc0600000e
:020000040000fa
:04003000bc0600000a
:020000040000fa
:04003400bc06000006
:020000040000fa
:040038007e05000041
:020000040000fa
:04003c00bc060000fe
:020000040000fa
:04004000bc060000fa
:020000040000fa
:04004400bc060000f6
:020000040000fa
:04004800bc060000f2
:020000040000fa
:04004c00bc060000ee
:020000040000fa
:04005000bc060000ea
:020000040000fa
:04005400bc060000e6
:020000040000fa
:04005800bc060000e2
:020000040000fa
:04005c00bc060000de
:020000040000fa
:04006000bc060000da
:020000040000fa
:04006400bc060000d6
:020000040000fa
:04006800bc060000d2
:020000040000fa
:04006c00bc060000ce
:020000040000fa
:04007000bc060000ca
:020000040000fa
:04007400bc060000c6
:020000040000fa
:04007800bc060000c2
:020000040000fa
:04007c00bc060000be
:020000040000fa
:04008000bc060000ba
:020000040000fa
:04008400bc060000b6
:020000040000fa
:04008800bc060000b2
:020000040000fa
:04008c004a05000021
:020000040000fa
:04009000bc060000aa
:020000040000fa
:04009400bc060000a6
:020000040000fa
:04009800bc060000a2
:020000040000fa
:04009c00bc0600009e
:020000040000fa
:0400a000bc0600009a
:020000040000fa
:0400a400bc06000096
:020000040000fa
:0400a800bc06000092
:020000040000fa
:0400ac00bc0600008e
:020000040000fa
:0400b000bc0600008a
:020000040000fa
:0400b400bc06000086
:020000040000fa
:0400b800bc06000082
:020000040000fa
:0400bc00bc0600007e
:020000040000fa
:0400c000bc0600007a
:020000040000fa
:0400c400bc06000076
:020000040000fa
:0400c800bc06000072
:020000040000fa
:0400cc00bc0600006e
:020000040000fa
:0400d000bc0600006a
:020000040000fa
:0400d400bc06000066
:020000040000fa
:0400d800bc06000062
:020000040000fa
:0400dc00a00500007b
:020000040000fa
:0400e000bc0600005a
:020000040000fa
:0400e400bc06000056
:020000040000fa
:0400e800bc06000052
:020000040000fa
:0400ec00bc0600004e
:020000040000fa
:0400f000bc0600004a
:020000040000fa
:0400f400bc06000046
:020000040000fa
:0400f800bc06000042
:020000040000fa
:0400fc00bc0600003e
:020000040000fa
:04010000bc06000039
:020000040000fa
:04010400bc06000035
:020000040000fa
:04010800bc06000031
:020000040000fa
:04010c00bc0600002d
:020000040000fa
:04011000bc06000029
:020000040000fa
:04011400bc06000025
:020000040000fa
:04011800bc06000021
:020000040000fa
:04011c00bc0600001d
:020000040000fa
:04012000bc06000019
:020000040000fa
:04012400bc06000015
:020000040000fa
:04012800bc06000011
:020000040000fa
:04012c00bc0600000d
:020000040000fa
:04013000bc06000009
:020000040000fa
:04013400bc06000005
:020000040000fa
:04013800bc06000001
:020000040000fa
:04013c00bc060000fd
:020000040000fa
:04014000bc060000f9
:020000040000fa
:04014400bc060000f5
:020000040000fa
:04014800bc060000f1
:020000040000fa
:04014c00bc060000ed
:020000040000fa
:04015000bc060000e9
:020000040000fa
:04015400bc060000e5
:020000040000fa
:04015800bc060000e1
:020000040000fa
:04015c00bc060000dd
:020000040000fa
:04016000bc060000d9
:020000040000fa
:04016400bc060000d5
:020000040000fa
:04016800bc060000d1
:020000040000fa
:04016c00bc060000cd
:020000040000fa
:04017000bc060000c9
:020000040000fa
:04017400bc060000c5
:020000040000fa
:04017800bc060000c1
:020000040000fa
:04017c00bc060000bd
:020000040000fa
:04018000bc060000b9
:020000040000fa
:04018400bc060000b5
:020000040000fa
:04018800bc060000b1
:020000040000fa
:04018c00bc060000ad
:020000040000fa
:04019000bc060000a9
:020000040000fa
:04019400bc060000a5
:020000040000fa
:04019800bc060000a1
:020000040000fa
:04019c00bc0600009d
:020000040000fa
:0401a000bc06000099
:020000040000fa
:0401a400bc06000095
:020000040000fa
:0401a800bc06000091
:020000040000fa
:0401ac00bc0600008d
:020000040000fa
:0401b000bc06000089
:020000040000fa
:0401b400bc06000085
:020000040000fa
:0401b800bc06000081
:020000040000fa
:0401bc00bc0600007d
:020000040000fa
:0401c000bc06000079
:020000040000fa
:0401c400bc06000075
:020000040000fa
:0401c800bc06000071
:020000040000fa
:0401cc00bc0600006d
:020000040000fa
:0401d000bc06000069
:020000040000fa
:0401d400bc06000065
:020000040000fa
:0401d800bc06000061
:020000040000fa
:0401dc00bc0600005d
:020000040000fa
:0401e000bc06000059
:020000040000fa
:0401e400bc06000055
:020000040000fa
:0401e800bc06000051
:020000040000fa
:0401ec00bc0600004d
:020000040000fa
:0401f000bc06000049
:020000040000fa
:0401f400bc06000045
:020000040000fa
:0401f800bc06000041
:020000040000fa
:0401fc00bc0600003d
:020000040000fa
:04020000bc06000038
:020000040000fa
:04020400bc06000034
:020000040000fa
:04020800bc06000030
:020000040000fa
:04020c00bc0600002c
:020000040000fa
:04021000bc06000028
:020000040000fa
:04021400bc06000024
:020000040000fa
:04021800bc06000020
:020000040000fa
:04021c00bc0600001c
:020000040000fa
:04022000bc06000018
:020000040000fa
:04022400bc06000014
:020000040000fa
:04022800bc06000010
:020000040000fa
:04022c00bc0600000c
:020000040000fa
:04023000bc06000008
:020000040000fa
:04023400bc06000004
:020000040000fa
:04023800bc06000000
:020000040000fa
:04023c00bc060000fc
:020000040000fa
:04024000bc060000f8
:020000040000fa
:04024400bc060000f4
:020000040000fa
:04024800bc060000f0
:020000040000fa
:04024c00bc060000ec
:020000040000fa
:04025000bc060000e8
:020000040000fa
:04025400bc060000e4
:020000040000fa
:04025800bc060000e0
:020000040000fa
:04025c00bc060000dc
:020000040000fa
:04026000bc060000d8
:020000040000fa
:04026400bc060000d4
:020000040000fa
:04026800bc060000d0
:020000040000fa
:04026c00bc060000cc
:020000040000fa
:04027000bc060000c8
:020000040000fa
:04027400bc060000c4
:020000040000fa
:04027800bc060000c0
:020000040000fa
:04027c00bc060000bc
:020000040000fa
:04028000bc060000b8
:020000040000fa
:04028400bc060000b4
:020000040000fa
:04028800bc060000b0
:020000040000fa
:04028c00bc060000ac
:020000040000fa
:04029000bc060000a8
:020000040000fa
:04029400bc060000a4
:020000040000fa
:04029800bc060000a0
:020000040000fa
:04029c00bc0600009c
:020000040000fa
:0402a000bc06000098
:020000040000fa
:0402a400bc06000094
:020000040000fa
:0402a800bc06000090
:020000040000fa
:0402ac00bc0600008c
:020000040000fa
:0402b000bc06000088
:020000040000fa
:0402b400bc06000084
:020000040000fa
:0402b800bc06000080
:020000040000fa
:0402bc00bc0600007c
:020000040000fa
:0402c000bc06000078
:020000040000fa
:0402c400bc06000074
:020000040000fa
:0402c800bc06000070
:020000040000fa
:0402cc00bc0600006c
:020000040000fa
:0402d000bc06000068
:020000040000fa
:0402d400bc06000064
:020000040000fa
:0402d800bc06000060
:020000040000fa
:0402dc00bc0600005c
:020000040000fa
:0402e000bc06000058
:020000040000fa
:0402e400bc06000054
:020000040000fa
:0402e800bc06000050
:020000040000fa
:0402ec00bc0600004c
:020000040000fa
:0402f000bc06000048
:020000040000fa
:0402f400bc06000044
:020000040000fa
:0402f800bc06000040
:020000040000fa
:0402fc00bc0600003c
:020000040000fa
:04030000bc06000037
:020000040000fa
:04030400bc06000033
:020000040000fa
:04030800bc0600002f
:020000040000fa
:04030c00bc0600002b
:020000040000fa
:04031000bc06000027
:020000040000fa
:04031400bc06000023
:020000040000fa
:04031800bc0600001f
:020000040000fa
:04031c00bc0600001b
:020000040000fa
:04032000bc06000017
:020000040000fa
:10040000ef8021000eff27000e0188000000200071
:100410000000e000020032000001200020028800fd
:1004200014000700560207000000e00003003a0035
:10043000e028250001002000020037000000200015
:1004400001002000810f70004220ae000f00070065
:10045000000020000000e0004220ae00000002008a
:100460000000000044560200000000000040da00d6
:100470000000fe00a02020000000e000020032008a
:10048000002020009001880000000600a1028800e2
:10049000800478000000eb001f003700e284440075
:1004a00054a0b4009905ba00e284440054a0b400fa
:1004b0009906ba00e284440054a0b4000006eb00a0
:1004c000476fde00fd07b200ae018800636ce100fb
:1004d00003003a000ad801000000eb000e003700cc
:1004e000606ce10008003a00004deb000a05e800ee
:1004f000020039003420ec000af0a0008b05e9006e
:10050000f9ff3e00040037006168e100010032009d
:100510000086eb000b00070019c7ba001905ba00e6
:100520000e04e00003003a000a00e000dbff3a009e
:1005300000000600fe07b200ae0288008a047800c0
:10054000f5ff37000cd0a300e20f4d001c003b006c
:1005500089027800354dba000a05e800020039002a
:100560003420ec000af0a0008b05e9000f003200f7
:10057000254dba000a05e800020039003420ec00dd
:100580000af0a0008b05e900080032000c00e00032
:100590000600320015cdba000a05e8000200390055
:1005a0003420ec000af0a0008b05e9008984e80003
:1005b00054a0b4000b00e000e2ff3a000000060087
:1005c0009902ba00055d78008b05e900f7ff32005b
:1005d000c82ade00055d78008b05e900f3ff3200d4
:1005e0000c00e000f1ff320019ddba00eeff370029
:1005f00004082000010037000002eb000100e000c9
:100600004220ae00d561a9006100e1000100320086
:10061000100005003200f8003400f8008102780074
:1006200003d0fe003200be000100e0000c003200ea
:100630000470a70000f0a00032037800c733de008a
:10064000848343004220af008703e800a7018800ad
:10065000f607b2007f30e1000400320020002000e5
:100660003400f9003200f900000006008100e900c2
:100670000500e00003003a00018009003210030089
:10068000e8ff37000180090032900300d561ae0019
:10069000e4ff370030002000f1ff3700064004007f
:1006a000000000007c450400000000007e450400be
:1006b00000000000804504000000000082450400a6
:1006c0000000000084450400000000007a4504009a
:1006d000000000005a440400000000004c420400e6
:1006e000000000002e42040000000000603f0400f3
:1006f000000000009e42040000000000d83f0400fb
:1007000000000000ae420400000000008645040026
:1007100000000000ee3f040000000000f63f04006f
:10072000000000004a44040000000000ec44040003
:10073000000000005241040000000000e03f0400ff
:1007400000000000e83f0400000000003a440400fc
:1007500000000000683f040000000000c63f0400e5
:1007600000000000fe3f04000000000008400400fc
:1007700000000000104004000000000018400400c9
:100780000000000020400400000000002840040099
:100790000000000030400400000000003840040069
:1007a000000000002c54040000000000c2530400ac
:1007b00000000000ea530400000000000e54040092
:1007c0000000000012540400000000000654040061
:1007d0000000000024540400000000002e54040017
:1007e0000000000016540400000000001a54040029
:1007f000000000001e54040000000000a24b040092
:10080000000000005c47040000000000c247040034
:10081000000000009445040000000000cc450400e6
:100820000000000004460400000000003c460400f4
:10083000000000007246040000000000aa46040008
:1008400000000000e2460400000000001a47040017
:100850000000000024480400000000002e480400ae
:1008600000000000304d040000000000364d040080
:10087000000000009a4d040000000000984d0400a4
:1008800000000000384d0400000000003c4d040052
:1008900000000000424d040000000000464d04002e
:1008a000000000004c4d040000000000504d04000a
:1008b00000000000544d0400000000005e4d0400e4
:1008c00000000000a44d040000000000d84c04000b
:1008d00000000000dc4c040000000000e04c0400bc
:1008e00000000000e44c040000000000664d04001d
:1008f000000000007e4d040000000000e84c0400f1
:1009000000000000ee4c040000000000f44c040065
:1009100000000000fa4c040000000000964d0400a6
:1009200000000000c24d040000000000004d040063
:1009300000000000164d04000000000040540400b8
:10094000000000005a540400000000006e5404002f
:1009500000000000725404000000000082540400f3
:1009600000000000a454040000000000965404009d
:1009700000000000ac54040000000000b654040065
:10098000000000003c530400000000009e500400e2
:100990000000000042500400000000006650040007
:1009a0000000000088500400000000008c5004008b
:1009b00000000000d850040000000000a050040017
:1009c00000000000bc500400000000009050040033
:1009d000000000009650040000000000ea500400ef
:1009e0000000000066510400000000000a510400ed
:1009f000000000002e5104000000000050510400cf
:100a0000000000005451040000000000a051040048
:100a10000000000068510400000000008451040040
:100a20000000000058510400000000005e51040066
:100a300000000000b251040000000000ca5504008c
:100a4000000000009655040000000000a6550400b8
:100a500000000000b055040000000000b455040080
:100a600000000000b8550400000000008a55040092
:100a7000000000009055040000000000bc55040078
:100a800000000000c255040000000000cc55040026
:100a9000000000003600f800809fbe00829fbe006c
:100aa000849fbe00869fbe00ddc5ab0007003a00f4
:100ab0000328a9004f03be004f02be004f01be0035
:100ac0004f00be003600f900004006002081800083
:100ad0000000e0000100320000000100ddc5a900b7
:100ae0000328a9004f03be004f02be004f01be0005
:100af0004f00be003600f900004006003600f80046
:100b0000809fbe00829fbe00849fbe00869fbe0065
:100b1000218280000100e000020032000000eb00b2
:100b2000010001000088a9004f03be004f02be0073
:100b30004f01be004f00be003600f9000040060025
:100b40003600f800809fbe00829fbe00849fbe00da
:100b5000869fbe00808180000000e000010032001e
:100b60000000010005a8a9004f03be004f02be000f
:100b70004f01be004f00be003600f90000400600e5
:100b80003600f800809fbe00829fbe00849fbe009a
:100b9000869fbe00c068a9002000200082280700b0
:100ba0004f03be004f02be004f01be004f00be000b
:100bb0003600f900004006003600f800809fbe00b5
:100bc000829fbe00849fbe00869fbe00c608a9000b
:100bd00070002000742807004f03be004f02be00c3
:100be0004f01be004f00be003600f9000040060075
:100bf0003600f800809fbe00829fbe00849fbe002a
:100c0000869fbe00c488ab000b003a00c4c8ab008e
:100c100025003a00c4a8ab001d003a00c508ab008f
:100c200015003a00c528ab000d003a00c408ab001f
:100c300007003a00ffff3700c488a900a000200089
:100c400059280700c4c8ab00f2ff32001600370075
:100c5000c408a900b000200053280700f5ff3700a2
:100c6000c528a900d00020004f280700c408ab0009
:100c7000f0ff3200f6ff3700c508a900c0002000d1
:100c800049280700c528ab00e8ff3200f4ff370011
:100c9000c4a8a9009000200043280700c508ab00a5
:100ca000e0ff3200f4ff3700c4c8a900e0002000d4
:100cb0003d280700c4a8ab00d8ff3200f4ff37007e
:100cc0003600f800809fbe00829fbe00849fbe0059
:100cd000869fbe00c028a9000000eb003228070054
:100ce0004f03be004f02be004f01be004f00be00ca
:100cf0003600f900004006003600f800809fbe0074
:100d0000829fbe00849fbe00869fbe00c088a9004f
:100d100030002000242807004f03be004f02be0011
:100d20004f01be004f00be003600f9000040060033
:100d30003600f800809fbe00829fbe00849fbe00e8
:100d4000869fbe00a027210080077800202921006f
:100d500000018800c048a9001000200012280700e8
:100d60004f03be004f02be004f01be004f00be0049
:100d70003600f900004006000040da000000fe00e6
:100d80000000050050052000b00e8800a00a2000d9
:100d9000b00e8800d3e1a800000006005005200036
:100da000b00e8800a00a2000b00e8800d3e1a90090
:100db000000006008001e90002814000828f50009f
:100dc00001003a0000000600b1697800fbff37001f
:020000040000fa
:100dd000000700000e0900001c1b00001215000097
:100de000383f000036310000242300002a2d000087
:100df000707700007e7900006c6b00006265000077
:100e0000484f000046410000545300005a5d000066
:100e1000e0e70000eee90000fcfb0000f2f5000056
:100e2000d8df0000d6d10000c4c30000cacd000046
:100e3000909700009e9900008c8b00008285000036
:100e4000a8af0000a6a10000b4b30000babd000026
:100e5000c7c00000c9ce0000dbdc0000d5d2000016
:100e6000fff80000f1f60000e3e40000edea000006
:100e7000b7b00000b9be0000abac0000a5a20000f6
:100e80008f88000081860000939400009d9a0000e6
:100e900027200000292e00003b3c000035320000d6
:100ea0001f18000011160000030400000d0a0000c6
:100eb00057500000595e00004b4c000045420000b6
:100ec0006f68000061660000737400007d7a0000a6
:100ed000898e000087800000959200009b9c000096
:100ee000b1b60000bfb80000adaa0000a3a4000086
:100ef000f9fe0000f7f00000e5e20000ebec000076
:100f0000c1c60000cfc80000ddda0000d3d4000065
:100f1000696e000067600000757200007b7c000055
:100f2000515600005f5800004d4a00004344000045
:100f3000191e000017100000050200000b0c000035
:100f4000212600002f2800003d3a00003334000025
:100f50004e49000040470000525500005c5b000015
:100f600076710000787f00006a6d00006463000005
:100f70003e39000030370000222500002c2b0000f5
:100f800006010000080f00001a1d000014130000e5
:100f9000aea90000a0a70000b2b50000bcbb0000d5
:100fa00096910000989f00008a8d000084830000c5
:100fb000ded90000d0d70000c2c50000cccb0000b5
:100fc000e6e10000e8ef0000fafd0000f4f30000a5
:100fd000000000000200000001000000304d000091
:100fe000364d00009a4d0000984d0000384d00002d
:100ff0003c4d0000424d0000464d00004c4d0000ad
:10100000504d0000544d00005e4d0000a44d000006
:10101000d84c0000dc4c0000e04c0000e44c000028
:10102000664d00007e4d0000e84c0000ee4c0000d4
:10103000f44c0000fa4c0000964d0000c24d000038
:10104000004d0000164d00000000000000000000f0
:101050000000000000000000000000000000000090
:101060000000000000010000020300000405000071
:1010700006070000080c00001014000018200000f3
:10108000304000005a4400004c4200002e42000054
:10109000603f00009e420000d83f0000ae420000ca
:1010a00086450000ee3f0000f63f00004a44000085
:1010b000ec44000052410000e03f0000e83f000027
:1010c0003a440000683f0000c63f0000fe3f0000b9
:1010d00008400000104000001840000020400000c0
:1010e0002840000030400000384000005c4700000d
:1010f000c247000094450000cc45000004460000b3
:101100003c46000072460000aa460000e24600008d
:101110001a470000244800002e480000c253000077
:10112000ea5300000e540000125400000654000060
:10113000245400002e5400009e8800001654000025
:101140001a5400001e540000425000006650000077
:10115000885000008c500000d8500000a0500000c3
:10116000bc5000009050000096500000ea50000073
:101170000a5100002e51000050510000545100004f
:10118000a051000068510000845100005851000037
:101190005e510000b251000096550000a6550000b7
:1011a000b0550000b4550000b85500008a55000045
:1011b00090550000bc550000c2550000cc55000001
:1011c000405400005a5400006e5400007254000055
:1011d00082540000a454000096540000ac54000057
:0411e000b654000001
:020000040000fa
:1011e80000000000c80000001f000000000204000a
:1011f800000000001e0800009e070000ba0700005b
:10120800560800003a0800009a080000d6070000b7
:101218009a0800009a0800009a0800009a0800003e
:101228009a0800009a0800009a0800009a0800002e
:101238009a0800009a0800009a0800009a0800001e
:101248009a0800009a0800009a0800009a0800000e
:101258009a0800009a0800009a0800009a080000fe
:101268009a0800009a0800009a0800009a080000ee
:101278009a0800009a0800009a0800009a080000de
:101288009a0800009a0800009a0800009a080000ce
:101298009a0800009a0800009a0800009a080000be
:1012a8009a0800009a0800009a0800009a080000ae
:1012b8009a0800009a0800009a0800009a0800009e
:1012c8009a0800009a0800007a0800009a080000ae
:1012d8009a0800009a0800009a0800009a0800007e
:1012e8009a0800009a0800009a0800009a0800006e
:1012f8009a0800009a0800009a0800009a0800005e
:101308009a0800009a0800009a0800009a0800004d
:101318009a0800009a0800009a0800009a0800003d
:101328009a0800009a0800009a0800009a0800002d
:101338009a0800009a0800009a0800009a0800001d
:101348009a0800009a0800009a0800009a0800000d
:101358009a0800009a0800009a0800009a080000fd
:101368009a0800009a0800009a0800009a080000ed
:101378009a0800009a0800009a0800003206000047
:10138800fe040000c80500009a0800009a08000042
:101398009a0800009a0800009a0800009a080000bd
:1013a8009a0800009a080000ce0600009a0800007b
:1013b8009a0800009a0800009a0800000207000036
:1013c8009a0800009a0800009a0800009a0800008d
:1013d8009a0800009a0800009a0800009a0800007d
:1013e8009a0800009a0800009a0800009a0800006d
:1013f8009a0800009a0800009a0800009a0800005d
:101408009a0800009a0800009a0800009a0800004c
:101418009a0800009a0800009a0800009a0800003c
:101428009a0800009a0800009a0800009a0800002c
:101438009a0800009a0800009a0800009a0800001c
:101448009a0800009a0800009a0800009a0800000c
:101458009a0800009a0800009a0800009a080000fc
:101468009a0800009a0800009a0800009a080000ec
:101478009a0800009a0800009a0800009a080000dc
:101488009a0800009a0800009a0800009a080000cc
:101498009a0800009a0800009a0800009a080000bc
:1014a8009a0800009a0800009a0800009a080000ac
:1014b8009a0800009a0800009a0800009a0800009c
:1014c8009a0800009a0800009a0800009a0800008c
:1014d8009a0800009a0800009a0800009a0800007c
:1014e8009a0800009a0800009a0800009a0800006c
:1014f8009a0800009a0800009a0800009a0800005c
:101508009a0800009a0800009a08000000020000eb
:10151800000200001f0000008f2321002efd240080
:101528000e01880000000000000020000000e0001c
:101538000200320000012000200288001400070089
:10154800440307000000e00003003a0060fb2100ac
:1015580001002000020037000000200001002000e8
:10156800810f7000010032000f000700000020000a
:101578000000e0000200320000000200000000004d
:101588001e240200000000000040da000000fe00f7
:10159800201320000000e00002003200002020009c
:1015a8009001880000000600a102880080047800ed
:1015b8000000eb001f003700e284440054a0b40090
:1015c8009905ba00e284440054a0b4009906ba0010
:1015d800e284440054a0b4000006eb00476fde002c
:1015e800fd07b200ae018800636ce10003003a0019
:1015f8000ad801000000eb000e003700606ce10023
:1016080008003a00004deb000a05e8000200390026
:101618003420ec000af0a0008b05e900f9ff3e0039
:10162800040037006168e100010032000086eb0029
:101638000b00070019c7ba001905ba000e04e0002c
:1016480003003a000a00e000dbff3a000000060051
:10165800fe07b200ae0288008a047800f5ff370062
:101668000cd0a300e20f4d001c003b00890278005b
:10167800354dba000a05e800020039003420ec00b4
:101688000af0a0008b05e9000f003200254dba00d2
:101698000a05e800020039003420ec000af0a00036
:1016a8008b05e900080032000c00e000060032005b
:1016b80015cdba000a05e800020039003420ec0014
:1016c8000af0a0008b05e9008984e80054a0b40062
:1016d8000b00e000e2ff3a00000006009902ba00a1
:1016e800055d78008b05e900f7ff3200c82ade00a7
:1016f800055d78008b05e900f3ff32000c00e0007f
:10170800f1ff320019ddba00eeff370000000000db
:1017180000000000000000000000000000000000c1
:1017280000000000000000000000000000000000b1
:1017380000000000000000000000000000000000a1
:101748000000000000000000000000000000000091
:101b1800000000003600f800809fbe00829fbe00d3
:101b2800849fbe00869fbe003200f8003400f80093
:101b380010002000a00188000020200000d0fe0036
:101b48005baea80023aea800f000200050200a00d9
:101b5800080b0000090ba80061608000a18b8800b9
:101b6800a08b8000218c80000100500000f0a700ad
:101b78000000ea00b08b880023aea900b18b80007a
:101b8800203a2000808f500003003400b08280008b
:101b9800e60f500039003e00006180007084880024
:101ba80071848000a0dd2000808f500027003c0059
:101bb80051618000518688006107210010002000d3
:101bc800ed0b07000004e0000e003a00a000200022
:101bd80050200a00080b00002b0707000b68a9001b
:101be8005baea9003400f9003200f9004f03be00d3
:101bf8004f02be004f01be004f00be003600f90084
:101c080000400600090f0700a008210011c0b3001a
:101c180010c87000a000200050200a00080b000027
:101c2800190707000b68a9005baea9003400f9008a
:101c38003200f9004f03be004f02be004f01be0044
:101c48004f00be003600f9000040060036d0a8005c
:101c58003610a9003630a8000b0c0700516180002f
:101c6800518688006107210010002000c20b070080
:101c78000004e000d5ff3200e2ff37003670a8000c
:101c88003610a9003630a800ff0b0700006180005d
:101c98007084880071848000a0dd2000808f50004f
:101ca800c3ff3400e9ff37003600f800809fbe000c
:101cb800829fbe00849fbe00869fbe003200f8004f
:101cc8003400f80010002000a00188000020200047
:101cd80000d0fe005baea8007060800050898800cc
:101ce80050898000d18980000100500000f0a700d1
:101cf8000000ea006089880061898000203a20009d
:101d0800808f500003003400b0828000e60f50003e
:101d18000b003e008b0807000006000000020000d0
:101d28001f0000000b88a9005baea9003400f90071
:101d38003200f9004f03be004f02be004f01be0043
:101d48004f00be003600f900004006003690a8009b
:101d58003610a9003630a800ce0b07007c08070013
:101d68000b88a9005baea9003400f9003200f90025
:101d78004f03be004f02be004f01be004f00be0021
:101d88003600f900004006003600f800809fbe00cb
:101d9800829fbe00849fbe00869fbe003200f8006e
:101da8003400f80010002000a00188000020200066
:101db80000d0fe00a08280000000e0000100320098
:101dc800000001000ca8ab0033003a000d48ab003e
:101dd80027003a000b68ab001b003a000b88ab00e9
:101de80009003a000b48a9003400f9003200f90054
:101df8004f03be004f02be004f01be004f00be00a1
:101e08003600f90000400600716080009282800070
:101e18000200e00002003200300020000200010051
:101e28000b88a9000b48a9003400f9003200f9001a
:101e38004f03be004f02be004f01be004f00be0060
:101e48003600f90000400600616080009282800040
:101e58000200e00002003200200020000200010021
:101e68000b68a9000b88ab00deff3200e6ff3700e5
:101e780051618000928280000200e000020032007e
:101e880010002000020001000d48a9000b68ab00fb
:101e9800d2ff3200ecff370001618000928280009f
:101ea8000200e000020032000000eb000200010026
:101eb8000ca8a9000d48ab00c6ff3200ecff3700a4
:101ec8003600f800809fbe00829fbe00849fbe003f
:101ed800869fbe003200f8003400f8001000200091
:101ee800a00188000020200000d0fe0001618000d1
:101ef800928280000200e000020032000000eb0045
:101f0800020001000ca8a9003400f9003200f90011
:101f18004f03be004f02be004f01be004f00be007f
:101f28003600f900004006003600f800809fbe0029
:101f3800829fbe00849fbe00869fbe003200f800cc
:101f48003400f80010002000a001880000202000c4
:101f580000d0fe0051618000928280000200e00003
:101f68000200320010002000020001000d48a90004
:101f78003400f9003200f9004f03be004f02be00e2
:101f88004f01be004f00be003600f90000400600b9
:101f98003600f800809fbe00829fbe00849fbe006e
:101fa800869fbe003200f8003400f80010002000c0
:101fb800a00188000020200000d0fe0061608000a1
:101fc800928280000200e00002003200200020001f
:101fd800020001000b68a9003400f9003200f90082
:101fe8004f03be004f02be004f01be004f00be00af
:101ff8003600f900004006003600f800809fbe0059
:10200800829fbe00849fbe00869fbe003200f800fb
:102018003400f80010002000a001880000202000f3
:1020280000d0fe0071608000928280000200e00013
:102038000200320030002000020001000b88a900d5
:102048003400f9003200f9004f03be004f02be0011
:102058004f01be004f00be003600f90000400600e8
:102068003600f800809fbe00829fbe00849fbe009d
:10207800869fbe00c068a90020002000540e0700fb
:102088004f03be004f02be004f01be004f00be000e
:102098003600f900004006003600f800809fbe00b8
:1020a800829fbe00849fbe00869fbe00c608a9000e
:1020b80070002000460e07004f03be004f02be000e
:1020c8004f01be004f00be003600f9000040060078
:1020d8003600f800809fbe00829fbe00849fbe002d
:1020e800869fbe00c488ab0007003a00c4a8ab00b6
:1020f80015003a00c508ab000d003a00c408ab0053
:1021080007003a00ffff3700c488a900a00020009c
:102118002f0e0700c4a8ab00f6ff32000a003700f4
:10212800c408a900b0002000290e0700f5ff3700f9
:10213800c508a900c0002000250e0700c408ab0090
:10214800f0ff3200f6ff3700c4a8a9009000200075
:102158001f0e0700c508ab00e8ff3200f4ff370088
:102168003600f800809fbe00829fbe00849fbe009c
:10217800869fbe00c028a9000000eb00140e0700cf
:102188004f03be004f02be004f01be004f00be000d
:102198003600f900004006003600f800809fbe00b7
:1021a800829fbe00849fbe00869fbe00c088a90093
:1021b80030002000060e07004f03be004f02be008d
:1021c8004f01be004f00be003600f9000040060077
:1021d8003600f800809fbe00829fbe00849fbe002c
:1021e800869fbe00802121008007780000232100ff
:1021f80000018800c048a90010002000f40d070065
:102208004f03be004f02be004f01be004f00be008c
:102218003600f900004006003600f800809fbe0036
:10222800829fbe00849fbe00869fbe007081800092
:102238000000e000010032000000010005a8a9002c
:102248004f03be004f02be004f01be004f00be004c
:102258003600f900004006000040da000000fe00e9
:10226800000005006022b800060220000000d0002f
:102278008180d2000482d2008582d2000000a000b2
:102288000202520083825a00030031000202420017
:1022980083824a000000a1000603e900f3ff3a0028
:1022a80000000600420c00009c0b00001c0a000005
:1022b800160a0000220a0000260a00002a0a000066
:1022c8002e0a0000f60c0000400a0000520a000026
:1022d800680a00007a0a0000320d0000580d00005c
:1022e800900a0000a60a0000b80a0000ca0a000006
:1022f800dc0a0000ee0a0000000b0000120b0000d0
:10230800280b00007e0d0000d80d00008c0e000088
:10231800320e000000000000000000000000000075
:10232800000000000000000000000000040a000097
:10233800f20900000e100000660b0000780b000088
:102348003a0b00004c0b00008a0b0000f20e000054
:102358002e0f00006a0f0000a60f0000380c0000c6
:1023680000000000e20f0000000000000000000074
:102378000200000001000000b21c00008c1d0000db
:10238800b61c0000ba1c0000c01c0000c41c0000e1
:10239800ca1c0000ce1c0000121d0000d21c000048
:1023a800ea1c00006a1c0000701c0000761c00007b
:1023b8007c1c0000301d0000101d0000821c000065
:1023c800981c000000000000000000000000000051
:1023d80000000000000000000000000000000000f5
:1023e8009612000058110000201000002410000070
:1023f800281000002c1000003010000032100000df
:102408005410000080100000a6100000aa10000060
:10241800ae100000b210000028120000881300005f
:102428008089000032120000921200003c12000065
:1024380000000000b8100000e21000000c110000bd
:102448002e1100009a1300001e1200000000000068
:1024580076190000a2190000b4190000ce19000076
:10246800d8190000e0190000ee190000fc1900005e
:10247800001a00000000000000000000041a00001c
:102488001c1a0000241a0000821a00008a1a000090
:102498009c1a0000fa1a00002c1a00000000000024
:1024a8000000000000000000000000000000000024
:1024b80000000000dc2000000221000026210000ae
:1024c8002a2100001e2100003c21000046210000b6
:1024d800d88900002e21000032210000362100009a
:1024e8000c2300001a2300002423000028230000e6
:1024f8002c230000002300000623000030230000e6
:102508003623000040230000e10f50000500320090
:10251800e20f500002003a0061e3a8000000060044
:1025280000000600000a0000000200001f00000072
:102538002be3a80000000600e10f50000500320060
:10254800e20f500002003a0061e3a9000000060013
:10255800000006002be3a900000006002be3a800fa
:1025680061e3a800000006002be3a90061e3a900cd
:102578000000060050188800000006004018880077
:10258800000006003018880000000600e10f500027
:1025980005003200e20f500002003a00411c88009a
:1025a8000000060000000600911a880000000600de
:1025b800e10f500005003200e20f500002003a001f
:1025c800211c88000000060000000600711a88001f
:1025d80000000600e10f500006003200e20f500034
:1025e80003003a00dd210a00620300000000060033
:1025f80000000600dd210a002c0300000000060090
:10260800e10f500005003200e20f500002003a00ce
:10261800111c88000000060000000600611a8800ee
:1026280000000600e10f500006003200e20f5000e3
:1026380003003a00ba210a00660300000000060001
:1026480000000600ba210a0030030000000006005e
:10265800e10f500006003200e20f500003003a007c
:10266800baa00a006603000000000600000005008a
:10267800baa00a003003000000000600e10f500075
:1026880005003200e20f500002003a0067a3a800dc
:10269800000006000000060031a3a80000000600a4
:1026a800e10f500005003200e20f500002003a002e
:1026b8006783a80000000600000006003183a80018
:1026c80000000600e10f500005003200e20f500044
:1026d80002003a0067a3a9000000060000000600f7
:1026e80031a3a90000000600e10f500005003200e8
:1026f800e20f500002003a006783a90000000600bc
:10270800000006003183a90000000600e10f500018
:1027180005003200e20f500002003a00811c8800d8
:102728000000060000000600d11a8800000006001c
:10273800e10f500005003200e20f500002003a009d
:10274800911c88000000060000000600e11a8800bd
:1027580000000600e10f500006003200e20f5000b2
:1027680003003a00811c8800911c880000000600c4
:1027780000000600d11a8800e11a8800000006004f
:10278800e10f500005003200e20f500002003a004d
:10279800511c88000000060000000600a11a8800ed
:1027a80000000600e10f500005003200e20f500063
:1027b80002003a006463a80000000600000006005a
:1027c8002e63a80000000600e10f50000700320049
:1027d800e20f500004003a00201b80004400de0095
:1027e80061406000000006000000050070198000cc
:1027f8004400de006140600000000600e10f500068
:1028080005003200e20f500002003a00611c880007
:102818000000060000000600b11a8800000006004b
:10282800e10f500005003200e20f500002003a00ac
:10283800711c88000000060000000600c11a88000c
:1028480000000600e10f500005003200e20f5000c2
:1028580002003a006ee3a80000000600000006002f
:1028680038e3a800000006002be3a90061e3a900f3
:102878002a23ef006023ef005e23ef003e23ef00e2
:102888003c23ef002c23ef004e23ef005023ef00f2
:102898005c23ef005a23ef003623ef003423ef00c8
:1028a8004223ef004023ef003a23ef003823ef00e4
:1028b8003223ef003023ef004a23ef004823ef00d4
:1028c8005223ef004c23ef004623ef004423ef0090
:1028d8002e23ef005423ef005623ef005823ef0078
:1028e8009423ef007423ef007223ef006223ef00bc
:1028f8008423ef008623ef009223ef009023ef005c
:102908006c23ef006a23ef007823ef007623ef00b3
:102918007023ef006e23ef006823ef006623ef00bb
:102928008023ef007e23ef008823ef008223ef004f
:102938007c23ef007a23ef006423ef008a23ef0063
:102948008c23ef008e23ef001023ef000e23ef00ff
:102958000223ef000423ef000c23ef001223ef0003
:102968001423ef001623ef001823ef001a23ef00bb
:102978001c23ef000823ef000a23ef000623ef00d3
:102988000023ef001e23ef002023ef002223ef0097
:102998002423ef002623ef002823ef000000060081
:1029a8000000e00001003200f0828800000006000c
:1029b800000006008008200050198800001b8800cd
:1029c8005e23ef003e23ef003c23ef0000002400cd
:1029d800601988004e23ef005023ef005c23ef00be
:1029e8005a23ef003623ef00b0102000a01988000a
:1029f8004223ef004023ef003a23ef003823ef0093
:102a0800c200200092198800012023008119880043
:102a18004a23ef004823ef0080c32900901a88005a
:102a28004c23ef004623ef004423ef002e23ef0052
:102a38005423ef005623ef005823ef009423ef00b0
:102a48007423ef007223ef0013002400131b880087
:102a58008423ef008623ef009223ef009023ef00fa
:102a68006c23ef0083102000531b88007823ef00ad
:102a78007623ef007023ef006e23ef00421b8800df
:102a8800311b88008023ef007e23ef00401c880064
:102a98008223ef007c23ef007a23ef006423ef000a
:102aa8008a23ef008c23ef008e23ef001023ef0022
:102ab8000e23ef000223ef000423ef000c23ef00a6
:102ac8001223ef001423ef001623ef001823ef0062
:102ad8001a23ef001c23ef000823ef00501888008a
:102ae8000623ef0030002000001888001e23ef00a6
:102af8002023ef002223ef002423ef002623ef00fa
:102b08002823ef0000c42000f0828800050b07008e
:102b18000004e000fdff320000000600e10f500055
:102b28000c003200e20f500009003a0020210a0090
:102b380060030000e28f50000f003200401b80004d
:102b480054400a0000000000401b880000000600f6
:102b58000000060020210a002a030000e28f50002e
:102b6800090032009019800054400a00000000005b
:102b780090198800000006001000200054200a0068
:102b8800680300000000060054200a003203000019
:102b980000000600e10f50000a003200e20f50006a
:102ba80007003a00aaa00a00660300008140d0008e
:102bb80080c07000ba210a00660300000000060009
:102bc80000000600aaa00a00300300008140d000df
:102bd80080c07000ba210a0030030000000006001f
:102be800e10f50000a003200e20f500007003a00df
:102bf800baa00a00660300006240600081407000cd
:102c0800ba210a0066030000000006000000060062
:102c1800baa00a00300300006240600081407000e2
:102c2800ba210a003003000000000600e10f50003e
:102c380011003200e20f50000a003a00e28f500003
:102c48001f003200e28f500007003600e38f50006b
:102c580019003200e48f50001c003a006d83a80070
:102c68000000060000000600e18f500016003a0040
:102c78006de3a80000000600e28f50001600320045
:102c8800e28f500006003600e38f50000800320043
:102c9800e48f50000f003a003783a80000000600b8
:102ca800e18f50000a003a0037e3a8000000060050
:102cb80037a3a800000006006da3a80000000600c6
:102cc8006dc3a80000000600000006000000060012
:102cd800000006000000060037c3a8000000060038
:102ce800e10f500011003200e20f50000a003a00d4
:102cf800e28f50001f003200e28f500007003600bc
:102d0800e38f500019003200e48f50001c003a0095
:102d18006d83a9000000060000000600e18f500046
:102d280016003a006de3a90000000600e28f50008b
:102d3800000e0000000200001f0000001600320014
:102d4800e28f500006003600e38f50000800320082
:102d5800e48f50000f003a003783a90000000600f6
:102d6800e18f50000a003a0037e3a900000006008e
:102d780037a3a900000006006da3a9000000060003
:102d88006dc3a90000000600000006000000060050
:102d9800000006000000060037c3a9000000060076
:102da800e10f500011003200e20f50000a003a0013
:102db800e28f50001f003200e28f500007003600fb
:102dc800e38f500019003200e48f50001c003a00d5
:102dd80065e3a9000000060000000600e18f50002e
:102de80016003a0065c3a90000000600e28f5000f3
:102df80016003200e28f500006003600e38f5000c4
:102e080008003200e48f50000f003a002fe3a900b9
:102e180000000600e18f50000a003a002fc3a90005
:102e2800000006002f83a900000006006583a900a2
:102e38000000060065a3a9000000060000000600c7
:102e48000000060000000600000006002fa3a900ed
:102e580000000600e10f500014003200e20f50009d
:102e68000c003a00e28f500027003200e28f500039
:102e780009003600e38f500020003200e48f500034
:102e880004003a00201b8000ff800a0000000000b8
:102e98000000060000000500e18f5000fdff3a0029
:102ea800eea00a006403000000000600e28f500054
:102eb80018003200e28f500008003600e38f5000ff
:102ec8000b003200e48f5000f2ff3a0070198000c6
:102ed800ff800a000000000000000600e18f50009b
:102ee800ecff3a00eea00a002e03000000000600e6
:102ef800cca00a002e03000000000600cca00a00a7
:102f08006403000000000600dda00a00640300005e
:102f180000000600dda00a002e03000000000600e5
:102f2800e10f50000a003200e20f500007003a009b
:102f3800e28f500010003200e38f5000140032007e
:102f4800e18f50000a003200000006000000060071
:102f5800e28f50000a003200e38f50000a0032006e
:102f6800e18f5000f8ff3a003503a8000000060082
:102f78006b03a800000006006b23a80000000600f1
:102f88003523a800000006003543a800000006000d
:102f98006b43a80000000600e10f50000a00320051
:102fa800e20f500007003a00e28f50001000320094
:102fb800e38f500014003200e18f50000a00320005
:102fc8000000060000000600e28f50000a003200f0
:102fd800e38f50000a003200e18f5000f8ff3a00fa
:102fe8003503a900000006006b03a90000000600d5
:102ff8006b23a900000006003523a9000000060085
:103008003543a900000006006b43a9000000060034
:10301800e10f50000a003200e20f500007003a00aa
:10302800e28f500010003200e38f5000140032008d
:10303800e18f50000a003200000006000000060080
:10304800e28f50000a003200e38f50000a0032007d
:10305800e18f5000f8ff3a0036a3a80000000600f0
:103068006ca3a800000006006cc3a80000000600be
:1030780036c3a8000000060036e3a80000000600da
:103088006ce3a80000000600e10f50000a003200bf
:10309800e20f500007003a00e28f500010003200a3
:1030a800e38f500014003200e18f50000a00320014
:1030b8000000060000000600e28f50000a003200ff
:1030c800e38f50000a003200e18f5000f8ff3a0009
:1030d80036a3a900000006006ca3a90000000600a2
:1030e8006cc3a9000000060036c3a9000000060052
:1030f80036e3a900000006006ce3a9000000060002
:10310800e10f500006003200e20f500003003a00c1
:103118000888ab000a003a0000000600000006001c
:103128000868ab00fcff3200f18280000100e0007b
:1031380001003200010001000868a9000000060033
:10314800f18280000100e00001003200010001006e
:103158000888a90000000600e10f500005003200b1
:10316800e20f500002003a00511c880000000600df
:1031780000000600a11a88000000060001eba80064
:103188000000060001eba9000000060008cba8001b
:103198000000060008cba900000006000000060099
:1031a800e10f5000090032000000e0000b0032007f
:1031b800e20f500007003200e30f500002003a000f
:1031c800706080000000060000000500506180006b
:1031d80000000600606080000000060000618000ba
:1031e80000000600e10f50000a0032000000e00075
:1031f8000f003200e20f50000a003200e30f5000c7
:1032080003003a0011a00a00300b0000000006007d
:103218000000050080598000ff800a0000000000bf
:103228000000060080598000614060000000060030
:10323800aaa00a00300b00000000060063406000ee
:103248004801dd00f1cf2f00b45e8000848160006a
:1032580083017100b35e8800d35e800083806000c4
:1032680081007100d15e88004500dd0021b020009a
:1032780091407800f2c9b30082c0600000c07000bd
:1032880002ebb700000006002b48a800000006006b
:103298002b48a900000006000b48a9000000060002
:1032a800a8200a006c08000000000600e10f50008a
:1032b8000a0032000000e0000e003200e20f500069
:1032c80009003200e30f500003003a002b88a800e1
:1032d800202ba80000000600000006002d48a800ca
:1032e80021eba800000006002b68a800200ba8000e
:1032f800000006002ca8a800214ba800000006002a
:10330800e10f50000a0032000000e0000e00320019
:10331800e20f500009003200e30f500003003a00aa
:103328002b88a900202ba900000006000000060039
:103338002d48a90021eba900000006002b68a90070
:10334800200ba900000006002ca8a900214ba90009
:1033580000000600e10f5000090032000000e00004
:103368000b003200e20f500007003200e30f50005c
:1033780002003a000b88a9000000060000000600c1
:103388000d48a900000006000b68a900000006000f
:103398000ca8a90000000600e10f50000a00320046
:1033a8000000e0000e003200e20f50000900320079
:1033b800e30f500003003a0020210a006e080000c5
:1033c8000000060000000600a8210a00740800009a
:1033d80000000600ec210a006c080000000006004e
:1033e80064210a00720800000000060001eba90031
:1033f800606080000b68a9002b68a90070608000dd
:103408000b88a9002b88a9000b48a9002b48a90004
:10341800002bef000006200010588800042bef0056
:10342800062bef00082bef000a2bef000c2bef0008
:103438000e2bef00102bef00122bef00142bef00d8
:10344800202bef00222bef00302bef00322bef0068
:10345800382bef00402bef00482bef00502bef00ec
:103468003a2bef00422bef004a2bef00522bef00d4
:103478003c2bef00442bef004c2bef00542bef00bc
:103488003e2bef00462bef004e2bef00562bef00a4
:10349800682bef006c2bef00702bef00742bef0004
:1034a8006a2bef006e2bef00722bef00762bef00ec
:1034b800802bef00822bef00842bef00862bef0090
:1034c800882bef008a2bef008c2bef008e2bef0060
:1034d800902bef00922bef00942bef00a02bef0026
:1034e800a42bef00a82bef00ac2bef00d02bef00a4
:1034f800d22bef00d42bef00d82bef0000302000a8
:10350800b05e8800d05e8800f02bef00f22bef0051
:10351800f82bef00fa2bef00002cef00022cef0045
:103528000c2cef000e2cef00102cef00122cef00eb
:10353800142cef00162cef00182cef0000120000de
:10354800000200001f0000001a2cef001c2cef00e6
:103558001e2cef00202cef00222cef00242cef0073
:10356800262cef00282cef002a2cef002c2cef0043
:103578002e2cef00302cef00322cef00342cef0013
:103588000000060000eca800000ce200feff3d0071
:103598000aeba800000006000000e000010032006d
:1035a800a082880000000600000006000000e0007d
:1035b800010032009082880000000600000006002a
:1035c800e10f5000210032000000e0001700320037
:1035d800e20f50000d003200e30f50000a003a00dd
:1035e80011a10a00300b00000104e00005003200c0
:1035f80071608000928280000200e00001003200c9
:10360800020001000000060000000600300bab00bd
:10361800fcff320061608000928280000200e000be
:10362800f8ff320002000100f6ff3700314bab0013
:10363800f4ff320001618000928280000200e00005
:10364800f0ff32000000eb0002040100300be20042
:10365800ecff3d0051618000928280000200e00092
:10366800e8ff320002000100e6ff37000000060014
:1036780000000600002bef0000062000105888000c
:10368800042bef00062bef00082bef000a2bef00ae
:1036980030002000605888000e2bef00102bef0040
:1036a800122bef00142bef0000598800222bef009b
:1036b800302bef00322bef00382bef00402bef00c0
:1036c800482bef00502bef003a2bef00422bef0076
:1036d8004a2bef00522bef003c2bef00442bef005e
:1036e8004c2bef00542bef003e2bef00462bef0046
:1036f8004e2bef00562bef00682bef006c2bef00e2
:10370800702bef00742bef0000402000505b880006
:10371800705b8800905b8800b05b8800a02bef008e
:10372800a42bef00a82bef00ac2bef00d02bef0061
:10373800d22bef00d42bef00d82bef000030200065
:10374800b05e8800d05e8800f02bef00f22bef000f
:10375800f82bef00fa2bef00022cef000c2cef00f7
:103768000e2cef00102cef00122cef00142cef00a1
:10377800162cef00182cef001a2cef001c2cef0071
:103788001e2cef00202cef00222cef00242cef0041
:10379800262cef00282cef002a2cef002c2cef0011
:1037a8002e2cef00302cef00322cef00342cef00e1
:1037b80000232100a0828800a02321009082880095
:1037c8000b48a9002b48a8000b68a9002b68a80083
:1037d8000b88a9002b88a80010608000b8400a0058
:1037e800000f00001060880001eba800000ca80082
:1037f800010cab00feff32000a0ba800002ca80049
:10380800012cab00feff32000a2ba80000eca80038
:10381800000ce200feff3d000aeba800406020001b
:10382800005c8800822bef00842bef00862bef00d2
:10383800882bef0040002000505c88008c2bef00a4
:1038480000102000705c8800902bef00922bef0096
:10385800942bef00000006000b48ab0001003a0073
:1038680000000600a08280000000e0000100320095
:10387800000001000b48a900000006000000e0005d
:1038880008003200e10f500005003a00002ca800a3
:10389800012cab00feff32000a2ba8000000060036
:1038a80000000600000ca800010cab00feff32006f
:1038b8000a0ba80000000600889fbe008a1f780037
:1038c800691a210033800a0019000000cc200a0080
:1038d8003e0e0000c08c80000000d100706488009b
:1038e800e08480000000e800e0848800108c8000fc
:1038f8000000e800108c8800c08980000000e80003
:10390800c0898800708480005281800063818000b3
:103918004f82de000203400083034a00568188007c
:1039280067818800b28b80006111b9003081800006
:103938004181800000004100818049003081880079
:1039480041818800a8182100228180001858a3000e
:10395800020032001868a3008f0032000200e00065
:103968001d003200e2848000e10f51001a00360089
:10397800b184800001858800e28480000201e900aa
:103988000500090042bbd800b08488002a30ef0047
:103998002c30ef002430ef000000eb00e0848800ba
:1039a800ba828000e10f550093003200ea0f5500fb
:1039b8001a00320055800a001800000066000a004c
:1039c800180000001928a3002e003a004f057800bf
:1039d8004f04be0000000600e384800002f42100ca
:1039e800828f5100eeff3600b18480000185880087
:1039f800e28480000201e9000500090042bbd8000a
:103a0800b08488002a30ef002c30ef002430ef001b
:103a18000000eb00e0848800e1ff3700108180009f
:103a2800e10f500061003600108c8000e10f50005b
:103a38005e003600148c8000328180004381800053
:103a48000402e900050009004499d800e08b8800c9
:103a58002630ef002830ef001c30ef001e30ef005a
:103a68002230ef000000eb00108c880055800a001f
:103a78001800000066000a00180000001928a300ba
:103a8800d2ff32001938a300b8003a0019007800b4
:103a98004400de006140600011820a001800000046
:103aa800824f5000040032001850a000d08c8000d3
:103ab8000000e800d08c8800e40f5500b3003e00f9
:103ac8001938a3002d003a00408b8000d285800071
:103ad8004311dd000091b900a28c8800b38c8800e6
:103ae800a28c8000b38c8000411add004f11de00eb
:103af80002017200cf19de00c28c880011800a0012
:103b0800190000000004e00002003200d5858000a2
:103b1800c58c8800b08b80004400dd00c08b880015
:103b2800208d80000008a300e0003200e50f55005a
:103b3800da003200718c8000f0632000808f500022
:103b480002003e000000eb00708c8800718c800041
:103b580000602900808f500001003600708c8800ba
:103b6800708c80000000d100a01a88001808a300fb
:103b780002003a00768c8000761a880044800a0099
:103b88001900000011000a00180000004f05780015
:103b98004f04be00000006000201e80022818800f0
:103ba8002230ec002030ec006cff3700128c8000d3
:103bb80000fa2000800f51007eff3600148c800030
:103bc80032818000438180000402e9000500090079
:103bd8004499d800e08b88002630ef002830ef00a9
:103be8001c30ef001e30ef002230ef000000eb0029
:103bf800108c88009dff3700a28b8000e480800035
:103c0800f58080004f93de000401410085014b00e0
:103c1800e2808800f3808800548980006122b9001e
:103c2800c0808000d18080000000420081804a006e
:103c3800c0808800d180880010818000e10f50008a
:103c480039003600108c8000e10f50003600360035
:103c5800148c80000402e900050009004499d8008a
:103c6800208c88002630ef002830ef001c30ef0051
:103c78001e30ef002230ef000000eb00108c8800af
:103c880000818000e10f500016003600c0898000d6
:103c9800e10f500013003600c4898000c280800004
:103ca800d38080000402e900050009004499d80087
:103cb800d08988001830ef001a30ef002030ef006c
:103cc8000000eb00c089880055800a001800000039
:103cd80066000a00180000001928a3003bff320004
:103ce80068ff3700c289800000fa2000800f510069
:103cf80030ff3600c4898000c2808000d3808000f5
:103d08000402e900050009004499d800d089880018
:103d18001830ef001a30ef002030ef000000eb0001
:103d2800c0898800e8ff3700148c800000fa200062
:103d3800800f5200d2ff3600148c80000402e90084
:103d4800050009004499d800001600000002000090
:103d58001f000000208c88002630ef002830ef007c
:103d68001c30ef001e30ef002230ef000000eb00a7
:103d7800108c8800c5ff370031a3a8003183a80044
:103d88005a2ea9005a0ea9004e23ef001000200059
:103d9800808c880040ff37001858a3000d003200bf
:103da8001808a3000b003a001938a30009003a00cc
:103db8001800a0000000eb00608c88001948a300e0
:103dc8006200320031c3a8003183a90031a3a800e2
:103dd8001850a1001808a30011003200608c800060
:103de8000000e800608c8800ef0f50003f003600ac
:103df8001800a100e0012000608c88001948a30089
:103e08003e00320031c3a90031a3a9003183a800c4
:103e1800e80f5500020036005a2ea9005a0ea800d5
:103e28001808a30029ff3a001938a30027ff3a0011
:103e3800ea0f55000200320018a8a30023ff320041
:103e4800b08b8000ff0f500034003600808c80005b
:103e58000000e800808c8800808c8000e60f50000d
:103e68000300360060002000808c88001870a000d5
:103e7800808c80000000e00003003a001000200061
:103e8800808c88001870a1001878a30029003200df
:103e98001948a300320032003183a9001938a30061
:103ea80039ff3a000bff3700501880004200de004f
:103eb800708c880022ff37003790a900000022008c
:103ec800c0818800708e8800c28c8000e3182100b1
:103ed80081172100c01b210087050700ba828000d6
:103ee800e50f550016ff3a00efff3700608c8000a1
:103ef8004a00dd00701a8800c9ff370031c3a800e6
:103f08003183a90031a3a800e80f5500c4ff36008b
:103f18005a0ea9005a2ea800c1ff3700fe0f500004
:103f2800cdff3e00808c80000000e900808c880076
:103f3800c9ff37001948a3000d0032003183a800db
:103f48001938a30010ff3a00e2fe370031c3a90078
:103f580031a3a9003183a8001850a1009dff3700a4
:103f680031a3a9001938a30007ff3a00d9fe37008a
:103f780031a3a8001938a30003ff3a00d5fe370083
:103f880000000600889fbe008a1f78001002070004
:103f9800fae1ab0002003200fa01ab004b003a0034
:103fa800b182800001007800f2ff2f00f3ff2f009c
:103fb80002814000e0814900ea0f5100e08f59007a
:103fc80007003600e40f500033003e0000808800f0
:103fd800b08288004f0578004f04be00000006003c
:103fe80002060100b20037004300370046003700e0
:103ff8005c003700670037009000370098003700f2
:1040080003003700830037006f0037003a0037009d
:10401800a8808000410121008808e9000800e0002c
:10402800b0003a00a91821001928a300ad003200f9
:10403800c3e8a900000000000000000010002000f4
:10404800808c88001970a100308a88000a14210029
:104058001a70a100c01b21001b050700001d2100cc
:1040680019050700401e210017050700b0848000cd
:10407800d0858800c3e8a800000000000000000008
:104088001950a0001a50a00090002000308088002d
:10409800b0828800d8858800318d80000128a3006f
:1040a800caff3a005bcea90006030700b000200053
:1040b800008088003610a9003630a800b082880039
:1040c8004f0578004f04be000000060009020700f3
:1040d800b182800001007800f2ff2f00f3ff2f006b
:1040e80002814000e0814900ea0f5100e08f590049
:1040f800b4ff3e00baff370000000000e40f500094
:10410800b2ff3600e4ff37003610ab008d003200f6
:104118003610a8003650a9003670a9003690a900bc
:1041280036b0a9003630a90036d0a900601a21009f
:104138001044a100a01821001010a100c0152100f2
:104148001044a100001421001010a10000712200e9
:10415800b0808800400020007080880000808800bf
:104168009bff3700b1808000620121000109e9004e
:104178000100e0006f003a005000200060808800d5
:10418800b0828800318d80000128a3008fff3a009b
:10419800c4ff37003610ab0088003200b2848000bc
:1041a80041b12000810f51007300360060002000eb
:1041b80050808800b0828800318d80000128a300db
:1041c80082ff3a00b7ff37003610ab0071003200ab
:1041d800e2858000d1858000f4804000810f510085
:1041e8005c003e00e2858000d1858000f4805000ac
:1041f800810f510057003900a1002000118088006c
:10420800b1828800318d80000128a3006fff3a0039
:10421800a4ff37003610ab006d003200910020007b
:1042280021808800b0828800ba020700b082880026
:10423800e40f500065ff360097ff37005bcea800fb
:10424800800c2000b080880070002000b0828800b8
:10425800318d80000128a3005cff3a0091ff3700f0
:10426800b1808000620121000109e9000100e0003d
:1042780025003a00a11821001128a30022003a00c5
:104288001120a000001421001020a0001000200020
:10429800a08088008000200040808800b0828800cc
:1042a800318d80000128a30048ff3a007dff3700c8
:1042b800318d80000128a3001a0032009080800010
:1042c800210121008008e9000000e0004c003200d4
:1042d80080808000b0828800e40f50003bff3600e9
:1042e8006dff37008100200031808800b18288008e
:1042f8008000eb00d1858800318d80000128a30063
:1043080032ff3a0067ff37007100200041808800c3
:10431800b1828800318d80000128a3002bff3a006c
:1043280060ff37001100200081808800008088002d
:1043380027ff370041002000618088000080880046
:1043480023ff37003100200071808800008088003a
:104358001fff3700a018210010a0a0009000200027
:1043680010808800b0828800318d80000128a30069
:1043780016ff3a004bff370051002000518088009b
:10438800b1828800318d80000128a3000fff3a0018
:1043980044ff3700a01821001020a10000142100bc
:1043a8001020a100470207005bcea90030002000c2
:1043b800108088000080880005ff37004102070050
:1043c80030002000508088000080880000ff3700ff
:1043d800a01821001020a100001421001020a10025
:1043e800380207005bcea90030002000208088003a
:1043f800b082880047020700b08288008cff37002f
:10440800218c8000407e2000808f500008003c00f6
:10441800218c800050812000808f500004003400df
:10442800200020008080880000808800e8fe370097
:10443800300020008080880000808800e4fe37007b
:1044480000082000c01188003a22ef003c22ef004b
:1044580020022000f0118800800d20000012880042
:104468004222ef004c22ef004e22ef005022ef00d4
:104478005222ef005422ef005622ef005822ef009c
:104488005a22ef005c22ef0039e2a80038a2a80007
:104498003882a800000006003822ef003a22ef0018
:1044a80000082000e0118800e0022000f0118800d8
:1044b8004022ef004222ef000000060011a00a008f
:1044c8003e020000e14f5000fcff320011a00a003c
:1044d8003c020000e14f5000020032002012800030
:1044e800000006003c22a9002012800000000600ff
:1044f8003e82ab00feff3a000080fb0040128800bd
:104508000000060011a00a003e02000010c0b20020
:10451800000006000040eb003e82ab0003003a00ba
:10452800c01180004500de00614060000000060008
:104538000040eb003ce2ab0003003200f0118000c9
:104548004500de00614060000000060038a2a800b7
:1045580000000600001a0000000200001f00000012
:1045680038a2a900000006005cc2a90061416000f1
:104578004211dd00c1252000914078000124a100ee
:1045880082c07000c22520000149780066200a0018
:104598003802000000000600c01180004600de005e
:1045a8006140600000000600e01280004200de006a
:1045b80061406000000006006230ef000000eb0080
:1045c8003c62ab0022003a003cc2ab0019003a0042
:1045d80011a10a003c020000e1cf50000f00320098
:1045e8003c02ab0007003a003ca2ab0001003a00d5
:1045f800000006000040a000108388003ca2a9002b
:10460800000006000030a000108388003c02a900ca
:104618003ca2ab00f6ff3200f6ff37000020a000f6
:10462800108388003c22a9003c02ab00eeff320058
:10463800f4ff37000010a0001083880011a10a00c1
:104648003c020000e1cf5000e5ff3a00f3ff3700dd
:1046580010002000108388003cc2ab00dcff320051
:10466800f4ff370000128800ef8060001112880004
:1046780000000600101280008000eb00c001dd0081
:1046880002002000001280008000eb000200700091
:1046980083807000000006000002be00e0052000d4
:1046a800800f5200e08f5a000a0036003b62a800d3
:1046b80038e2a9000401be0000102e00515f20005e
:1046c800f7f60700001288006f806000101288005b
:1046d800000006003b62a900f70f5200e08f5a0065
:1046e8000e00360038e2a8004229dd00ce21de00a7
:1046f800830171004221dd0000102e00515f20006f
:10470800e7f6070061005000e080580000128800ba
:104718006f806000101288000000060038e2a900cf
:104728004429dd00cc21de00830171004421dd0035
:1047380000102e00515f2000d9f6070061005000dc
:10474800e0805800001288006f8060001012880016
:1047580000000600121280008001eb00c012dd008c
:1047680004002000021280008001eb0004017100a7
:10477800858171003b62ab000b003a00610041008b
:10478800e080490038e2ab000d003a004409dd0042
:10479800cc01de00830171004401dd0000102e0011
:1047a800515f2000bef63700e00f5100e08f59003e
:1047b800f2ff320000102e00515f2000b8f63700db
:1047c8004209dd00ce01de00830171004201dd00f7
:1047d80000102e00515f2000b1f63700811f210024
:1047e8000000eb00f60007000004e00010003200b3
:1047f800821f210012007800c800de005305200047
:10480800838f50000b00320001407800f30e200027
:10481800838f500012003200c1cdb300814f500089
:104828000c003200d1ccb300814f5000250032007b
:10483800000006000004e00014003a003610ab0047
:10484800020032003610a9003630a8000009eb003b
:1048580000000600d08f8000c0818800000006009c
:10486800d08f8000e0858800e185800000fa200074
:10487800808f500001003600e08588000000eb00c2
:1048880000097800d08f880000000600e14f500032
:104898001200320001cab300814f50000c003200f0
:1048a80011cab300814f50001200320001c6b30094
:1048b800814f5000e5ff3a005bcea8000009eb00ed
:1048c80000000600d08f8000d0818800000006001c
:1048d8003790a9000009eb00000006003610ab0075
:1048e800daff3a003610a8003630a9000009eb00bc
:1048f800000006003790a8000009eb000000060041
:104908004410ec002082880021032000810f500011
:1049180001003e0000000600708c8000e00f880057
:10492800408b8000e00f8800c0818000e00f880085
:1049380000932300e00f880000302300e00f880078
:10494800c08c8000e00f8800e08b8000e00f8800ba
:10495800f0858000e00f8800b18280008100e900c6
:10496800100020000100dd00e00f8800b081800009
:10497800e00f8800d0858000e00f8800b0848000b8
:10498800e00f8800c000200001022000e00f88002e
:104998000000e800810f5000fcff3a0010828800f8
:1049a8004430ef0000000600708c8000e00f8800a3
:1049b800408b8000e00f8800c0818000e00f8800f5
:1049c80000932300e00f880000302300e00f8800e8
:1049d800c08c8000e00f8800e08b8000e00f88002a
:1049e800f0858000e00f8800b18280008100e90036
:1049f800100020000100dd00e00f8800b081800079
:104a0800e00f8800d0858000e00f8800b084800027
:104a1800e00f8800c000200001022000e00f88009d
:104a28000000e800810f5000fcff3a001082880067
:104a38000000060099a00a00fa0100000000060024
:104a480088a00a00fa0100000000060011a00a0070
:104a5800fa01000000000600d00f800061406000ed
:104a6800000006000000e00006003200e10f5000e0
:104a780003003a0011a00a00d80100000000060057
:104a880000000500c00e80006140600000000600c4
:104a98000000e00007003200e10f500004003a0077
:104aa80011a00a00d801000010c0b20000000600e2
:104ab80000000500c00e80006140600010c0b20018
:104ac80000000600d221ef0000000600d321a80054
:104ad8000000060088a00a00d401000000000600bb
:104ae800d321a9000000060099a00a00d401000003
:104af80000000600d301a80000000600d301a900a9
:104b0800000006000001eb000100e0000700320091
:104b1800fb01ab0005003a00e31f200013187800e2
:104b28000201e800828f5000f9ff3a000200780085
:104b3800000006000100e0001000320011a20a0087
:104b4800fa0100000204e0000001eb0009003a004d
:104b5800b0017800e30f88000201e800828f50005e
:104b68000400320011a30a00fa0100000304e00067
:104b7800f7ff320002007800000006000000050080
:104b88000000050040002000d401e20005003500c7
:104b9800dca10a00d401000030002000e2cf500060
:104ba80001003600000006008180fb008180400083
:104bb80040922800810040001100780000000600a3
:104bc8000000e0001e003200e10f50001b003a0018
:104bd80011a20a00d80100000040eb000204e00026
:104be80015003200401e200090087800300f800029
:104bf80090009800400f8000a0009800500f80009f
:104c0800b0009800600f8000c0009800700f80000e
:104c1800d0009800800f8000e0009800900f80007e
:104c2800f0009800a00f800080089800b00f800066
:104c38009008980010c0b3000000060000000500ae
:104c48000040eb00d801ab00fbff3200a01d2000a4
:104c580090087800e00e800090009800f00e800028
:104c6800a0009800000f8000b0009800100f80008e
:104c7800c000980010000500d221ef0000000600d7
:104c880000012000d0818800bf000700f100070064
:104c98005203d500c01a880000192000e01a8800c5
:104ca800d01a88002be3a800901c8800801c88007c
:104cb80061e3a8005a2ea9005a0ea9000000eb00d3
:104cc800d085880080992100c081880000000600f6
:104cd80031a3a8003183a80067a3a8006783a800b0
:104ce8005a2ea9005a0ea9000000eb00d0858800b2
:104cf800b0848800a11821001190a100411a210058
:104d08001104a100d08c8800011421001190a10089
:104d1800a11521001104a100808a88000000060066
:104d28005a10ec00d0828800f40f50003c00360086
:104d3800d1858000e0858000808f5000d08580007c
:104d4800e18580000e003e0064004000810f5000a5
:104d580019003100d085800064004000e30f500046
:104d6800001e0000000200001f00000015003600b1
:104d7800d085800064004000d0858800b082800023
:104d8800c08288005a30ef0000000600640040002e
:104d9800810f50000b003600d08580006400400071
:104da800e30f500007003600d085800064005000f3
:104db800d0858800b0828000c08288005a30ef0019
:104dc80000000600a0002000c0828800d285800074
:104dd800d1858000c308de008280400001868800fb
:104de800d1858000d28580004411de008280500089
:104df80011868800d2858000d1858000c508de0034
:104e08008280400021868800d1858000d28580007c
:104e18004511de008280500031868800a1182100eb
:104e280011a0a1005a30ef0000000600b0828000f7
:104e3800c0828800000006000000eb00e0848800c3
:104e4800b0848800708488008084880090848800fa
:104e5800c084880000858800f085880001c520008e
:104e6800e1858800d0858800608b8800308b8800b9
:104e7800f08a8800008b8800108b8800408b88009f
:104e8800908b8800108c8800e08b8800a08b8800ad
:104e9800b08b8800c08b8800f08b8800a118210097
:104ea8001100a1001110a1001120a1001130a100d2
:104eb8001140a1001150a1001160a1001170a100c2
:104ec8001180a1001190a10011a0a100608c8800a0
:104ed800708c8800808c8800908c88006011b800e5
:104ee800a28c8800b38c8800c08c8800d08c880085
:104ef800411a21001104a10010898800e088880067
:104f0800a0888800b0888800c0888800f088880059
:104f180040898800c0898800908988005089880065
:104f28006089880070898800a089880001142100a0
:104f38001100a1001110a1001120a1001130a10041
:104f48001140a1001150a1001160a1001170a10031
:104f58001180a1001190a10011a0a100108a880061
:104f6800208a8800308a8800408a8800528a88000f
:104f7800638a8800708a8800808a8800a0152100ca
:104f88001004a1003630ef003790a8003630a80092
:104f980000000600e0042100e08d880007072100da
:104fa800f78d880060ff2400008e8800a0ff240091
:104fb800108e8800a0042100808e8800a60621009b
:104fc800968e8800c0fe2400a08e880000ff240072
:104fd800b08e8800001b2100c51e21008000eb0058
:104fe80084262400d3ff2f000247290001087800f7
:104ff800240098001300980031009800420098009f
:1050080074004000850f5000f8ff3a00d47f21005b
:1050180074828800836d200083828800c2ff270085
:10502800820b7800c14b200091838800004c280037
:10503800a08388005482880063828800020b78006d
:1050480061838800708388004030ef003e30ef00b5
:10505800c01b210022010700001d2100200137008c
:10506800401e21006104210001087800410621004a
:10507800318f880022fe2400428f880062fe2400bf
:10508800528f88000001eb00628f880003a425007e
:10509800838f8800a3ff2f00738f8800928f88006a
:1050a80002d02700a28f8800420a2000328288009e
:1050b8002223200042828800c2ff2700820878004d
:1050c800617b210031838800b17b290041838800fe
:1050d8003c30ef000201370076100000320100007a
:1050e800800000005610000002000000820000004e
:1050f80001000000361000000600000080000000db
:10510800f81100002000000080000000421000009c
:105118000400000080000000581000000200000099
:1051280082000000010000005a1000000200000088
:1051380080000000a811000050000000800000005e
:105148003c10000006000000800000006410000011
:105158001200000080000000e24f00001e00000066
:1051680080000000461000000400000080000000dd
:105178004a10000004000000800000004e100000eb
:105188000400000080000000181000001600000055
:1051980080000000521000000400000080000000a1
:1051a8005c10000002000000800000005e1000009b
:1051b800020000008000000018120000200000001b
:1051c800800000002e100000080000008000000091
:1051d8006010000002000000800000006210000063
:1051e800020000008000000000100000180000000d
:1051f8008200000001000100000100000100010020
:10520800000100000100010000010000204ec8005c
:1052180000204e000000000000000600c3e8a900be
:105228000000000000000000d1010700c3e8a8004a
:105238000000000000000000600522007081880066
:1052480025a8a8000000060000002800e002880049
:1052580000000600000024000003880010c0b3000e
:1052680034f0b700000006003470ef006800ab00af
:10527800feff3200800020002003880000000600a6
:1052880040038000614060000000060041032100e7
:10529800914078000140780000000600b0038000cb
:1052a800a20380008000eb00c000dd0000002000a9
:1052b8008001eb000200700083807000000006008f
:1052c800d0038000c20380008000eb00c000dd0036
:1052d800000020008001eb00020070008380700055
:1052e80000000600100e20006800b600000006004e
:1052f80070038000620380008000eb00c000dd00c6
:10530800000020008001eb00020070008380700024
:10531800000006000000e0000100320070818800f3
:10532800000006000004200000648800a008200097
:105338003064880050052000206488008a2cef0023
:105348000020280040648800d00c20007064880089
:1053580060648800922cef00902cef00942cef00f2
:1053680040142200e082880081eca80000000600ba
:1053780081eca900802cef00a00820003064880090
:1053880050052000206488008a2cef00882cef004c
:105398008e2cef008c2cef00922cef00902cef005d
:1053a800942cef0000000600406480004700de00f7
:1053b800614060000000060081eca80000000600c3
:1053c80081eca9000000060089eca8000000060096
:1053d80089eca90000000600b0200a008e0c00002d
:1053e800000006000000e00001003200e0828800b2
:1053f800000006000000060009c8ab0001003a00e2
:1054080000000600e08280000000e0000100320099
:105418000000010009c8a90000000600841f7800e8
:10542800851f7800881f78008a1f78004400f800dc
:10543800040a2000240288003005900040049000ef
:105448009a029000250598008a0290001505980098
:1054580091025100882add00050d780010049000a3
:105468004604c3004604c0000204c0001201c00084
:1054780000049000200590004604c7000204c00004
:105488001201c0000400cd00e00290001301c0002a
:10549800d00290000500c8000400cd00f002900082
:1054a8001520e60005027800800a900015a0e600a5
:1054b80005027800faba9700050d780074bd9f00c0
:1054c800840978004400f9004f0578004f047800fb
:1054d800cf0278004f0278000080fe00000006002e
:1054e800801f7800200090000018eb000008eb00f7
:1054f8004f007800801f7800300090000018eb0003
:105508000018eb000008eb004f00780000000600d0
:10551800841f7800851f7800881f78008a1f78000c
:105528004400f800040a2000240288003005900096
:10553800400490009a029000250598008a02900085
:105548001505980091025100882add00050d7800a4
:10555800100490004604c3004604c0000204c000c2
:105568001201c0000400cd00900a90000022000043
:105578002e0100001f0000001201c3001301c0002b
:1055880000049000200590004604c7000204c000f3
:105598001201c0000400cd00e00290001301c00019
:1055a800d00290000500c8000400cd0026e0af003e
:1055b8000002eb000401d100700390008602d100c4
:1055c8001510e60006027800000b90008602d10054
:1055d8001590e60006027800faba9700050d7800e3
:1055e80074bd9f00840978004400f9004f057800d5
:1055f8004f047800cf0278004f0278000080fe0048
:1056080000000600062eef00222eef003e2eef00cf
:1056180001202000d1728800f0012000107088005d
:10562800b2ff2900f2708800f21c2c00d2718800a9
:1056380082c92900b27288000a2eef00262eef00d8
:10564800422eef005e2eef000c2eef00282eef000a
:10565800442eef00602eef00082eef00242eef00fe
:10566800402eef00e172880000708800703820003a
:10567800e0708800f00c2000c071880000c0210094
:10568800a07288000000eb0051052000b146880098
:10569800a10a2000b146880000688800f0c3b30062
:1056a80028edb7001000200050200a009e0d0000d1
:1056b8000080200051052000b1468800a10a200082
:1056c800b14688000068880000000600100023002a
:1056d800307c880040062000407c880010022000b2
:1056e800507c880010102800707c8800d0072000ab
:1056f800807c880010222000907c8800b82fef0062
:10570800ba2fef00be2fef00002def00a42fef00ff
:10571800a62fef00aa2fef00ae2fef00b02fef005b
:10572800b22fef001000200081072000a2092000fe
:1057380053f8200081497800824978008049780030
:10574800610420007205200043f820008149780098
:105758008249780080497800840fab00feff3a0048
:1057680084afab00feff320000000600eea00a0086
:105778008e0f000000000600400880008000eb004b
:1057880000000600200880008000eb0000000600f2
:105798000021ef000421ef00f0702200400888008b
:1057a800e0332200008388000000060001e1a90020
:1057b8000021ef000421ef000821ef00000006009f
:1057c80001e1a8000000060001e1a90000000600b0
:1057d800400888000000060064200a004008000015
:1057e800000006000000e00001003200008388008d
:1057f800000006000000060011a00a0000080000d2
:10580800e14f5000010032000000060000838000d4
:10581800000001000028a9000000060040088800d8
:10582800000006004000200020200a006e0800004a
:1058380010002000a8200a006c080000400020008a
:10584800ec200a006c08000056c8bf0064400a003b
