:020000040000fa
:080000000002040000000000f2
:020000040000fa
:04000800900600005e
:020000040000fa
:04000c00f0050000fb
:020000040000fa
:040010000c060000da
:020000040000fa
:04001400c80600001a
:020000040000fa
:04001800ac06000032
:020000040000fa
:04001c00ec060000ee
:020000040000fa
:0400200028060000ae
:020000040000fa
:04002400ec060000e6
:020000040000fa
:04002800ec060000e2
:020000040000fa
:04002c00ec060000de
:020000040000fa
:04003000ec060000da
:020000040000fa
:04003400ec060000d6
:020000040000fa
:04003800ae05000011
:020000040000fa
:04003c00ec060000ce
:020000040000fa
:04004000ec060000ca
:020000040000fa
:04004400ec060000c6
:020000040000fa
:04004800ec060000c2
:020000040000fa
:04004c00ec060000be
:020000040000fa
:04005000ec060000ba
:020000040000fa
:04005400ec060000b6
:020000040000fa
:04005800ec060000b2
:020000040000fa
:04005c00ec060000ae
:020000040000fa
:04006000ec060000aa
:020000040000fa
:04006400ec060000a6
:020000040000fa
:04006800ec060000a2
:020000040000fa
:04006c00ec0600009e
:020000040000fa
:04007000ec0600009a
:020000040000fa
:04007400ec06000096
:020000040000fa
:04007800ec06000092
:020000040000fa
:04007c00ec0600008e
:020000040000fa
:04008000ec0600008a
:020000040000fa
:04008400ec06000086
:020000040000fa
:04008800ec06000082
:020000040000fa
:04008c007a050000f1
:020000040000fa
:04009000ec0600007a
:020000040000fa
:04009400ec06000076
:020000040000fa
:04009800ec06000072
:020000040000fa
:04009c00ec0600006e
:020000040000fa
:0400a000ec0600006a
:020000040000fa
:0400a400ec06000066
:020000040000fa
:0400a800ec06000062
:020000040000fa
:0400ac00ec0600005e
:020000040000fa
:0400b000ec0600005a
:020000040000fa
:0400b400ec06000056
:020000040000fa
:0400b800ec06000052
:020000040000fa
:0400bc00ec0600004e
:020000040000fa
:0400c000ec0600004a
:020000040000fa
:0400c400ec06000046
:020000040000fa
:0400c800ec06000042
:020000040000fa
:0400cc00ec0600003e
:020000040000fa
:0400d000ec0600003a
:020000040000fa
:0400d400ec06000036
:020000040000fa
:0400d800ec06000032
:020000040000fa
:0400dc00d00500004b
:020000040000fa
:0400e000ec0600002a
:020000040000fa
:0400e400ec06000026
:020000040000fa
:0400e800ec06000022
:020000040000fa
:0400ec00ec0600001e
:020000040000fa
:0400f000ec0600001a
:020000040000fa
:0400f400ec06000016
:020000040000fa
:0400f800ec06000012
:020000040000fa
:0400fc00ec0600000e
:020000040000fa
:04010000ec06000009
:020000040000fa
:04010400ec06000005
:020000040000fa
:04010800ec06000001
:020000040000fa
:04010c00ec060000fd
:020000040000fa
:04011000ec060000f9
:020000040000fa
:04011400ec060000f5
:020000040000fa
:04011800ec060000f1
:020000040000fa
:04011c00ec060000ed
:020000040000fa
:04012000ec060000e9
:020000040000fa
:04012400ec060000e5
:020000040000fa
:04012800ec060000e1
:020000040000fa
:04012c00ec060000dd
:020000040000fa
:04013000ec060000d9
:020000040000fa
:04013400ec060000d5
:020000040000fa
:04013800ec060000d1
:020000040000fa
:04013c00ec060000cd
:020000040000fa
:04014000ec060000c9
:020000040000fa
:04014400ec060000c5
:020000040000fa
:04014800ec060000c1
:020000040000fa
:04014c00ec060000bd
:020000040000fa
:04015000ec060000b9
:020000040000fa
:04015400ec060000b5
:020000040000fa
:04015800ec060000b1
:020000040000fa
:04015c00ec060000ad
:020000040000fa
:04016000ec060000a9
:020000040000fa
:04016400ec060000a5
:020000040000fa
:04016800ec060000a1
:020000040000fa
:04016c00ec0600009d
:020000040000fa
:04017000ec06000099
:020000040000fa
:04017400ec06000095
:020000040000fa
:04017800ec06000091
:020000040000fa
:04017c00ec0600008d
:020000040000fa
:04018000ec06000089
:020000040000fa
:04018400ec06000085
:020000040000fa
:04018800ec06000081
:020000040000fa
:04018c00ec0600007d
:020000040000fa
:04019000ec06000079
:020000040000fa
:04019400ec06000075
:020000040000fa
:04019800ec06000071
:020000040000fa
:04019c00ec0600006d
:020000040000fa
:0401a000ec06000069
:020000040000fa
:0401a400ec06000065
:020000040000fa
:0401a800ec06000061
:020000040000fa
:0401ac00ec0600005d
:020000040000fa
:0401b000ec06000059
:020000040000fa
:0401b400ec06000055
:020000040000fa
:0401b800ec06000051
:020000040000fa
:0401bc00ec0600004d
:020000040000fa
:0401c000ec06000049
:020000040000fa
:0401c400ec06000045
:020000040000fa
:0401c800ec06000041
:020000040000fa
:0401cc00ec0600003d
:020000040000fa
:0401d000ec06000039
:020000040000fa
:0401d400ec06000035
:020000040000fa
:0401d800ec06000031
:020000040000fa
:0401dc00ec0600002d
:020000040000fa
:0401e000ec06000029
:020000040000fa
:0401e400ec06000025
:020000040000fa
:0401e800ec06000021
:020000040000fa
:0401ec00ec0600001d
:020000040000fa
:0401f000ec06000019
:020000040000fa
:0401f400ec06000015
:020000040000fa
:0401f800ec06000011
:020000040000fa
:0401fc00ec0600000d
:020000040000fa
:04020000ec06000008
:020000040000fa
:04020400ec06000004
:020000040000fa
:04020800ec06000000
:020000040000fa
:04020c00ec060000fc
:020000040000fa
:04021000ec060000f8
:020000040000fa
:04021400ec060000f4
:020000040000fa
:04021800ec060000f0
:020000040000fa
:04021c00ec060000ec
:020000040000fa
:04022000ec060000e8
:020000040000fa
:04022400ec060000e4
:020000040000fa
:04022800ec060000e0
:020000040000fa
:04022c00ec060000dc
:020000040000fa
:04023000ec060000d8
:020000040000fa
:04023400ec060000d4
:020000040000fa
:04023800ec060000d0
:020000040000fa
:04023c00ec060000cc
:020000040000fa
:04024000ec060000c8
:020000040000fa
:04024400ec060000c4
:020000040000fa
:04024800ec060000c0
:020000040000fa
:04024c00ec060000bc
:020000040000fa
:04025000ec060000b8
:020000040000fa
:04025400ec060000b4
:020000040000fa
:04025800ec060000b0
:020000040000fa
:04025c00ec060000ac
:020000040000fa
:04026000ec060000a8
:020000040000fa
:04026400ec060000a4
:020000040000fa
:04026800ec060000a0
:020000040000fa
:04026c00ec0600009c
:020000040000fa
:04027000ec06000098
:020000040000fa
:04027400ec06000094
:020000040000fa
:04027800ec06000090
:020000040000fa
:04027c00ec0600008c
:020000040000fa
:04028000ec06000088
:020000040000fa
:04028400ec06000084
:020000040000fa
:04028800ec06000080
:020000040000fa
:04028c00ec0600007c
:020000040000fa
:04029000ec06000078
:020000040000fa
:04029400ec06000074
:020000040000fa
:04029800ec06000070
:020000040000fa
:04029c00ec0600006c
:020000040000fa
:0402a000ec06000068
:020000040000fa
:0402a400ec06000064
:020000040000fa
:0402a800ec06000060
:020000040000fa
:0402ac00ec0600005c
:020000040000fa
:0402b000ec06000058
:020000040000fa
:0402b400ec06000054
:020000040000fa
:0402b800ec06000050
:020000040000fa
:0402bc00ec0600004c
:020000040000fa
:0402c000ec06000048
:020000040000fa
:0402c400ec06000044
:020000040000fa
:0402c800ec06000040
:020000040000fa
:0402cc00ec0600003c
:020000040000fa
:0402d000ec06000038
:020000040000fa
:0402d400ec06000034
:020000040000fa
:0402d800ec06000030
:020000040000fa
:0402dc00ec0600002c
:020000040000fa
:0402e000ec06000028
:020000040000fa
:0402e400ec06000024
:020000040000fa
:0402e800ec06000020
:020000040000fa
:0402ec00ec0600001c
:020000040000fa
:0402f000ec06000018
:020000040000fa
:0402f400ec06000014
:020000040000fa
:0402f800ec06000010
:020000040000fa
:0402fc00ec0600000c
:020000040000fa
:04030000ec06000007
:020000040000fa
:04030400ec06000003
:020000040000fa
:04030800ec060000ff
:020000040000fa
:04030c00ec060000fb
:020000040000fa
:04031000ec060000f7
:020000040000fa
:04031400ec060000f3
:020000040000fa
:04031800ec060000ef
:020000040000fa
:04031c00ec060000eb
:020000040000fa
:04032000ec060000e7
:020000040000fa
:10040000ef8021000eff27000e0188000000200071
:100410000000e000020032000001200020028800fd
:10042000140007006e0207000000e00003003a001d
:10043000e0c8240001002000020037000000200076
:1004400001002000810f70004220ae000f00070065
:10045000000020000000e0004220ae00000002008a
:100460000000000044500200000000000040da00dc
:100470000000fe00a02020000000e000020032008a
:10048000002020009001880000000600a1028800e2
:10049000800478000000eb001f003700e284440075
:1004a00054a0b4009905ba00e284440054a0b400fa
:1004b0009906ba00e284440054a0b4000006eb00a0
:1004c000476fde00fd07b200ae018800636ce100fb
:1004d00003003a000ad801000000eb000e003700cc
:1004e000606ce10008003a00004deb000a05e800ee
:1004f000020039003420ec000af0a0008b05e9006e
:10050000f9ff3e00040037006168e100010032009d
:100510000086eb000b00070019c7ba001905ba00e6
:100520000e04e00003003a000a00e000dbff3a009e
:1005300000000600fe07b200ae0288008a047800c0
:10054000f5ff37000cd0a300e20f4d001c003b006c
:1005500089027800354dba000a05e800020039002a
:100560003420ec000af0a0008b05e9000f003200f7
:10057000254dba000a05e800020039003420ec00dd
:100580000af0a0008b05e900080032000c00e00032
:100590000600320015cdba000a05e8000200390055
:1005a0003420ec000af0a0008b05e9008984e80003
:1005b00054a0b4000b00e000e2ff3a000000060087
:1005c0009902ba00055d78008b05e900f7ff32005b
:1005d000c82ade00055d78008b05e900f3ff3200d4
:1005e0000c00e000f1ff320019ddba00eeff370029
:1005f0006100e10001003200100005005400f80025
:1006000050102000a002880000f927001000ba0056
:100610005400f9000700260000f0a6008703d1006f
:100620000703780001c4fe000003eb000120200056
:1006300001d0fe0021922800111303008703e90076
:10064000fdff3a0000f0a7000000050000f0a00048
:1006500080c4fe0086037800f3ff37000408200002
:10066000010037000002eb006100e10001003200f0
:10067000100005003200f8003400f8008102780014
:1006800003d0fe003200be000100e0000c0032008a
:100690000470a70000f0a00032037800c733de002a
:1006a000848343004220af008703e800a70188004d
:1006b000f607b2007f30e100040032002000200085
:1006c0003400f9003200f900000006008100e90062
:1006d0000500e00003003a00018009003210030029
:1006e000e8ff37000180090032900300d561ae00b9
:1006f000e4ff370030002000f1ff3700063a040025
:10070000000000007c3f0400000000007e3f040069
:1007100000000000803f040000000000823f040051
:1007200000000000843f0400000000007a3f040045
:10073000000000005a3e0400000000004c3c040091
:10074000000000002e3c040000000000603904009e
:10075000000000009e3c040000000000d8390400a6
:1007600000000000ae3c040000000000863f0400d2
:1007700000000000ee39040000000000f63904001b
:10078000000000004a3e040000000000ec3e0400af
:1007900000000000523b040000000000e0390400ab
:1007a00000000000e8390400000000003a3e0400a8
:1007b000000000006839040000000000c639040091
:1007c00000000000fe39040000000000083a0400a8
:1007d00000000000103a040000000000183a040075
:1007e00000000000203a040000000000283a040045
:1007f00000000000303a040000000000383a040015
:10080000000000002c4e040000000000c24d040057
:1008100000000000ea4d0400000000000e4e04003d
:1008200000000000124e040000000000064e04000c
:1008300000000000244e0400000000002e4e0400c2
:1008400000000000164e0400000000001a4e0400d4
:10085000000000001e4e040000000000a24504003d
:10086000000000005c41040000000000c2410400e0
:1008700000000000943f040000000000cc3f040092
:100880000000000004400400000000003c400400a0
:10089000000000007240040000000000aa400400b4
:1008a00000000000e2400400000000001a410400c3
:1008b0000000000024420400000000002e4204005a
:1008c000000000003047040000000000364704002c
:1008d000000000009a470400000000009847040050
:1008e0000000000038470400000000003c470400fe
:1008f00000000000424704000000000046470400da
:10090000000000004c4704000000000050470400b5
:100910000000000054470400000000005e4704008f
:1009200000000000a447040000000000d8460400b6
:1009300000000000dc46040000000000e046040067
:1009400000000000e44604000000000066470400c8
:10095000000000007e47040000000000e84604009c
:1009600000000000ee46040000000000f446040011
:1009700000000000fa460400000000009647040052
:1009800000000000c247040000000000004704000f
:10099000000000001647040000000000404e040064
:1009a000000000005a4e0400000000006e4e0400db
:1009b00000000000724e040000000000824e04009f
:1009c00000000000a44e040000000000964e040049
:1009d00000000000ac4e040000000000b64e040011
:1009e000000000003c4d0400000000009e4a04008e
:1009f00000000000424a040000000000664a0400b3
:100a000000000000884a0400000000008c4a040036
:100a100000000000d84a040000000000a04a0400c2
:100a200000000000bc4a040000000000904a0400de
:100a300000000000964a040000000000ea4a04009a
:100a400000000000664b0400000000000a4b040098
:100a5000000000002e4b040000000000504b04007a
:100a600000000000544b040000000000a04b0400f4
:100a700000000000684b040000000000844b0400ec
:100a800000000000584b0400000000005e4b040012
:100a900000000000b24b040000000000ca4f040038
:100aa00000000000964f040000000000a64f040064
:100ab00000000000b04f040000000000b44f04002c
:100ac00000000000b84f0400000000008a4f04003e
:100ad00000000000904f040000000000bc4f040024
:100ae00000000000c24f040000000000cc4f0400d2
:100af000000000003600f800809fbe00829fbe000c
:100b0000849fbe00869fbe00ddc5ab0007003a0093
:100b10000328a9004f03be004f02be004f01be00d4
:100b20004f00be003600f900004006002081800022
:100b30000000e0000100320000000100ddc5a90056
:100b40000328a9004f03be004f02be004f01be00a4
:100b50004f00be003600f900004006003600f800e5
:100b6000809fbe00829fbe00849fbe00869fbe0005
:100b7000218280000100e000020032000000eb0052
:100b8000010001000088a9004f03be004f02be0013
:100b90004f01be004f00be003600f90000400600c5
:100ba0003600f800809fbe00829fbe00849fbe007a
:100bb000869fbe00808180000000e00001003200be
:100bc0000000010005a8a9004f03be004f02be00af
:100bd0004f01be004f00be003600f9000040060085
:100be0003600f800809fbe00829fbe00849fbe003a
:100bf000869fbe00c068a900200020006a2507006b
:100c00004f03be004f02be004f01be004f00be00aa
:100c10003600f900004006003600f800809fbe0054
:100c2000829fbe00849fbe00869fbe00c608a900aa
:100c3000700020005c2507004f03be004f02be007d
:100c40004f01be004f00be003600f9000040060014
:100c50003600f800809fbe00829fbe00849fbe00c9
:100c6000869fbe00c488ab000b003a00c4c8ab002e
:100c700025003a00c4a8ab001d003a00c508ab002f
:100c800015003a00c528ab000d003a00c408ab00bf
:100c900007003a00ffff3700c488a900a000200029
:100ca00041250700c4c8ab00f2ff32001600370030
:100cb000c408a900b00020003b250700f5ff37005d
:100cc000c528a900d000200037250700c408ab00c4
:100cd000f0ff3200f6ff3700c508a900c000200071
:100ce00031250700c528ab00e8ff3200f4ff3700cc
:100cf000c4a8a900900020002b250700c508ab0060
:100d0000e0ff3200f4ff3700c4c8a900e000200073
:100d100025250700c4a8ab00d8ff3200f4ff370038
:100d20003600f800809fbe00829fbe00849fbe00f8
:100d3000869fbe00c028a9000000eb001a2507000e
:100d40004f03be004f02be004f01be004f00be0069
:100d50003600f900004006003600f800809fbe0013
:100d6000829fbe00849fbe00869fbe00c088a900ef
:100d7000300020000c2507004f03be004f02be00cc
:100d80004f01be004f00be003600f90000400600d3
:100d90003600f800809fbe00829fbe00849fbe0088
:100da000869fbe00a027210080077800202921000f
:100db00000018800c048a90010002000fa240700a4
:100dc0004f03be004f02be004f01be004f00be00e9
:100dd0003600f900004006000040da000000fe0086
:100de0000000050050052000b00e8800a00a200079
:100df000b00e8800d3e1a8000000060050052000d6
:100e0000b00e8800a00a2000b00e8800d3e1a9002f
:100e1000000006008001e90002814000828f50003e
:100e200001003a0000000600b1697800fbff3700be
:020000040000fa
:100e3000000700000e0900001c1b00001215000036
:100e4000383f000036310000242300002a2d000026
:100e5000707700007e7900006c6b00006265000016
:100e6000484f000046410000545300005a5d000006
:100e7000e0e70000eee90000fcfb0000f2f50000f6
:100e8000d8df0000d6d10000c4c30000cacd0000e6
:100e9000909700009e9900008c8b000082850000d6
:100ea000a8af0000a6a10000b4b30000babd0000c6
:100eb000c7c00000c9ce0000dbdc0000d5d20000b6
:100ec000fff80000f1f60000e3e40000edea0000a6
:100ed000b7b00000b9be0000abac0000a5a2000096
:100ee0008f88000081860000939400009d9a000086
:100ef00027200000292e00003b3c00003532000076
:100f00001f18000011160000030400000d0a000065
:100f100057500000595e00004b4c00004542000055
:100f20006f68000061660000737400007d7a000045
:100f3000898e000087800000959200009b9c000035
:100f4000b1b60000bfb80000adaa0000a3a4000025
:100f5000f9fe0000f7f00000e5e20000ebec000015
:100f6000c1c60000cfc80000ddda0000d3d4000005
:100f7000696e000067600000757200007b7c0000f5
:100f8000515600005f5800004d4a000043440000e5
:100f9000191e000017100000050200000b0c0000d5
:100fa000212600002f2800003d3a000033340000c5
:100fb0004e49000040470000525500005c5b0000b5
:100fc00076710000787f00006a6d000064630000a5
:100fd0003e39000030370000222500002c2b000095
:100fe00006010000080f00001a1d00001413000085
:100ff000aea90000a0a70000b2b50000bcbb000075
:1010000096910000989f00008a8d00008483000064
:10101000ded90000d0d70000c2c50000cccb000054
:10102000e6e10000e8ef0000fafd0000f4f3000044
:101030000000000002000000010000003047000036
:10104000364700009a4700009847000038470000e4
:101050003c47000042470000464700004c47000064
:1010600050470000544700005e470000a4470000be
:10107000d8460000dc460000e0460000e4460000e0
:10108000664700007e470000e8460000ee4600008c
:10109000f4460000fa46000096470000c2470000f0
:1010a000004700001647000000000000000000009c
:1010b0000000000000000000000000000000000030
:1010c0000000000000010000020300000405000011
:1010d00006070000080c0000101400001820000093
:1010e000304000005a3e00004c3c00002e3c000006
:1010f000603900009e3c0000d8390000ae3c000082
:10110000863f0000ee390000f63900004a3e00003c
:10111000ec3e0000523b0000e0390000e8390000de
:101120003a3e000068390000c6390000fe39000070
:10113000083a0000103a0000183a0000203a000077
:10114000283a0000303a0000383a00005c410000c4
:10115000c2410000943f0000cc3f0000044000006a
:101160003c40000072400000aa400000e240000045
:101170001a410000244200002e420000c24d00002f
:10118000ea4d00000e4e0000124e0000064e000018
:10119000244e00002e4e0000ce880000164e0000a7
:1011a0001a4e00001e4e0000424a0000664a00002f
:1011b000884a00008c4a0000d84a0000a04a00007b
:1011c000bc4a0000904a0000964a0000ea4a00002b
:1011d0000a4b00002e4b0000504b0000544b000007
:1011e000a04b0000684b0000844b0000584b0000ef
:1011f0005e4b0000b24b0000964f0000a64f00006f
:10120000b04f0000b44f0000b84f00008a4f0000fc
:10121000904f0000bc4f0000c24f0000cc4f0000b8
:10122000404e00005a4e00006e4e0000724e00000c
:10123000824e0000a44e0000964e0000ac4e00000e
:04124000b64e0000a6
:020000040000fa
:04124400ffffff00a9
:020000040000fa
:1012480000000000ca0000001f00000000020400a7
:101258000000000030070000b0060000cc060000c7
:10126800680700004c070000ac070000e806000013
:10127800ac070000ac070000ac070000ac0700009a
:10128800ac070000ac070000ac070000ac0700008a
:10129800ac070000ac070000ac070000ac0700007a
:1012a800ac070000ac070000ac070000ac0700006a
:1012b800ac070000ac070000ac070000ac0700005a
:1012c800ac070000ac070000ac070000ac0700004a
:1012d800ac070000ac070000ac070000ac0700003a
:1012e800ac070000ac070000ac070000ac0700002a
:1012f800ac070000ac070000ac070000ac0700001a
:10130800ac070000ac070000ac070000ac07000009
:10131800ac070000ac070000ac070000ac070000f9
:10132800ac070000ac0700008c070000ac07000009
:10133800ac070000ac070000ac070000ac070000d9
:10134800ac070000ac070000ac070000ac070000c9
:10135800ac070000ac070000ac070000ac070000b9
:10136800ac070000ac070000ac070000ac070000a9
:10137800ac070000ac070000ac070000ac07000099
:10138800ac070000ac070000ac070000ac07000089
:10139800ac070000ac070000ac070000ac07000079
:1013a800ac070000ac070000ac070000ac07000069
:1013b800ac070000ac070000ac070000ac07000059
:1013c800ac070000ac070000ac070000ac07000049
:1013d800ac070000ac070000ac07000044050000a3
:1013e800520400007c060000ac070000ac070000b7
:1013f800ac070000ac070000ac070000ac07000019
:10140800ac070000ac070000e0050000ac070000d6
:10141800ac070000ac070000ac0700001406000091
:10142800ac070000ac070000ac070000ac070000e8
:10143800ac070000ac070000ac070000ac070000d8
:10144800ac070000ac070000ac070000ac070000c8
:10145800ac070000ac070000ac070000ac070000b8
:10146800ac070000ac070000ac070000ac070000a8
:10147800ac070000ac070000ac070000ac07000098
:10148800ac070000ac070000ac070000ac07000088
:10149800ac070000ac070000ac070000ac07000078
:1014a800ac070000ac070000ac070000ac07000068
:1014b800ac070000ac070000ac070000ac07000058
:1014c800ac070000ac070000ac070000ac07000048
:1014d800ac070000ac070000ac070000ac07000038
:1014e800ac070000ac070000ac070000ac07000028
:1014f800ac070000ac070000ac070000ac07000018
:10150800ac070000ac070000ac070000ac07000007
:10151800ac070000ac070000ac070000ac070000f7
:10152800ac070000ac070000ac070000ac070000e7
:10153800ac070000ac070000ac070000ac070000d7
:10154800ac070000ac070000ac070000ac070000c7
:10155800ac070000ac070000ac070000ac070000b7
:10156800ac070000ac070000ac0700000000fe005c
:101578000000fe0000020000000200001f00000042
:101588000f2321002efd24000e018800000000001a
:10159800000020000000e0000200320000012000ee
:1015a8002002880014000700cd0207000000e000b8
:1015b80003003a00c0992100010020000200370012
:1015c8000000200001002000810f7000010032009f
:1015d8000f000700000020000000e00002003200b9
:1015e8000000020000000000ec1d020000000000e6
:1015f8000040da000000fe00e00c20000000e000df
:10160800020032000020200090018800000006003f
:10161800a1028800800478000000eb001f0037005a
:10162800e284440054a0b4009905ba00e28444005e
:1016380054a0b4009906ba00e284440054a0b4004f
:101648000006eb00476fde00fd07b200ae01880020
:10165800636ce10003003a000ad801000000eb00c7
:101668000e003700606ce10008003a00004deb0006
:101678000a05e800020039003420ec000af0a00056
:101688008b05e900f9ff3e00040037006168e100be
:10169800010032000086eb000b00070019c7ba00f2
:1016a8001905ba000e04e00003003a000a00e00041
:1016b800dbff3a0000000600fe07b200ae02880019
:1016c8008a047800f5ff37000cd0a300e20f4d0024
:1016d8001c003b0089027800354dba000a05e80075
:1016e800020039003420ec000af0a0008b05e90064
:1016f8000f003200254dba000a05e8000200390043
:101708003420ec000af0a0008b05e9000800320044
:101718000c00e0000600320015cdba000a05e8000a
:10172800020039003420ec000af0a0008b05e90023
:101738008984e80054a0b4000b00e000e2ff3a00fe
:10174800000006009902ba00055d78008b05e900e3
:10175800f7ff3200c82ade00055d78008b05e90036
:10176800f3ff32000c00e000f1ff320019ddba008f
:10177800eeff37000000000000000000000000003d
:101788000000000000000000000000000000000051
:101798000000000000000000000000000000000041
:1017a8000000000000000000000000000000000031
:1017b8000000000000000000000000000000000021
:101a2800000000003600f800809fbe00829fbe00c4
:101a3800849fbe00869fbe003200f8003400f80084
:101a480010002000a00188000020200000d0fe0027
:101a58005baea80023aea800f000200050200a00ca
:101a6800080b0000090ba80061608000618b8800ea
:101a7800608b8000e18b80000100500000f0a7001f
:101a88000000ea00708b880023aea900718b8000eb
:101a9800203a2000808f500003003400b08180007d
:101aa800e50f500053003e007060800010898800e8
:101ab80010898000918980000100500000f0a70083
:101ac8000000ea002089880021898000203a20004f
:101ad800808f500003003400b0818000e50f500073
:101ae80039003e0001618000318488003184800023
:101af80020d22000808f500027003c0050618000d9
:101b080010868800e106210010002000a2080700c6
:101b18000004e0000e003a00a000200050200a0057
:101b2800080b0000ae0307000b68a9005baea90014
:101b38003400f9003200f9004f03be004f02be0026
:101b48004f01be004f00be003600f90000400600fd
:101b5800220c07002008210011c0b30010c8700033
:101b6800a000200050200a00080b00009c0307007a
:101b78000b68a9005baea9003400f9003200f90037
:101b88004f03be004f02be004f01be004f00be0013
:101b98003600f900004006003ad0a8003a10a90023
:101ba8003a30a80043090700506180001086880079
:101bb800e106210010002000770807000004e0007b
:101bc800d5ff3200e2ff37003a90a8003a10a9008a
:101bd8003a30a80037090700016180003184880085
:101be8003184800020d22000808f5000c3ff340051
:101bf800e9ff37003a70a8003a10a9003a30a80067
:101c08002c090700a8ff37003600f800809fbe00a7
:101c1800829fbe00849fbe00869fbe003200f800ef
:101c28003400f80010002000a001880000202000e7
:101c380000d0fe00808280000000e0000100320039
:101c4800000001000ca8ab0033003a000d48ab00bf
:101c580027003a000b68ab001b003a000b88ab006a
:101c680009003a000b48a9003400f9003200f900d5
:101c78004f03be004f02be004f01be004f00be0022
:101c88003600f90000400600716080007282800012
:101c98000200e000020032003000200002000100d3
:101ca8000b88a9000b48a9003400f9003200f9009c
:101cb8004f03be004f02be004f01be004f00be00e2
:101cc8003600f900004006006160800072828000e2
:101cd8000200e000020032002000200002000100a3
:101ce8000b68a9000b88ab00deff3200e6ff370067
:101cf80051618000728280000200e0000200320020
:101d080010002000020001000d48a9000b68ab007c
:101d1800d2ff3200ecff3700016180007282800040
:101d28000200e000020032000000eb0002000100a7
:101d38000ca8a9000d48ab00c6ff3200ecff370025
:101d48003600f800809fbe00829fbe00849fbe00c0
:101d5800869fbe003200f8003400f8001000200012
:101d6800a00188000020200000d0fe000161800052
:101d7800728280000200e000020032000000eb00e6
:101d880000060000000200001f0000000200010021
:101d98000ca8a9003400f9003200f9004f03be0076
:101da8004f02be004f01be004f00be003600f900d2
:101db800004006003600f800809fbe00829fbe00eb
:101dc800849fbe00869fbe003200f8003400f800f1
:101dd80010002000a00188000020200000d0fe0094
:101de80051618000728280000200e000020032002f
:101df80010002000020001000d48a9003400f9007d
:101e08003200f9004f03be004f02be004f01be0072
:101e18004f00be003600f900004006003600f8000a
:101e2800809fbe00829fbe00849fbe00869fbe002a
:101e38003200f8003400f80010002000a0018800eb
:101e48000020200000d0fe006160800072828000c7
:101e58000200e00002003200200020000200010021
:101e68000b68a9003400f9003200f9004f03be00e6
:101e78004f02be004f01be004f00be003600f90001
:101e8800004006003600f800809fbe00829fbe001a
:101e9800849fbe00869fbe003200f8003400f80020
:101ea80010002000a00188000020200000d0fe00c3
:101eb80071608000728280000200e000020032003f
:101ec80030002000020001000b88a9003400f9004e
:101ed8003200f9004f03be004f02be004f01be00a2
:101ee8004f00be003600f900004006003600f8003a
:101ef800809fbe00829fbe00849fbe00869fbe005a
:101f0800c068a90020002000b30b07004f03be00e3
:101f18004f02be004f01be004f00be003600f90060
:101f2800004006003600f800809fbe00829fbe0079
:101f3800849fbe00869fbe00c608a90070002000ce
:101f4800a50b07004f03be004f02be004f01be00a5
:101f58004f00be003600f900004006003600f800c9
:101f6800809fbe00829fbe00849fbe00869fbe00e9
:101f7800c488ab0007003a00c4a8ab0015003a00bb
:101f8800c508ab000d003a00c408ab0007003a00d2
:101f9800ffff3700c488a900a00020008e0b0700af
:101fa800c4a8ab00f6ff32000a003700c408a90035
:101fb800b0002000880b0700f5ff3700c508a9000e
:101fc800c0002000840b0700c408ab00f0ff3200fb
:101fd800f6ff3700c4a8a900900020007e0b070078
:101fe800c508ab00e8ff3200f4ff37003600f80000
:101ff800809fbe00829fbe00849fbe00869fbe0059
:10200800c028a9000000eb00730b07004f03be00b7
:102018004f02be004f01be004f00be003600f9005f
:10202800004006003600f800809fbe00829fbe0078
:10203800849fbe00869fbe00c088a9003000200093
:10204800650b07004f03be004f02be004f01be00e4
:102058004f00be003600f900004006003600f800c8
:10206800809fbe00829fbe00849fbe00869fbe00e8
:1020780000212100800778008022210000018800cb
:10208800c048a90010002000530b07004f03be00f2
:102098004f02be004f01be004f00be003600f900df
:1020a800004006003600f800809fbe00829fbe00f8
:1020b800849fbe00869fbe00408180000000e00033
:1020c800010032000000010005a8a9004f03be006e
:1020d8004f02be004f01be004f00be003600f9009f
:1020e800004006000040da000000fe000000050085
:1020f8006022b800060220000000d0008180d200d3
:102108000482d2008582d2000000a00002025200a0
:1021180083825a00030031000202420083824a008f
:102128000000a1000603e900f3ff3a0000000600e2
:102138000000000002000000010000008e150000f1
:102148006816000092150000961500009c15000006
:10215800a0150000a6150000aa150000ee15000045
:10216800ae150000c6150000461500004c1500000d
:1021780052150000581500000c160000ec15000060
:102188005e1500007415000000000000000000004b
:102198000000000000000000000000000000000037
:1021a80000000000100b0000d8090000a008000083
:1021b800a4080000a8080000ac080000b00800004f
:1021c800b2080000d4080000000900002609000039
:1021d8002a0900002e09000032090000a20a0000a6
:1021e800000c00002e880000ac0a00000c0b000058
:1021f800b60a00000000000038090000620900006b
:102208008c090000ae090000120c0000980a0000ba
:10221800000000007e130000aa130000bc13000099
:10222800d6130000e0130000e8130000f6130000c6
:102238000414000008140000000000000000000062
:102248000c140000241400002c1400008a14000050
:1022580092140000a41400000215000034140000b9
:102268000000000000000000000000000000000066
:102278000000000000000000be1a0000e41a000080
:10228800081b00000c1b0000001b00001e1b0000a8
:10229800281b000086880000101b0000141b00008b
:1022a800181b0000e41c0000f21c0000fc1c0000cd
:1022b800001d0000041d0000d81c0000de1c0000ea
:1022c800081d00000e1d0000181d000001eba800ed
:1022d8000000060001eba9000000060008cba800da
:1022e8000000060008cba900000006000000060058
:1022f800e10f5000090032000000e0000b0032003e
:10230800e20f500007003200e30f500002003a00cd
:102318007060800000000600000005005061800029
:102328000000060060608000000006000061800078
:1023380000000600e10f50000a0032000000e00033
:102348000f003200e20f50000a003200e30f500085
:1023580003003a0011a00a00300b0000000006003c
:102368000000050080598000ff800a00000000007e
:1023780000000600805980006140600000000600ef
:10238800aaa00a00300b00000000060063406000ad
:102398004801dd00f1cf2f00b45e80008481600029
:1023a80083017100b35e8800d35e80008380600083
:1023b80081007100d15e88004500dd0021b0200059
:1023c80091407800f2c9b30082c0600000c070007c
:1023d80002ebb700000006002b48a800000006002a
:1023e8002b48a900000006000b48a90000000600c1
:1023f800a8200a006c08000000000600e10f500049
:102408000a0032000000e0000e003200e20f500027
:1024180009003200e30f500003003a002b88a8009f
:10242800202ba80000000600000006002d48a80088
:1024380021eba800000006002b68a800200ba800cc
:10244800000006002ca8a800214ba80000000600e8
:10245800e10f50000a0032000000e0000e003200d8
:10246800e20f500009003200e30f500003003a0069
:102478002b88a900202ba9000000060000000600f8
:102488002d48a90021eba900000006002b68a9002f
:10249800200ba900000006002ca8a900214ba900c8
:1024a80000000600e10f5000090032000000e000c3
:1024b8000b003200e20f500007003200e30f50001b
:1024c80002003a000b88a900000006000000060080
:1024d8000d48a900000006000b68a90000000600ce
:1024e8000ca8a90000000600e10f50000a00320005
:1024f8000000e0000e003200e20f50000900320038
:10250800e30f500003003a0020210a006e08000083
:102518000000060000000600a8210a007408000058
:1025280000000600ec210a006c080000000006000c
:1025380064210a00720800000000060001eba900ef
:10254800606080000b68a9002b68a9000b48a900ef
:102558002b48a900002bef00000620001058880027
:10256800042bef00062bef00082bef000a2bef00df
:102578000c2bef000e2bef00102bef00122bef00af
:10258800142bef00202bef00222bef00000a000095
:10259800000200001f000000302bef00322bef007c
:1025a800382bef00402bef00482bef00502bef00ab
:1025b8003a2bef00422bef004a2bef00522bef0093
:1025c8003c2bef00442bef004c2bef00542bef007b
:1025d8003e2bef00462bef004e2bef00562bef0063
:1025e800682bef006c2bef00702bef00742bef00c3
:1025f8006a2bef006e2bef00722bef00762bef00ab
:10260800802bef00822bef00842bef00862bef004e
:10261800882bef008a2bef008c2bef008e2bef001e
:10262800902bef00922bef00942bef00a02bef00e4
:10263800a42bef00a82bef00ac2bef00d02bef0062
:10264800d22bef00d42bef00d82bef000030200066
:10265800b05e8800d05e8800f02bef00f22bef0010
:10266800f82bef00fa2bef00002cef00022cef0004
:102678000c2cef000e2cef00102cef00122cef00aa
:10268800142cef00162cef00182cef001a2cef007a
:102698001c2cef001e2cef00202cef00222cef004a
:1026a800242cef00262cef00282cef002a2cef001a
:1026b8002c2cef002e2cef00302cef00322cef00ea
:1026c800342cef000000060000eca800000ce2002b
:1026d800feff3d000aeba800000006000000e00035
:1026e8000100320080828800000006000000060019
:1026f8000000e0000100320070828800000006003f
:1027080000000600e10f5000210032000000e00048
:1027180017003200e20f50000d003200e30f5000a6
:102728000a003a0011a10a00300b00000104e00081
:102738000500320071608000728280000200e000b3
:10274800010032000200010000000600000006003f
:10275800300bab00fcff32006160800072828000a9
:102768000200e000f8ff320002000100f6ff370027
:10277800314bab00f4ff32000161800072828000af
:102788000200e000f0ff32000000eb00020401004c
:10279800300be200ecff3d00516180007282800046
:1027a8000200e000e8ff320002000100e6ff370007
:1027b8000000060000000600002bef0000062000c5
:1027c80010588800042bef00062bef00082bef00b1
:1027d8000a2bef0030002000605888000e2bef0015
:1027e800102bef00122bef00142bef00100020002d
:1027f80000598800222bef00302bef00322bef001e
:10280800382bef00402bef00482bef00502bef0048
:102818003a2bef00422bef004a2bef00522bef0030
:102828003c2bef00442bef004c2bef00542bef0018
:102838003e2bef00462bef004e2bef00562bef0000
:10284800682bef006c2bef00702bef00742bef0060
:1028580000402000505b8800705b8800905b880017
:10286800b05b8800a02bef00a42bef00a82bef0093
:10287800ac2bef00d02bef00d22bef00d42bef00c6
:10288800d82bef0000302000b05e8800d05e8800b2
:10289800f02bef00f22bef00f82bef00fa2bef00f4
:1028a800022cef000c2cef000e2cef00102cef0088
:1028b800122cef00142cef00162cef00182cef0050
:1028c8001a2cef001c2cef001e2cef00202cef0020
:1028d800222cef00242cef00262cef00282cef00f0
:1028e8002a2cef002c2cef002e2cef00302cef00c0
:1028f800322cef00342cef00a0aa20008082880040
:1029080040ab2000708288000b48a9002b48a80023
:102918000b68a9002b68a80010608000b8400a0066
:10292800000f00001060880001eba800000ca80050
:10293800010cab00feff32000a0ba800002ca80017
:10294800012cab00feff32000a2ba80000eca80007
:10295800000ce200feff3d000aeba800404020000a
:10296800005c8800822bef00842bef00862bef00a1
:10297800882bef0040002000505c88008c2bef0073
:1029880000102000705c8800902bef00922bef0065
:10299800942bef00000006000b48ab0001003a0042
:1029a80000000600808280000000e0000100320084
:1029b800000001000b48a900000006000000e0002c
:1029c80008003200e10f500005003a00002ca80072
:1029d800012cab00feff32000a2ba8000000060005
:1029e80000000600000ca800010cab00feff32003e
:1029f8000a0ba80000000600889fbe008a1f780006
:102a08005acea800a08480000000e800a0848800b6
:102a1800d08b80000000e800d08b8800808980007f
:102a28000000e800808988003084800022818000ce
:102a3800338180004f82de000203400083034a0096
:102a4800268188003781880028182100128180009b
:102a58001858a300020032001868a300d100320001
:102a68000200e0001f003200a2848000e10f510044
:102a78001c00360075848000c5848800a28480000c
:102a88000201e9000500090042bbd80070848800f3
:102a98002430ef002630ef002230ef000000eb007a
:102aa800a0848800ba818000e10f55001e00320022
:102ab80055800a001800000066000a00180000008f
:102ac8005acea9005acea8005acea900e919210069
:102ad8001928a30050003a004f0578004f04be00a3
:102ae80000000600a384800002f42100828f5100b8
:102af800ecff360075848000c5848800a2848000bd
:102b08000201e9000500090042bbd8007084880072
:102b18002430ef002630ef002230ef000000eb00f9
:102b2800a0848800dfff3700628b8000d48080009b
:102b3800e58080004f93de000401410085014b00d1
:102b4800d2808800e3808800148980006122b9005f
:102b5800b0808000c18080000000420081804a006f
:102b6800b0808800c180880000818000e10f50009b
:102b7800a2003600d08b8000e10f50009f00360085
:102b8800d48b80000402e900050009004499d800ac
:102b9800e08b88001a30ef001c30ef002030ef0087
:102ba8000000eb00d08b8800f0808000e10f50001f
:102bb8008100360080898000e10f50007e003600d9
:102bc80084898000b2808000c38080000402e9000c
:102bd800050009004499d800908988001630ef0054
:102be8001830ef001e30ef000000eb0080898800ed
:102bf80055800a001800000066000a00180000004e
:102c08005acea9005acea8005acea900e919210027
:102c18001928a300b0ff32001938a30086003a0033
:102c2800190078004400de006140600011820a004b
:102c380018000000824f5000040032001850a00015
:102c4800908c80000000e800908c88001828a30071
:102c580081003a005acea8005acea9001938a3001c
:102c680049003a00018b8000908580004300dd0018
:102c78000180b900608c8800718c8800608c8000ad
:102c8800718c80004109dd004f00de0000007100fa
:102c9800cf08de00808c880011800a00190000002f
:102ca8000004e0000300320090858000000040002e
:102cb800808c8800708b80004400dd00808b880049
:102cc800e08c80000008a30019003a005acea80042
:102cd8003b90a9003b90ab00aa003200b185800070
:102ce800f0ff2300808f5000a6003e00b1858000d1
:102cf800f08a800002002400020040000100500019
:102d0800c1cc2000810f50009f003e00d0cc200095
:102d1800e08188005acea900308e8800828c80001d
:102d28006318210001172100401b2100f406070049
:102d38005acea8005acea900318c8000f03120006c
:102d4800808f500002003e000000eb00308c8800ad
:102d5800318c800000b02400808f500001003600c4
:102d6800308c88001808a30007003a00eea00a007b
:102d7800220e000010c0b200ee200a00220e000051
:102d8800338c8000731a880044800a001900000000
:102d980011000a0018000000000e000000020000e8
:102da8001f0000004f0578004f04be000000060019
:102db8000201e800128188002030ec001e30ec008f
:102dc8002aff37008289800000fa2000800f510016
:102dd8003aff360084898000b2808000c38080007a
:102de8000402e900050009004499d8009089880088
:102df8001630ef001830ef001e30ef000000eb0037
:102e0800808988007dff3700d48b800000fa20007d
:102e1800800f520067ff3600d48b80000402e9005f
:102e2800050009004499d800e08b88001a30ef00ab
:102e38001c30ef002030ef000000eb00d08b880042
:102e48005cff370031a3a8003183a8005a2ea900df
:102e58005a0ea9004e23ef0010002000408c880075
:102e680072ff37005acea8001858a3000d00320090
:102e78001808a3000b003a001938a30009003a000b
:102e88001800a0000000eb00208c88001948a3005f
:102e98006800320031c3a8003183a90031a3a8001b
:102ea8001850a1001808a30011003200208c8000df
:102eb8000000e800208c8800e90f50003e00360032
:102ec8001800a100e0012000208c88001948a30008
:102ed8004400320031c3a90031a3a9003183a800fe
:102ee800e70f5500020036005a2ea9005a0ea80016
:102ef8005acea9001808a30059ff3a001938a300b0
:102f080057ff3a00e90f55000200320018a8a30045
:102f180053ff32005acea800708b8000e1032000d6
:102f2800810f500037003600408c80000000e80018
:102f3800408c8800408c8000e60f5000030036006b
:102f480060002000408c88001870a000408c800031
:102f58000000e00003003a0010002000408c8800c8
:102f68001870a1001878a3002d0032001948a3009a
:102f7800350032003183a9005acea9005acea800e4
:102f88005acea9001938a30082ff3a0038ff37004b
:102f9800c0cc2000e08188005acea900308e88007d
:102fa800828c80006318210001172100401b21003a
:102fb8005606070061ff3700228c80004a11dd00a9
:102fc800d07280000050a2000002b200d3728000cc
:102fd8000350a10083017000d3728800721a880020
:102fe800c3ff370031c3a8003183a90031a3a8006b
:102ff800e70f5500beff36005a0ea9005a2ea8004a
:10300800bbff3700d1032000810f5000c9ff3e00ed
:10301800408c80000000e900408c8800c5ff370024
:103028001948a3000b0032003183a8005acea9002a
:10303800d2ff370031c3a90031a3a9003183a8000a
:103048001850a10097ff370031a3a9005acea90054
:10305800caff370031a3a8005acea900c7ff37001e
:10306800889fbe008a1f780084030700fae1ab003e
:1030780002003200fa01ab004a003a00b181800038
:1030880001007800f2ff2f00f3ff2f0002814000bb
:10309800e0814900e90f5100e08f59000700360030
:1030a800e40f500032003e0000808800b0818800a4
:1030b8004f0578004f04be0000000600020601001c
:1030c8007b00370042003700450037008500370095
:1030d8009000370098003700030037006a00370077
:1030e800560037003a0037009880800021012100ff
:1030f8008808e9000800e000a3003a002918210028
:103108001928a300a0003200c3e8a90000000000ad
:103118000000000010002000408c88001970a100f9
:10312800f08988008a1321001a70a100401b210031
:10313800ea050700801c2100e8050700c01d2100e2
:10314800e60507007084800090858800c3e8a80021
:1031580000000000000000001950a0001a50a00054
:103168008000200030808800b08188009885880021
:10317800f18c80000128a300cbff3a005bcea900a8
:10318800d5030700a0002000008088003a10a9009d
:103198003a30a800b08188004f0578004f04be007f
:1031a8000000060071030700b1818000010078006b
:1031b800f2ff2f00f3ff2f0002814000e081490059
:1031c800e90f5100e08f5900b5ff3e00bbff370003
:1031d80000000000e40f5000b3ff3600e4ff3700a2
:1031e8003a10ab00800032003a10a8003a50a9000b
:1031f8003a70a9003a90a9003ab0a9003a30a9005b
:103208003ad0a900e01921001044a100201821009b
:103218001010a100401521001044a10080132100c6
:103228001010a10000712200a0808800400020003a
:1032380060808800008088009cff37003a10ab004f
:1032480082003200a285800091858000f4804000d1
:10325800810f510068003e00a285800091858000a2
:10326800f4805000810f5100630039009100200064
:1032780011808800b1818800f18c80000128a300aa
:1032880089ff3a00bdff37003a10ab0063003200f7
:103298008100200021808800b0818800a4030700f5
:1032a800b0818800e40f50007fff3600b0ff370080
:1032b800f18c80000128a300470032008080800044
:1032c800010121008008e9000000e00069003200e7
:1032d80070808000b0818800e40f500072ff3600d3
:1032e800a3ff3700a1808000420121000109e90005
:1032f8000100e00034003a005000200050808800af
:10330800b0818800f18c80000128a30066ff3a0094
:103318009aff37005bcea800401f2000a0808800dd
:1033280060002000b0818800f18c80000128a30093
:103338005dff3a0091ff3700a18080004201210023
:103348000109e9000100e00018003a0021182100f5
:103358001128a30015003a001120a00080132100b5
:103368001020a000401f20009080880070002000de
:1033780040808800b0818800f18c80000128a3007b
:1033880049ff3a007dff3700710020003180880036
:10339800b18188008000eb0091858800f18c800065
:1033a8000128a30040ff3a0074ff370061002000a5
:1033b80041808800b1818800f18c80000128a30039
:1033c80039ff3a006dff3700410020005180880026
:1033d8000080880035ff37001100200071808800c8
:1033e8000080880031ff37003100200061808800ac
:1033f800008088002dff37002018210010a0a000b1
:103408008000200010808800b0818800f18c800046
:103418000128a30024ff3a0058ff37002018210094
:103428001020a100801321001020a1002a0307000a
:103438005bcea9003000200020808800b081880081
:103448003b030700b081880096ff37002018210051
:103458001020a100801321001020a1001e030700e6
:103468005bcea90030002000108088000080880012
:103478000eff3700e18b8000407e2000808f5000d7
:1034880008003c00e18b800050812000808f5000b4
:10349800040034002000200070808800008088002c
:1034a80002ff37003000200070808800008088000c
:1034b800fefe370030002000001888000223ef00cd
:1034c8000423ef000623ef000823ef0080e1240027
:1034d800501888000c23ef000e23ef001023ef0094
:1034e8001223ef001423ef001623ef001823ef0038
:1034f8001a23ef001c23ef001e23ef002023ef0008
:103508002223ef002423ef002623ef002823ef00d7
:10351800c008200050198800001b8800b01c8800d3
:10352800cc23ef000224ef003824ef006e24ef00d4
:10353800a424ef0000802400601988000000240003
:10354800101b880010002400c01c8800ce23ef0048
:103558000424ef003a24ef007024ef00a624ef00c3
:103568002e23ef006423ef009a23ef00d023ef000f
:103578000624ef003c24ef007224ef00a824ef009b
:103588000010230080198800301b8800e01c880088
:10359800d223ef000824ef003e24ef007424ef004c
:1035a800aa24ef0000120000000200001f00000023
:1035b800c000200090198800401b8800f01c88007b
:1035c800d423ef000a24ef004024ef007624ef0014
:1035d800ac24ef0080102000a01988008000200093
:1035e800501b8800001d8800d623ef000c24ef0034
:1035f8004224ef007824ef00ae24ef003623ef00da
:103608006c23ef00a223ef00d823ef000e24ef0075
:103618004424ef007a24ef00b024ef003823ef00b1
:103628006e23ef00a423ef00da23ef001024ef004d
:103638004624ef007c24ef00b224ef003a23ef0089
:103648007023ef00a623ef00dc23ef001224ef0025
:103658004824ef007e24ef00b424ef003c23ef0061
:103668007223ef00a823ef00de23ef001424ef00fd
:103678004a24ef008024ef00b624ef003e23ef0039
:103688007423ef00aa23ef00e023ef001624ef00d5
:103698004c24ef008224ef00b824ef004023ef0011
:1036a8007623ef00ac23ef00e223ef001824ef00ad
:1036b8004e24ef008424ef00ba24ef004223ef00e9
:1036c8007823ef00ae23ef00e423ef001a24ef0085
:1036d8005024ef008624ef00bc24ef004423ef00c1
:1036e8007a23ef00b023ef00e623ef001c24ef005d
:1036f8005224ef008824ef00be24ef004623ef0099
:103708007c23ef00b223ef00e823ef001e24ef0034
:103718005424ef008a24ef00c024ef004823ef0070
:103728007e23ef00b423ef00ea23ef002024ef000c
:103738005624ef008c24ef00c224ef004a23ef0048
:103748008023ef00b623ef00ec23ef002224ef00e4
:103758005824ef008e24ef00c424ef004c23ef0020
:103768008223ef00b823ef00ee23ef002424ef00bc
:103778005a24ef009024ef00c624ef004e23ef00f8
:103788008423ef00ba23ef00f023ef002624ef0094
:103798005c24ef009224ef00c824ef005023ef00d0
:1037a8008623ef00bc23ef00f223ef002824ef006c
:1037b8005e24ef009424ef00ca24ef0080c32900a0
:1037c800901a8800401c8800f01d8800f423ef0040
:1037d8002a24ef006024ef009624ef00cc24ef00a9
:1037e80080d52400a01a88008a23ef00c023ef00a8
:1037f800f623ef002c24ef006224ef009824ef005a
:10380800ce24ef005623ef008c23ef00c223ef00f5
:10381800f823ef002e24ef006424ef009a24ef0031
:10382800d024ef005823ef008e23ef00c423ef00cd
:10383800fa23ef003024ef006624ef009c24ef0009
:10384800d224ef00401f2000d01a8800801c880076
:10385800301e8800fc23ef003224ef006824ef00bc
:103868009e24ef00d424ef00e01a8800901c880002
:10387800401e8800fe23ef003424ef006a24ef0086
:10388800a024ef00d624ef005e23ef009423ef007e
:10389800ca23ef000024ef003624ef006c24ef0069
:1038a800a224ef00d824ef00000006000008200042
:1038b800c01188003a22ef003c22ef0020022000cd
:1038c800f0118800800d2000001288004222ef00cd
:1038d8004c22ef004e22ef005022ef005222ef0060
:1038e8005422ef005622ef005822ef005a22ef0030
:1038f8005c22ef0039e2a80038a2a8003882a800ac
:10390800000006003822ef003a22ef0000082000ed
:10391800e0118800e0022000f01188004022ef004a
:103928004222ef000000060011a00a003e0200003b
:10393800e14f5000fcff320011a00a003c020000d9
:10394800e14f500002003200201280000000060003
:103958003c22a90020128000000006003e82ab0035
:10396800feff3a000080fb004012880000000600bd
:1039780011a00a003e02000010c0b20000000600bc
:103988000040eb003e82ab0003003a00c01180000b
:103998004500de0061406000000006000040eb00ca
:1039a8003ce2ab0003003200f01180004500de006d
:1039b800614060000000060038a2a8000000060070
:1039c80038a2a900000006005cc2a900614160009d
:1039d8004211dd00c1252000914078000124a1009a
:1039e80082c07000c22520000149780066200a00c4
:1039f8003802000000000600c01180004600de000a
:103a08006140600000000600e01280004200de0015
:103a180061406000000006005a30ef000000eb0033
:103a28003c62ab0022003a003cc2ab0019003a00ed
:103a380011a10a003c020000e1cf50000f00320043
:103a48003c02ab0007003a003ca2ab0001003a0080
:103a5800000006000040a000d08288003ca2a90017
:103a6800000006000030a000d08288003c02a900b7
:103a78003ca2ab00f6ff3200f6ff37000020a000a2
:103a8800d08288003c22a9003c02ab00eeff320045
:103a9800f4ff37000010a000d082880011a10a00ae
:103aa8003c020000e1cf5000e5ff3a00f3ff370089
:103ab80010002000d08288003cc2ab00dcff32003e
:103ac800f4ff370000128800ef80600011128800b0
:103ad80000000600101280008000eb00c001dd002d
:103ae80002002000001280008000eb00020070003d
:103af80083807000000006000002be00e005200080
:103b0800800f5200e08f5a000a0036003b62a8007e
:103b180038e2a9000401be0000102e00515f200009
:103b28007cf90700001288006f806000101288007e
:103b3800000006003b62a900f70f5200e08f5a0010
:103b48000e00360038e2a8004229dd00ce21de0052
:103b5800830171004221dd0000102e00515f20001a
:103b68006cf9070061005000e080580000128800de
:103b78006f806000101288000000060038e2a9007b
:103b88004429dd00cc21de00830171004421dd00e1
:103b980000102e00515f20005ef907006100500000
:103ba800e0805800001288006f80600010128800c2
:103bb80000000600121280008001eb00c012dd0038
:103bc80004002000021280008001eb000401710053
:103bd800858171003b62ab000b003a006100410037
:103be800e080490038e2ab000d003a004409dd00ee
:103bf800cc01de00830171004401dd0000102e00bd
:103c0800515f200043f93700e00f5100e08f590061
:103c1800f2ff320000102e00515f20003df93700fe
:103c28004209dd00ce01de00830171004201dd00a2
:103c380000102e00515f200036f9370099a00a00c5
:103c4800fa0100000000060088a00a00fa0100003e
:103c58000000060011a00a00fa010000000006009a
:103c6800d00f800061406000000006000000e00006
:103c780006003200e10f500003003a0011a00a00cc
:103c8800d80100000000060000000500c00e8000fa
:103c980061406000000006000000e00007003200fc
:103ca800e10f500004003a0011a00a00d8010000fa
:103cb80010c0b2000000060000000500c00e800021
:103cc8006140600010c0b20000000600d221ef0081
:103cd80000000600d321a8000000060088a00a0002
:103ce800d401000000000600d321a900000006004e
:103cf80099a00a00d401000000000600d301a80022
:103d080000000600d301a900000006000001eb0036
:103d18000100e00007003200fb01ab0005003a009b
:103d2800e31f2000131878000201e800828f50007a
:103d3800f9ff3a0002007800000006000100e000e8
:103d48001000320011a20a00fa0100000204e0008b
:103d58000001eb0009003a00b0017800e30f880089
:103d68000201e800828f50000400320011a30a000b
:103d7800fa0100000304e000f7ff320002007800b7
:103d880000000600000005000000050040002000bb
:103d9800d401e20005003500dca10a00d4010000ce
:103da80030002000e2cf500001003600000006007d
:103db80000160000000200001f0000008180fb00c8
:103dc80081804000207d280081004000110078009b
:103dd800000006000000e0001e003200e10f500065
:103de8001b003a0011a20a00d80100000040eb00b5
:103df8000204e00015003200401e20009008780000
:103e0800300f800090009800400f8000a0009800bc
:103e1800500f8000b0009800600f8000c00098002c
:103e2800700f8000d0009800800f8000e00098009c
:103e3800900f8000f0009800a00f80008008980084
:103e4800b00f80009008980010c0b3000000060072
:103e5800000005000040eb00d801ab00fbff32007a
:103e6800a01d200090087800e00e800090009800c7
:103e7800f00e8000a0009800000f8000b0009800ad
:103e8800100f8000c000980010000500d221ef003c
:103e980000000600011f21000000eb00cdff070015
:103ea8000004e0000c003200021f2100120078001c
:103eb800c800de0053052000838f50000700320041
:103ec800f00e2000808f50000f003200c0cdb300ec
:103ed80080cf500009003200000006000004e00016
:103ee80014003a003a10ab00020032003a10a90060
:103ef8003a30a8000009eb0000000600908f80000f
:103f0800e081880000000600908f8000a08588006e
:103f1800a1858000c0da2000808f500001003600a3
:103f2800a08588000000eb0000097800908f8800c9
:103f380000000600e14f50000c00320001cab30037
:103f4800814f50000600320011cab300814f500063
:103f5800e8ff3a003b90a8000009eb0000000600cb
:103f68003b90a9000009eb00000006003a10ab00e6
:103f7800e0ff3a003a10a8003a30a9000009eb0027
:103f8800000006004010ec00008288002103200099
:103f9800810f500001003e0000000600308c8000b8
:103fa800e00f8800e0898000e00f8800e081800051
:103fb800e00f880010132300e00f88000020230082
:103fc800e00f8800808c8000e00f8800308a800035
:103fd800e00f8800b0858000e00f8800b181800084
:103fe8008100e900100020000100dd00e00f8800da
:103ff800d0818000e00f880090858000e00f880065
:1040080070848000e00f8800c000200001022000ba
:10401800e00f88000000e800810f5000fcff3a0024
:10402800f08188004030ef0000000600308c8000ee
:10403800e00f8800e0898000e00f8800e0818000c0
:10404800e00f880010132300e00f880000202300f1
:10405800e00f8800808c8000e00f8800308a8000a4
:10406800e00f8800b0858000e00f8800b1818000f3
:104078008100e900100020000100dd00e00f880049
:10408800d0818000e00f880090858000e00f8800d4
:1040980070848000e00f8800c0002000010220002a
:1040a800e00f88000000e800810f5000fcff3a0094
:1040b800f081880000000600bd000700ef0007003f
:1040c80000142000e01a8800d01a88002be3a8000a
:1040d800901c8800801c880061e3a8005a2ea90063
:1040e8005a0ea9000000eb00908588000000060029
:1040f80031a3a8003183a80067a3a8006783a8009c
:104108009da3a8009d83a8005a2ea9005a0ea900b5
:104118000000eb0090858800708488002118210039
:104128001190a100c11921001104a100908c8800f0
:10413800811321001190a100211521001104a10073
:10414800408a8800000006005410ec00a082880015
:10415800f40f50003c00360091858000a085800057
:10416800808f500090858000a18580000e003e0061
:1041780064004000810f50001900310090858000d4
:1041880064004000e30f5000150036009085800061
:104198006400400090858800b0818000908288008b
:1041a8005430ef000000060064004000810f50000a
:1041b8000b0036009085800064004000e30f50003b
:1041c80007003600908580006400500090858800c4
:1041d800b0818000908288005430ef000000060013
:1041e8009000200090828800928580009185800050
:1041f800c408de0082804000c18588009185800067
:10420800928580004411de0082805000d1858800ac
:104218009285800091858000c508de00828040007c
:10422800e185880091858000928580004511de0037
:1042380082805000f18588002118210011a0a1007a
:104248005430ef0000000600b081800090828800a2
:10425800000006000000eb00a0848800708488003d
:1042680030848800408488005084880080848800d6
:10427800c0848800b0858800615d2000a185880021
:1042880090858800208b8800f08a8800b08a880092
:10429800c08a8800d08a8800008b8800508b8800ec
:1042a800d08b8800a08b8800608b8800708b88007a
:1042b800808b8800b08b8800211821001100a10094
:1042c8001110a1001120a1001130a1001140a1007e
:1042d8001150a1001160a1001170a1001180a1006e
:1042e8001190a10011a0a100208c8800308c8800ba
:1042f800408c8800508c88006011b800628c88005f
:10430800738c8800808c8800908c8800c1192100eb
:104318001104a100d0888800a088880060888800df
:104328007088880080888800b088880000898800a4
:104338008089880050898800108988002089880031
:104348003089880060898800811321001100a1004c
:104358001110a1001120a1001130a1001140a100ed
:104368001150a1001160a1001170a1001180a100dd
:104378001190a10011a0a100d0898800e0898800cf
:10438800f0898800008a8800128a8800238a8800b9
:10439800308a8800408a8800201521001004a10076
:1043a8003a30ef003b90a8003a30a8000000060021
:1043b800a0042100a08d880087062100b78d880001
:1043c80060ff2400c08d8800a0ff2400d08d8800e5
:1043d80060042100408e880026062100568e880041
:1043e800c0fe2400608e880000ff2400708e8800c4
:1043f800801a2100451e21008000eb00842624003d
:10440800d3ff2f0002b02400010878002400980090
:104418001300980031009800420098007400400092
:10442800850f5000f8ff3a00d47f2100548288009d
:10443800836d200063828800c2ff2700820b78000a
:10444800c14b200051838800004c280060838800fd
:104458003482880043828800020b78002183880018
:10446800308388003430ef003230ef00401b2100e9
:1044780020010700801c21001e013700c01d2100fb
:104488002104210001087800c1052100f18e88006f
:1044980022fe2400028f880062fe2400128f88000a
:1044a8000001eb00228f880003a42500438f8800b9
:1044b800a3ff2f00338f8800528f880002d0270077
:1044c800628f8800420a200012828800222320007e
:1044d80022828800c2ff270082087800617b2100c1
:1044e800f1828800b17b2900018388003030ef0019
:1044f800000137006e10000032010000800000004b
:1045080036100000040000008200000001000100d5
:10451800000000003a1000000400000080000000c5
:10452800f011000020000000800000003e10000094
:10453800040000008000000052100000020000008b
:10454800820000000100000054100000020000007a
:1045580080000000a0110000500000008000000052
:104568003010000006000000800000005c10000011
:104578001200000080000000e24f00001e00000052
:1045880080000000421000000400000080000000cd
:104598004610000004000000800000004a100000df
:1045a8000400000080000000161000001200000047
:1045b800800000004e10000004000000001a0000f7
:1045c800000200001f0000008000000056100000dc
:1045d800020000008000000010120000200000000f
:1045e8008000000028100000080000008000000083
:1045f8005810000002000000800000005a1000005f
:1046080002000000800000000010000016000000fa
:10461800820000000100010000010000010001000b
:10462800000100000100010000204e00c800200029
:104638004e0000000000000000000600c3e8a900ca
:104648000000000000000000b2010700c3e8a80055
:10465800000000000000000080a3210040818800c5
:1046680025a8a8000000060000002800e002880035
:1046780000000600000024000003880010c0b300fa
:104688002ef0b700000006002e70ef006800ab00a7
:10469800feff320080002000200388000000060092
:1046a800400380006140600000000600e102210034
:1046b800914078000140780000000600b0038000b7
:1046c800a20380008000eb00c000dd000000200095
:1046d8008001eb000200700083807000000006007b
:1046e800d0038000c20380008000eb00c000dd0022
:1046f800000020008001eb00020070008380700041
:1047080000000600100e20006800b6000000060039
:1047180070038000620380008000eb00c000dd00b1
:10472800000020008001eb00020070008380700010
:10473800000006000000e00001003200408188000f
:10474800000006000004200000648800a008200083
:104758003064880050052000206488008a2cef000f
:104768000020280040648800d00c20007064880075
:1047780060648800922cef00902cef00942cef00de
:1047880060b22100b082880081eca8000000060019
:1047980081eca900802cef00a0082000306488007c
:1047a80050052000206488008a2cef00882cef0038
:1047b8008e2cef008c2cef00922cef00902cef0049
:1047c800942cef0000000600406480004700de00e3
:1047d800614060000000060081eca80000000600af
:1047e80081eca9000000060089eca8000000060082
:1047f80089eca90000000600b0200a008e0c000019
:10480800000006000000e00001003200b0828800cd
:10481800000006000000060009c8ab0001003a00cd
:1048280000000600b08280000000e00001003200b5
:104838000000010009c8a90000000600841f7800d4
:10484800851f7800881f78008a1f78004400f800c8
:10485800040a2000240288003005900040049000db
:104868009a029000250598008a0290001505980084
:1048780091025100882add00050d7800100490008f
:104888004604c3004604c0000204c0001201c00070
:1048980000049000200590004604c7000204c000f0
:1048a8001201c0000400cd00e00290001301c00016
:1048b800d00290000500c8000400cd00f00290006e
:1048c8001520e60005027800800a900015a0e60091
:1048d80005027800faba9700050d780074bd9f00ac
:1048e800840978004400f9004f0578004f047800e7
:1048f800cf0278004f0278000080fe00000006001a
:10490800801f7800200090000018eb000008eb00e2
:104918004f007800801f7800300090000018eb00ee
:104928000018eb000008eb004f00780000000600bc
:10493800841f7800851f7800881f78008a1f7800f8
:104948004400f800040a2000240288003005900082
:10495800400490009a029000250598008a02900071
:104968001505980091025100882add00050d780090
:10497800100490004604c3004604c0000204c000ae
:104988001201c0000400cd00900a90001201c3007b
:104998001301c00000049000200590004604c700e1
:1049a8000204c0001201c0000400cd00e002900023
:1049b8001301c000d00290000500c8000400cd001b
:1049c800f00290001520e60005027800800a9000a9
:1049d80015a0e60005027800faba9700050d7800e0
:1049e80074bd9f00840978004400f9004f057800e1
:1049f8004f047800cf0278004f0278000080fe0054
:104a080000000600062eef00222eef003e2eef00db
:104a180000202000d0728800f0012000107088006b
:104a2800b1ff2900f1708800f1ff2900d1718800d9
:104a380081c92900b17288000a2eef00262eef00e6
:104a4800422eef005e2eef000c2eef00282eef0016
:104a5800442eef00602eef00082eef00242eef000a
:104a6800402eef005c2eef000070880070382000a8
:104a7800e0708800f00c2000c071880000c02100a0
:104a8800a07288000000eb0051052000b1468800a4
:104a9800a10a2000b146880000688800f0c3b3006e
:104aa80028edb7001000200050200a009e0d0000dd
:104ab8000080200051052000b1468800a10a20008e
:104ac800b146880000688800000006001000230036
:104ad800307c880040062000407c880010022000be
:104ae800507c880010102800707c8800d0072000b7
:104af800807c880010222000907c8800b82fef006e
:104b0800ba2fef00be2fef00002def00a42fef000b
:104b1800a62fef00aa2fef00ae2fef00b02fef0067
:104b2800b22fef001000200081072000a20920000a
:104b380053f820008149780082497800804978003c
:104b4800610420007205200043f8200081497800a4
:104b58008249780080497800840fab00feff3a0054
:104b680084afab00feff320000000600eea00a0092
:104b78008e0f000000000600400880008000eb0057
:104b880000000600200880008000eb0000000600fe
:104b98000021ef000421ef00f07022004008880097
:104ba80060d12100c08288000000060001e1a90050
:104bb8000021ef000421ef000821ef0000000600ab
:104bc80001e1a8000000060001e1a90000000600bc
:104bd800400888000000060064200a004008000021
:104be800000006000000e00001003200c0828800da
:104bf800000006000000060011a00a0000080000de
:104c0800e14f50000100320000000600c082800021
:104c1800000001000028a9000000060040088800e4
:104c28000000060070838000c08a8800c18a800066
:104c3800508b8000808f500002003600c08a8000b0
:104c4800508b8800a0838000008b880080838000c0
:104c580070888800b0838000b0888800d083800086
:104c6800ff006000f18c880095800a0000000000b9
:104c7800a08a8800e0838000f08a8800f0838000a2
:104c8800a088880000000600007c80000000060064
:104c9800007c80000000e0001000350000e8a30060
:104ca8000100320081cfa9000098a3000100320062
:104cb800812fa9000078a3000100320080efa9002d
:104cc8000068a3000100320080cfa9000048a300bb
:104cd80001003200808fa9000000060081efa900c2
:104ce800eeff3700802fef00000006000000fe00f6
:104cf80087fe0700821f78005281800000001100a3
:104d080002002000810019004f0178000000060011
:104d18000000fe00801f7800811f7800821f780045
:104d280060038000801f780079fe07004f0178003b
:104d3800020150000201e900528188004f01780009
:104d4800cf0078004f007800000006001000200017
:104d5800a8200a006c08000040002000ec200a008f
:104d68006c08000056c8bf0064400a00000100003b
:104d780056e8b7000000060040002000a8200a00fe
:104d88006c080000ec200a006c08000056c8bf0040
:104d980064400a000004000056e8b700000006005e
:104da8000f0007002efd0700c6fc070084ff070060
:104db8003b50a80011a00a00000800000004e00011
:104dc800fcff3200aff80700001e000016000000cc
:104dd8001f0000000028a90011a00a000008000018
:104de8000004e000f6ff3200f9ff37003aff070041
:104df80007ff07007ff6070055fe070012fe0700b1
:104e0800bbfb0700b7f9070064ff0700b0fa07000b
:104e1800c3e8a8000000000000000000ceff370033
:104e28000000fe00000006000000fe000000fe007a
:084e3800000000000000000072
:020000040000fa
:104e40006011b80062109800731098008000eb00a9
:104e5000411098000110980011009800710098000e
:104e600041009800510098000108980061009800e6
:104e70002108980011089800000006000008eb00c7
:104e800000000600889fbe008a9fbe008c1f78002d
:104e900000067800400a90005408980030089000fe
:104ea00090017800430e98007c0b90001680510012
:104eb00000f0a7000000ea00f27f2000820f5000ff
:104ec0005c003c00600e980012c0b300830f5200db
:104ed00001003e000041eb00610161004610dd0071
:104ee0001c0190000260a1000201700012069800ef
:104ef000ac1390000700e000070032006c0a90003d
:104f00008002eb00c122dd00040020000500090042
:104f100047aad800301698001c007800e30f500014
:104f20007c003200e30f500022003e00e10f5000f1
:104f30005f013200e10f5000ad013e006c099000ae
:104f40006c109000fc10900000014100e0814800ce
:104f50006216980073169800800220000c00400032
:104f60001002e800441698000c109000dc1290002b
:104f7000850f5200470031000000e00009003200b8
:104f80002c0190000218a30006003a0030ceb300b6
:104f9000cc41900000c06100404698001000200005
:104fa000000e78004f0678004f05be004f04be008b
:104fb00000000600e50f5000d2013200e50f50005e
:104fc000b4003900e60f500084013a006e0046003c
:104fd0009001e800730698006c0a900040062000db
:104fe000800f5200150036000c089000e20f5000b0
:104ff000f30236000000eb00000e980070069800e7
:105000004006980030002000000e78000200a10049
:105010001206980070ceb300cc40900000c0600033
:10502000404698004f0678004f05be004f04be0072
:1050300000000600620e9800a3ff37000000eb009e
:10504000000e9800429c2000828f5100d5ff360050
:105050006011b80062169800731698004016980008
:1050600000169800100698007006980040069800f8
:105070005006980060069800200e9800100e9800c8
:10508000000e78004f0678004f05be004f04be00aa
:105090000000060010169800050009004499d80089
:1050a00000017800001698006000b80060169800b3
:1050b00071169800401698002c0090000018a3006c
:1050c000b9023a00e3022000830f510002003e00c3
:1050d0000010a000200698000008a30045033a0035
:1050e00063662000830f5100020036000000a0001c
:1050f000200698000211b800ca18dd004611de0033
:1051000002817000c619de00221698000c10900073
:1051100099ff37006c0a90006c109000fc10900012
:1051200000054200e08548006a1698007b1698004a
:10513000800220000c0040001004e800481698008f
:105140005c109000800f54001f0039008c109000fc
:10515000111698000500090048ddd8000004780009
:10516000001698006000b80060169800711698004c
:10517000401698002c0090000018a30084023a000a
:10518000e5022000850f540002003e000010a00040
:10519000200698000008a30023033a00656620005b
:1051a000850f5400020036000000a0002006980081
:1051b0000844b800ca48dd004644de000884700098
:1051c000c64cde002816980010032000800f520005
:1051d000ed013e001c009000c603de00e1c3630049
:1051e000c402de00e1c2620085cf53008d023200ae
:1051f0000038a300ee013a002c4090008042b3003a
:10520000204698001c009000680160000200e00049
:105210000d0232006c0146001201e800840c2000ef
:10522000840f5100380236000001eb00620698003e
:105230002c0190000240a000220698000030a1003e
:1052400010069800160078006a015000828f510005
:10525000020231001c0090000040a00010069800df
:105260002c0090000000e000a2023a009c01900097
:105270000358a3004bff3200400698004000200076
:10528000000e78004f0678004f05be004f04be00a8
:10529000000006006c0a90006c109000fc1090005a
:1052a00000054200e08548006a1698007b169800c9
:1052b000800220000c0040001004e800481698000e
:1052c0005c109000800f54001f0039008c1090007b
:1052d000111698000500090048ddd8000004780088
:1052e000001698006000b8006016980071169800cb
:1052f000401698002c0090000018a30004023a0009
:10530000e5022000850f540002003e000010a000be
:10531000200698000008a30092023a00656620006b
:10532000850f5400020036000000a00020069800ff
:105330000844b800ca48dd004644de000884700016
:10534000c64cde002816980010032000800f520083
:105350009a013e001c009000c603de00e1c363001a
:10536000c402de00e1c2620085cf53003a0232007f
:105370000038a3009b013a002c4090008042b3000b
:10538000204698001c009000680160000200e000c8
:10539000b90132006c0146001201e800840c2000c3
:1053a000840f5100d60136000001eb006206980020
:1053b0002c0190000240a000220698000030a100bd
:1053c00010069800160078006a015000828f510084
:1053d000ae0131001c0090000040a00010069800b3
:1053e000680046001001e800420698001c0090008a
:1053f000800178000302b2000300e000aa0132003d
:10540000320698008001eb0043069800033020002c
:10541000830f5100ae013e0032cfb300cc4190006b
:1054200002c161000234a000424698000028a30097
:1054300013003a000c1090004401de00230220000b
:105440008c8141001300500000f0a7000000ea002a
:10545000800f5100800236005c0090006a01460017
:105460000009e800f40f500005003a001c0090000d
:105470000020a000100698000000eb0050069800e5
:10548000ac0190000300e0008c003a009c0090000a
:105490000128a300c3fe320050002000000e780057
:1054a0004f0678004f05be004f04be000000060006
:1054b0006c0a90006c109000fc10900000034200f9
:1054c000e083480066169800771698008002200056
:1054d0000c0040009001e800431698005c1090001a
:1054e000808f51001f0039008c1090001116980019
:1054f0000500090043bbd80000037800001698009f
:105500006000b80060169800711698004016980068
:105510002c0090000018a30083013a00e302200051
:10552000830f530002003e000010a00020069800e8
:105530000008a300ff013a0063662000830f5300b8
:10554000020036000000a000200698000633b800d4
:10555000ca38dd004633de0006837000c63bde003d
:1055600026169800ac019000800c2000800f52009d
:10557000e40036000000eb00200e980072004600a8
:105580001000e800100e980004fa2000840f50006c
:10559000be0136000000eb00100e980000c8b300fa
:1055a0002c419000004061006041b300204698000b
:1055b0000300e00041003a009c0090000118a300a5
:1055c0008501320020002000000e78004f06780090
:1055d0004f05be004f04be0000000600000eeb00a9
:1055e0004f0678004f05be004f04be0000000600c5
:1055f0006c0a90006c109000fc10900000014200ba
:10560000e08148006216980073169800800220001e
:105610000c0040009002e800451698005c109000d5
:10562000808f52001f0039008c10900011169800d6
:10563000050009004599d80000017800001698007f
:105640006000b80060169800711698004016980027
:105650002c0090000018a30047013a00e30220004c
:10566000830f510002003e000010a00020069800a9
:105670000008a300c7013a0063662000830f5100b1
:10568000020036000000a000200698000211b800b9
:10569000ca18dd004611de0002817000c619de0066
:1056a000221698002c0190000200e00003003a004e
:1056b00030062000800f52003afe3e006000b80025
:1056c0006016980071169800401698000016980011
:1056d0001006980070069800400698005006980042
