:020000040000fa
:080000000002040000000000f2
:020000040000fa
:04000800900600005e
:020000040000fa
:04000c00f0050000fb
:020000040000fa
:040010000c060000da
:020000040000fa
:04001400c80600001a
:020000040000fa
:04001800ac06000032
:020000040000fa
:04001c00ec060000ee
:020000040000fa
:0400200028060000ae
:020000040000fa
:04002400ec060000e6
:020000040000fa
:04002800ec060000e2
:020000040000fa
:04002c00ec060000de
:020000040000fa
:04003000ec060000da
:020000040000fa
:04003400ec060000d6
:020000040000fa
:04003800ae05000011
:020000040000fa
:04003c00ec060000ce
:020000040000fa
:04004000ec060000ca
:020000040000fa
:04004400ec060000c6
:020000040000fa
:04004800ec060000c2
:020000040000fa
:04004c00ec060000be
:020000040000fa
:04005000ec060000ba
:020000040000fa
:04005400ec060000b6
:020000040000fa
:04005800ec060000b2
:020000040000fa
:04005c00ec060000ae
:020000040000fa
:04006000ec060000aa
:020000040000fa
:04006400ec060000a6
:020000040000fa
:04006800ec060000a2
:020000040000fa
:04006c00ec0600009e
:020000040000fa
:04007000ec0600009a
:020000040000fa
:04007400ec06000096
:020000040000fa
:04007800ec06000092
:020000040000fa
:04007c00ec0600008e
:020000040000fa
:04008000ec0600008a
:020000040000fa
:04008400ec06000086
:020000040000fa
:04008800ec06000082
:020000040000fa
:04008c007a050000f1
:020000040000fa
:04009000ec0600007a
:020000040000fa
:04009400ec06000076
:020000040000fa
:04009800ec06000072
:020000040000fa
:04009c00ec0600006e
:020000040000fa
:0400a000ec0600006a
:020000040000fa
:0400a400ec06000066
:020000040000fa
:0400a800ec06000062
:020000040000fa
:0400ac00ec0600005e
:020000040000fa
:0400b000ec0600005a
:020000040000fa
:0400b400ec06000056
:020000040000fa
:0400b800ec06000052
:020000040000fa
:0400bc00ec0600004e
:020000040000fa
:0400c000ec0600004a
:020000040000fa
:0400c400ec06000046
:020000040000fa
:0400c800ec06000042
:020000040000fa
:0400cc00ec0600003e
:020000040000fa
:0400d000ec0600003a
:020000040000fa
:0400d400ec06000036
:020000040000fa
:0400d800ec06000032
:020000040000fa
:0400dc00d00500004b
:020000040000fa
:0400e000ec0600002a
:020000040000fa
:0400e400ec06000026
:020000040000fa
:0400e800ec06000022
:020000040000fa
:0400ec00ec0600001e
:020000040000fa
:0400f000ec0600001a
:020000040000fa
:0400f400ec06000016
:020000040000fa
:0400f800ec06000012
:020000040000fa
:0400fc00ec0600000e
:020000040000fa
:04010000ec06000009
:020000040000fa
:04010400ec06000005
:020000040000fa
:04010800ec06000001
:020000040000fa
:04010c00ec060000fd
:020000040000fa
:04011000ec060000f9
:020000040000fa
:04011400ec060000f5
:020000040000fa
:04011800ec060000f1
:020000040000fa
:04011c00ec060000ed
:020000040000fa
:04012000ec060000e9
:020000040000fa
:04012400ec060000e5
:020000040000fa
:04012800ec060000e1
:020000040000fa
:04012c00ec060000dd
:020000040000fa
:04013000ec060000d9
:020000040000fa
:04013400ec060000d5
:020000040000fa
:04013800ec060000d1
:020000040000fa
:04013c00ec060000cd
:020000040000fa
:04014000ec060000c9
:020000040000fa
:04014400ec060000c5
:020000040000fa
:04014800ec060000c1
:020000040000fa
:04014c00ec060000bd
:020000040000fa
:04015000ec060000b9
:020000040000fa
:04015400ec060000b5
:020000040000fa
:04015800ec060000b1
:020000040000fa
:04015c00ec060000ad
:020000040000fa
:04016000ec060000a9
:020000040000fa
:04016400ec060000a5
:020000040000fa
:04016800ec060000a1
:020000040000fa
:04016c00ec0600009d
:020000040000fa
:04017000ec06000099
:020000040000fa
:04017400ec06000095
:020000040000fa
:04017800ec06000091
:020000040000fa
:04017c00ec0600008d
:020000040000fa
:04018000ec06000089
:020000040000fa
:04018400ec06000085
:020000040000fa
:04018800ec06000081
:020000040000fa
:04018c00ec0600007d
:020000040000fa
:04019000ec06000079
:020000040000fa
:04019400ec06000075
:020000040000fa
:04019800ec06000071
:020000040000fa
:04019c00ec0600006d
:020000040000fa
:0401a000ec06000069
:020000040000fa
:0401a400ec06000065
:020000040000fa
:0401a800ec06000061
:020000040000fa
:0401ac00ec0600005d
:020000040000fa
:0401b000ec06000059
:020000040000fa
:0401b400ec06000055
:020000040000fa
:0401b800ec06000051
:020000040000fa
:0401bc00ec0600004d
:020000040000fa
:0401c000ec06000049
:020000040000fa
:0401c400ec06000045
:020000040000fa
:0401c800ec06000041
:020000040000fa
:0401cc00ec0600003d
:020000040000fa
:0401d000ec06000039
:020000040000fa
:0401d400ec06000035
:020000040000fa
:0401d800ec06000031
:020000040000fa
:0401dc00ec0600002d
:020000040000fa
:0401e000ec06000029
:020000040000fa
:0401e400ec06000025
:020000040000fa
:0401e800ec06000021
:020000040000fa
:0401ec00ec0600001d
:020000040000fa
:0401f000ec06000019
:020000040000fa
:0401f400ec06000015
:020000040000fa
:0401f800ec06000011
:020000040000fa
:0401fc00ec0600000d
:020000040000fa
:04020000ec06000008
:020000040000fa
:04020400ec06000004
:020000040000fa
:04020800ec06000000
:020000040000fa
:04020c00ec060000fc
:020000040000fa
:04021000ec060000f8
:020000040000fa
:04021400ec060000f4
:020000040000fa
:04021800ec060000f0
:020000040000fa
:04021c00ec060000ec
:020000040000fa
:04022000ec060000e8
:020000040000fa
:04022400ec060000e4
:020000040000fa
:04022800ec060000e0
:020000040000fa
:04022c00ec060000dc
:020000040000fa
:04023000ec060000d8
:020000040000fa
:04023400ec060000d4
:020000040000fa
:04023800ec060000d0
:020000040000fa
:04023c00ec060000cc
:020000040000fa
:04024000ec060000c8
:020000040000fa
:04024400ec060000c4
:020000040000fa
:04024800ec060000c0
:020000040000fa
:04024c00ec060000bc
:020000040000fa
:04025000ec060000b8
:020000040000fa
:04025400ec060000b4
:020000040000fa
:04025800ec060000b0
:020000040000fa
:04025c00ec060000ac
:020000040000fa
:04026000ec060000a8
:020000040000fa
:04026400ec060000a4
:020000040000fa
:04026800ec060000a0
:020000040000fa
:04026c00ec0600009c
:020000040000fa
:04027000ec06000098
:020000040000fa
:04027400ec06000094
:020000040000fa
:04027800ec06000090
:020000040000fa
:04027c00ec0600008c
:020000040000fa
:04028000ec06000088
:020000040000fa
:04028400ec06000084
:020000040000fa
:04028800ec06000080
:020000040000fa
:04028c00ec0600007c
:020000040000fa
:04029000ec06000078
:020000040000fa
:04029400ec06000074
:020000040000fa
:04029800ec06000070
:020000040000fa
:04029c00ec0600006c
:020000040000fa
:0402a000ec06000068
:020000040000fa
:0402a400ec06000064
:020000040000fa
:0402a800ec06000060
:020000040000fa
:0402ac00ec0600005c
:020000040000fa
:0402b000ec06000058
:020000040000fa
:0402b400ec06000054
:020000040000fa
:0402b800ec06000050
:020000040000fa
:0402bc00ec0600004c
:020000040000fa
:0402c000ec06000048
:020000040000fa
:0402c400ec06000044
:020000040000fa
:0402c800ec06000040
:020000040000fa
:0402cc00ec0600003c
:020000040000fa
:0402d000ec06000038
:020000040000fa
:0402d400ec06000034
:020000040000fa
:0402d800ec06000030
:020000040000fa
:0402dc00ec0600002c
:020000040000fa
:0402e000ec06000028
:020000040000fa
:0402e400ec06000024
:020000040000fa
:0402e800ec06000020
:020000040000fa
:0402ec00ec0600001c
:020000040000fa
:0402f000ec06000018
:020000040000fa
:0402f400ec06000014
:020000040000fa
:0402f800ec06000010
:020000040000fa
:0402fc00ec0600000c
:020000040000fa
:04030000ec06000007
:020000040000fa
:04030400ec06000003
:020000040000fa
:04030800ec060000ff
:020000040000fa
:04030c00ec060000fb
:020000040000fa
:04031000ec060000f7
:020000040000fa
:04031400ec060000f3
:020000040000fa
:04031800ec060000ef
:020000040000fa
:04031c00ec060000eb
:020000040000fa
:04032000ec060000e7
:020000040000fa
:10040000ef8021000eff27000e0188000000200071
:100410000000e000020032000001200020028800fd
:10042000140007006e0207000000e00003003a001d
:10043000a0ce2400010020000200370000002000b0
:1004400001002000810f70004220ae000f00070065
:10045000000020000000e0004220ae00000002008a
:1004600000000000a0500200000000000040da0080
:100470000000fe00a02020000000e000020032008a
:10048000002020009001880000000600a1028800e2
:10049000800478000000eb001f003700e284440075
:1004a00054a0b4009905ba00e284440054a0b400fa
:1004b0009906ba00e284440054a0b4000006eb00a0
:1004c000476fde00fd07b200ae018800636ce100fb
:1004d00003003a000ad801000000eb000e003700cc
:1004e000606ce10008003a00004deb000a05e800ee
:1004f000020039003420ec000af0a0008b05e9006e
:10050000f9ff3e00040037006168e100010032009d
:100510000086eb000b00070019c7ba001905ba00e6
:100520000e04e00003003a000a00e000dbff3a009e
:1005300000000600fe07b200ae0288008a047800c0
:10054000f5ff37000cd0a300e20f4d001c003b006c
:1005500089027800354dba000a05e800020039002a
:100560003420ec000af0a0008b05e9000f003200f7
:10057000254dba000a05e800020039003420ec00dd
:100580000af0a0008b05e900080032000c00e00032
:100590000600320015cdba000a05e8000200390055
:1005a0003420ec000af0a0008b05e9008984e80003
:1005b00054a0b4000b00e000e2ff3a000000060087
:1005c0009902ba00055d78008b05e900f7ff32005b
:1005d000c82ade00055d78008b05e900f3ff3200d4
:1005e0000c00e000f1ff320019ddba00eeff370029
:1005f0006100e10001003200100005005400f80025
:1006000050102000a002880000f927001000ba0056
:100610005400f9000700260000f0a6008703d1006f
:100620000703780001c4fe000003eb000120200056
:1006300001d0fe0021922800111303008703e90076
:10064000fdff3a0000f0a7000000050000f0a00048
:1006500080c4fe0086037800f3ff37000408200002
:10066000010037000002eb006100e10001003200f0
:10067000100005003200f8003400f8008102780014
:1006800003d0fe003200be000100e0000c0032008a
:100690000470a70000f0a00032037800c733de002a
:1006a000848343004220af008703e800a70188004d
:1006b000f607b2007f30e100040032002000200085
:1006c0003400f9003200f900000006008100e90062
:1006d0000500e00003003a00018009003210030029
:1006e000e8ff37000180090032900300d561ae00b9
:1006f000e4ff370030002000f1ff3700623a0400c9
:1007000000000000d83f040000000000da3f0400b1
:1007100000000000dc3f040000000000de3f040099
:1007200000000000e03f040000000000d63f04008d
:1007300000000000b63e040000000000a83c0400d9
:10074000000000008a3c040000000000bc390400e6
:1007500000000000fa3c040000000000343a0400ed
:10076000000000000a3d040000000000e23f040019
:10077000000000004a3a040000000000523a040061
:1007800000000000a63e040000000000483f0400f6
:1007900000000000ae3b0400000000003c3a0400f2
:1007a00000000000443a040000000000963e0400ef
:1007b00000000000c439040000000000223a0400d8
:1007c000000000005a3a040000000000643a0400ef
:1007d000000000006c3a040000000000743a0400bd
:1007e000000000007c3a040000000000843a04008d
:1007f000000000008c3a040000000000943a04005d
:1008000000000000884e0400000000001e4e04009e
:1008100000000000464e0400000000006a4e040084
:10082000000000006e4e040000000000624e040054
:1008300000000000804e0400000000008a4e04000a
:1008400000000000724e040000000000764e04001c
:10085000000000007a4e040000000000fe45040085
:1008600000000000b8410400000000001e42040027
:1008700000000000f03f04000000000028400400d9
:1008800000000000604004000000000098400400e8
:1008900000000000ce4004000000000006410400fb
:1008a000000000003e41040000000000764104000a
:1008b0000000000080420400000000008a420400a2
:1008c000000000008c470400000000009247040074
:1008d00000000000f647040000000000f447040098
:1008e0000000000094470400000000009847040046
:1008f000000000009e47040000000000a247040022
:1009000000000000a847040000000000ac470400fd
:1009100000000000b047040000000000ba470400d7
:1009200000000000004804000000000034470400fc
:100930000000000038470400000000003c470400ad
:10094000000000004047040000000000c24704000f
:1009500000000000da4704000000000044470400e3
:10096000000000004a470400000000005047040057
:10097000000000005647040000000000f247040099
:10098000000000001e480400000000005c47040056
:100990000000000072470400000000009c4e0400ac
:1009a00000000000b64e040000000000ca4e040023
:1009b00000000000ce4e040000000000de4e0400e7
:1009c00000000000004f040000000000f24e040090
:1009d00000000000084f040000000000124f040057
:1009e00000000000984d040000000000fa4a0400d6
:1009f000000000009e4a040000000000c24a0400fb
:100a000000000000e44a040000000000e84a04007e
:100a100000000000344b040000000000fc4a040009
:100a200000000000184b040000000000ec4a040025
:100a300000000000f24a040000000000464b0400e1
:100a400000000000c24b040000000000664b0400e0
:100a5000000000008a4b040000000000ac4b0400c2
:100a600000000000b04b040000000000fc4b04003c
:100a700000000000c44b040000000000e04b040034
:100a800000000000b44b040000000000ba4b04005a
:100a9000000000000e4c040000000000265004007e
:100aa00000000000f24f04000000000002500400ab
:100ab000000000000c500400000000001050040072
:100ac000000000001450040000000000e64f040085
:100ad00000000000ec4f040000000000185004006b
:100ae000000000001e500400000000002850040018
:100af000000000003600f800809fbe00829fbe000c
:100b0000849fbe00869fbe00ddc5ab0007003a0093
:100b10000328a9004f03be004f02be004f01be00d4
:100b20004f00be003600f900004006002081800022
:100b30000000e0000100320000000100ddc5a90056
:100b40000328a9004f03be004f02be004f01be00a4
:100b50004f00be003600f900004006003600f800e5
:100b6000809fbe00829fbe00849fbe00869fbe0005
:100b7000218280000100e000020032000000eb0052
:100b8000010001000088a9004f03be004f02be0013
:100b90004f01be004f00be003600f90000400600c5
:100ba0003600f800809fbe00829fbe00849fbe007a
:100bb000869fbe00808180000000e00001003200be
:100bc0000000010005a8a9004f03be004f02be00af
:100bd0004f01be004f00be003600f9000040060085
:100be0003600f800809fbe00829fbe00849fbe003a
:100bf000869fbe00c068a90020002000982507003d
:100c00004f03be004f02be004f01be004f00be00aa
:100c10003600f900004006003600f800809fbe0054
:100c2000829fbe00849fbe00869fbe00c608a900aa
:100c3000700020008a2507004f03be004f02be004f
:100c40004f01be004f00be003600f9000040060014
:100c50003600f800809fbe00829fbe00849fbe00c9
:100c6000869fbe00c488ab000b003a00c4c8ab002e
:100c700025003a00c4a8ab001d003a00c508ab002f
:100c800015003a00c528ab000d003a00c408ab00bf
:100c900007003a00ffff3700c488a900a000200029
:100ca0006f250700c4c8ab00f2ff32001600370002
:100cb000c408a900b000200069250700f5ff37002f
:100cc000c528a900d000200065250700c408ab0096
:100cd000f0ff3200f6ff3700c508a900c000200071
:100ce0005f250700c528ab00e8ff3200f4ff37009e
:100cf000c4a8a9009000200059250700c508ab0032
:100d0000e0ff3200f4ff3700c4c8a900e000200073
:100d100053250700c4a8ab00d8ff3200f4ff37000a
:100d20003600f800809fbe00829fbe00849fbe00f8
:100d3000869fbe00c028a9000000eb0048250700e0
:100d40004f03be004f02be004f01be004f00be0069
:100d50003600f900004006003600f800809fbe0013
:100d6000829fbe00849fbe00869fbe00c088a900ef
:100d7000300020003a2507004f03be004f02be009e
:100d80004f01be004f00be003600f90000400600d3
:100d90003600f800809fbe00829fbe00849fbe0088
:100da000869fbe00a027210080077800202921000f
:100db00000018800c048a900100020002825070075
:100dc0004f03be004f02be004f01be004f00be00e9
:100dd0003600f900004006000040da000000fe0086
:100de0000000050050052000b00e8800a00a200079
:100df000b00e8800d3e1a8000000060050052000d6
:100e0000b00e8800a00a2000b00e8800d3e1a9002f
:100e1000000006008001e90002814000828f50003e
:100e200001003a0000000600b1697800fbff3700be
:020000040000fa
:100e3000000700000e0900001c1b00001215000036
:100e4000383f000036310000242300002a2d000026
:100e5000707700007e7900006c6b00006265000016
:100e6000484f000046410000545300005a5d000006
:100e7000e0e70000eee90000fcfb0000f2f50000f6
:100e8000d8df0000d6d10000c4c30000cacd0000e6
:100e9000909700009e9900008c8b000082850000d6
:100ea000a8af0000a6a10000b4b30000babd0000c6
:100eb000c7c00000c9ce0000dbdc0000d5d20000b6
:100ec000fff80000f1f60000e3e40000edea0000a6
:100ed000b7b00000b9be0000abac0000a5a2000096
:100ee0008f88000081860000939400009d9a000086
:100ef00027200000292e00003b3c00003532000076
:100f00001f18000011160000030400000d0a000065
:100f100057500000595e00004b4c00004542000055
:100f20006f68000061660000737400007d7a000045
:100f3000898e000087800000959200009b9c000035
:100f4000b1b60000bfb80000adaa0000a3a4000025
:100f5000f9fe0000f7f00000e5e20000ebec000015
:100f6000c1c60000cfc80000ddda0000d3d4000005
:100f7000696e000067600000757200007b7c0000f5
:100f8000515600005f5800004d4a000043440000e5
:100f9000191e000017100000050200000b0c0000d5
:100fa000212600002f2800003d3a000033340000c5
:100fb0004e49000040470000525500005c5b0000b5
:100fc00076710000787f00006a6d000064630000a5
:100fd0003e39000030370000222500002c2b000095
:100fe00006010000080f00001a1d00001413000085
:100ff000aea90000a0a70000b2b50000bcbb000075
:1010000096910000989f00008a8d00008483000064
:10101000ded90000d0d70000c2c50000cccb000054
:10102000e6e10000e8ef0000fafd0000f4f3000044
:101030000000000002000000010000008c470000da
:1010400092470000f6470000f44700009447000074
:10105000984700009e470000a2470000a8470000f4
:10106000ac470000b0470000ba470000004800004d
:1010700034470000384700003c470000404700006c
:10108000c2470000da470000444700004a4700001a
:101090005047000056470000f24700001e4800007d
:1010a0005c470000724700000000000000000000e4
:1010b0000000000000000000000000000000000030
:1010c0000000000000010000020300000405000011
:1010d00006070000080c0000101400001820000093
:1010e00030400000b63e0000a83c00008a3c0000f2
:1010f000bc390000fa3c0000343a00000a3d000010
:10110000e23f00004a3a0000523a0000a63e0000ca
:10111000483f0000ae3b00003c3a0000443a00006b
:10112000963e0000c4390000223a00005a3a0000fe
:10113000643a00006c3a0000743a00007c3a000007
:10114000843a00008c3a0000943a0000b841000054
:101150001e420000f03f00002840000060400000f8
:1011600098400000ce400000064100003e410000d3
:1011700076410000804200008a4200001e4e0000be
:10118000464e00006a4e00006e4e0000624e0000a7
:10119000804e00008a4e0000ce880000724e000093
:1011a000764e00007a4e00009e4a0000c24a0000bf
:1011b000e44a0000e84a0000344b0000fc4a00000a
:1011c000184b0000ec4a0000f24a0000464b0000b9
:1011d000664b00008a4b0000ac4b0000b04b000097
:1011e000fc4b0000c44b0000e04b0000b44b00007f
:1011f000ba4b00000e4c0000f24f000002500000fd
:101200000c5000001050000014500000e64f000089
:10121000ec4f0000185000001e5000002850000045
:101220009c4e0000b64e0000ca4e0000ce4e00009c
:10123000de4e0000004f0000f24e0000084f00009c
:04124000124f000049
:020000040000fa
:04124400ffffff00a9
:020000040000fa
:1012480000000000ca0000001f00000000020400a7
:101258000000000030070000b0060000cc060000c7
:10126800680700004c070000ac070000e806000013
:10127800ac070000ac070000ac070000ac0700009a
:10128800ac070000ac070000ac070000ac0700008a
:10129800ac070000ac070000ac070000ac0700007a
:1012a800ac070000ac070000ac070000ac0700006a
:1012b800ac070000ac070000ac070000ac0700005a
:1012c800ac070000ac070000ac070000ac0700004a
:1012d800ac070000ac070000ac070000ac0700003a
:1012e800ac070000ac070000ac070000ac0700002a
:1012f800ac070000ac070000ac070000ac0700001a
:10130800ac070000ac070000ac070000ac07000009
:10131800ac070000ac070000ac070000ac070000f9
:10132800ac070000ac0700008c070000ac07000009
:10133800ac070000ac070000ac070000ac070000d9
:10134800ac070000ac070000ac070000ac070000c9
:10135800ac070000ac070000ac070000ac070000b9
:10136800ac070000ac070000ac070000ac070000a9
:10137800ac070000ac070000ac070000ac07000099
:10138800ac070000ac070000ac070000ac07000089
:10139800ac070000ac070000ac070000ac07000079
:1013a800ac070000ac070000ac070000ac07000069
:1013b800ac070000ac070000ac070000ac07000059
:1013c800ac070000ac070000ac070000ac07000049
:1013d800ac070000ac070000ac07000044050000a3
:1013e800520400007c060000ac070000ac070000b7
:1013f800ac070000ac070000ac070000ac07000019
:10140800ac070000ac070000e0050000ac070000d6
:10141800ac070000ac070000ac0700001406000091
:10142800ac070000ac070000ac070000ac070000e8
:10143800ac070000ac070000ac070000ac070000d8
:10144800ac070000ac070000ac070000ac070000c8
:10145800ac070000ac070000ac070000ac070000b8
:10146800ac070000ac070000ac070000ac070000a8
:10147800ac070000ac070000ac070000ac07000098
:10148800ac070000ac070000ac070000ac07000088
:10149800ac070000ac070000ac070000ac07000078
:1014a800ac070000ac070000ac070000ac07000068
:1014b800ac070000ac070000ac070000ac07000058
:1014c800ac070000ac070000ac070000ac07000048
:1014d800ac070000ac070000ac070000ac07000038
:1014e800ac070000ac070000ac070000ac07000028
:1014f800ac070000ac070000ac070000ac07000018
:10150800ac070000ac070000ac070000ac07000007
:10151800ac070000ac070000ac070000ac070000f7
:10152800ac070000ac070000ac070000ac070000e7
:10153800ac070000ac070000ac070000ac070000d7
:10154800ac070000ac070000ac070000ac070000c7
:10155800ac070000ac070000ac070000ac070000b7
:10156800ac070000ac070000ac0700000000fe005c
:101578000000fe0000020000000200001f00000042
:101588004f2321002efd24000e01880000000000da
:10159800000020000000e0000200320000012000ee
:1015a8002002880014000700cd0207000000e000b8
:1015b80003003a00609f210001002000020037006c
:1015c8000000200001002000810f7000010032009f
:1015d8000f000700000020000000e00002003200b9
:1015e8000000020000000000461e0200000000008b
:1015f8000040da000000fe00e00c20000000e000df
:10160800020032000020200090018800000006003f
:10161800a1028800800478000000eb001f0037005a
:10162800e284440054a0b4009905ba00e28444005e
:1016380054a0b4009906ba00e284440054a0b4004f
:101648000006eb00476fde00fd07b200ae01880020
:10165800636ce10003003a000ad801000000eb00c7
:101668000e003700606ce10008003a00004deb0006
:101678000a05e800020039003420ec000af0a00056
:101688008b05e900f9ff3e00040037006168e100be
:10169800010032000086eb000b00070019c7ba00f2
:1016a8001905ba000e04e00003003a000a00e00041
:1016b800dbff3a0000000600fe07b200ae02880019
:1016c8008a047800f5ff37000cd0a300e20f4d0024
:1016d8001c003b0089027800354dba000a05e80075
:1016e800020039003420ec000af0a0008b05e90064
:1016f8000f003200254dba000a05e8000200390043
:101708003420ec000af0a0008b05e9000800320044
:101718000c00e0000600320015cdba000a05e8000a
:10172800020039003420ec000af0a0008b05e90023
:101738008984e80054a0b4000b00e000e2ff3a00fe
:10174800000006009902ba00055d78008b05e900e3
:10175800f7ff3200c82ade00055d78008b05e90036
:10176800f3ff32000c00e000f1ff320019ddba008f
:10177800eeff37000000000000000000000000003d
:101788000000000000000000000000000000000051
:101798000000000000000000000000000000000041
:1017a8000000000000000000000000000000000031
:1017b8000000000000000000000000000000000021
:101a2800000000003600f800809fbe00829fbe00c4
:101a3800849fbe00869fbe003200f8003400f80084
:101a480010002000a00188000020200000d0fe0027
:101a58005baea80023aea800f000200050200a00ca
:101a6800080b0000090ba80061608000818b8800ca
:101a7800808b8000018c80000100500000f0a700de
:101a88000000ea00908b880023aea900918b8000ab
:101a9800203a2000808f500003003400d08180005d
:101aa800e50f500053003e007060800030898800c8
:101ab80030898000b18980000100500000f0a70043
:101ac8000000ea004089880041898000203a20000f
:101ad800808f500003003400d0818000e50f500053
:101ae80039003e00016180005184880051848000e3
:101af80020d22000808f500027003c0050618000d9
:101b0800308688002107210010002000cf08070038
:101b18000004e0000e003a00a000200050200a0057
:101b2800080b0000ae0307000b68a9005baea90014
:101b38003400f9003200f9004f03be004f02be0026
:101b48004f01be004f00be003600f90000400600fd
:101b58004f0c07006008210011c0b30010c87000c6
:101b6800a000200050200a00080b00009c0307007a
:101b78000b68a9005baea9003400f9003200f90037
:101b88004f03be004f02be004f01be004f00be0013
:101b98003600f900004006003ed0a8003e10a9001b
:101ba8003e30a80070090700506180003086880028
:101bb8002107210010002000a40807000004e0000d
:101bc800d5ff3200e2ff37003e90a8003e10a90082
:101bd8003e30a80064090700016180005184880034
:101be8005184800020d22000808f5000c3ff340031
:101bf800e9ff37003e70a8003e10a9003e30a8005b
:101c080059090700a8ff37003600f800809fbe007a
:101c1800829fbe00849fbe00869fbe003200f800ef
:101c28003400f80010002000a001880000202000e7
:101c380000d0fe00a08280000000e0000100320019
:101c4800000001000ca8ab0033003a000d48ab00bf
:101c580027003a000b68ab001b003a000b88ab006a
:101c680009003a000b48a9003400f9003200f900d5
:101c78004f03be004f02be004f01be004f00be0022
:101c88003600f900004006007160800092828000f2
:101c98000200e000020032003000200002000100d3
:101ca8000b88a9000b48a9003400f9003200f9009c
:101cb8004f03be004f02be004f01be004f00be00e2
:101cc8003600f900004006006160800092828000c2
:101cd8000200e000020032002000200002000100a3
:101ce8000b68a9000b88ab00deff3200e6ff370067
:101cf80051618000928280000200e0000200320000
:101d080010002000020001000d48a9000b68ab007c
:101d1800d2ff3200ecff3700016180009282800020
:101d28000200e000020032000000eb0002000100a7
:101d38000ca8a9000d48ab00c6ff3200ecff370025
:101d48003600f800809fbe00829fbe00849fbe00c0
:101d5800869fbe003200f8003400f8001000200012
:101d6800a00188000020200000d0fe000161800052
:101d7800928280000200e000020032000000eb00c6
:101d880000060000000200001f0000000200010021
:101d98000ca8a9003400f9003200f9004f03be0076
:101da8004f02be004f01be004f00be003600f900d2
:101db800004006003600f800809fbe00829fbe00eb
:101dc800849fbe00869fbe003200f8003400f800f1
:101dd80010002000a00188000020200000d0fe0094
:101de80051618000928280000200e000020032000f
:101df80010002000020001000d48a9003400f9007d
:101e08003200f9004f03be004f02be004f01be0072
:101e18004f00be003600f900004006003600f8000a
:101e2800809fbe00829fbe00849fbe00869fbe002a
:101e38003200f8003400f80010002000a0018800eb
:101e48000020200000d0fe006160800092828000a7
:101e58000200e00002003200200020000200010021
:101e68000b68a9003400f9003200f9004f03be00e6
:101e78004f02be004f01be004f00be003600f90001
:101e8800004006003600f800809fbe00829fbe001a
:101e9800849fbe00869fbe003200f8003400f80020
:101ea80010002000a00188000020200000d0fe00c3
:101eb80071608000928280000200e000020032001f
:101ec80030002000020001000b88a9003400f9004e
:101ed8003200f9004f03be004f02be004f01be00a2
:101ee8004f00be003600f900004006003600f8003a
:101ef800809fbe00829fbe00849fbe00869fbe005a
:101f0800c068a90020002000e00b07004f03be00b6
:101f18004f02be004f01be004f00be003600f90060
:101f2800004006003600f800809fbe00829fbe0079
:101f3800849fbe00869fbe00c608a90070002000ce
:101f4800d20b07004f03be004f02be004f01be0078
:101f58004f00be003600f900004006003600f800c9
:101f6800809fbe00829fbe00849fbe00869fbe00e9
:101f7800c488ab0007003a00c4a8ab0015003a00bb
:101f8800c508ab000d003a00c408ab0007003a00d2
:101f9800ffff3700c488a900a0002000bb0b070082
:101fa800c4a8ab00f6ff32000a003700c408a90035
:101fb800b0002000b50b0700f5ff3700c508a900e1
:101fc800c0002000b10b0700c408ab00f0ff3200ce
:101fd800f6ff3700c4a8a90090002000ab0b07004b
:101fe800c508ab00e8ff3200f4ff37003600f80000
:101ff800809fbe00829fbe00849fbe00869fbe0059
:10200800c028a9000000eb00a00b07004f03be008a
:102018004f02be004f01be004f00be003600f9005f
:10202800004006003600f800809fbe00829fbe0078
:10203800849fbe00869fbe00c088a9003000200093
:10204800920b07004f03be004f02be004f01be00b7
:102058004f00be003600f900004006003600f800c8
:10206800809fbe00829fbe00849fbe00869fbe00e8
:102078004021210080077800c0222100000188004b
:10208800c048a90010002000800b07004f03be00c5
:102098004f02be004f01be004f00be003600f900df
:1020a800004006003600f800809fbe00829fbe00f8
:1020b800849fbe00869fbe00608180000000e00013
:1020c800010032000000010005a8a9004f03be006e
:1020d8004f02be004f01be004f00be003600f9009f
:1020e800004006000040da000000fe000000050085
:1020f8006022b800060220000000d0008180d200d3
:102108000482d2008582d2000000a00002025200a0
:1021180083825a00030031000202420083824a008f
:102128000000a1000603e900f3ff3a0000000600e2
:10213800000000000200000001000000e815000097
:10214800c2160000ec150000f0150000f61500009e
:10215800fa150000001600000416000048160000da
:102168000816000020160000a0150000a6150000a3
:10217800ac150000b21500006616000046160000f7
:10218800b8150000ce150000000000000000000097
:102198000000000000000000000000000000000037
:1021a80000000000100b0000d8090000a008000083
:1021b800a4080000a8080000ac080000b00800004f
:1021c800b2080000d4080000000900002609000039
:1021d8002a0900002e09000032090000a20a0000a6
:1021e800000c00002e880000ac0a00000c0b000058
:1021f800b60a00000000000038090000620900006b
:102208008c090000ae090000120c0000980a0000ba
:1022180000000000d8130000041400001614000089
:10222800301400003a14000042140000501400005a
:102238005e140000621400000000000000000000ae
:10224800661400007e14000086140000e4140000e8
:10225800ec140000fe1400005c1500008e14000051
:102268000000000000000000000000000000000066
:102278000000000000000000181b00003e1b0000ca
:10228800621b0000661b00005a1b0000781b000040
:10229800821b0000868800006a1b00006e1b00007d
:1022a800721b00003e1d00004c1d0000561d000062
:1022b8005a1d00005e1d0000321d0000381d000080
:1022c800621d0000681d0000721d000001eba800df
:1022d8000000060001eba9000000060008cba800da
:1022e8000000060008cba900000006000000060058
:1022f800e10f5000090032000000e0000b0032003e
:10230800e20f500007003200e30f500002003a00cd
:102318007060800000000600000005005061800029
:102328000000060060608000000006000061800078
:1023380000000600e10f50000a0032000000e00033
:102348000f003200e20f50000a003200e30f500085
:1023580003003a0011a00a00300b0000000006003c
:102368000000050080598000ff800a00000000007e
:1023780000000600805980006140600000000600ef
:10238800aaa00a00300b00000000060063406000ad
:102398004801dd00f1cf2f00b45e80008481600029
:1023a80083017100b35e8800d35e80008380600083
:1023b80081007100d15e88004500dd0021b0200059
:1023c80091407800f2c9b30082c0600000c070007c
:1023d80002ebb700000006002b48a800000006002a
:1023e8002b48a900000006000b48a90000000600c1
:1023f800a8200a006c08000000000600e10f500049
:102408000a0032000000e0000e003200e20f500027
:1024180009003200e30f500003003a002b88a8009f
:10242800202ba80000000600000006002d48a80088
:1024380021eba800000006002b68a800200ba800cc
:10244800000006002ca8a800214ba80000000600e8
:10245800e10f50000a0032000000e0000e003200d8
:10246800e20f500009003200e30f500003003a0069
:102478002b88a900202ba9000000060000000600f8
:102488002d48a90021eba900000006002b68a9002f
:10249800200ba900000006002ca8a900214ba900c8
:1024a80000000600e10f5000090032000000e000c3
:1024b8000b003200e20f500007003200e30f50001b
:1024c80002003a000b88a900000006000000060080
:1024d8000d48a900000006000b68a90000000600ce
:1024e8000ca8a90000000600e10f50000a00320005
:1024f8000000e0000e003200e20f50000900320038
:10250800e30f500003003a0020210a006e08000083
:102518000000060000000600a8210a007408000058
:1025280000000600ec210a006c080000000006000c
:1025380064210a00720800000000060001eba900ef
:10254800606080000b68a9002b68a9000b48a900ef
:102558002b48a900002bef00000620001058880027
:10256800042bef00062bef00082bef000a2bef00df
:102578000c2bef000e2bef00102bef00122bef00af
:10258800142bef00202bef00222bef00000a000095
:10259800000200001f000000302bef00322bef007c
:1025a800382bef00402bef00482bef00502bef00ab
:1025b8003a2bef00422bef004a2bef00522bef0093
:1025c8003c2bef00442bef004c2bef00542bef007b
:1025d8003e2bef00462bef004e2bef00562bef0063
:1025e800682bef006c2bef00702bef00742bef00c3
:1025f8006a2bef006e2bef00722bef00762bef00ab
:10260800802bef00822bef00842bef00862bef004e
:10261800882bef008a2bef008c2bef008e2bef001e
:10262800902bef00922bef00942bef00a02bef00e4
:10263800a42bef00a82bef00ac2bef00d02bef0062
:10264800d22bef00d42bef00d82bef000030200066
:10265800b05e8800d05e8800f02bef00f22bef0010
:10266800f82bef00fa2bef00002cef00022cef0004
:102678000c2cef000e2cef00102cef00122cef00aa
:10268800142cef00162cef00182cef001a2cef007a
:102698001c2cef001e2cef00202cef00222cef004a
:1026a800242cef00262cef00282cef002a2cef001a
:1026b8002c2cef002e2cef00302cef00322cef00ea
:1026c800342cef000000060000eca800000ce2002b
:1026d800feff3d000aeba800000006000000e00035
:1026e80001003200a08288000000060000000600f9
:1026f8000000e0000100320090828800000006001f
:1027080000000600e10f5000210032000000e00048
:1027180017003200e20f50000d003200e30f5000a6
:102728000a003a0011a10a00300b00000104e00081
:102738000500320071608000928280000200e00093
:10274800010032000200010000000600000006003f
:10275800300bab00fcff3200616080009282800089
:102768000200e000f8ff320002000100f6ff370027
:10277800314bab00f4ff320001618000928280008f
:102788000200e000f0ff32000000eb00020401004c
:10279800300be200ecff3d00516180009282800026
:1027a8000200e000e8ff320002000100e6ff370007
:1027b8000000060000000600002bef0000062000c5
:1027c80010588800042bef00062bef00082bef00b1
:1027d8000a2bef0030002000605888000e2bef0015
:1027e800102bef00122bef00142bef00100020002d
:1027f80000598800222bef00302bef00322bef001e
:10280800382bef00402bef00482bef00502bef0048
:102818003a2bef00422bef004a2bef00522bef0030
:102828003c2bef00442bef004c2bef00542bef0018
:102838003e2bef00462bef004e2bef00562bef0000
:10284800682bef006c2bef00702bef00742bef0060
:1028580000402000505b8800705b8800905b880017
:10286800b05b8800a02bef00a42bef00a82bef0093
:10287800ac2bef00d02bef00d22bef00d42bef00c6
:10288800d82bef0000302000b05e8800d05e8800b2
:10289800f02bef00f22bef00f82bef00fa2bef00f4
:1028a800022cef000c2cef000e2cef00102cef0088
:1028b800122cef00142cef00162cef00182cef0050
:1028c8001a2cef001c2cef001e2cef00202cef0020
:1028d800222cef00242cef00262cef00282cef00f0
:1028e8002a2cef002c2cef002e2cef00302cef00c0
:1028f800322cef00342cef00a0aa2000a082880020
:1029080040ab2000908288000b48a9002b48a80003
:102918000b68a9002b68a80010608000b8400a0066
:10292800000f00001060880001eba800000ca80050
:10293800010cab00feff32000a0ba800002ca80017
:10294800012cab00feff32000a2ba80000eca80007
:10295800000ce200feff3d000aeba800404020000a
:10296800005c8800822bef00842bef00862bef00a1
:10297800882bef0040002000505c88008c2bef0073
:1029880000102000705c8800902bef00922bef0065
:10299800942bef00000006000b48ab0001003a0042
:1029a80000000600a08280000000e0000100320064
:1029b800000001000b48a900000006000000e0002c
:1029c80008003200e10f500005003a00002ca80072
:1029d800012cab00feff32000a2ba8000000060005
:1029e80000000600000ca800010cab00feff32003e
:1029f8000a0ba80000000600889fbe008a1f780006
:102a0800291a210033800a0019000000ee200a006c
:102a1800220e00005acea800c08480000000e80002
:102a2800c0848800f08b80000000e800f08b8800ec
:102a3800a08980000000e800a089880050848000f8
:102a480092808000a38080004f82de000203400055
:102a580083034a0096808800a7808800928b8000b4
:102a68006111b90070808000818080000000410001
:102a78008180490070808800818088006818210062
:102a8800628080001858a300020032001868a30072
:102a9800a80032000200e00020003200c28480005a
:102aa800e10f51001d00360091848000e184880008
:102ab800c28480000201e9000500090042bbd80079
:102ac800908488001230ef001430ef000c30ef00d3
:102ad8000000eb00c0848800da818000e10f550017
:102ae800ac003200e90f55001d00320055800a0085
:102af8001800000066000a00180000005acea9005d
:102b08005acea8005acea9001928a30031003a00cd
:102b18004f0578004f04be0000000600c384800003
:102b280002f42100828f5100ebff3600918480006f
:102b3800e1848800c28480000201e90005000900e0
:102b480042bbd800908488001230ef001430ef00a8
:102b58000c30ef000000eb00c0848800deff370077
:102b680050808000e10f500077003600f08b800025
:102b7800e10f500074003600f48b800072808000f2
:102b8800838080000402e900050009004499d80008
:102b9800c08b88000e30ef001030ef000430ef00db
:102ba8000630ef000a30ef000000eb00f08b8800e1
:102bb80055800a001800000066000a00180000008e
:102bc8005acea9005acea8005acea9001928a300a7
:102bd800cfff32001938a300ce003a001900780060
:102be8004400de006140600011820a001800000005
:102bf800824f5000040032001850a000b08c8000b2
:102c08000000e800b08c88001828a300c9003a002a
:102c18005acea8005acea9001938a3003e003a009f
:102c2800218b8000b08580004300dd000180b90061
:102c3800808c8800918c8800808c8000918c80002a
:102c48004109dd004f00de0000007100cf08de0002
:102c5800a08c880011800a00190000000004e00020
:102c680003003200b085800000004000a08c88007e
:102c7800908b80004400dd00a08b8800008d8000d0
:102c88000008a30013003a005acea8003f90a900fc
:102c98003f90ab0006003200d1858000f0ff230092
:102ca800808f500002003e00d0858000108b80008d
:102cb80000002200008288005acea900508e8800a9
:102cc800a28c8000a318210041172100801b21003d
:102cd800380707005acea8005acea900518c8000a8
:102ce800f0312000808f500002003e000000eb0011
:102cf800508c8800518c800000b02400808f5000d8
:102d080001003600508c88001808a30002003a0021
:102d1800538c8000731a880044800a001900000050
:102d280011000a00180000004f0578004f04be008b
:102d3800000006000201e800628088000a30ec000a
:102d48000830ec0053ff3700f28b800000fa2000b7
:102d5800800f510065ff3600f48b80007280800080
:102d6800838080000402e900050009004499d80026
:102d7800c08b88000e30ef001030ef000430ef00f9
:102d88000630ef000a30ef000000eb00f08b8800ff
:102d980087ff3700828b8000000e000000020000d1
:102da8001f00000024808000358080004f93de00e3
:102db8000401410085014b0022808800338088008f
:102dc800348980006122b900008080001180800071
:102dd8000000420081804a0000808800118088003d
:102de80050808000e10f50003c003600f08b8000de
:102df800e10f500039003600f48b80000402e9002e
:102e0800050009004499d800008c88000e30ef00b6
:102e18001030ef000430ef000630ef000a30ef000a
:102e28000000eb00f08b880040808000e10f50002c
:102e380019003600a0898000e10f50001600360006
:102e4800a489800002808000138080000402e900c9
:102e5800050009004499d800b08988000030ef00c7
:102e68000230ef000830ef000000eb00a089880076
:102e780055800a001800000066000a0018000000cb
:102e88005acea9005acea8005acea9001928a300e4
:102e980022ff320052ff3700a289800000fa20008a
:102ea800800f510014ff3600a48980000280800042
:102eb800138080000402e900050009004499d80045
:102ec800b08988000030ef000230ef000830ef00d2
:102ed8000000eb00a0898800e5ff3700f48b800034
:102ee80000fa2000800f5200cfff3600f48b8000dc
:102ef8000402e900050009004499d800008c880004
:102f08000e30ef001030ef000430ef000630ef0015
:102f18000a30ef000000eb00f08b8800c2ff37009a
:102f280031a3a8003183a8005a2ea9005a0ea9007f
:102f38004e23ef0010002000608c88002aff370025
:102f48005acea8001858a3000d0032001808a30094
:102f58000b003a001938a30009003a001800a00035
:102f68000000eb00408c88001948a3005e00320086
:102f780031c3a8003183a90031a3a8001850a100cb
:102f88001808a30011003200408c80000000e800ff
:102f9800408c8800e90f5000340036001800a1006a
:102fa800e0012000408c88001948a3003a00320054
:102fb80031c3a90031a3a9003183a800e70f550048
:102fc800020036005a2ea9005a0ea8005acea900af
:102fd8001808a30011ff3a001938a3000fff3a00a0
:102fe800e90f55000200320018a8a3000bff3200b9
:102ff8005acea800908b8000e1032000810f50007a
:103008002d003600608c80000000e800608c88008d
:10301800608c8000e60f500003003600600020003e
:10302800608c88001870a000608c80000000e000b0
:1030380003003a0010002000608c88001870a1007e
:103048001878a300230032001948a3002b0032008f
:103058003183a9005acea9005acea8005acea90099
:103068001938a3002fff3a00f0fe3700428c800089
:103078004a11dd00d07280000050a2000002b200a8
:10308800d37280000350a10083017000d3728800be
:10309800721a8800cdff370031c3a8003183a90018
:1030a80031a3a800e70f5500c8ff36005a0ea90043
:1030b8005a2ea800c5ff3700d1032000810f500009
:1030c800d3ff3e00608c80000000e900608c88001f
:1030d800cfff37001948a3000b0032003183a80046
:1030e8005acea900dcff370031c3a90031a3a900db
:1030f8003183a8001850a100a1ff370031a3a9000f
:103108005acea900d4ff370031a3a8005acea9008f
:10311800d1ff3700889fbe008a1f7800840307000c
:10312800fae1ab0002003200fa01ab004a003a00b3
:10313800d181800001007800f2ff2f00f3ff2f00fb
:1031480002814000e0814900e90f5100e08f5900f9
:1031580007003600e40f500032003e00b0808800bf
:10316800d08188004f0578004f04be00000006009b
:10317800020601007b003700420037004500370097
:1031880085003700900037009800370003003700ab
:103198006a003700560037003a003700488180003f
:1031a800810221008808e9000800e000a3003a0035
:1031b800691821001928a300a0003200c3e8a9005b
:1031c800000000000000000010002000608c880053
:1031d8001970a100108a8800ca1321001a70a10072
:1031e800801b2100ea050700c01c2100e805070034
:1031f800001e2100e605070090848000b085880045
:10320800c3e8a80000000000000000001950a0005a
:103218001a50a00080002000e0808800d08188003b
:10322800b8858800118d80000128a300cbff3a00e3
:103238005bcea900d5030700a0002000b08088005d
:103248003e10a9003e30a800d08188004f057800c4
:103258004f04be000000060071030700d181800002
:1032680001007800f2ff2f00f3ff2f0002814000d9
:10327800e0814900e90f5100e08f5900b5ff3e0099
:10328800bbff370000000000e40f5000b3ff36001a
:10329800e4ff37003e10ab00800032003e10a8006b
:1032a8003e50a9003e70a9003e90a9003eb0a9007a
:1032b8003e30a9003ed0a900201a21001044a100e8
:1032c800601821001010a100801521001044a100f1
:1032d800c01321001010a100007122005081880045
:1032e8004000200010818800b08088009cff3700d3
:1032f8003e10ab0082003200c2858000b18580009c
:10330800f4804000810f510068003e00c2858000b3
:10331800b1858000f4805000810f510063003900ae
:1033280091002000c1808800d1818800118d800023
:103338000128a30089ff3a00bdff37003e10ab000b
:103348006300320081002000d1808800d08188008d
:10335800a4030700d0818800e40f50007fff3600e7
:10336800b0ff3700118d80000128a300470032000c
:1033780030818000610221008008e9000000e0003f
:103388006900320020818000d0818800e40f50005d
:1033980072ff3600a3ff370051818000a20221008e
:1033a8000109e9000100e00034003a005000200063
:1033b80000818800d0818800118d80000128a30039
:1033c80066ff3a009aff37005bcea800401f200036
:1033d8005081880060002000d0818800118d800015
:1033e8000128a3005dff3a0091ff3700518180005a
:1033f800a20221000109e9000100e00018003a00da
:10340800611821001128a30015003a001120a0001e
:10341800c01321001020a000401f20004081880018
:1034280070002000f0808800d0818800118d800015
:103438000128a30049ff3a007dff370071002000f2
:10344800e1808800d18188008000eb00b185880088
:10345800118d80000128a30040ff3a0074ff370057
:1034680061002000f1808800d1818800118d8000e2
:103478000128a30039ff3a006dff37004100200002
:1034880001818800b080880035ff370011002000d6
:1034980021818800b080880031ff3700310020008a
:1034a80011818800b08088002dff37006018210046
:1034b80010a0a00080002000c0808800d081880073
:1034c800118d80000128a30024ff3a0058ff37001f
:1034d800601821001020a100c01321001020a100b5
:1034e8002a0307005bcea90030002000d0808800a6
:1034f800d08188003b030700d081880096ff370001
:10350800601821001020a100c01321001020a10084
:103518001e0307005bcea90030002000c080880091
:10352800b08088000eff3700018c8000407e2000ac
:10353800808f500008003c00018c800050812000e2
:10354800808f500004003400200020002081880073
:10355800b080880002ff37003000200020818800fa
:10356800b0808800fefe3700300020000018880078
:103578000223ef000423ef000623ef000823ef00e7
:1035880080e12400501888000c23ef000e23ef0080
:103598001023ef001223ef001423ef001623ef008f
:1035a8001823ef0000120000000200001f000000b6
:1035b8001a23ef001c23ef001e23ef002023ef0047
:1035c8002223ef002423ef002623ef002823ef0017
:1035d800c008200050198800001b8800b01c880013
:1035e800cc23ef000224ef003824ef006e24ef0014
:1035f800a424ef0000802400601988000000240043
:10360800101b880010002400c01c8800ce23ef0087
:103618000424ef003a24ef007024ef00a624ef0002
:103628002e23ef006423ef009a23ef00d023ef004e
:103638000624ef003c24ef007224ef00a824ef00da
:103648000010230080198800301b8800e01c8800c7
:10365800d223ef000824ef003e24ef007424ef008b
:10366800aa24ef00c000200090198800401b8800a1
:10367800f01c8800d423ef000a24ef004024ef0058
:103688007624ef00ac24ef0080102000a0198800f9
:1036980080002000501b8800001d8800d623ef0002
:1036a8000c24ef004224ef007824ef00ae24ef0052
:1036b8003623ef006c23ef00a223ef00d823ef009e
:1036c8000e24ef004424ef007a24ef00b024ef002a
:1036d8003823ef006e23ef00a423ef00da23ef0076
:1036e8001024ef004624ef007c24ef00b224ef0002
:1036f8003a23ef007023ef00a623ef00dc23ef004e
:103708001224ef004824ef007e24ef00b424ef00d9
:103718003c23ef007223ef00a823ef00de23ef0025
:103728001424ef004a24ef008024ef00b624ef00b1
:103738003e23ef007423ef00aa23ef00e023ef00fd
:103748001624ef004c24ef008224ef00b824ef0089
:103758004023ef007623ef00ac23ef00e223ef00d5
:103768001824ef004e24ef008424ef00ba24ef0061
:103778004223ef007823ef00ae23ef00e423ef00ad
:103788001a24ef005024ef008624ef00bc24ef0039
:103798004423ef007a23ef00b023ef00e623ef0085
:1037a8001c24ef005224ef008824ef00be24ef0011
:1037b8004623ef007c23ef00b223ef00e823ef005d
:1037c8001e24ef005424ef008a24ef00c024ef00e9
:1037d8004823ef007e23ef00b423ef00ea23ef0035
:1037e8002024ef005624ef008c24ef00c224ef00c1
:1037f8004a23ef008023ef00b623ef00ec23ef000d
:103808002224ef005824ef008e24ef00c424ef0098
:103818004c23ef008223ef00b823ef00ee23ef00e4
:103828002424ef005a24ef009024ef00c624ef0070
:103838004e23ef008423ef00ba23ef00f023ef00bc
:103848002624ef005c24ef009224ef00c824ef0048
:103858005023ef008623ef00bc23ef00f223ef0094
:103868002824ef005e24ef009424ef00ca24ef0020
:1038780080c32900901a8800401c8800f01d880029
:10388800f423ef002a24ef006024ef009624ef00d1
:10389800cc24ef0080d52400a01a88008a23ef00ea
:1038a800c023ef00f623ef002c24ef006224ef0082
:1038b8009824ef00ce24ef005623ef008c23ef006e
:1038c800c223ef00f823ef002e24ef006424ef005a
:1038d8009a24ef00d024ef005823ef008e23ef0046
:1038e800c423ef00fa23ef003024ef006624ef0032
:1038f8009c24ef00d224ef00401f2000d01a88003b
:10390800801c8800301e8800fc23ef003224ef0062
:103918006824ef009e24ef00d424ef00e01a88000a
:10392800901c8800401e8800fe23ef003424ef001e
:103938006a24ef00a024ef00d624ef005e23ef00f6
:103948009423ef00ca23ef000024ef003624ef0091
:103958006c24ef00a224ef00d824ef00000006003a
:1039680000082000c01188003a22ef003c22ef0036
:1039780020022000f0118800800d2000001288002d
:103988004222ef004c22ef004e22ef005022ef00bf
:103998005222ef005422ef005622ef005822ef0087
:1039a8005a22ef005c22ef0039e2a80038a2a800f2
:1039b8003882a800000006003822ef003a22ef0003
:1039c80000082000e0118800e0022000f0118800c3
:1039d8004022ef004222ef000000060011a00a007a
:1039e8003e020000e14f5000fcff320011a00a0027
:1039f8003c020000e14f500002003200201280001b
:103a0800000006003c22a9002012800000000600e9
:103a18003e82ab00feff3a000080fb0040128800a7
:103a28000000060011a00a003e02000010c0b2000b
:103a3800000006000040eb003e82ab0003003a00a5
:103a4800c01180004500de006140600000000600f3
:103a58000040eb003ce2ab0003003200f0118000b4
:103a68004500de00614060000000060038a2a800a2
:103a78000000060038a2a900000006005cc2a900e8
:103a8800614160004211dd00c125200091407800ad
:103a98000124a10082c07000c225200001497800dd
:103aa80066200a003802000000000600c0118000ed
:103ab8004600de006140600000000600e012800061
:103ac8004200de0061406000000006005e30ef004a
:103ad8000000eb003c62ab0022003a003cc2ab00a5
:103ae80019003a0011a10a003c020000e1cf500081
:103af8000f0032003c02ab0007003a003ca2ab00ca
:103b080001003a00000006000040a000f082880092
:103b18003ca2a900000006000030a000f082880046
:103b28003c02a9003ca2ab00f6ff3200f6ff3700ca
:103b38000020a000f08288003c22a9003c02ab00d3
:103b4800eeff3200f4ff37000010a000f08288007a
:103b580011a10a003c020000e1cf5000e5ff3a0045
:103b6800f3ff370010002000f08288003cc2ab0051
:103b7800dcff3200f4ff370000128800ef8060009d
:103b88001112880000000600101280008000eb006f
:103b9800c001dd0002002000001280008000eb0060
:103ba8000200700083807000000006000002be0062
:103bb800e0052000800f5200e08f5a000a0036000e
:103bc8003b62a80038e2a9000401be0000102e00e4
:103bd800515f20004ff90700001288006f806000d5
:103be80010128800000006003b62a900f70f52007f
:103bf800e08f5a000e00360038e2a8004229dd00a6
:103c0800ce21de00830171004221dd0000102e006c
:103c1800515f20003ff9070061005000e080580024
:103c2800001288006f8060001012880000000600f3
:103c380038e2a9004429dd00cc21de0083017100af
:103c48004421dd0000102e00515f200031f90700eb
:103c580061005000e0805800001288006f8060000a
:103c68001012880000000600121280008001eb008c
:103c7800c012dd0004002000021280008001eb0069
:103c880004017100858171003b62ab000b003a00b2
:103c980061004100e080490038e2ab000d003a00c5
:103ca8004409dd00cc01de00830171004401dd0020
:103cb80000102e00515f200016f93700e00f510068
:103cc800e08f5900f2ff320000102e00515f2000f3
:103cd80010f937004209dd00ce01de0083017100d2
:103ce8004201dd0000102e00515f200009f9370065
:103cf80099a00a00fa0100000000060088a00a0046
:103d0800fa0100000000060011a00a00fa010000f4
:103d180000000600d00f800061406000000006002f
:103d28000000e00006003200e10f500003003a00f6
:103d380011a00a00d80100000000060000000500dc
:103d4800c00e800061406000000006000000e00036
:103d580007003200e10f500004003a0011a00a00e9
:103d6800d801000010c0b2000000060000000500e5
:103d7800c00e80006140600010c0b2000000060064
:103d8800d221ef0000000600d321a80000000600a1
:103d980088a00a00d401000000000600d321a90071
:103da8000000060099a00a00d401000000000600e7
:103db80000160000000200001f000000d301a80048
:103dc80000000600d301a900000006000001eb0076
:103dd8000100e00007003200fb01ab0005003a00db
:103de800e31f2000131878000201e800828f5000ba
:103df800f9ff3a0002007800000006000100e00028
:103e08001000320011a20a00fa0100000204e000ca
:103e18000001eb0009003a00b0017800e30f8800c8
:103e28000201e800828f50000400320011a30a004a
:103e3800fa0100000304e000f7ff320002007800f6
:103e480000000600000005000000050040002000fa
:103e5800d401e20005003500dca10a00d40100000d
:103e680030002000e2cf50000100360000000600bc
:103e78008180fb0081804000207d28008100400077
:103e880011007800000006000000e0001e0032006b
:103e9800e10f50001b003a0011a20a00d8010000ef
:103ea8000040eb000204e00015003200401e200034
:103eb80090087800300f800090009800400f800034
:103ec800a0009800500f8000b0009800600f80009c
:103ed800c0009800700f8000d0009800800f80000c
:103ee800e0009800900f8000f0009800a00f80007c
:103ef80080089800b00f80009008980010c0b300a8
:103f080000000600000005000040eb00d801ab00ef
:103f1800fbff3200a01d200090087800e00e800012
:103f280090009800f00e8000a0009800000f80001c
:103f3800b0009800100f8000c00098001000050025
:103f4800d221ef0000000600411f21000000eb0015
:103f5800cdff07000004e0000c003200421f2100e2
:103f680012007800c800de0053052000838f50003f
:103f780007003200f00e2000808f50000f00320042
:103f8800c0cdb30080cf5000090032000000060009
:103f98000004e00014003a003e10ab0002003200ba
:103fa8003e10a9003e30a8000009eb000000060002
:103fb800b08f80000082880000000600b08f80006b
:103fc800c0858800c1858000c0da2000808f50003d
:103fd80001003600c08588000000eb000009780069
:103fe800b08f880000000600e14f50000c0032003e
:103ff80001cab300814f50000600320011cab30055
:10400800814f5000e8ff3a003f90a8000009eb00fc
:10401800000006003f90a9000009eb000000060020
:104028003e10ab00e0ff3a003e10a8003e30a90069
:104038000009eb00000006004410ec002082880014
:1040480021032000810f500001003e0000000600ff
:10405800508c8000e00f8800008a8000e00f880004
:1040680000828000e00f880010132300e00f880012
:1040780000302300e00f8800a08c8000e00f88004b
:10408800c08b8000e00f8800d0858000e00f88009a
:10409800d18180008100e900100020000100dd00ce
:1040a800e00f8800f0818000e00f8800b085800074
:1040b800e00f880090848000e00f8800c000200096
:1040c80001022000e00f88000000e800810f500086
:1040d800fcff3a00108288004430ef000000060020
:1040e800508c8000e00f8800008a8000e00f880074
:1040f80000828000e00f880010132300e00f880082
:1041080000302300e00f8800a08c8000e00f8800ba
:10411800c08b8000e00f8800d0858000e00f880009
:10412800d18180008100e900100020000100dd003d
:10413800e00f8800f0818000e00f8800b0858000e3
:10414800e00f880090848000e00f8800c000200005
:1041580001022000e00f88000000e800810f5000f5
:10416800fcff3a001082880000000600bd0007002e
:10417800ef00070000142000e01a8800d01a880019
:104188002be3a800901c8800801c880061e3a8002d
:104198005a2ea9005a0ea9000000eb00b08588002d
:1041a8000000060031a3a8003183a80067a3a80077
:1041b8006783a8009da3a8009d83a8005a2ea90084
:1041c8005a0ea9000000eb00b08588009084880092
:1041d800611821001190a100011a21001104a10009
:1041e800b08c8800c11321001190a1006115210035
:1041f8001104a100608a8800000006005810ec0035
:10420800c0828800f40f50003c003600b185800061
:10421800c0858000808f5000b0858000c1858000f7
:104228000e003e0064004000810f5000190031006c
:10423800b085800064004000e30f50001500360090
:10424800b085800064004000b0858800d08180007f
:10425800b08288005830ef0000000600640040007b
:10426800810f50000b003600b085800064004000cc
:10427800e30f500007003600b0858000640050004e
:10428800b0858800d0818000b08288005830ef0067
:104298000000060090002000b0828800b2858000ef
:1042a800b1858000c408de0082804000e185880076
:1042b800b1858000b28580004411de008280500004
:1042c800f1858800b2858000b1858000c508de00d0
:1042d8008280400001868800b1858000b285800018
:1042e8004511de0082805000118688006118210087
:1042f80011a0a1005830ef0000000600d081800016
:10430800b0828800000006000000eb00c08488002e
:1043180090848800508488006084880070848800b5
:10432800a0848800e0848800d0858800615d200032
:10433800c1858800b0858800408b8800108b880074
:10434800d08a8800e08a8800f08a8800208b88005c
:10435800708b8800f08b8800c08b8800808b880069
:10436800908b8800a08b8800d08b88006118210072
:104378001100a1001110a1001120a1001130a1000d
:104388001140a1001150a1001160a1001170a100fd
:104398001180a1001190a10011a0a100408c8800fb
:1043a800508c8800608c8800708c88006011b80080
:1043b800828c8800938c8800a08c8800b08c880040
:1043c800011a21001104a100f0888800c088880023
:1043d8008088880090888800a0888800d088880015
:1043e80020898800a0898800708988003089880021
:1043f800408988005089880080898800c11321007d
:104408001100a1001110a1001120a1001130a1007c
:104418001140a1001150a1001160a1001170a1006c
:104428001180a1001190a10011a0a100f0898800bd
:10443800008a8800108a8800208a8800328a8800ca
:10444800438a8800508a8800608a880060152100a5
:104458001004a1003e30ef003f90a8003e30a800b5
:1044680000000600e0042100c08d8800c706210076
:10447800d78d880060ff2400e08d8800a0ff24000d
:10448800f08d8800a0042100608e88006606210057
:10449800768e8800c0fe2400808e880000ff2400ed
:1044a800908e8800c01a2100851e21008000eb0034
:1044b80084262400d3ff2f0002b0240001087800ce
:1044c80024009800130098003100980042009800da
:1044d80074004000850f5000f8ff3a00d47f210097
:1044e80074828800836d200083828800c2ff2700c1
:1044f800820b7800c14b200071838800004c280093
:10450800808388005482880063828800020b7800c8
:1045180041838800508388003830ef003630ef0040
:10452800801b210020010700c01c21001e0137004c
:10453800001e210061042100010878000106210005
:10454800118f880022fe2400228f880062fe24003a
:10455800328f88000001eb00428f880003a42500f9
:10456800638f8800a3ff2f00538f8800728f880005
:1045780002d02700828f8800420a200032828800f9
:104588002223200042828800c2ff27008208780088
:10459800617b210011838800b17b29002183880079
:1045a8003430ef00000137007210000032010000c3
:1045b800800000003a10000004000000001a00000b
:1045c800000200001f00000082000000010001003e
:1045d800000000003e100000040000008000000001
:1045e800f4110000200000008000000042100000cc
:1045f80004000000800000005610000002000000c7
:1046080082000000010000005810000002000000b5
:1046180080000000a411000050000000800000008d
:104628003410000006000000800000006010000048
:104638001200000080000000e24f00001e00000091
:104648008000000046100000040000008000000008
:104658004a10000004000000800000004e10000016
:104668000400000080000000001000001600000098
:1046780080000000521000000400000080000000cc
:104688005a10000002000000800000001412000010
:1046980020000000800000002c100000080000002e
:1046a800800000005c100000020000008000000094
:1046b8005e100000020000008000000016100000dc
:1046c8001600000082000000010001000001000047
:1046d80001000100000100000100010000204e005f
:1046e800c80020004e000000000000000000060086
:1046f800c3e8a9000000000000000000b2010700a4
:10470800c3e8a800000000000000000020a9210064
:104718006081880025a8a800000006000000280085
:10472800e002880000000600000024000003880062
:1047380010c0b30032f0b700000006003270ef007e
:104748006800ab00feff32008000200020038800d4
:104758000000060040038000614060000000060081
:1047680021032100914078000140780000000600f4
:10477800b0038000a20380008000eb00c000dd00d1
:10478800000020008001eb000200700083807000b0
:1047980000000600d0038000c20380008000eb0008
:1047a800c000dd00000020008001eb000200700066
:1047b8008380700000000600100e20006800b6001c
:1047c8000000060070038000620380008000eb0098
:1047d800c000dd00000020008001eb000200700036
:1047e80083807000000006000000e0000100320035
:1047f8006081880000000600000420000064880032
:10480800a00820003064880050052000206488003b
:104818008a2cef000020280040648800d00c20007b
:104828007064880060648800922cef00902cef0080
:10483800942cef0000b82100d082880081eca800f9
:104848000000060081eca900802cef00a0082000e1
:104858003064880050052000206488008a2cef000e
:10486800882cef008e2cef008c2cef00922cef00a0
:10487800902cef00942cef000000060040648000ac
:104888004700de00614060000000060081eca800df
:104898000000060081eca9000000060089eca800d1
:1048a8000000060089eca90000000600b0200a00fc
:1048b8008e0c0000000006000000e000010032003d
:1048c800d0828800000006000000060009c8ab007e
:1048d80001003a0000000600d08280000000e000dd
:1048e800010032000000010009c8a900000006000c
:1048f800841f7800851f7800881f78008a1f780039
:104908004400f800040a20002402880030059000c2
:10491800400490009a029000250598008a029000b1
:104928001505980091025100882add00050d7800d0
:10493800100490004604c3004604c0000204c000ee
:104948001201c00000049000200590004604c70032
:104958000204c0001201c0000400cd00e002900073
:104968001301c000d00290000500c8000400cd006b
:10497800f00290001520e60005027800800a9000f9
:1049880015a0e60005027800faba9700050d780030
:1049980074bd9f00840978004400f9004f05780031
:1049a8004f047800cf0278004f0278000080fe00a4
:1049b80000000600801f7800200090000018eb001f
:1049c8000008eb004f007800801f7800300090004e
:1049d8000018eb000018eb000008eb004f0078000f
:1049e80000000600841f7800851f7800881f780063
:1049f8008a1f78004400f800040a20002402880076
:104a080030059000400490009a0290002505980017
:104a18008a0290001505980091025100882add004d
:104a2800050d7800100490004604c3004604c00039
:104a38000204c0001201c0000400cd00900a9000da
:104a48001201c3001301c00000049000200590006b
:104a58004604c7000204c0001201c0000400cd00d3
:104a6800e00290001301c000d00290000500c800c9
:104a78000400cd00f00290001520e6000502780041
:104a8800800a900015a0e60005027800faba97009f
:104a9800050d780074bd9f00840978004400f90072
:104aa8004f0578004f047800cf0278004f02780055
:104ab8000080fe0000000600062eef00222eef0008
:104ac8003e2eef0001202000d1728800f001200066
:104ad80010708800b2ff2900f2708800f2ff2900e8
:104ae800d271880082c92900b27288000a2eef00ac
:104af800262eef00422eef005e2eef000c2eef0068
:104b0800282eef00442eef00602eef00082eef0055
:104b1800242eef00402eef00e1728800007088001c
:104b280070382000e0708800f00c2000c071880008
:104b380000c02100a07288000000eb005105200091
:104b4800b1468800a10a2000b146880000688800a4
:104b5800f0c3b30028edb7001000200050200a0071
:104b68009e0d00000080200051052000b1468800fd
:104b7800a10a2000b14688000068880000000600ed
:104b880010002300307c880040062000407c88000c
:104b980010022000507c880010102800707c8800cb
:104ba800d0072000807c880010222000907c88009c
:104bb800b82fef00ba2fef00be2fef00002def0047
:104bc800a42fef00a62fef00aa2fef00ae2fef00c3
:104bd800b02fef00b22fef00100020008107200057
:104be800a209200053f82000814978008249780002
:104bf80080497800610420007205200043f82000f5
:104c0800814978008249780080497800840fab0098
:104c1800feff3a0084afab00feff32000000060042
:104c2800eea00a008e0f0000000006004008800079
:104c38008000eb0000000600200880008000eb00e8
:104c4800000006000021ef000421ef00f0702200b0
:104c58004008880000d72100e08288000000060094
:104c680001e1a9000021ef000421ef000821ef0075
:104c78000000060001e1a8000000060001e1a9000b
:104c880000000600400888000000060064200a00b2
:104c980040080000000006000000e00001003200ab
:104ca800e0828800000006000000060011a00a004b
:104cb80000080000e14f500001003200000006002b
:104cc800e0828000000001000028a9000000060022
:104cd800400888000000060090838000e08a880071
:104ce800e18a8000708b8000808f500002003600bf
:104cf800e08a8000708b8800c0838000208b880049
:104d0800a083800090888800d0838000d0888800a5
:104d1800f0838000ff006000118d880095800a00f4
:104d280000000000c08a880000848000108b880082
:104d380010848000c088880000000600007c800085
:104d480000000600007c80000000e0001000350034
:104d580000e8a3000100320081cfa9000098a30059
:104d680001003200812fa9000078a3000100320061
:104d780080efa9000068a3000100320080cfa900dd
:104d88000048a30001003200808fa900000006003f
:104d980081efa900eeff3700802fef00000006002a
:104da8000000fe0087fe0700821f780072818000e5
:104db8000000110002002000810019004f01780056
:104dc800000006000000fe00001e00004400000075
:104dd8001f000000801f7800811f7800821f780064
:104de80060038000801f780079fe07004f0178007b
:104df800020150000201e900728188004f01780029
:104e0800cf0078004f007800000006001000200056
:104e1800a8200a006c08000040002000ec200a00ce
:104e28006c08000056c8bf0064400a00000100007a
:104e380056e8b7000000060040002000a8200a003d
:104e48006c080000ec200a006c08000056c8bf007f
:104e580064400a000004000056e8b700000006009d
:104e68000f0007002efd0700c6fc070084ff07009f
:104e78003f50a80011a00a00000800000004e0004c
:104e8800fcff3200aff807000028a90011a00a00b3
:104e9800000800000004e000f6ff3200f9ff3700c8
:104ea8003aff070007ff070052f6070055fe070004
:104eb80012fe0700bbfb0700b7f9070064ff0700f5
:104ec800b0fa0700c3e8a8000000000000000000d6
:104ed800ceff37000000fe00000006000000fe00c4
:104ee8000000fe00000000000000000000000000bc
:020000040000fa
:104ef8006011b80062109800731098008000eb00f1
:104f08004110980001109800110098007100980055
:104f1800410098005100980001089800610098002d
:104f28002108980011089800000006000008eb000e
:104f380000000600889fbe008a9fbe008c1f780074
:104f480000067800400a9000540898003008900045
:104f580090017800430e98007c0b90001680510059
:104f680000f0a7000000ea00f27f2000820f500046
:104f78005c003c00600e980012c0b300830f520022
:104f880001003e000041eb00610161004610dd00b8
:104f98001c0190000260a100020170001206980036
:104fa800ac1390000700e000070032006c0a900084
:104fb8008002eb00c122dd0004002000050009008a
:104fc80047aad800301698001c007800e30f50005c
:104fd8007c003200e30f500022003e00e10f500039
:104fe8005f013200e10f5000ad013e006c099000f6
:104ff8006c109000fc10900000014100e081480016
:105008006216980073169800800220000c00400079
:105018001002e800441698000c109000dc12900072
:10502800850f5200470031000000e00009003200ff
:105038002c0190000218a30006003a0030ceb300fd
:10504800cc41900000c0610040469800100020004c
:10505800000e78004f0678004f05be004f04be00d2
:1050680000000600e50f5000d2013200e50f5000a5
:10507800b4003900e60f500084013a006e00460083
:105088009001e800730698006c0a90004006200022
:10509800800f5200150036000c089000e20f5000f7
:1050a800f30236000000eb00000e9800700698002e
:1050b8004006980030002000000e78000200a10091
:1050c8001206980070ceb300cc40900000c060007b
:1050d800404698004f0678004f05be004f04be00ba
:1050e80000000600620e9800a3ff37000000eb00e6
:1050f800000e9800429c2000828f5100d5ff360098
:105108006011b8006216980073169800401698004f
:10511800001698001006980070069800400698003f
:105128005006980060069800200e9800100e98000f
:10513800000e78004f0678004f05be004f04be00f1
:105148000000060010169800050009004499d800d0
:1051580000017800001698006000b80060169800fa
:1051680071169800401698002c0090000018a300b3
:10517800b9023a00e3022000830f510002003e000a
:105188000010a000200698000008a30045033a007c
:1051980063662000830f5100020036000000a00063
:1051a800200698000211b800ca18dd004611de007a
:1051b80002817000c619de00221698000c109000bb
:1051c80099ff37006c0a90006c109000fc1090005a
:1051d80000054200e08548006a1698007b16980092
:1051e800800220000c0040001004e80048169800d7
:1051f8005c109000800f54001f0039008c10900044
:10520800111698000500090048ddd8000004780050
:10521800001698006000b800601698007116980093
:10522800401698002c0090000018a30084023a0051
:10523800e5022000850f540002003e000010a00087
:10524800200698000008a30023033a0065662000a2
:10525800850f5400020036000000a00020069800c8
:105268000844b800ca48dd004644de0008847000df
:10527800c64cde002816980010032000800f52004c
:10528800ed013e001c009000c603de00e1c3630090
:10529800c402de00e1c2620085cf53008d023200f5
:1052a8000038a300ee013a002c4090008042b30081
:1052b800204698001c009000680160000200e00091
:1052c8000d0232006c0146001201e800840c200037
:1052d800840f5100380236000001eb006206980086
:1052e8002c0190000240a000220698000030a10086
:1052f80010069800160078006a015000828f51004d
:10530800020231001c0090000040a0001006980026
:105318002c0090000000e000a2023a009c019000de
:105328000358a3004bff32004006980040002000bd
:10533800000e78004f0678004f05be004f04be00ef
:10534800000006006c0a90006c109000fc109000a1
:1053580000054200e08548006a1698007b16980010
:10536800800220000c0040001004e8004816980055
:105378005c109000800f54001f0039008c109000c2
:10538800111698000500090048ddd80000047800cf
:10539800001698006000b800601698007116980012
:1053a800401698002c0090000018a30004023a0050
:1053b800e5022000850f540002003e000010a00006
:1053c800200698000008a30092023a0065662000b3
:1053d800850f5400020036000000a0002006980047
:1053e8000844b800ca48dd004644de00088470005e
:1053f800c64cde002816980010032000800f5200cb
:105408009a013e001c009000c603de00e1c3630061
:10541800c402de00e1c2620085cf53003a023200c6
:105428000038a3009b013a002c4090008042b30052
:10543800204698001c009000680160000200e0000f
:10544800b90132006c0146001201e800840c20000a
:10545800840f5100d60136000001eb006206980067
:105468002c0190000240a000220698000030a10004
:1054780010069800160078006a015000828f5100cb
:10548800ae0131001c0090000040a00010069800fa
:10549800680046001001e800420698001c009000d1
:1054a800800178000302b2000300e000aa01320084
:1054b800320698008001eb00430698000330200074
:1054c800830f5100ae013e0032cfb300cc419000b3
:1054d80002c161000234a000424698000028a300df
:1054e80013003a000c1090004401de002302200053
:1054f8008c8141001300500000f0a7000000ea0072
:10550800800f5100800236005c0090006a0146005e
:105518000009e800f40f500005003a001c00900054
:105528000020a000100698000000eb00500698002c
:10553800ac0190000300e0008c003a009c00900051
:105548000128a300c3fe320050002000000e78009e
:105558004f0678004f05be004f04be00000006004d
:105568006c0a90006c109000fc1090000003420040
:10557800e08348006616980077169800800220009d
:105588000c0040009001e800431698005c10900061
:10559800808f51001f0039008c1090001116980060
:1055a8000500090043bbd8000003780000169800e6
:1055b8006000b800601698007116980040169800b0
:1055c8002c0090000018a30083013a00e302200099
:1055d800830f530002003e000010a0002006980030
:1055e8000008a300ff013a0063662000830f530000
:1055f800020036000000a000200698000633b8001c
:10560800ca38dd004633de0006837000c63bde0084
:1056180026169800ac019000800c2000800f5200e4
:10562800e40036000000eb00200e980072004600ef
:105638001000e800100e980004fa2000840f5000b3
:10564800be0136000000eb00100e980000c8b30041
:105658002c419000004061006041b3002046980052
:105668000300e00041003a009c0090000118a300ec
:105678008501320020002000000e78004f067800d7
:105688004f05be004f04be0000000600000eeb00f0
:105698004f0678004f05be004f04be00000006000c
:1056a8006c0a90006c109000fc1090000001420001
:1056b800e081480062169800731698008002200066
:1056c8000c0040009002e800451698005c1090001d
:1056d800808f52001f0039008c109000111698001e
