:020000040000fa
:080000000002040000000000f2
:020000040000fa
:04000800900600005e
:020000040000fa
:04000c00f0050000fb
:020000040000fa
:040010000c060000da
:020000040000fa
:04001400c80600001a
:020000040000fa
:04001800ac06000032
:020000040000fa
:04001c00ec060000ee
:020000040000fa
:0400200028060000ae
:020000040000fa
:04002400ec060000e6
:020000040000fa
:04002800ec060000e2
:020000040000fa
:04002c00ec060000de
:020000040000fa
:04003000ec060000da
:020000040000fa
:04003400ec060000d6
:020000040000fa
:04003800ae05000011
:020000040000fa
:04003c00ec060000ce
:020000040000fa
:04004000ec060000ca
:020000040000fa
:04004400ec060000c6
:020000040000fa
:04004800ec060000c2
:020000040000fa
:04004c00ec060000be
:020000040000fa
:04005000ec060000ba
:020000040000fa
:04005400ec060000b6
:020000040000fa
:04005800ec060000b2
:020000040000fa
:04005c00ec060000ae
:020000040000fa
:04006000ec060000aa
:020000040000fa
:04006400ec060000a6
:020000040000fa
:04006800ec060000a2
:020000040000fa
:04006c00ec0600009e
:020000040000fa
:04007000ec0600009a
:020000040000fa
:04007400ec06000096
:020000040000fa
:04007800ec06000092
:020000040000fa
:04007c00ec0600008e
:020000040000fa
:04008000ec0600008a
:020000040000fa
:04008400ec06000086
:020000040000fa
:04008800ec06000082
:020000040000fa
:04008c007a050000f1
:020000040000fa
:04009000ec0600007a
:020000040000fa
:04009400ec06000076
:020000040000fa
:04009800ec06000072
:020000040000fa
:04009c00ec0600006e
:020000040000fa
:0400a000ec0600006a
:020000040000fa
:0400a400ec06000066
:020000040000fa
:0400a800ec06000062
:020000040000fa
:0400ac00ec0600005e
:020000040000fa
:0400b000ec0600005a
:020000040000fa
:0400b400ec06000056
:020000040000fa
:0400b800ec06000052
:020000040000fa
:0400bc00ec0600004e
:020000040000fa
:0400c000ec0600004a
:020000040000fa
:0400c400ec06000046
:020000040000fa
:0400c800ec06000042
:020000040000fa
:0400cc00ec0600003e
:020000040000fa
:0400d000ec0600003a
:020000040000fa
:0400d400ec06000036
:020000040000fa
:0400d800ec06000032
:020000040000fa
:0400dc00d00500004b
:020000040000fa
:0400e000ec0600002a
:020000040000fa
:0400e400ec06000026
:020000040000fa
:0400e800ec06000022
:020000040000fa
:0400ec00ec0600001e
:020000040000fa
:0400f000ec0600001a
:020000040000fa
:0400f400ec06000016
:020000040000fa
:0400f800ec06000012
:020000040000fa
:0400fc00ec0600000e
:020000040000fa
:04010000ec06000009
:020000040000fa
:04010400ec06000005
:020000040000fa
:04010800ec06000001
:020000040000fa
:04010c00ec060000fd
:020000040000fa
:04011000ec060000f9
:020000040000fa
:04011400ec060000f5
:020000040000fa
:04011800ec060000f1
:020000040000fa
:04011c00ec060000ed
:020000040000fa
:04012000ec060000e9
:020000040000fa
:04012400ec060000e5
:020000040000fa
:04012800ec060000e1
:020000040000fa
:04012c00ec060000dd
:020000040000fa
:04013000ec060000d9
:020000040000fa
:04013400ec060000d5
:020000040000fa
:04013800ec060000d1
:020000040000fa
:04013c00ec060000cd
:020000040000fa
:04014000ec060000c9
:020000040000fa
:04014400ec060000c5
:020000040000fa
:04014800ec060000c1
:020000040000fa
:04014c00ec060000bd
:020000040000fa
:04015000ec060000b9
:020000040000fa
:04015400ec060000b5
:020000040000fa
:04015800ec060000b1
:020000040000fa
:04015c00ec060000ad
:020000040000fa
:04016000ec060000a9
:020000040000fa
:04016400ec060000a5
:020000040000fa
:04016800ec060000a1
:020000040000fa
:04016c00ec0600009d
:020000040000fa
:04017000ec06000099
:020000040000fa
:04017400ec06000095
:020000040000fa
:04017800ec06000091
:020000040000fa
:04017c00ec0600008d
:020000040000fa
:04018000ec06000089
:020000040000fa
:04018400ec06000085
:020000040000fa
:04018800ec06000081
:020000040000fa
:04018c00ec0600007d
:020000040000fa
:04019000ec06000079
:020000040000fa
:04019400ec06000075
:020000040000fa
:04019800ec06000071
:020000040000fa
:04019c00ec0600006d
:020000040000fa
:0401a000ec06000069
:020000040000fa
:0401a400ec06000065
:020000040000fa
:0401a800ec06000061
:020000040000fa
:0401ac00ec0600005d
:020000040000fa
:0401b000ec06000059
:020000040000fa
:0401b400ec06000055
:020000040000fa
:0401b800ec06000051
:020000040000fa
:0401bc00ec0600004d
:020000040000fa
:0401c000ec06000049
:020000040000fa
:0401c400ec06000045
:020000040000fa
:0401c800ec06000041
:020000040000fa
:0401cc00ec0600003d
:020000040000fa
:0401d000ec06000039
:020000040000fa
:0401d400ec06000035
:020000040000fa
:0401d800ec06000031
:020000040000fa
:0401dc00ec0600002d
:020000040000fa
:0401e000ec06000029
:020000040000fa
:0401e400ec06000025
:020000040000fa
:0401e800ec06000021
:020000040000fa
:0401ec00ec0600001d
:020000040000fa
:0401f000ec06000019
:020000040000fa
:0401f400ec06000015
:020000040000fa
:0401f800ec06000011
:020000040000fa
:0401fc00ec0600000d
:020000040000fa
:04020000ec06000008
:020000040000fa
:04020400ec06000004
:020000040000fa
:04020800ec06000000
:020000040000fa
:04020c00ec060000fc
:020000040000fa
:04021000ec060000f8
:020000040000fa
:04021400ec060000f4
:020000040000fa
:04021800ec060000f0
:020000040000fa
:04021c00ec060000ec
:020000040000fa
:04022000ec060000e8
:020000040000fa
:04022400ec060000e4
:020000040000fa
:04022800ec060000e0
:020000040000fa
:04022c00ec060000dc
:020000040000fa
:04023000ec060000d8
:020000040000fa
:04023400ec060000d4
:020000040000fa
:04023800ec060000d0
:020000040000fa
:04023c00ec060000cc
:020000040000fa
:04024000ec060000c8
:020000040000fa
:04024400ec060000c4
:020000040000fa
:04024800ec060000c0
:020000040000fa
:04024c00ec060000bc
:020000040000fa
:04025000ec060000b8
:020000040000fa
:04025400ec060000b4
:020000040000fa
:04025800ec060000b0
:020000040000fa
:04025c00ec060000ac
:020000040000fa
:04026000ec060000a8
:020000040000fa
:04026400ec060000a4
:020000040000fa
:04026800ec060000a0
:020000040000fa
:04026c00ec0600009c
:020000040000fa
:04027000ec06000098
:020000040000fa
:04027400ec06000094
:020000040000fa
:04027800ec06000090
:020000040000fa
:04027c00ec0600008c
:020000040000fa
:04028000ec06000088
:020000040000fa
:04028400ec06000084
:020000040000fa
:04028800ec06000080
:020000040000fa
:04028c00ec0600007c
:020000040000fa
:04029000ec06000078
:020000040000fa
:04029400ec06000074
:020000040000fa
:04029800ec06000070
:020000040000fa
:04029c00ec0600006c
:020000040000fa
:0402a000ec06000068
:020000040000fa
:0402a400ec06000064
:020000040000fa
:0402a800ec06000060
:020000040000fa
:0402ac00ec0600005c
:020000040000fa
:0402b000ec06000058
:020000040000fa
:0402b400ec06000054
:020000040000fa
:0402b800ec06000050
:020000040000fa
:0402bc00ec0600004c
:020000040000fa
:0402c000ec06000048
:020000040000fa
:0402c400ec06000044
:020000040000fa
:0402c800ec06000040
:020000040000fa
:0402cc00ec0600003c
:020000040000fa
:0402d000ec06000038
:020000040000fa
:0402d400ec06000034
:020000040000fa
:0402d800ec06000030
:020000040000fa
:0402dc00ec0600002c
:020000040000fa
:0402e000ec06000028
:020000040000fa
:0402e400ec06000024
:020000040000fa
:0402e800ec06000020
:020000040000fa
:0402ec00ec0600001c
:020000040000fa
:0402f000ec06000018
:020000040000fa
:0402f400ec06000014
:020000040000fa
:0402f800ec06000010
:020000040000fa
:0402fc00ec0600000c
:020000040000fa
:04030000ec06000007
:020000040000fa
:04030400ec06000003
:020000040000fa
:04030800ec060000ff
:020000040000fa
:04030c00ec060000fb
:020000040000fa
:04031000ec060000f7
:020000040000fa
:04031400ec060000f3
:020000040000fa
:04031800ec060000ef
:020000040000fa
:04031c00ec060000eb
:020000040000fa
:04032000ec060000e7
:020000040000fa
:10040000ef8021000eff27000e0188000000200071
:100410000000e000020032000001200020028800fd
:10042000140007006e0207000000e00003003a001d
:10043000e0fb240001002000020037000000200043
:1004400001002000810f70004220ae000f00070065
:10045000000020000000e0004220ae00000002008a
:100460000000000074530200000000000040da00a9
:100470000000fe00a02020000000e000020032008a
:10048000002020009001880000000600a1028800e2
:10049000800478000000eb001f003700e284440075
:1004a00054a0b4009905ba00e284440054a0b400fa
:1004b0009906ba00e284440054a0b4000006eb00a0
:1004c000476fde00fd07b200ae018800636ce100fb
:1004d00003003a000ad801000000eb000e003700cc
:1004e000606ce10008003a00004deb000a05e800ee
:1004f000020039003420ec000af0a0008b05e9006e
:10050000f9ff3e00040037006168e100010032009d
:100510000086eb000b00070019c7ba001905ba00e6
:100520000e04e00003003a000a00e000dbff3a009e
:1005300000000600fe07b200ae0288008a047800c0
:10054000f5ff37000cd0a300e20f4d001c003b006c
:1005500089027800354dba000a05e800020039002a
:100560003420ec000af0a0008b05e9000f003200f7
:10057000254dba000a05e800020039003420ec00dd
:100580000af0a0008b05e900080032000c00e00032
:100590000600320015cdba000a05e8000200390055
:1005a0003420ec000af0a0008b05e9008984e80003
:1005b00054a0b4000b00e000e2ff3a000000060087
:1005c0009902ba00055d78008b05e900f7ff32005b
:1005d000c82ade00055d78008b05e900f3ff3200d4
:1005e0000c00e000f1ff320019ddba00eeff370029
:1005f0006100e10001003200100005005400f80025
:1006000050102000a002880000f927001000ba0056
:100610005400f9000700260000f0a6008703d1006f
:100620000703780001c4fe000003eb000120200056
:1006300001d0fe0021922800111303008703e90076
:10064000fdff3a0000f0a7000000050000f0a00048
:1006500080c4fe0086037800f3ff37000408200002
:10066000010037000002eb006100e10001003200f0
:10067000100005003200f8003400f8008102780014
:1006800003d0fe003200be000100e0000c0032008a
:100690000470a70000f0a00032037800c733de002a
:1006a000848343004220af008703e800a70188004d
:1006b000f607b2007f30e100040032002000200085
:1006c0003400f9003200f900000006008100e90062
:1006d0000500e00003003a00018009003210030029
:1006e000e8ff37000180090032900300d561ae00b9
:1006f000e4ff370030002000f1ff3700363d0400f2
:1007000000000000ac42040000000000ae42040003
:1007100000000000b042040000000000b2420400eb
:1007200000000000b442040000000000aa420400df
:10073000000000008a410400000000007c3f04002b
:10074000000000005e3f040000000000903c040038
:1007500000000000ce3f040000000000083d04003f
:1007600000000000de3f040000000000b64204006c
:10077000000000001e3d040000000000263d0400b3
:10078000000000007a410400000000001c42040048
:1007900000000000823e040000000000103d040044
:1007a00000000000183d0400000000006a41040041
:1007b00000000000983c040000000000f63c04002b
:1007c000000000002e3d040000000000383d040041
:1007d00000000000403d040000000000483d04000f
:1007e00000000000503d040000000000583d0400df
:1007f00000000000603d040000000000683d0400af
:10080000000000005c51040000000000f2500400f1
:10081000000000001a510400000000003e510400d6
:1008200000000000425104000000000036510400a6
:100830000000000054510400000000005e5104005c
:100840000000000046510400000000004a5104006e
:10085000000000004e51040000000000d2480400d7
:10086000000000008c44040000000000f24404007a
:1008700000000000c442040000000000fc4204002c
:100880000000000034430400000000006c4304003a
:1008900000000000a243040000000000da4304004e
:1008a0000000000012440400000000004a4404005c
:1008b0000000000054450400000000005e450400f4
:1008c00000000000604a040000000000664a0400c6
:1008d00000000000ca4a040000000000c84a0400ea
:1008e00000000000684a0400000000006c4a040098
:1008f00000000000724a040000000000764a040074
:10090000000000007c4a040000000000804a04004f
:1009100000000000844a0400000000008e4a040029
:1009200000000000d44a040000000000084a04004f
:10093000000000000c4a040000000000104a0400ff
:1009400000000000144a040000000000964a040061
:1009500000000000ae4a040000000000184a040035
:10096000000000001e4a040000000000244a0400a9
:10097000000000002a4a040000000000c64a0400eb
:1009800000000000f24a040000000000304a0400a9
:1009900000000000464a04000000000070510400fe
:1009a000000000008a510400000000009e51040075
:1009b00000000000a251040000000000b251040039
:1009c00000000000d451040000000000c6510400e3
:1009d00000000000dc51040000000000e6510400ab
:1009e000000000006c50040000000000ce4d040028
:1009f00000000000724d040000000000964d04004d
:100a000000000000b84d040000000000bc4d0400d0
:100a100000000000084e040000000000d04d04005b
:100a200000000000ec4d040000000000c04d040078
:100a300000000000c64d0400000000001a4e040033
:100a400000000000964e0400000000003a4e040032
:100a5000000000005e4e040000000000804e040014
:100a600000000000844e040000000000d04e04008e
:100a700000000000984e040000000000b44e040086
:100a800000000000884e0400000000008e4e0400ac
:100a900000000000e24e040000000000fa520400d2
:100aa00000000000c652040000000000d6520400fe
:100ab00000000000e052040000000000e4520400c6
:100ac00000000000e852040000000000ba520400d8
:100ad00000000000c052040000000000ec520400be
:100ae00000000000f252040000000000fc5204006c
:100af000000000003600f800809fbe00829fbe000c
:100b0000849fbe00869fbe00ddc5ab0007003a0093
:100b10000328a9004f03be004f02be004f01be00d4
:100b20004f00be003600f900004006002081800022
:100b30000000e0000100320000000100ddc5a90056
:100b40000328a9004f03be004f02be004f01be00a4
:100b50004f00be003600f900004006003600f800e5
:100b6000809fbe00829fbe00849fbe00869fbe0005
:100b7000218280000100e000020032000000eb0052
:100b8000010001000088a9004f03be004f02be0013
:100b90004f01be004f00be003600f90000400600c5
:100ba0003600f800809fbe00829fbe00849fbe007a
:100bb000869fbe00808180000000e00001003200be
:100bc0000000010005a8a9004f03be004f02be00af
:100bd0004f01be004f00be003600f9000040060085
:100be0003600f800809fbe00829fbe00849fbe003a
:100bf000869fbe00c068a9002000200002270700d1
:100c00004f03be004f02be004f01be004f00be00aa
:100c10003600f900004006003600f800809fbe0054
:100c2000829fbe00849fbe00869fbe00c608a900aa
:100c300070002000f42607004f03be004f02be00e4
:100c40004f01be004f00be003600f9000040060014
:100c50003600f800809fbe00829fbe00849fbe00c9
:100c6000869fbe00c488ab000b003a00c4c8ab002e
:100c700025003a00c4a8ab001d003a00c508ab002f
:100c800015003a00c528ab000d003a00c408ab00bf
:100c900007003a00ffff3700c488a900a000200029
:100ca000d9260700c4c8ab00f2ff32001600370097
:100cb000c408a900b0002000d3260700f5ff3700c4
:100cc000c528a900d0002000cf260700c408ab002b
:100cd000f0ff3200f6ff3700c508a900c000200071
:100ce000c9260700c528ab00e8ff3200f4ff370033
:100cf000c4a8a90090002000c3260700c508ab00c7
:100d0000e0ff3200f4ff3700c4c8a900e000200073
:100d1000bd260700c4a8ab00d8ff3200f4ff37009f
:100d20003600f800809fbe00829fbe00849fbe00f8
:100d3000869fbe00c028a9000000eb00b226070075
:100d40004f03be004f02be004f01be004f00be0069
:100d50003600f900004006003600f800809fbe0013
:100d6000829fbe00849fbe00869fbe00c088a900ef
:100d700030002000a42607004f03be004f02be0033
:100d80004f01be004f00be003600f90000400600d3
:100d90003600f800809fbe00829fbe00849fbe0088
:100da000869fbe00a027210080077800202921000f
:100db00000018800c048a90010002000922607000a
:100dc0004f03be004f02be004f01be004f00be00e9
:100dd0003600f900004006000040da000000fe0086
:100de0000000050050052000b00e8800a00a200079
:100df000b00e8800d3e1a8000000060050052000d6
:100e0000b00e8800a00a2000b00e8800d3e1a9002f
:100e1000000006008001e90002814000828f50003e
:100e200001003a0000000600b1697800fbff3700be
:020000040000fa
:100e3000000700000e0900001c1b00001215000036
:100e4000383f000036310000242300002a2d000026
:100e5000707700007e7900006c6b00006265000016
:100e6000484f000046410000545300005a5d000006
:100e7000e0e70000eee90000fcfb0000f2f50000f6
:100e8000d8df0000d6d10000c4c30000cacd0000e6
:100e9000909700009e9900008c8b000082850000d6
:100ea000a8af0000a6a10000b4b30000babd0000c6
:100eb000c7c00000c9ce0000dbdc0000d5d20000b6
:100ec000fff80000f1f60000e3e40000edea0000a6
:100ed000b7b00000b9be0000abac0000a5a2000096
:100ee0008f88000081860000939400009d9a000086
:100ef00027200000292e00003b3c00003532000076
:100f00001f18000011160000030400000d0a000065
:100f100057500000595e00004b4c00004542000055
:100f20006f68000061660000737400007d7a000045
:100f3000898e000087800000959200009b9c000035
:100f4000b1b60000bfb80000adaa0000a3a4000025
:100f5000f9fe0000f7f00000e5e20000ebec000015
:100f6000c1c60000cfc80000ddda0000d3d4000005
:100f7000696e000067600000757200007b7c0000f5
:100f8000515600005f5800004d4a000043440000e5
:100f9000191e000017100000050200000b0c0000d5
:100fa000212600002f2800003d3a000033340000c5
:100fb0004e49000040470000525500005c5b0000b5
:100fc00076710000787f00006a6d000064630000a5
:100fd0003e39000030370000222500002c2b000095
:100fe00006010000080f00001a1d00001413000085
:100ff000aea90000a0a70000b2b50000bcbb000075
:1010000096910000989f00008a8d00008483000064
:10101000ded90000d0d70000c2c50000cccb000054
:10102000e6e10000e8ef0000fafd0000f4f3000044
:10103000000000000200000001000000604a000003
:10104000664a0000ca4a0000c84a0000684a000018
:101050006c4a0000724a0000764a00007c4a000098
:10106000804a0000844a00008e4a0000d44a0000f2
:10107000084a00000c4a0000104a0000144a000010
:10108000964a0000ae4a0000184a00001e4a0000be
:10109000244a00002a4a0000c64a0000f24a000022
:1010a000304a0000464a0000000000000000000036
:1010b0000000000000000000000000000000000030
:1010c0000000000000010000020300000405000011
:1010d00006070000080c0000101400001820000093
:1010e000304000008a4100007c3f00005e3f00006d
:1010f000903c0000ce3f0000083d0000de3f0000b5
:10110000b64200001e3d0000263d00007a4100006e
:101110001c420000823e0000103d0000183d00000f
:101120006a410000983c0000f63c00002e3d0000a3
:10113000383d0000403d0000483d0000503d0000ab
:10114000583d0000603d0000683d00008c440000f8
:10115000f2440000c4420000fc420000344300009e
:101160006c430000a2430000da4300001244000078
:101170004a440000544500005e450000f250000063
:101180001a5100003e51000042510000365100004b
:10119000545100005e510000ce880000465100000e
:1011a0004a5100004e510000724d0000964d000063
:1011b000b84d0000bc4d0000084e0000d04d0000ae
:1011c000ec4d0000c04d0000c64d00001a4e00005e
:1011d0003a4e00005e4e0000804e0000844e00003b
:1011e000d04e0000984e0000b44e0000884e000023
:1011f0008e4e0000e24e0000c6520000d6520000a3
:10120000e0520000e4520000e8520000ba52000030
:10121000c0520000ec520000f2520000fc520000ec
:10122000705100008a5100009e510000a251000040
:10123000b2510000d4510000c6510000dc51000042
:04124000e651000073
:020000040000fa
:04124400ffffff00a9
:020000040000fa
:1012480000000000ca0000001f00000000020400a7
:101258000000000030070000b0060000cc060000c7
:10126800680700004c070000ac070000e806000013
:10127800ac070000ac070000ac070000ac0700009a
:10128800ac070000ac070000ac070000ac0700008a
:10129800ac070000ac070000ac070000ac0700007a
:1012a800ac070000ac070000ac070000ac0700006a
:1012b800ac070000ac070000ac070000ac0700005a
:1012c800ac070000ac070000ac070000ac0700004a
:1012d800ac070000ac070000ac070000ac0700003a
:1012e800ac070000ac070000ac070000ac0700002a
:1012f800ac070000ac070000ac070000ac0700001a
:10130800ac070000ac070000ac070000ac07000009
:10131800ac070000ac070000ac070000ac070000f9
:10132800ac070000ac0700008c070000ac07000009
:10133800ac070000ac070000ac070000ac070000d9
:10134800ac070000ac070000ac070000ac070000c9
:10135800ac070000ac070000ac070000ac070000b9
:10136800ac070000ac070000ac070000ac070000a9
:10137800ac070000ac070000ac070000ac07000099
:10138800ac070000ac070000ac070000ac07000089
:10139800ac070000ac070000ac070000ac07000079
:1013a800ac070000ac070000ac070000ac07000069
:1013b800ac070000ac070000ac070000ac07000059
:1013c800ac070000ac070000ac070000ac07000049
:1013d800ac070000ac070000ac07000044050000a3
:1013e800520400007c060000ac070000ac070000b7
:1013f800ac070000ac070000ac070000ac07000019
:10140800ac070000ac070000e0050000ac070000d6
:10141800ac070000ac070000ac0700001406000091
:10142800ac070000ac070000ac070000ac070000e8
:10143800ac070000ac070000ac070000ac070000d8
:10144800ac070000ac070000ac070000ac070000c8
:10145800ac070000ac070000ac070000ac070000b8
:10146800ac070000ac070000ac070000ac070000a8
:10147800ac070000ac070000ac070000ac07000098
:10148800ac070000ac070000ac070000ac07000088
:10149800ac070000ac070000ac070000ac07000078
:1014a800ac070000ac070000ac070000ac07000068
:1014b800ac070000ac070000ac070000ac07000058
:1014c800ac070000ac070000ac070000ac07000048
:1014d800ac070000ac070000ac070000ac07000038
:1014e800ac070000ac070000ac070000ac07000028
:1014f800ac070000ac070000ac070000ac07000018
:10150800ac070000ac070000ac070000ac07000007
:10151800ac070000ac070000ac070000ac070000f7
:10152800ac070000ac070000ac070000ac070000e7
:10153800ac070000ac070000ac070000ac070000d7
:10154800ac070000ac070000ac070000ac070000c7
:10155800ac070000ac070000ac070000ac070000b7
:10156800ac070000ac070000ac0700000000fe005c
:101578000000fe0000020000000200001f00000042
:101588000f2321002efd24000e018800000000001a
:10159800000020000000e0000200320000012000ee
:1015a8002002880014000700cd0207000000e000b8
:1015b80003003a00c0cc21000100200002003700df
:1015c8000000200001002000810f7000010032009f
:1015d8000f000700000020000000e00002003200b9
:1015e80000000200000000001c21020000000000b2
:1015f8000040da000000fe00e00c20000000e000df
:10160800020032000020200090018800000006003f
:10161800a1028800800478000000eb001f0037005a
:10162800e284440054a0b4009905ba00e28444005e
:1016380054a0b4009906ba00e284440054a0b4004f
:101648000006eb00476fde00fd07b200ae01880020
:10165800636ce10003003a000ad801000000eb00c7
:101668000e003700606ce10008003a00004deb0006
:101678000a05e800020039003420ec000af0a00056
:101688008b05e900f9ff3e00040037006168e100be
:10169800010032000086eb000b00070019c7ba00f2
:1016a8001905ba000e04e00003003a000a00e00041
:1016b800dbff3a0000000600fe07b200ae02880019
:1016c8008a047800f5ff37000cd0a300e20f4d0024
:1016d8001c003b0089027800354dba000a05e80075
:1016e800020039003420ec000af0a0008b05e90064
:1016f8000f003200254dba000a05e8000200390043
:101708003420ec000af0a0008b05e9000800320044
:101718000c00e0000600320015cdba000a05e8000a
:10172800020039003420ec000af0a0008b05e90023
:101738008984e80054a0b4000b00e000e2ff3a00fe
:10174800000006009902ba00055d78008b05e900e3
:10175800f7ff3200c82ade00055d78008b05e90036
:10176800f3ff32000c00e000f1ff320019ddba008f
:10177800eeff37000000000000000000000000003d
:101788000000000000000000000000000000000051
:101798000000000000000000000000000000000041
:1017a8000000000000000000000000000000000031
:1017b8000000000000000000000000000000000021
:101a2800000000003600f800809fbe00829fbe00c4
:101a3800849fbe00869fbe003200f8003400f80084
:101a480010002000a00188000020200000d0fe0027
:101a58005baea80023aea800f000200050200a00ca
:101a6800080b0000090ba80061608000618b8800ea
:101a7800608b8000e18b80000100500000f0a7001f
:101a88000000ea00708b880023aea900718b8000eb
:101a9800203a2000808f500003003400b08180007d
:101aa800e50f500053003e007060800010898800e8
:101ab80010898000918980000100500000f0a70083
:101ac8000000ea002089880021898000203a20004f
:101ad800808f500003003400b0818000e50f500073
:101ae80039003e0001618000318488003184800023
:101af80020d22000808f500027003c0050618000d9
:101b080010868800e1062100100020003a0a07002c
:101b18000004e0000e003a00a000200050200a0057
:101b2800080b0000e60107000b68a9005baea900de
:101b38003400f9003200f9004f03be004f02be0026
:101b48004f01be004f00be003600f90000400600fd
:101b5800ba0d07002008210011c0b30010c870009a
:101b6800a000200050200a00080b0000d401070044
:101b78000b68a9005baea9003400f9003200f90037
:101b88004f03be004f02be004f01be004f00be0013
:101b98003600f900004006003ad0a8003a10a90023
:101ba8003a30a800db0a07005061800010868800e0
:101bb800e1062100100020000f0a07000004e000e1
:101bc800d5ff3200e2ff37003a90a8003a10a9008a
:101bd8003a30a800cf0a07000161800031848800ec
:101be8003184800020d22000808f5000c3ff340051
:101bf800e9ff37003a70a8003a10a9003a30a80067
:101c0800c40a0700a8ff37003600f800809fbe000e
:101c1800829fbe00849fbe00869fbe003200f800ef
:101c28003400f80010002000a001880000202000e7
:101c380000d0fe00808280000000e0000100320039
:101c4800000001000ca8ab0033003a000d48ab00bf
:101c580027003a000b68ab001b003a000b88ab006a
:101c680009003a000b48a9003400f9003200f900d5
:101c78004f03be004f02be004f01be004f00be0022
:101c88003600f90000400600716080007282800012
:101c98000200e000020032003000200002000100d3
:101ca8000b88a9000b48a9003400f9003200f9009c
:101cb8004f03be004f02be004f01be004f00be00e2
:101cc8003600f900004006006160800072828000e2
:101cd8000200e000020032002000200002000100a3
:101ce8000b68a9000b88ab00deff3200e6ff370067
:101cf80051618000728280000200e0000200320020
:101d080010002000020001000d48a9000b68ab007c
:101d1800d2ff3200ecff3700016180007282800040
:101d28000200e000020032000000eb0002000100a7
:101d38000ca8a9000d48ab00c6ff3200ecff370025
:101d48003600f800809fbe00829fbe00849fbe00c0
:101d5800869fbe003200f8003400f8001000200012
:101d6800a00188000020200000d0fe000161800052
:101d7800728280000200e000020032000000eb00e6
:101d880000060000000200001f0000000200010021
:101d98000ca8a9003400f9003200f9004f03be0076
:101da8004f02be004f01be004f00be003600f900d2
:101db800004006003600f800809fbe00829fbe00eb
:101dc800849fbe00869fbe003200f8003400f800f1
:101dd80010002000a00188000020200000d0fe0094
:101de80051618000728280000200e000020032002f
:101df80010002000020001000d48a9003400f9007d
:101e08003200f9004f03be004f02be004f01be0072
:101e18004f00be003600f900004006003600f8000a
:101e2800809fbe00829fbe00849fbe00869fbe002a
:101e38003200f8003400f80010002000a0018800eb
:101e48000020200000d0fe006160800072828000c7
:101e58000200e00002003200200020000200010021
:101e68000b68a9003400f9003200f9004f03be00e6
:101e78004f02be004f01be004f00be003600f90001
:101e8800004006003600f800809fbe00829fbe001a
:101e9800849fbe00869fbe003200f8003400f80020
:101ea80010002000a00188000020200000d0fe00c3
:101eb80071608000728280000200e000020032003f
:101ec80030002000020001000b88a9003400f9004e
:101ed8003200f9004f03be004f02be004f01be00a2
:101ee8004f00be003600f900004006003600f8003a
:101ef800809fbe00829fbe00849fbe00869fbe005a
:101f0800c068a900200020004b0d07004f03be0049
:101f18004f02be004f01be004f00be003600f90060
:101f2800004006003600f800809fbe00829fbe0079
:101f3800849fbe00869fbe00c608a90070002000ce
:101f48003d0d07004f03be004f02be004f01be000b
:101f58004f00be003600f900004006003600f800c9
:101f6800809fbe00829fbe00849fbe00869fbe00e9
:101f7800c488ab0007003a00c4a8ab0015003a00bb
:101f8800c508ab000d003a00c408ab0007003a00d2
:101f9800ffff3700c488a900a0002000260d070015
:101fa800c4a8ab00f6ff32000a003700c408a90035
:101fb800b0002000200d0700f5ff3700c508a90074
:101fc800c00020001c0d0700c408ab00f0ff320061
:101fd800f6ff3700c4a8a90090002000160d0700de
:101fe800c508ab00e8ff3200f4ff37003600f80000
:101ff800809fbe00829fbe00849fbe00869fbe0059
:10200800c028a9000000eb000b0d07004f03be001d
:102018004f02be004f01be004f00be003600f9005f
:10202800004006003600f800809fbe00829fbe0078
:10203800849fbe00869fbe00c088a9003000200093
:10204800fd0c07004f03be004f02be004f01be004b
:102058004f00be003600f900004006003600f800c8
:10206800809fbe00829fbe00849fbe00869fbe00e8
:1020780000212100800778008022210000018800cb
:10208800c048a90010002000eb0c07004f03be0059
:102098004f02be004f01be004f00be003600f900df
:1020a800004006003600f800809fbe00829fbe00f8
:1020b800849fbe00869fbe00408180000000e00033
:1020c800010032000000010005a8a9004f03be006e
:1020d8004f02be004f01be004f00be003600f9009f
:1020e800004006000040da000000fe000000050085
:1020f8006022b800060220000000d0008180d200d3
:102108000482d2008582d2000000a00002025200a0
:1021180083825a00030031000202420083824a008f
:102128000000a1000603e900f3ff3a0000000600e2
:10213800000000000200000001000000be180000be
:1021480098190000c2180000c6180000cc1800003a
:10215800d0180000d6180000da1800001e19000078
:10216800de180000f6180000761800007c18000041
:1021780082180000881800003c1900001c19000093
:102188008e180000a41800000000000000000000e5
:102198000000000000000000000000000000000037
:1021a800000000005e11000026100000ee0e000086
:1021b800f20e0000f60e0000fa0e0000fe0e0000ff
:1021c800000f0000220f00004e0f0000740f0000e7
:1021d800780f00007c0f0000800f0000f010000056
:1021e8004e1200002e880000fa1000005a1100005c
:1021f8000411000000000000860f0000b00f00006e
:10220800da0f0000fc0f000060120000e61000006a
:1022180000000000ae160000da160000ec16000000
:1022280006170000101700001817000026170000f6
:1022380034170000381700000000000000000000fc
:102248003c170000541700005c170000ba17000084
:10225800c2170000d41700003218000064170000ed
:102268000000000000000000000000000000000066
:102278000000000000000000ee1d0000141e000019
:10228800381e00003c1e0000301e00004e1e0000dc
:10229800581e000086880000401e0000441e0000f2
:1022a800481e000014200000222000002c200000fe
:1022b8003020000034200000082000000e2000001c
:1022c800382000003e20000048200000889fbe0003
:1022d8008a1f78005acea800a08480000000e80079
:1022e800a0848800d08b80000000e800d08b880094
:1022f800808980000000e8008089880030848000a0
:1023080022818000338180004f82de00020340007a
:1023180083034a0026818800378188002818210015
:10232800128180001858a300020032001868a30028
:10233800b20132000200e00024003200a2848000d2
:10234800e10f51002100360075848000c5848800a3
:10235800a28480000201e9000500090042bbd80000
:10236800708488002430ef002630ef002230ef0020
:102378000000eb00a0848800ba818000e10f5500be
:102388002300320055800a001800000066000a0089
:10239800180000005acea9005acea800e90f55002f
:1023a8009b0132005acea900e91921001928a3007f
:1023b800ef003a00481521001828a3004f003a0002
:1023c8004f0578004f04be0000000600a38480007b
:1023d80002f42100828f5100e7ff360075848000e7
:1023e800c5848800a28480000201e9000500090074
:1023f80042bbd800708488002430ef002630ef00fc
:102408002230ef000000eb00a0848800daff3700dc
:10241800628b8000d4808000e58080004f93de00ce
:102428000401410085014b00d2808800e3808800c8
:10243800148980006122b900b0808000c1808000ca
:102448000000420081804a00b0808800c180880076
:1024580000818000e10f50009f013600d08b800082
:10246800e10f50009c013600d48b80000402e90083
:10247800050009004499d800e08b88001a30ef0065
:102488001c30ef002030ef000000eb00d08b8800fc
:10249800f0808000e10f50007e01360080898000c6
:1024a800e10f50007b01360084898000b2808000f3
:1024b800c38080000402e900050009004499d8009f
:1024c800908988001630ef001830ef001e30ef00ba
:1024d8000000eb008089880055800a001800000081
:1024e80066000a00180000005acea9005acea800bb
:1024f800e90f5500abff3a00450137001838a30033
:102508008c013a00180078004400de006140600049
:102518008913210011810a0019000000814f500021
:10252800040032001950a000408a80000000e80032
:10253800408a88001928a3003b0032005acea80020
:10254800b1818000e98f50008201320019a8a300f0
:1025580080013a005acea9005acea8001958a30003
:102568000f0032001908a3000d003a001838a30024
:102578000b003a001900a0000000eb00d089880089
:102588001848a300430232001998a300000a00006b
:10259800000200001f00000003003a0067c3a80003
:1025a8006783a90067a3a8001950a1001908a30010
:1025b80011003200d08980000000e800d08988002e
:1025c800e90f5000f00136001900a100e0012000d9
:1025d800d0898800908a80000008a30006003a008d
:1025e8001848a3003a023200e78f50000200360074
:1025f8005a2ea9005a0ea8005acea9001908a300fd
:102608000c003a001838a3000a003a00e98f50007d
:102618000200320019a8a300060032005acea80012
:10262800b1858000c0762000808f5000fb013e00fd
:102638005acea9005acea800a08480005acea9007c
:102648001838a30046003a00b1888000b0858000a1
:102658000180b900108a8800218a8800108a8000c9
:10266800218a8000410add004f00de000000720070
:10267800cf08de00308a8800208980004400dd0011
:1026880030898800908a80000008a30018003a006a
:102698005acea8003b90ab0083013200b185800080
:1026a800f0ff2300808f50007f013e00b18580003d
:1026b800a0888000020024000200400001005000b1
:1026c800c1cc2000810f500078013e00d0cc200002
:1026d800e08188005acea900d08e8800328a800016
:1026e800c313210061122100801c21001c0a07006d
:1026f8005acea8001998a30004003a0071848000fb
:1027080070888000808f50007a013e005acea90060
:10271800e1898000f0312000808f500002003e00e7
:102728000000eb00e0898800e189800000b0240007
:10273800808f500001003600e08988001908a30046
:1027480007003a00eea00a00220e000010c0b200f6
:10275800ee200a00220e0000e2898000221c880078
:1027680044800a001800000011000a001900000047
:102778004f0578004f04be00000006001938a3007a
:10278800e7003a00190078004400de00614060006c
:1027980011820a0018000000824f50000400320025
:1027a8001850a000908c80000000e800908c8800f1
:1027b8001828a3003a0032005acea800e90f5500a5
:1027c8000b01320018a8a30009013a005acea9004b
:1027d8005acea8001858a3000f0032001808a3000a
:1027e8000d003a001938a3000b003a001800a000a9
:1027f8000000eb00208c88001948a300a1013200da
:102808001898a30003003a0031c3a8003183a90037
:1028180031a3a8001850a1001808a3001100320025
:10282800208c80000000e800208c8800e90f500010
:102838004a0136001800a100e0012000208c880021
:10284800e08c80000008a30006003a001948a300a5
:102858009a013200e70f5500020036005a2ea900ef
:102868005a0ea8005acea9001808a3000c003a0076
:102878001938a3000a003a00e90f55000200320097
:1028880018a8a300060032005acea800b18580001f
:10289800c0762000808f500046013e005acea90025
:1028a8005acea800a08480000000e00005003a008d
:1028b800e08c80000008a30005013200c0762000eb
:1028c800b08588005acea9001938a30046003a00fe
:1028d800018b8000b08580000180b900608c880081
:1028e800718c8800608c8000718c8000c10add00ca
:1028f8004f00de0000807200cf08de00808c880068
:10290800708b80004400dd00808b8800e08c8000a4
:102918000008a30018003a005acea8003b90ab006c
:10292800d7003200b1858000f0ff2300808f50006f
:10293800d3003e00b1858000f08a800002002400a8
:102948000200400001005000c1cc2000810f50005f
:10295800cc003e00d0cc2000e08188005acea900ef
:10296800308e8800828c80006318210001172100b6
:10297800401b21007a0907005acea8001898a30026
:1029880004003a0071848000c08a8000808f500063
:10299800e5003e005acea900318c8000f0312000bd
:1029a800808f500002003e000000eb00308c880051
:1029b800318c800000b02400808f50000100360068
:1029c800308c88001808a30007003a00eea00a001f
:1029d800220e000010c0b200ee200a00220e0000f5
:1029e800328c8000721a880044800a0019000000a6
:1029f80011000a0018000000481521001828a3003b
:102a080072fe3200c0fe37000201e8001281880021
:102a18002030ec001e30ec0049fe37007284800044
:102a2800c0858000800f51000d003600000c210089
:102a380022c0b3001048710013c0b30010c8710061
:102a480031a3a8003183a80067a3a8006783a80062
:102a58009da3a8009d83a8005a2ea9005a0ea9007c
:102a680072848000e0858000800f510050fe3100a4
:102a780072848000f0858000800f51004cfe360083
:102a8800000c21001014a1001004a1005acea900c6
:102a9800e91921001928a30049fe320037ff370041
:102aa8008289800000fa2000800f510038fe36002d
:102ab80084898000b2808000c38080000402e9001d
:102ac800050009004499d800908988001630ef0065
:102ad8001830ef001e30ef000000eb0080898800fe
:102ae80080fe3700d48b800000fa2000800f52004f
:102af8006afe3600d48b80000402e9000500090054
:102b08004499d800e08b88001a30ef001c30ef00a1
:102b18002030ef000000eb00d08b88005ffe37000c
:102b280031a3a8003183a8005a2ea9005a0ea90083
:102b38004e23ef0010002000408c880011ff370062
:102b480067a3a8006783a8005a2ea9005a0ea900f7
:102b58008423ef0010002000f08988006cfe370005
:102b6800b285800070702000800f510003003e0085
:102b78001998a30001003a001980a0001988a30041
:102b8800120032001958a3001000320011800a0008
:102b9800190000000004e0000c0032001990a000a9
:102ba8001980a1002015210013c0b30010c87100be
:102bb8000000eb00408a8800608a880067a3a800ac
:102bc8006783a8005a2ea9005a0ea900408a8000df
:102bd800e10f500062fe36001990a1002015210077
:102be8001004a1000000eb00408a88005cfe37005a
:102bf800b285800070702000800f510003003e00f5
:102c08001898a30001003a001880a0001888a300b3
:102c1800120032001858a3001000320011800a0078
:102c2800180000000004e0000c0032001890a0001a
:102c38001880a100c019210014c0b3001048720008
:102c48000000eb00908c8800b08c880031a3a800ad
:102c58003183a8005a2ea9005a0ea900908c800032
:102c6800e10f5000d9fe36001890a100c0192100cc
:102c78001004a1000000eb00908c8800d3fe370000
:102c8800c0cc2000e08188005acea900308e880090
:102c9800828c80006318210001172100401b21004d
:102ca800af08070034ff3700c0cc2000e08188005f
:102cb8005acea900d08e8800328a8000c313210022
:102cc80061122100801c2100a508070088fe37003a
:102cd80092858000630b2100e1082100c01d2100be
:102ce800620807005acea9001938a3003eff3a002f
:102cf800f7fe3700708480007288800051188000c9
:102d0800020050000102b80072848000050009002a
:102d180042aad800e18980004200de00010040009c
:102d2800e089880079fe370070848000c28a8000bc
:102d380051188000020050000102b800728480001f
:102d48000500090042aad800318c80004200de004c
:102d580001004000308c88000eff3700228c800074
:102d68004a11dd00d07280000050a2000002b200bb
:102d7800d37280000350a10083017000d3728800d1
:102d8800721a8800b7fe3700d28980004a11dd0028
:102d9800d07280000050a200000e00000002000067
:102da8001f0000000002b200d37280000350a1008f
:102db80083017000d3728800221c880011fe37003e
:102dc800708b8000e1032000810f5000590036000d
:102dd800408c80000000e800408c8800408c800017
:102de800e60f50000300360060002000408c880089
:102df8001870a000408c80000000e00003003a003a
:102e080010002000408c88001870a1001878a300da
:102e1800430032001948a3005000320031a3a90032
:102e28005acea900a1fe370020898000e1032000c6
:102e3800810f500033003600f08980000000e80060
:102e4800f0898800f0898000e60f50000300360002
:102e580060002000f08988001970a000f0898000c7
:102e68000000e00003003a0010002000f08988000c
:102e78001970a1001978a3001d0032001848a3009a
:102e88003300320067a3a9005acea900ecfd370031
:102e98001898a30062fe3a0031c3a90031a3a90023
:102ea8003183a8001850a1005efe37001998a300ce
:102eb800c0fd3a0067c3a90067a3a9006783a800fb
:102ec8001950a100bcfd3700e70f550068fe360019
:102ed8005a0ea9005a2ea80065fe3700e78f500049
:102ee800c8fd36005a0ea9005a2ea800c5fd3700a5
:102ef8001848a3001c00320067a3a8005acea900f6
:102f0800cffd3700d1032000810f5000cdff3e00d8
:102f1800f08980000000e900f0898800c9ff3700c7
:102f28001948a3001300320031a3a8005acea90003
:102f38005efe3700d1032000810f5000a7ff3e003e
:102f4800408c80000000e900408c8800a3ff370017
:102f58006783a9005acea900b9fd37003183a900bb
:102f68005acea90051fe37006783a8005acea9009f
:102f7800b3fd37003183a8005acea9004bfe3700b5
:102f880001eba8000000060001eba9000000060004
:102f980008cba8000000060008cba9000000060026
:102fa80000000600e10f5000090032000000e000b8
:102fb8000b003200e20f500007003200e30f500010
:102fc80002003a0070608000000006000000050062
:102fd800506180000000060060608000000006006c
:102fe8000061800000000600e10f50000a00320076
:102ff8000000e0000f003200e20f50000a0032002b
:10300800e30f500003003a0011a00a00300b000043
:10301800000006000000050080598000ff800a00bb
:103028000000000000000600805980006140600038
:1030380000000600aaa00a00300b000000000600ed
:10304800634060004801dd00f1cf2f00b45e8000ce
:103058008481600083017100b35e8800d35e8000c4
:103068008380600081007100d15e88004500dd002a
:1030780021b0200091407800f2c9b30082c06000fe
:1030880000c0700002ebb700000006002b48a80043
:10309800000006002b48a900000006000b48a90004
:1030a80000000600a8200a006c08000000000600c6
:1030b800e10f50000a0032000000e0000e0032006c
:1030c800e20f500009003200e30f500003003a00fd
:1030d8002b88a800202ba80000000600000006008e
:1030e8002d48a80021eba800000006002b68a800c6
:1030f800200ba800000006002ca8a800214ba8005f
:1031080000000600e10f50000a0032000000e00055
:103118000e003200e20f500009003200e30f5000a9
:1031280003003a002b88a900202ba9000000060004
:10313800000006002d48a90021eba90000000600a8
:103148002b68a900200ba900000006002ca8a900e4
:10315800214ba90000000600e10f500009003200d1
:103168000000e0000b003200e20f500007003200c0
:10317800e30f500002003a000b88a9000000060087
:10318800000006000d48a900000006000b68a90011
:10319800000006000ca8a90000000600e10f50007e
:1031a8000a0032000000e0000e003200e20f50007a
:1031b80009003200e30f500003003a0020210a0002
:1031c8006e0800000000060000000600a8210a00a2
:1031d8007408000000000600ec210a006c080000da
:1031e8000000060064210a007208000000000600c2
:1031f80001eba900606080000b68a9002b68a9009a
:103208000b48a9002b48a900002bef00000620005e
:1032180010588800042bef00062bef00082bef0056
:103228000a2bef000c2bef000e2bef00102bef00fa
:10323800122bef00142bef00202bef00222bef00b6
:10324800302bef00322bef00382bef00402bef0034
:10325800482bef00502bef003a2bef00422bef00ea
:103268004a2bef00522bef003c2bef00442bef00d2
:103278004c2bef00542bef003e2bef00462bef00ba
:103288004e2bef00562bef00682bef006c2bef0056
:10329800702bef00742bef006a2bef006e2bef0002
:1032a800722bef00762bef00802bef00822bef00c4
:1032b800842bef00862bef00882bef008a2bef0082
:1032c8008c2bef008e2bef00902bef00922bef0052
:1032d800942bef00a02bef00a42bef00a82bef00fe
:1032e800ac2bef00d02bef00d22bef00d42bef004c
:1032f800d82bef0000302000b05e8800d05e880038
:10330800f02bef00f22bef00f82bef00fa2bef0079
:10331800002cef00022cef000c2cef000e2cef001d
:10332800102cef00122cef00142cef00162cef00dd
:10333800182cef001a2cef001c2cef001e2cef00ad
:10334800202cef00222cef00242cef00262cef007d
:10335800282cef002a2cef002c2cef002e2cef004d
:10336800302cef00322cef00342cef000000060068
:1033780000eca800000ce200feff3d000aeba800ec
:10338800000006000000e000010032008082880092
:1033980000000600000006000000e0000100320006
:1033a800708288000000060000000600e10f50004f
:1033b800210032000000e00017003200e20f500048
:1033c8000d003200e30f50000a003a0011a10a0074
:1033d800300b00000104e00005003200716080003d
:1033e800728280000200e000010032000200010049
:1033f8000000060000000600300bab00fcff3200a6
:1034080061608000728280000200e000f8ff3200f4
:1034180002000100f6ff3700314bab00f4ff320029
:1034280001618000728280000200e000f0ff32003b
:103438000000eb0002040100300be200ecff3d004d
:1034480051618000728280000200e000e8ff3200d3
:1034580002000100e6ff3700000006000000060039
:10346800002bef000006200010588800042bef0006
:10347800062bef00082bef000a2bef00300020008e
:10348800605888000e2bef00102bef00122bef0076
:10349800142bef001000200000598800222bef00a9
:1034a800302bef00322bef00382bef00402bef00d2
:1034b800482bef00502bef003a2bef00422bef0088
:1034c8004a2bef00522bef003c2bef00442bef0070
:1034d8004c2bef00542bef003e2bef00462bef0058
:1034e8004e2bef00562bef00682bef006c2bef00f4
:1034f800702bef00742bef0000402000505b880019
:10350800705b8800905b8800b05b8800a02bef00a0
:10351800a42bef00a82bef00ac2bef00d02bef0073
:10352800d22bef00d42bef00d82bef000030200077
:10353800b05e8800d05e8800f02bef00f22bef0021
:10354800f82bef00fa2bef00022cef000c2cef0009
:103558000e2cef00102cef00122cef00142cef00b3
:10356800162cef00182cef001a2cef001c2cef0083
:103578001e2cef00202cef00222cef00242cef0053
:10358800262cef00282cef002a2cef002c2cef0023
:103598002e2cef00302cef00322cef00342cef00f3
:1035a800800f210000120000000200001f00000030
:1035b8008082880020102100708288000b48a900b2
:1035c8002b48a8000b68a9002b68a8001060800091
:1035d800b8400a00000f00001060880001eba80046
:1035e800000ca800010cab00feff32000a0ba8007b
:1035f800002ca800012cab00feff32000a2ba8000b
:1036080000eca800000ce200feff3d000aeba80059
:1036180040402000005c8800822bef00842bef00e4
:10362800862bef00882bef0040002000505c8800bc
:103638008c2bef0000102000705c8800902bef00ae
:10364800922bef00942bef00000006000b48ab0014
:1036580001003a0000000600808280000000e000bf
:1036680001003200000001000b48a900000006001c
:103678000000e00008003200e10f500005003a00a9
:10368800002ca800012cab00feff32000a2ba8007a
:103698000000060000000600000ca800010cab00aa
:1036a800feff32000a0ba800000006008e03070088
:1036b800fae1ab0002003200fa01ab0043003a0025
:1036c800b181800001007800f2ff2f00f3ff2f0086
:1036d80002814000e0814900e90f5100e08f590064
:1036e80005003600e40f50002d003e0000808800e1
:1036f800b08188000000060002060100a90037001a
:103708003d003700400037005600370061003700a1
:1037180069003700030037008e0037007a00370051
:103728003500370091808000220121000109e9005d
:103738000100e000a8003a00211821001128a30088
:10374800a5003200c3e8a900000000000000000046
:1037580010002000408c88001170a100f0898800ba
:10376800801321001070a100401b2100f6050700fe
:10377800801c2100f4050700c01d2100f205070088
:103788007084800090858800c3e8a80000000000cd
:10379800000000008000200030808800b081880090
:1037a800f18c80000128a300d0ff3a005bcea9006d
:1037b800e4030700a0002000008088003a10a90058
:1037c8003a30a800b0818800000006008203070094
:1037d800b181800001007800f2ff2f00f3ff2f0075
:1037e80002814000e0814900e90f5100e08f590053
:1037f800bcff3e00c0ff370000000000e40f50008f
:10380800baff3600e6ff37003a10ab0088003200f6
:103818003a10a8003a50a9003a70a9003a90a900b5
:103828003ab0a9003a30a9003ad0a900e01921001d
:103838001044a100201821001010a10040152100fb
:103848001044a100801321001010a1000071220073
:10385800a0808800400020006080880000808800e8
:10386800a3ff3700a1808000420121000109e9007f
:103878000100e0006a003a005000200050808800f3
:10388800b0818800f18c80000128a30097ff3a00de
:10389800c6ff37005bcea800401f2000a08088002c
:1038a80060002000b0818800f18c80000128a3000e
:1038b8008eff3a00bdff3700a18080004201210041
:1038c8000109e9000100e0004a003a00211821003e
:1038d8001128a30047003a001120a00080132100fe
:1038e8001020a000401f2000908088007000200059
:1038f80040808800b0818800f18c80000128a300f6
:103908007aff3a00a9ff37003a10ab0055003200a1
:10391800a285800091858000f4804000810f5100cd
:1039280047003e00a285800091858000f480500009
:10393800810f510042003900910020001180880059
:10394800b1818800f18c80000128a30067ff3a004c
:1039580096ff37003a10ab004c003200810020007f
:1039680021808800b18188003284800091858000a0
:103978006109b100828f500089ff310032848000d4
:10398800918580006109b000810f510084ff3100ea
:1039980082030700b0818800e40f500053ff36000f
:1039a8007fff3700f18c80000128a3001800320047
:1039b80080808000010121008008e9000000e0000b
:1039c8004700320070808000b0818800e40f50000a
:1039d80046ff360072ff37007100200031808800f2
:1039e800b1818800f18c80000128a3003fff3a00d4
:1039f8006eff37006100200041808800b181880097
:103a0800f18c80000128a30038ff3a0067ff3700d7
:103a180011002000718088000080880034ff370082
:103a280041002000518088000080880030ff370066
:103a38003100200061808800008088002cff37005a
:103a48002018210010a0a00080002000108088000d
:103a5800b0818800f18c80000128a30023ff3a0080
:103a680052ff3700201821001020a10080132100e8
:103a78001020a100330307005bcea900300020000e
:103a8800108088000080880019ff37002018210066
:103a98001020a100801321001020a1002903070095
:103aa8005bcea9003000200020808800b08188000b
:103ab80032848000918580006109b100810f510036
:103ac8000aff360032848000918580006109b000c9
:103ad800810f5100aeff39000080880004ff3700d5
:103ae800e18b8000407e2000808f500008003c0061
:103af800e18b800050812000808f5000040034004a
:103b0800200020007080880000808800f8fe3700c0
:103b1800300020007080880000808800f4fe3700a4
:103b280030002000001888000223ef000423ef0073
:103b38000623ef000823ef0080e1240050188800d6
:103b48000c23ef000e23ef001023ef001223ef00e9
:103b58001423ef001623ef001823ef001a23ef00b9
:103b68001c23ef001e23ef002023ef002223ef0089
:103b78002423ef002623ef002823ef00c0082000ad
:103b880050198800001b8800b01c8800cc23ef0067
:103b98000224ef003824ef006e24ef00a424ef0085
:103ba800008024006019880000002400101b880091
:103bb80010002400c01c8800ce23ef000424ef006e
:103bc8003a24ef007024ef00a624ef002e23ef0024
:103bd8006423ef009a23ef00d023ef000624ef00c0
:103be8003c24ef007224ef00a824ef00001023000b
:103bf80080198800301b8800e01c8800d223ef0061
:103c08000824ef003e24ef007424ef00aa24ef00fc
:103c1800c000200090198800401b8800f01c880014
:103c2800d423ef000a24ef004024ef007624ef00ad
:103c3800ac24ef0080102000a0198800800020002c
:103c4800501b8800001d8800d623ef000c24ef00cd
:103c58004224ef007824ef00ae24ef003623ef0073
:103c68006c23ef00a223ef00d823ef000e24ef000f
:103c78004424ef007a24ef00b024ef003823ef004b
:103c88006e23ef00a423ef00da23ef001024ef00e7
:103c98004624ef007c24ef00b224ef003a23ef0023
:103ca8007023ef00a623ef00dc23ef001224ef00bf
:103cb8004824ef007e24ef00b424ef003c23ef00fb
:103cc8007223ef00a823ef00de23ef001424ef0097
:103cd8004a24ef008024ef00b624ef003e23ef00d3
:103ce8007423ef00aa23ef00e023ef001624ef006f
:103cf8004c24ef008224ef00b824ef004023ef00ab
:103d08007623ef00ac23ef00e223ef001824ef0046
:103d18004e24ef008424ef00ba24ef004223ef0082
:103d28007823ef00ae23ef00e423ef001a24ef001e
:103d38005024ef008624ef00bc24ef004423ef005a
:103d48007a23ef00b023ef00e623ef001c24ef00f6
:103d58005224ef008824ef00be24ef004623ef0032
:103d68007c23ef00b223ef00e823ef001e24ef00ce
:103d78005424ef008a24ef00c024ef004823ef000a
:103d88007e23ef00b423ef00ea23ef002024ef00a6
:103d98005624ef008c24ef00c224ef004a23ef00e2
:103da8008023ef00b623ef00ec23ef002224ef007e
:103db80000160000000200001f0000005824ef0059
:103dc8008e24ef00c424ef004c23ef008223ef0081
:103dd800b823ef00ee23ef002424ef005a24ef006d
:103de8009024ef00c624ef004e23ef008423ef0059
:103df800ba23ef00f023ef002624ef005c24ef0045
:103e08009224ef00c824ef005023ef008623ef0030
:103e1800bc23ef00f223ef002824ef005e24ef001c
:103e28009424ef00ca24ef0080c32900901a880068
:103e3800401c8800f01d8800f423ef002a24ef00be
:103e48006024ef009624ef00cc24ef0080d52400f6
:103e5800a01a88008a23ef00c023ef00f623ef00a2
:103e68002c24ef006224ef009824ef00ce24ef000a
:103e78005623ef008c23ef00c223ef00f823ef0056
:103e88002e24ef006424ef009a24ef00d024ef00e2
:103e98005823ef008e23ef00c423ef00fa23ef002e
:103ea8003024ef006624ef009c24ef00d224ef00ba
:103eb800401f2000d01a8800801c8800301e88000f
:103ec800fc23ef003224ef006824ef009e24ef006b
:103ed800d424ef00e01a8800901c8800401e880057
:103ee800fe23ef003424ef006a24ef00a024ef0043
:103ef800d624ef005e23ef009423ef00ca23ef00df
:103f08000024ef003624ef006c24ef00a224ef0019
:103f1800d824ef000000060000082000c011880027
:103f28003a22ef003c22ef0020022000f011880026
:103f3800800d2000001288004222ef004c22ef0082
:103f48004e22ef005022ef005222ef005422ef00e1
:103f58005622ef005822ef005a22ef005c22ef00b1
:103f680039e2a80038a2a8003882a800000006009c
:103f78003822ef003a22ef0000082000e011880004
:103f8800e0022000f01188004022ef004222ef00fa
:103f98000000060011a00a003e020000e14f500098
:103fa800fcff320011a00a003c020000e14f500063
:103fb8000200320020128000000006003c22a90006
:103fc80020128000000006003e82ab00feff3a008f
:103fd8000080fb00401288000000060011a00a00c3
:103fe8003e02000010c0b200000006000040eb00d6
:103ff8003e82ab0003003a00c01180004500de009d
:1040080061406000000006000040eb003ce2ab00ad
:1040180003003200f01180004500de0061406000be
:104028000000060038a2a8000000060038a2a90077
:10403800000006005cc2a900614160004211dd0079
:10404800c1252000914078000124a10082c07000a1
:10405800c22520000149780066200a0038020000c5
:1040680000000600c01180004600de0061406000cc
:1040780000000600e01280004200de00614060009f
:10408800000006005a30ef000000eb003c62ab0075
:1040980022003a003cc2ab0019003a0011a10a0004
:1040a8003c020000e1cf50000f0032003c02ab00a0
:1040b80007003a003ca2ab0001003a0000000600ed
:1040c8000040a000d08288003ca2a90000000600a1
:1040d8000030a000d08288003c02a9003ca2ab00be
:1040e800f6ff3200f6ff37000020a000d0828800db
:1040f8003c22a9003c02ab00eeff3200f4ff37007f
:104108000010a000d082880011a10a003c02000023
:10411800e1cf5000e5ff3a00f3ff37001000200020
:10412800d08288003cc2ab00dcff3200f4ff3700cd
:1041380000128800ef80600011128800000006005d
:10414800101280008000eb00c001dd00020020009a
:10415800001280008000eb00020070008380700075
:10416800000006000002be00e0052000800f52009b
:10417800e08f5a000a0036003b62a80038e2a90026
:104188000401be0000102e00515f2000e4f7070074
:10419800001288006f80600010128800000006007e
:1041a8003b62a900f70f5200e08f5a000e0036005c
:1041b80038e2a8004229dd00ce21de00830171002b
:1041c8004221dd0000102e00515f2000d4f70700c7
:1041d80061005000e0805800001288006f80600085
:1041e800101288000000060038e2a9004429dd000a
:1041f800cc21de00830171004421dd0000102e0077
:10420800515f2000c6f7070061005000e0805800a9
:10421800001288006f8060001012880000000600fd
:10422800121280008001eb00c012dd0004002000a3
:10423800021280008001eb00040171008581710089
:104248003b62ab000b003a0061004100e08049008e
:1042580038e2ab000d003a004409dd00cc01de0075
:10426800830171004401dd0000102e00515f200021
:10427800abf73700e00f5100e08f5900f2ff320032
:1042880000102e00515f2000a5f737004209dd001d
:10429800ce01de00830171004201dd0000102e0016
:1042a800515f20009ef7370099a00a00fa0100002c
:1042b8000000060088a00a00fa01000000000600bd
:1042c80011a00a00fa01000000000600d00f8000cb
:1042d80061406000000006000000e00006003200b7
:1042e800e10f500003003a0011a00a00d8010000b5
:1042f8000000060000000500c00e8000614060005c
:10430800000006000000e00007003200e10f500046
:1043180004003a0011a00a00d801000010c0b20041
:104328000000060000000500c00e8000614060002b
:1043380010c0b20000000600d221ef000000060005
:10434800d321a8000000060088a00a00d4010000bc
:1043580000000600d321a9000000060099a00a0069
:10436800d401000000000600d301a80000000600e8
:10437800d301a900000006000001eb000100e000e5
:1043880007003200fb01ab0005003a00e31f2000e4
:10439800131878000201e800828f5000f9ff3a00f4
:1043a80002007800000006000100e0001000320062
:1043b80011a20a00fa0100000204e0000001eb006b
:1043c80009003a00b0017800e30f88000201e80014
:1043d800828f50000400320011a30a00fa01000085
:1043e8000304e000f7ff3200020078000000060036
:1043f800000005000000050040002000d401e20094
:1044080005003500dca10a00d401000030002000be
:10441800e2cf500001003600000006008180fb005a
:1044280081804000207d2800810040001100780034
:10443800000006000000e0001e003200e10f5000fe
:104448001b003a0011a20a00d80100000040eb004e
:104458000204e00015003200401e20009008780099
:10446800300f800090009800400f8000a000980056
:10447800500f8000b0009800600f8000c0009800c6
:10448800700f8000d0009800800f8000e000980036
:10449800900f8000f0009800a00f8000800898001e
:1044a800b00f80009008980010c0b300000006000c
:1044b800000005000040eb00d801ab00fbff320014
:1044c800a01d200090087800e00e80009000980061
:1044d800f00e8000a0009800000f8000b000980047
:1044e800100f8000c000980010000500d221ef00d6
:1044f80000000600011f21000000eb00cdff0700af
:104508000004e0000c003200021f210012007800b5
:10451800c800de0053052000838f500007003200da
:10452800f00e2000808f50000f003200c0cdb30085
:1045380080cf500009003200000006000004e000af
:1045480014003a003a10ab00020032003a10a900f9
:104558003a30a8000009eb0000000600908f8000a8
:10456800e081880000000600908f8000a085880008
:10457800a1858000c0da2000808f5000010036003d
:10458800a08588000000eb0000097800908f880063
:1045980000000600e14f50000c00320001cab300d1
:1045a800814f50000600320011cab300814f5000fd
:1045b800e8ff3a003b90a8000009eb00001a000051
:1045c800000200001f000000000006003b90a90048
:1045d8000009eb00000006003a10ab00e0ff3a00cb
:1045e8003a10a8003a30a9000009eb0000000600c4
:1045f8004010ec000082880021032000810f500049
:1046080001003e0000000600308c8000e00f8800aa
:10461800e0898000e00f8800e0818000e00f8800da
:1046280010132300e00f880000202300e00f88000b
:10463800808c8000e00f8800308a8000e00f8800be
:10464800b0858000e00f8800b18180008100e9001a
:10465800100020000100dd00e00f8800d0818000fc
:10466800e00f880090858000e00f8800708480004b
:10467800e00f8800c000200001022000e00f880041
:104688000000e800810f5000fcff3a00f08188002c
:104698004030ef0000000600308c8000e00f8800fa
:1046a800e0898000e00f8800e0818000e00f88004a
:1046b80010132300e00f880000202300e00f88007b
:1046c800808c8000e00f8800308a8000e00f88002e
:1046d800b0858000e00f8800b18180008100e9008a
:1046e800100020000100dd00e00f8800d08180006c
:1046f800e00f880090858000e00f880070848000bb
:10470800e00f8800c000200001022000e00f8800b0
:104718000000e800810f5000fcff3a00f08188009b
:1047280000000600bd000700ef000700001420008d
:10473800e01a8800d01a88002be3a800901c880093
:10474800801c880061e3a8005a2ea9005a0ea9000f
:104758000000eb00908588000000060031a3a80047
:104768003183a80067a3a8006783a8009da3a800b9
:104778009d83a8005a2ea9005a0ea9000000eb003c
:104788009085880070848800211821001190a1006c
:10479800c11921001104a100908c88008113210007
:1047a8001190a100211521001104a100408a880060
:1047b800000006005410ec00a0828800fe0f500094
:1047c8003c00360091858000a0858000808f5000d5
:1047d80090858000a18580000e003e0064004000a6
:1047e800810f50001900310090858000640040005e
:1047f800e30f5000150036009085800064004000eb
:1048080090858800b0818000908288005430ef0045
:104818000000060064004000810f50000b003600c5
:104828009085800064004000e30f500007003600c8
:10483800908580006400500090858800b0818000d9
:10484800908288005430ef0000000600900020009d
:10485800908288009285800091858000c408de00df
:1048680082804000c1858800918580009285800003
:104878004411de0082805000d18588009285800036
:1048880091858000c508de0082804000e1858800af
:1048980091858000928580004511de00828050005d
:1048a800f18588002118210011a0a1005430ef00e3
:1048b80000000600b0818000908288000000060099
:1048c8000000eb00a0848800708488003084880091
:1048d800408488005084880080848800c0848800d0
:1048e800b0858800615d2000a185880090858800da
:1048f800208b8800f08a8800b08a8800c08a8800e7
:10490800d08a8800008b8800508b8800d08b880064
:10491800a08b8800608b8800708b8800808b880053
:10492800b08b8800211821001100a1001110a100ee
:104938001120a1001130a1001140a1001150a100c7
:104948001160a1001170a1001180a1001190a100b7
:1049580011a0a100208c8800308c8800408c880031
:10496800508c88006011b800628c8800738c8800b5
:10497800808c8800908c8800c11921001104a10046
:10498800d0888800a088880060888800708888009f
:1049980080888800b088880000898800808988001d
:1049a800508988001089880020898800308988000b
:1049b80060898800811321001100a1001110a10055
:1049c8001120a1001130a1001140a1001150a10037
:1049d8001160a1001170a1001180a1001190a10027
:1049e80011a0a100d0898800e0898800f08988009a
:1049f800008a8800128a8800238a8800308a880002
:104a0800408a8800201521001004a1003a30ef00e8
:104a18003b90a8003a30a80000000600a00421003e
:104a2800a08d880087062100b78d880060ff2400cc
:104a3800c08d8800a0ff2400d08d8800600421006c
:104a4800408e880026062100568e8800c0fe24006d
:104a5800608e880000ff2400708e8800801a210074
:104a6800451e21008000eb0084262400d3ff2f0080
:104a780002b0240001087800240098001300980070
:104a8800310098004200980074004000850f5000e3
:104a9800f8ff3a00d47f210054828800836d2000fb
:104aa80063828800c2ff2700820b7800c14b200078
:104ab80051838800004c2800608388003482880075
:104ac80043828800020b78002183880030838800a5
:104ad8003430ef003230ef00401b21002001070086
:104ae800801c21001e013700c01d21002104210067
:104af80001087800c1052100f18e880022fe2400fb
:104b0800028f880062fe2400128f88000001eb00eb
:104b1800228f880003a42500438f8800a3ff2f005d
:104b2800338f8800528f880002d02700628f880058
:104b3800420a200012828800222320002282880054
:104b4800c2ff270082087800617b2100f18288007b
:104b5800b17b2900018388003030ef000001370065
:104b68006e100000320100008000000036100000c6
:104b780004000000820000000100010000000000a5
:104b88003a1000000400000080000000f01100004e
:104b980020000000800000003e100000040000001b
:104ba8008000000052100000020000008200000097
:104bb8000100000054100000020000008000000006
:104bc800a01100005000000080000000301000001c
:104bd80006000000800000005c10000012000000c9
:104be80080000000e24f00001e000000800000006e
:104bf8004210000004000000800000004610000081
:104c080004000000800000004a10000004000000ba
:104c18008000000016100000120000008000000054
:104c28004e10000004000000800000005610000034
:104c380002000000800000001012000020000000a8
:104c4800800000002810000008000000800000001c
:104c58005810000002000000800000005a100000f8
:104c68000200000080000000001000001600000094
:104c780082000000010001000001000001000100a5
:104c8800000100000100010000204e00c8002000c3
:104c98004e0000000000000000000600c3e8a90064
:104ca8000000000000000000b2010700c3e8a800ef
:104cb800000000000000000080d62100408188002c
:104cc80025a8a8000000060000002800e0028800cf
:104cd80000000600000024000003880010c0b30094
:104ce8002ef0b700000006002e70ef006800ab0041
:104cf800feff32008000200020038800000006002c
:104d0800400380006140600000000600e1022100cd
:104d1800914078000140780000000600b003800050
:104d2800a20380008000eb00c000dd00000020002e
:104d38008001eb0002007000838070000000060014
:104d4800d0038000c20380008000eb00c000dd00bb
:104d5800000020008001eb000200700083807000da
:104d680000000600100e20006800b60000000600d3
:104d780070038000620380008000eb00c000dd004b
:104d8800000020008001eb000200700083807000aa
:104d9800000006000000e0000100320040818800a9
:104da800000006000004200000648800a00820001d
:104db8003064880050052000206488008a2cef00a9
:104dc8000020280040648800001e0000ae0100009a
:104dd8001f000000d00c2000706488006064880008
:104de800922cef00902cef00942cef0060e521004e
:104df800b082880081eca8000000060081eca900c0
:104e0800802cef00a00820003064880050052000a6
:104e1800206488008a2cef00882cef008e2cef008d
:104e28008c2cef00922cef00902cef00942cef00cc
:104e380000000600406480004700de00614060001a
:104e48000000060081eca8000000060081eca90023
:104e58000000060089eca8000000060089eca90003
:104e680000000600b0200a008e0c000000000600ba
:104e78000000e00001003200b08288000000060057
:104e88000000060009c8ab0001003a000000060057
:104e9800b08280000000e000010032000000010044
:104ea80009c8a90000000600841f7800851f780043
:104eb800881f78008a1f78004400f800040a200040
:104ec8002402880030059000400490009a02900067
:104ed800250598008a029000150598009102510056
:104ee800882add00050d7800100490004604c300f0
:104ef8004604c0000204c0001201c0000004900073
:104f0800200590004604c7000204c0001201c0003a
:104f18000400cd00e00290001301c000d002900010
:104f28000500c8000400cd00f00290001520e6003e
:104f380005027800800a900015a0e60005027800b6
:104f4800faba9700050d780074bd9f0084097800af
:104f58004400f9004f0578004f047800cf0278002c
:104f68004f0278000080fe0000000600801f7800d5
:104f7800200090000018eb000008eb004f007800bc
:104f8800801f7800300090000018eb000018eb003c
:104f98000008eb004f00780000000600841f78002e
:104fa800851f7800881f78008a1f78004400f80061
:104fb800040a200024028800300590004004900074
:104fc8009a029000250598008a029000150598001d
:104fd80091025100882add00050d78001004900028
:104fe8004604c3004604c0000204c0001201c00009
:104ff8000400cd00900a90001201c3001301c00004
:1050080000049000200590004604c7000204c00078
:105018001201c0000400cd00e00290001301c0009e
:10502800d00290000500c8000400cd00f0029000f6
:105038001520e60005027800800a900015a0e60019
:1050480005027800faba9700050d780074bd9f0034
:10505800840978004400f9004f0578004f0478006f
:10506800cf0278004f0278000080fe0000000600a2
:10507800062eef00222eef003e2eef00002020002b
:10508800d0728800f001200010708800b1ff29005c
:10509800f1708800f1ff2900d171880081c92900c9
:1050a800b17288000a2eef00262eef00422eef0084
:1050b8005e2eef000c2eef00282eef00442eef009e
:1050c800602eef00082eef00242eef00402eef0098
:1050d8005c2eef000070880070382000e0708800b7
:1050e800f00c2000c071880000c02100a072880068
:1050f8000000eb0051052000b1468800a10a2000fd
:10510800b146880000688800f0c3b30028edb700f6
:105118001000200050200a009e0d00000080200092
:1051280051052000b1468800a10a2000b146880038
:10513800006888000000060010002300307c88000a
:1051480040062000407c880010022000507c880027
:1051580010102800707c8800d0072000807c880010
:1051680010222000907c8800b82fef00ba2fef00a3
:10517800be2fef00002def00a42fef00a62fef00a9
:10518800aa2fef00ae2fef00b02fef00b22fef00e5
:105198001000200081072000a209200053f82000f9
:1051a80081497800824978008049780061042000ac
:1051b8007205200043f82000814978008249780070
:1051c80080497800840fab00feff3a0084afab0043
:1051d800feff320000000600eea00a008e0f00005d
:1051e80000000600400880008000eb000000060078
:1051f800200880008000eb00000006000021ef007e
:105208000421ef00f07022004008880060042200aa
:10521800c08288000000060001e1a9000021ef001b
:105228000421ef000821ef000000060001e1a800ba
:105238000000060001e1a9000000060040088800ff
:105248000000060064200a00400800000000060074
:105258000000e00001003200c08288000000060063
:105268000000060011a00a0000080000e14f5000ed
:105278000100320000000600c0828000000001002a
:105288000028a90000000600400888000000060069
:1052980070838000c08a8800c18a8000508b80009b
:1052a800808f500002003600c08a8000508b880032
:1052b800a0838000008b880080838000708888002d
:1052c800b0838000b0888800d0838000ff00600031
:1052d800f18c880095800a0000000000a08a8800f0
:1052e800e0838000f08a8800f0838000a08888002e
:1052f80000000600007c800000000600007c8000a2
:105308000000e0001000350000e8a30001003200b2
:1053180081cfa9000098a30001003200812fa900c5
:105328000078a3000100320080efa9000068a30004
:105338000100320080cfa9000048a300010032001c
:10534800808fa9000000060081efa900eeff37005a
:10535800802fef00000006000000fe0087fe070017
:10536800821f780052818000000011000200200096
:10537800810019004f017800000006000000fe00bf
:10538800801f7800811f7800821f780060038000ea
:10539800801f780079fe07004f0178000201500055
:1053a8000201e900528188004f017800cf0078009f
:1053b8004f0078000000060010002000a8200a0016
:1053c8006c08000040002000ec200a006c08000077
:1053d80056c8bf0064400a000001000056e8b70044
:1053e8000000060040002000a8200a006c08000009
:1053f800ec200a006c08000056c8bf0064400a0090
:105408000004000056e8b700000006000f0007007f
:105418002efd0700c6fc070084ff07003b70a800ac
:1054280011a00a00000800000004e000fcff3200a0
:10543800a7f807000028a90011a00a00000800002a
:105448000004e000f6ff3200f9ff37003aff0700da
:1054580007ff07000ef8070055fe070012fe0700b9
:10546800bbfb0700b7f9070064ff0700b0fa0700a5
:10547800c3e8a8000000000000000000ceff3700cd
:105488000000fe00000006000000fe000000fe0014
:0854980000000000000000000c
:020000040000fa
:1054a0006011b80062109800731098008000eb0043
:1054b00041109800011098001100980071009800a8
:1054c0004100980051009800010898006100980080
:1054d0002108980011089800000006000008eb0061
:1054e00000000600889fbe008a9fbe008c1f7800c7
:1054f00000067800400a9000540898003008900098
:1055000090017800430e98007c0b900016805100ab
:1055100000f0a7000000ea00f27f2000820f500098
:105520005c003c00600e980012c0b300830f520074
:1055300001003e000041eb00610161004610dd000a
:105540001c0190000260a100020170001206980088
:10555000ac1390000700e000070032006c0a9000d6
:105560008002eb00c122dd000400200005000900dc
:1055700047aad800301698001c007800e30f5000ae
:105580007c003200e30f500022003e00e10f50008b
:105590005f013200e10f5000ad013e006c09900048
:1055a0006c109000fc10900000014100e081480068
:1055b0006216980073169800800220000c004000cc
:1055c0001002e800441698000c109000dc129000c5
:1055d000850f5200470031000000e0000900320052
:1055e0002c0190000218a30006003a0030ceb30050
:1055f000cc41900000c0610040469800100020009f
:10560000000e78004f0678004f05be004f04be0024
:1056100000000600e50f5000d2013200e50f5000f7
:10562000b4003900e60f500084013a006e004600d5
:105630009001e800730698006c0a90004006200074
:10564000800f5200150036000c089000e20f500049
:10565000f30236000000eb00000e98007006980080
:105660004006980030002000000e78000200a100e3
:105670001206980070ceb300cc40900000c06000cd
:10568000404698004f0678004f05be004f04be000c
:1056900000000600620e9800a3ff37000000eb0038
:1056a000000e9800429c2000828f5100d5ff3600ea
:1056b0006011b800621698007316980040169800a2
:1056c0000016980010069800700698004006980092
:1056d0005006980060069800200e9800100e980062
