:020000040000fa
:080000000002040000000000f2
:020000040000fa
:04000800900600005e
:020000040000fa
:04000c00f0050000fb
:020000040000fa
:040010000c060000da
:020000040000fa
:04001400c80600001a
:020000040000fa
:04001800ac06000032
:020000040000fa
:04001c00ec060000ee
:020000040000fa
:0400200028060000ae
:020000040000fa
:04002400ec060000e6
:020000040000fa
:04002800ec060000e2
:020000040000fa
:04002c00ec060000de
:020000040000fa
:04003000ec060000da
:020000040000fa
:04003400ec060000d6
:020000040000fa
:04003800ae05000011
:020000040000fa
:04003c00ec060000ce
:020000040000fa
:04004000ec060000ca
:020000040000fa
:04004400ec060000c6
:020000040000fa
:04004800ec060000c2
:020000040000fa
:04004c00ec060000be
:020000040000fa
:04005000ec060000ba
:020000040000fa
:04005400ec060000b6
:020000040000fa
:04005800ec060000b2
:020000040000fa
:04005c00ec060000ae
:020000040000fa
:04006000ec060000aa
:020000040000fa
:04006400ec060000a6
:020000040000fa
:04006800ec060000a2
:020000040000fa
:04006c00ec0600009e
:020000040000fa
:04007000ec0600009a
:020000040000fa
:04007400ec06000096
:020000040000fa
:04007800ec06000092
:020000040000fa
:04007c00ec0600008e
:020000040000fa
:04008000ec0600008a
:020000040000fa
:04008400ec06000086
:020000040000fa
:04008800ec06000082
:020000040000fa
:04008c007a050000f1
:020000040000fa
:04009000ec0600007a
:020000040000fa
:04009400ec06000076
:020000040000fa
:04009800ec06000072
:020000040000fa
:04009c00ec0600006e
:020000040000fa
:0400a000ec0600006a
:020000040000fa
:0400a400ec06000066
:020000040000fa
:0400a800ec06000062
:020000040000fa
:0400ac00ec0600005e
:020000040000fa
:0400b000ec0600005a
:020000040000fa
:0400b400ec06000056
:020000040000fa
:0400b800ec06000052
:020000040000fa
:0400bc00ec0600004e
:020000040000fa
:0400c000ec0600004a
:020000040000fa
:0400c400ec06000046
:020000040000fa
:0400c800ec06000042
:020000040000fa
:0400cc00ec0600003e
:020000040000fa
:0400d000ec0600003a
:020000040000fa
:0400d400ec06000036
:020000040000fa
:0400d800ec06000032
:020000040000fa
:0400dc00d00500004b
:020000040000fa
:0400e000ec0600002a
:020000040000fa
:0400e400ec06000026
:020000040000fa
:0400e800ec06000022
:020000040000fa
:0400ec00ec0600001e
:020000040000fa
:0400f000ec0600001a
:020000040000fa
:0400f400ec06000016
:020000040000fa
:0400f800ec06000012
:020000040000fa
:0400fc00ec0600000e
:020000040000fa
:04010000ec06000009
:020000040000fa
:04010400ec06000005
:020000040000fa
:04010800ec06000001
:020000040000fa
:04010c00ec060000fd
:020000040000fa
:04011000ec060000f9
:020000040000fa
:04011400ec060000f5
:020000040000fa
:04011800ec060000f1
:020000040000fa
:04011c00ec060000ed
:020000040000fa
:04012000ec060000e9
:020000040000fa
:04012400ec060000e5
:020000040000fa
:04012800ec060000e1
:020000040000fa
:04012c00ec060000dd
:020000040000fa
:04013000ec060000d9
:020000040000fa
:04013400ec060000d5
:020000040000fa
:04013800ec060000d1
:020000040000fa
:04013c00ec060000cd
:020000040000fa
:04014000ec060000c9
:020000040000fa
:04014400ec060000c5
:020000040000fa
:04014800ec060000c1
:020000040000fa
:04014c00ec060000bd
:020000040000fa
:04015000ec060000b9
:020000040000fa
:04015400ec060000b5
:020000040000fa
:04015800ec060000b1
:020000040000fa
:04015c00ec060000ad
:020000040000fa
:04016000ec060000a9
:020000040000fa
:04016400ec060000a5
:020000040000fa
:04016800ec060000a1
:020000040000fa
:04016c00ec0600009d
:020000040000fa
:04017000ec06000099
:020000040000fa
:04017400ec06000095
:020000040000fa
:04017800ec06000091
:020000040000fa
:04017c00ec0600008d
:020000040000fa
:04018000ec06000089
:020000040000fa
:04018400ec06000085
:020000040000fa
:04018800ec06000081
:020000040000fa
:04018c00ec0600007d
:020000040000fa
:04019000ec06000079
:020000040000fa
:04019400ec06000075
:020000040000fa
:04019800ec06000071
:020000040000fa
:04019c00ec0600006d
:020000040000fa
:0401a000ec06000069
:020000040000fa
:0401a400ec06000065
:020000040000fa
:0401a800ec06000061
:020000040000fa
:0401ac00ec0600005d
:020000040000fa
:0401b000ec06000059
:020000040000fa
:0401b400ec06000055
:020000040000fa
:0401b800ec06000051
:020000040000fa
:0401bc00ec0600004d
:020000040000fa
:0401c000ec06000049
:020000040000fa
:0401c400ec06000045
:020000040000fa
:0401c800ec06000041
:020000040000fa
:0401cc00ec0600003d
:020000040000fa
:0401d000ec06000039
:020000040000fa
:0401d400ec06000035
:020000040000fa
:0401d800ec06000031
:020000040000fa
:0401dc00ec0600002d
:020000040000fa
:0401e000ec06000029
:020000040000fa
:0401e400ec06000025
:020000040000fa
:0401e800ec06000021
:020000040000fa
:0401ec00ec0600001d
:020000040000fa
:0401f000ec06000019
:020000040000fa
:0401f400ec06000015
:020000040000fa
:0401f800ec06000011
:020000040000fa
:0401fc00ec0600000d
:020000040000fa
:04020000ec06000008
:020000040000fa
:04020400ec06000004
:020000040000fa
:04020800ec06000000
:020000040000fa
:04020c00ec060000fc
:020000040000fa
:04021000ec060000f8
:020000040000fa
:04021400ec060000f4
:020000040000fa
:04021800ec060000f0
:020000040000fa
:04021c00ec060000ec
:020000040000fa
:04022000ec060000e8
:020000040000fa
:04022400ec060000e4
:020000040000fa
:04022800ec060000e0
:020000040000fa
:04022c00ec060000dc
:020000040000fa
:04023000ec060000d8
:020000040000fa
:04023400ec060000d4
:020000040000fa
:04023800ec060000d0
:020000040000fa
:04023c00ec060000cc
:020000040000fa
:04024000ec060000c8
:020000040000fa
:04024400ec060000c4
:020000040000fa
:04024800ec060000c0
:020000040000fa
:04024c00ec060000bc
:020000040000fa
:04025000ec060000b8
:020000040000fa
:04025400ec060000b4
:020000040000fa
:04025800ec060000b0
:020000040000fa
:04025c00ec060000ac
:020000040000fa
:04026000ec060000a8
:020000040000fa
:04026400ec060000a4
:020000040000fa
:04026800ec060000a0
:020000040000fa
:04026c00ec0600009c
:020000040000fa
:04027000ec06000098
:020000040000fa
:04027400ec06000094
:020000040000fa
:04027800ec06000090
:020000040000fa
:04027c00ec0600008c
:020000040000fa
:04028000ec06000088
:020000040000fa
:04028400ec06000084
:020000040000fa
:04028800ec06000080
:020000040000fa
:04028c00ec0600007c
:020000040000fa
:04029000ec06000078
:020000040000fa
:04029400ec06000074
:020000040000fa
:04029800ec06000070
:020000040000fa
:04029c00ec0600006c
:020000040000fa
:0402a000ec06000068
:020000040000fa
:0402a400ec06000064
:020000040000fa
:0402a800ec06000060
:020000040000fa
:0402ac00ec0600005c
:020000040000fa
:0402b000ec06000058
:020000040000fa
:0402b400ec06000054
:020000040000fa
:0402b800ec06000050
:020000040000fa
:0402bc00ec0600004c
:020000040000fa
:0402c000ec06000048
:020000040000fa
:0402c400ec06000044
:020000040000fa
:0402c800ec06000040
:020000040000fa
:0402cc00ec0600003c
:020000040000fa
:0402d000ec06000038
:020000040000fa
:0402d400ec06000034
:020000040000fa
:0402d800ec06000030
:020000040000fa
:0402dc00ec0600002c
:020000040000fa
:0402e000ec06000028
:020000040000fa
:0402e400ec06000024
:020000040000fa
:0402e800ec06000020
:020000040000fa
:0402ec00ec0600001c
:020000040000fa
:0402f000ec06000018
:020000040000fa
:0402f400ec06000014
:020000040000fa
:0402f800ec06000010
:020000040000fa
:0402fc00ec0600000c
:020000040000fa
:04030000ec06000007
:020000040000fa
:04030400ec06000003
:020000040000fa
:04030800ec060000ff
:020000040000fa
:04030c00ec060000fb
:020000040000fa
:04031000ec060000f7
:020000040000fa
:04031400ec060000f3
:020000040000fa
:04031800ec060000ef
:020000040000fa
:04031c00ec060000eb
:020000040000fa
:04032000ec060000e7
:020000040000fa
:10040000ef8021000eff27000e0188000000200071
:100410000000e000020032000001200020028800fd
:10042000140007006e0207000000e00003003a001d
:1004300020d6240001002000020037000000200028
:1004400001002000810f70004220ae000f00070065
:10045000000020000000e0004220ae00000002008a
:100460000000000018510200000000000040da0007
:100470000000fe00a02020000000e000020032008a
:10048000002020009001880000000600a1028800e2
:10049000800478000000eb001f003700e284440075
:1004a00054a0b4009905ba00e284440054a0b400fa
:1004b0009906ba00e284440054a0b4000006eb00a0
:1004c000476fde00fd07b200ae018800636ce100fb
:1004d00003003a000ad801000000eb000e003700cc
:1004e000606ce10008003a00004deb000a05e800ee
:1004f000020039003420ec000af0a0008b05e9006e
:10050000f9ff3e00040037006168e100010032009d
:100510000086eb000b00070019c7ba001905ba00e6
:100520000e04e00003003a000a00e000dbff3a009e
:1005300000000600fe07b200ae0288008a047800c0
:10054000f5ff37000cd0a300e20f4d001c003b006c
:1005500089027800354dba000a05e800020039002a
:100560003420ec000af0a0008b05e9000f003200f7
:10057000254dba000a05e800020039003420ec00dd
:100580000af0a0008b05e900080032000c00e00032
:100590000600320015cdba000a05e8000200390055
:1005a0003420ec000af0a0008b05e9008984e80003
:1005b00054a0b4000b00e000e2ff3a000000060087
:1005c0009902ba00055d78008b05e900f7ff32005b
:1005d000c82ade00055d78008b05e900f3ff3200d4
:1005e0000c00e000f1ff320019ddba00eeff370029
:1005f0006100e10001003200100005005400f80025
:1006000050102000a002880000f927001000ba0056
:100610005400f9000700260000f0a6008703d1006f
:100620000703780001c4fe000003eb000120200056
:1006300001d0fe0021922800111303008703e90076
:10064000fdff3a0000f0a7000000050000f0a00048
:1006500080c4fe0086037800f3ff37000408200002
:10066000010037000002eb006100e10001003200f0
:10067000100005003200f8003400f8008102780014
:1006800003d0fe003200be000100e0000c0032008a
:100690000470a70000f0a00032037800c733de002a
:1006a000848343004220af008703e800a70188004d
:1006b000f607b2007f30e100040032002000200085
:1006c0003400f9003200f900000006008100e90062
:1006d0000500e00003003a00018009003210030029
:1006e000e8ff37000180090032900300d561ae00b9
:1006f000e4ff370030002000f1ff3700ea3a040041
:10070000000000006040040000000000624004009f
:100710000000000064400400000000006640040087
:100720000000000068400400000000005e4004007b
:10073000000000003e3f040000000000303d0400c7
:1007400000000000123d040000000000443a0400d4
:1007500000000000823d040000000000bc3a0400dc
:1007600000000000923d0400000000006a40040008
:1007700000000000d23a040000000000da3a040051
:10078000000000002e3f040000000000d03f0400e5
:1007900000000000363c040000000000c43a0400e1
:1007a00000000000cc3a0400000000001e3f0400de
:1007b000000000004c3a040000000000aa3a0400c7
:1007c00000000000e23a040000000000ec3a0400df
:1007d00000000000f43a040000000000fc3a0400ad
:1007e00000000000043b0400000000000c3b04007b
:1007f00000000000143b0400000000001c3b04004b
:1008000000000000004f040000000000964e0400ad
:1008100000000000be4e040000000000e24e040094
:1008200000000000e64e040000000000da4e040064
:1008300000000000f84e040000000000024f040019
:1008400000000000ea4e040000000000ee4e04002c
:1008500000000000f24e0400000000008646040084
:10086000000000004042040000000000a642040016
:10087000000000007840040000000000b0400400c8
:1008800000000000e84004000000000020410400d7
:100890000000000056410400000000008e410400ea
:1008a00000000000c641040000000000fe410400fa
:1008b0000000000008430400000000001243040090
:1008c0000000000004480400000000000a48040082
:1008d000000000006e480400000000006c480400a6
:1008e000000000000c480400000000001048040054
:1008f0000000000016480400000000001a48040030
:10090000000000002048040000000000244804000b
:1009100000000000284804000000000032480400e5
:10092000000000007848040000000000ac4704000c
:1009300000000000b047040000000000b4470400bd
:1009400000000000b8470400000000003a4804001e
:10095000000000005248040000000000bc470400f2
:1009600000000000c247040000000000c847040067
:1009700000000000ce470400000000006a480400a8
:10098000000000009648040000000000d447040066
:1009900000000000ea47040000000000144f0400bb
:1009a000000000002e4f040000000000424f040031
:1009b00000000000464f040000000000564f0400f5
:1009c00000000000784f0400000000006a4f04009f
:1009d00000000000804f0400000000008a4f040067
:1009e00000000000104e040000000000724b0400e4
:1009f00000000000164b0400000000003a4b040009
:100a0000000000005c4b040000000000604b04008c
:100a100000000000ac4b040000000000744b040018
:100a200000000000904b040000000000644b040034
:100a3000000000006a4b040000000000be4b0400f0
:100a4000000000003a4c040000000000de4b0400ef
:100a500000000000024c040000000000244c0400d0
:100a600000000000284c040000000000744c04004a
:100a7000000000003c4c040000000000584c040042
:100a8000000000002c4c040000000000324c040068
:100a900000000000864c0400000000009e5004008e
:100aa000000000006a500400000000007a500400ba
:100ab0000000000084500400000000008850040082
:100ac000000000008c500400000000005e50040094
:100ad000000000006450040000000000905004007a
:100ae000000000009650040000000000a050040028
:100af000000000003600f800809fbe00829fbe000c
:100b0000849fbe00869fbe00ddc5ab0007003a0093
:100b10000328a9004f03be004f02be004f01be00d4
:100b20004f00be003600f900004006002081800022
:100b30000000e0000100320000000100ddc5a90056
:100b40000328a9004f03be004f02be004f01be00a4
:100b50004f00be003600f900004006003600f800e5
:100b6000809fbe00829fbe00849fbe00869fbe0005
:100b7000218280000100e000020032000000eb0052
:100b8000010001000088a9004f03be004f02be0013
:100b90004f01be004f00be003600f90000400600c5
:100ba0003600f800809fbe00829fbe00849fbe007a
:100bb000869fbe00808180000000e00001003200be
:100bc0000000010005a8a9004f03be004f02be00af
:100bd0004f01be004f00be003600f9000040060085
:100be0003600f800809fbe00829fbe00849fbe003a
:100bf000869fbe00c068a90020002000d425070001
:100c00004f03be004f02be004f01be004f00be00aa
:100c10003600f900004006003600f800809fbe0054
:100c2000829fbe00849fbe00869fbe00c608a900aa
:100c300070002000c62507004f03be004f02be0013
:100c40004f01be004f00be003600f9000040060014
:100c50003600f800809fbe00829fbe00849fbe00c9
:100c6000869fbe00c488ab000b003a00c4c8ab002e
:100c700025003a00c4a8ab001d003a00c508ab002f
:100c800015003a00c528ab000d003a00c408ab00bf
:100c900007003a00ffff3700c488a900a000200029
:100ca000ab250700c4c8ab00f2ff320016003700c6
:100cb000c408a900b0002000a5250700f5ff3700f3
:100cc000c528a900d0002000a1250700c408ab005a
:100cd000f0ff3200f6ff3700c508a900c000200071
:100ce0009b250700c528ab00e8ff3200f4ff370062
:100cf000c4a8a9009000200095250700c508ab00f6
:100d0000e0ff3200f4ff3700c4c8a900e000200073
:100d10008f250700c4a8ab00d8ff3200f4ff3700ce
:100d20003600f800809fbe00829fbe00849fbe00f8
:100d3000869fbe00c028a9000000eb0084250700a4
:100d40004f03be004f02be004f01be004f00be0069
:100d50003600f900004006003600f800809fbe0013
:100d6000829fbe00849fbe00869fbe00c088a900ef
:100d700030002000762507004f03be004f02be0062
:100d80004f01be004f00be003600f90000400600d3
:100d90003600f800809fbe00829fbe00849fbe0088
:100da000869fbe00a027210080077800202921000f
:100db00000018800c048a900100020006425070039
:100dc0004f03be004f02be004f01be004f00be00e9
:100dd0003600f900004006000040da000000fe0086
:100de0000000050050052000b00e8800a00a200079
:100df000b00e8800d3e1a8000000060050052000d6
:100e0000b00e8800a00a2000b00e8800d3e1a9002f
:100e1000000006008001e90002814000828f50003e
:100e200001003a0000000600b1697800fbff3700be
:020000040000fa
:100e3000000700000e0900001c1b00001215000036
:100e4000383f000036310000242300002a2d000026
:100e5000707700007e7900006c6b00006265000016
:100e6000484f000046410000545300005a5d000006
:100e7000e0e70000eee90000fcfb0000f2f50000f6
:100e8000d8df0000d6d10000c4c30000cacd0000e6
:100e9000909700009e9900008c8b000082850000d6
:100ea000a8af0000a6a10000b4b30000babd0000c6
:100eb000c7c00000c9ce0000dbdc0000d5d20000b6
:100ec000fff80000f1f60000e3e40000edea0000a6
:100ed000b7b00000b9be0000abac0000a5a2000096
:100ee0008f88000081860000939400009d9a000086
:100ef00027200000292e00003b3c00003532000076
:100f00001f18000011160000030400000d0a000065
:100f100057500000595e00004b4c00004542000055
:100f20006f68000061660000737400007d7a000045
:100f3000898e000087800000959200009b9c000035
:100f4000b1b60000bfb80000adaa0000a3a4000025
:100f5000f9fe0000f7f00000e5e20000ebec000015
:100f6000c1c60000cfc80000ddda0000d3d4000005
:100f7000696e000067600000757200007b7c0000f5
:100f8000515600005f5800004d4a000043440000e5
:100f9000191e000017100000050200000b0c0000d5
:100fa000212600002f2800003d3a000033340000c5
:100fb0004e49000040470000525500005c5b0000b5
:100fc00076710000787f00006a6d000064630000a5
:100fd0003e39000030370000222500002c2b000095
:100fe00006010000080f00001a1d00001413000085
:100ff000aea90000a0a70000b2b50000bcbb000075
:1010000096910000989f00008a8d00008483000064
:10101000ded90000d0d70000c2c50000cccb000054
:10102000e6e10000e8ef0000fafd0000f4f3000044
:101030000000000002000000010000000448000061
:101040000a4800006e4800006c4800000c48000090
:1010500010480000164800001a4800002048000010
:10106000244800002848000032480000784800006a
:10107000ac470000b0470000b4470000b84700008c
:101080003a48000052480000bc470000c247000038
:10109000c8470000ce4700006a480000964800009c
:1010a000d4470000ea4700000000000000000000f4
:1010b0000000000000000000000000000000000030
:1010c0000000000000010000020300000405000011
:1010d00006070000080c0000101400001820000093
:1010e000304000003e3f0000303d0000123d000057
:1010f000443a0000823d0000bc3a0000923d0000ee
:101100006a400000d23a0000da3a00002e3f0000a8
:10111000d03f0000363c0000c43a0000cc3a00004a
:101120001e3f00004c3a0000aa3a0000e23a0000dc
:10113000ec3a0000f43a0000fc3a0000043b0000e6
:101140000c3b0000143b00001c3b00004042000030
:10115000a642000078400000b0400000e8400000d7
:1011600020410000564100008e410000c6410000b1
:10117000fe4100000843000012430000964e0000ac
:10118000be4e0000e24e0000e64e0000da4e0000c7
:10119000f84e0000024f0000ce880000ea4e00002a
:1011a000ee4e0000f24e0000164b00003a4b0000dd
:1011b0005c4b0000604b0000ac4b0000744b000027
:1011c000904b0000644b00006a4b0000be4b0000d7
:1011d000de4b0000024c0000244c0000284c0000b4
:1011e000744c00003c4c0000584c00002c4c00009b
:1011f000324c0000864c00006a5000007a5000001b
:1012000084500000885000008c5000005e500000a8
:10121000645000009050000096500000a050000064
:10122000144f00002e4f0000424f0000464f0000b8
:10123000564f0000784f00006a4f0000804f0000ba
:041240008a4f0000d1
:020000040000fa
:04124400ffffff00a9
:020000040000fa
:1012480000000000ca0000001f00000000020400a7
:101258000000000030070000b0060000cc060000c7
:10126800680700004c070000ac070000e806000013
:10127800ac070000ac070000ac070000ac0700009a
:10128800ac070000ac070000ac070000ac0700008a
:10129800ac070000ac070000ac070000ac0700007a
:1012a800ac070000ac070000ac070000ac0700006a
:1012b800ac070000ac070000ac070000ac0700005a
:1012c800ac070000ac070000ac070000ac0700004a
:1012d800ac070000ac070000ac070000ac0700003a
:1012e800ac070000ac070000ac070000ac0700002a
:1012f800ac070000ac070000ac070000ac0700001a
:10130800ac070000ac070000ac070000ac07000009
:10131800ac070000ac070000ac070000ac070000f9
:10132800ac070000ac0700008c070000ac07000009
:10133800ac070000ac070000ac070000ac070000d9
:10134800ac070000ac070000ac070000ac070000c9
:10135800ac070000ac070000ac070000ac070000b9
:10136800ac070000ac070000ac070000ac070000a9
:10137800ac070000ac070000ac070000ac07000099
:10138800ac070000ac070000ac070000ac07000089
:10139800ac070000ac070000ac070000ac07000079
:1013a800ac070000ac070000ac070000ac07000069
:1013b800ac070000ac070000ac070000ac07000059
:1013c800ac070000ac070000ac070000ac07000049
:1013d800ac070000ac070000ac07000044050000a3
:1013e800520400007c060000ac070000ac070000b7
:1013f800ac070000ac070000ac070000ac07000019
:10140800ac070000ac070000e0050000ac070000d6
:10141800ac070000ac070000ac0700001406000091
:10142800ac070000ac070000ac070000ac070000e8
:10143800ac070000ac070000ac070000ac070000d8
:10144800ac070000ac070000ac070000ac070000c8
:10145800ac070000ac070000ac070000ac070000b8
:10146800ac070000ac070000ac070000ac070000a8
:10147800ac070000ac070000ac070000ac07000098
:10148800ac070000ac070000ac070000ac07000088
:10149800ac070000ac070000ac070000ac07000078
:1014a800ac070000ac070000ac070000ac07000068
:1014b800ac070000ac070000ac070000ac07000058
:1014c800ac070000ac070000ac070000ac07000048
:1014d800ac070000ac070000ac070000ac07000038
:1014e800ac070000ac070000ac070000ac07000028
:1014f800ac070000ac070000ac070000ac07000018
:10150800ac070000ac070000ac070000ac07000007
:10151800ac070000ac070000ac070000ac070000f7
:10152800ac070000ac070000ac070000ac070000e7
:10153800ac070000ac070000ac070000ac070000d7
:10154800ac070000ac070000ac070000ac070000c7
:10155800ac070000ac070000ac070000ac070000b7
:10156800ac070000ac070000ac0700000000fe005c
:101578000000fe0000020000000200001f00000042
:101588000f2321002efd24000e018800000000001a
:10159800000020000000e0000200320000012000ee
:1015a8002002880014000700cd0207000000e000b8
:1015b80003003a00e0a721000100200002003700e4
:1015c8000000200001002000810f7000010032009f
:1015d8000f000700000020000000e00002003200b9
:1015e8000000020000000000ce1e02000000000003
:1015f8000040da000000fe00e00c20000000e000df
:10160800020032000020200090018800000006003f
:10161800a1028800800478000000eb001f0037005a
:10162800e284440054a0b4009905ba00e28444005e
:1016380054a0b4009906ba00e284440054a0b4004f
:101648000006eb00476fde00fd07b200ae01880020
:10165800636ce10003003a000ad801000000eb00c7
:101668000e003700606ce10008003a00004deb0006
:101678000a05e800020039003420ec000af0a00056
:101688008b05e900f9ff3e00040037006168e100be
:10169800010032000086eb000b00070019c7ba00f2
:1016a8001905ba000e04e00003003a000a00e00041
:1016b800dbff3a0000000600fe07b200ae02880019
:1016c8008a047800f5ff37000cd0a300e20f4d0024
:1016d8001c003b0089027800354dba000a05e80075
:1016e800020039003420ec000af0a0008b05e90064
:1016f8000f003200254dba000a05e8000200390043
:101708003420ec000af0a0008b05e9000800320044
:101718000c00e0000600320015cdba000a05e8000a
:10172800020039003420ec000af0a0008b05e90023
:101738008984e80054a0b4000b00e000e2ff3a00fe
:10174800000006009902ba00055d78008b05e900e3
:10175800f7ff3200c82ade00055d78008b05e90036
:10176800f3ff32000c00e000f1ff320019ddba008f
:10177800eeff37000000000000000000000000003d
:101788000000000000000000000000000000000051
:101798000000000000000000000000000000000041
:1017a8000000000000000000000000000000000031
:1017b8000000000000000000000000000000000021
:101a2800000000003600f800809fbe00829fbe00c4
:101a3800849fbe00869fbe003200f8003400f80084
:101a480010002000a00188000020200000d0fe0027
:101a58005baea80023aea800f000200050200a00ca
:101a6800080b0000090ba80061608000618b8800ea
:101a7800608b8000e18b80000100500000f0a7001f
:101a88000000ea00708b880023aea900718b8000eb
:101a9800203a2000808f500003003400b08180007d
:101aa800e50f500053003e007060800010898800e8
:101ab80010898000918980000100500000f0a70083
:101ac8000000ea002089880021898000203a20004f
:101ad800808f500003003400b0818000e50f500073
:101ae80039003e0001618000318488003184800023
:101af80020d22000808f500027003c0050618000d9
:101b080010868800e1062100100020001309070054
:101b18000004e0000e003a00a000200050200a0057
:101b2800080b0000e60107000b68a9005baea900de
:101b38003400f9003200f9004f03be004f02be0026
:101b48004f01be004f00be003600f90000400600fd
:101b5800930c07002008210011c0b30010c87000c2
:101b6800a000200050200a00080b0000d401070044
:101b78000b68a9005baea9003400f9003200f90037
:101b88004f03be004f02be004f01be004f00be0013
:101b98003600f900004006003ad0a8003a10a90023
:101ba8003a30a800b4090700506180001086880008
:101bb800e106210010002000e80807000004e0000a
:101bc800d5ff3200e2ff37003a90a8003a10a9008a
:101bd8003a30a800a8090700016180003184880014
:101be8003184800020d22000808f5000c3ff340051
:101bf800e9ff37003a70a8003a10a9003a30a80067
:101c08009d090700a8ff37003600f800809fbe0036
:101c1800829fbe00849fbe00869fbe003200f800ef
:101c28003400f80010002000a001880000202000e7
:101c380000d0fe00808280000000e0000100320039
:101c4800000001000ca8ab0033003a000d48ab00bf
:101c580027003a000b68ab001b003a000b88ab006a
:101c680009003a000b48a9003400f9003200f900d5
:101c78004f03be004f02be004f01be004f00be0022
:101c88003600f90000400600716080007282800012
:101c98000200e000020032003000200002000100d3
:101ca8000b88a9000b48a9003400f9003200f9009c
:101cb8004f03be004f02be004f01be004f00be00e2
:101cc8003600f900004006006160800072828000e2
:101cd8000200e000020032002000200002000100a3
:101ce8000b68a9000b88ab00deff3200e6ff370067
:101cf80051618000728280000200e0000200320020
:101d080010002000020001000d48a9000b68ab007c
:101d1800d2ff3200ecff3700016180007282800040
:101d28000200e000020032000000eb0002000100a7
:101d38000ca8a9000d48ab00c6ff3200ecff370025
:101d48003600f800809fbe00829fbe00849fbe00c0
:101d5800869fbe003200f8003400f8001000200012
:101d6800a00188000020200000d0fe000161800052
:101d7800728280000200e000020032000000eb00e6
:101d880000060000000200001f0000000200010021
:101d98000ca8a9003400f9003200f9004f03be0076
:101da8004f02be004f01be004f00be003600f900d2
:101db800004006003600f800809fbe00829fbe00eb
:101dc800849fbe00869fbe003200f8003400f800f1
:101dd80010002000a00188000020200000d0fe0094
:101de80051618000728280000200e000020032002f
:101df80010002000020001000d48a9003400f9007d
:101e08003200f9004f03be004f02be004f01be0072
:101e18004f00be003600f900004006003600f8000a
:101e2800809fbe00829fbe00849fbe00869fbe002a
:101e38003200f8003400f80010002000a0018800eb
:101e48000020200000d0fe006160800072828000c7
:101e58000200e00002003200200020000200010021
:101e68000b68a9003400f9003200f9004f03be00e6
:101e78004f02be004f01be004f00be003600f90001
:101e8800004006003600f800809fbe00829fbe001a
:101e9800849fbe00869fbe003200f8003400f80020
:101ea80010002000a00188000020200000d0fe00c3
:101eb80071608000728280000200e000020032003f
:101ec80030002000020001000b88a9003400f9004e
:101ed8003200f9004f03be004f02be004f01be00a2
:101ee8004f00be003600f900004006003600f8003a
:101ef800809fbe00829fbe00849fbe00869fbe005a
:101f0800c068a90020002000240c07004f03be0071
:101f18004f02be004f01be004f00be003600f90060
:101f2800004006003600f800809fbe00829fbe0079
:101f3800849fbe00869fbe00c608a90070002000ce
:101f4800160c07004f03be004f02be004f01be0033
:101f58004f00be003600f900004006003600f800c9
:101f6800809fbe00829fbe00849fbe00869fbe00e9
:101f7800c488ab0007003a00c4a8ab0015003a00bb
:101f8800c508ab000d003a00c408ab0007003a00d2
:101f9800ffff3700c488a900a0002000ff0b07003e
:101fa800c4a8ab00f6ff32000a003700c408a90035
:101fb800b0002000f90b0700f5ff3700c508a9009d
:101fc800c0002000f50b0700c408ab00f0ff32008a
:101fd800f6ff3700c4a8a90090002000ef0b070007
:101fe800c508ab00e8ff3200f4ff37003600f80000
:101ff800809fbe00829fbe00849fbe00869fbe0059
:10200800c028a9000000eb00e40b07004f03be0046
:102018004f02be004f01be004f00be003600f9005f
:10202800004006003600f800809fbe00829fbe0078
:10203800849fbe00869fbe00c088a9003000200093
:10204800d60b07004f03be004f02be004f01be0073
:102058004f00be003600f900004006003600f800c8
:10206800809fbe00829fbe00849fbe00869fbe00e8
:1020780000212100800778008022210000018800cb
:10208800c048a90010002000c40b07004f03be0081
:102098004f02be004f01be004f00be003600f900df
:1020a800004006003600f800809fbe00829fbe00f8
:1020b800849fbe00869fbe00408180000000e00033
:1020c800010032000000010005a8a9004f03be006e
:1020d8004f02be004f01be004f00be003600f9009f
:1020e800004006000040da000000fe000000050085
:1020f8006022b800060220000000d0008180d200d3
:102108000482d2008582d2000000a00002025200a0
:1021180083825a00030031000202420083824a008f
:102128000000a1000603e900f3ff3a0000000600e2
:10213800000000000200000001000000701600000e
:102148004a17000074160000781600007e1600007a
:1021580082160000881600008c160000d0160000b9
:1021680090160000a8160000281600002e16000081
:10217800341600003a160000ee160000ce160000d5
:102188004016000056160000000000000000000085
:102198000000000000000000000000000000000037
:1021a80000000000100f0000d80d0000a00c000077
:1021b800a40c0000a80c0000ac0c0000b00c00003f
:1021c800b20c0000d40c0000000d0000260d000029
:1021d8002a0d00002e0d0000320d0000a20e000096
:1021e800001000002e880000ac0e00000c0f00004c
:1021f800b60e000000000000380d0000620d00005f
:102208008c0d0000ae0d000012100000980e0000aa
:1022180000000000601400008c1400009e140000f0
:10222800b8140000c2140000ca140000d81400003a
:10223800e6140000ea14000000000000000000009e
:10224800ee140000061500000e1500006c150000c5
:102258007415000086150000e4150000161500002e
:102268000000000000000000000000000000000066
:102278000000000000000000a01b0000c61b0000ba
:10228800ea1b0000ee1b0000e21b0000001c00001f
:102298000a1c000086880000f21b0000f61b0000e4
:1022a800fa1b0000c61d0000d41d0000de1d000042
:1022b800e21d0000e61d0000ba1d0000c01d000060
:1022c800ea1d0000f01d0000fa1d0000889fbe00f6
:1022d8008a1f78005acea800a08480000000e80079
:1022e800a0848800d08b80000000e800d08b880094
:1022f800808980000000e8008089880030848000a0
:1023080022818000338180004f82de00020340007a
:1023180083034a0026818800378188002818210015
:10232800128180001858a300020032001868a30028
:10233800110132000200e00021003200a284800076
:10234800e10f51001e00360075848000c5848800a6
:10235800a28480000201e9000500090042bbd80000
:10236800708488002430ef002630ef002230ef0020
:102378000000eb00a0848800ba818000e10f5500be
:102388002000320055800a001800000066000a008c
:10239800180000005acea9005acea800e90f55002f
:1023a800fa0032005acea900e91921001928a30021
:1023b8004f003a004f0578004f04be0000000600a9
:1023c800a384800002f42100828f5100eaff3600c6
:1023d80075848000c5848800a28480000201e90019
:1023e8000500090042bbd800708488002430ef0043
:1023f8002630ef002230ef000000eb00a0848800b8
:10240800ddff3700628b8000d4808000e58080008b
:102418004f93de000401410085014b00d280880003
:10242800e3808800148980006122b900b0808000b0
:10243800c18080000000420081804a00b08088008e
:10244800c180880000818000e10f50000101360042
:10245800d08b8000e10f5000fe003600d48b800046
:102468000402e900050009004499d800e08b8800bf
:102478001a30ef001c30ef002030ef000000eb00b6
:10248800d08b8800f0808000e10f5000e00036001b
:1024980080898000e10f5000dd00360084898000cb
:1024a800b2808000c38080000402e90005000900b2
:1024b8004499d800908988001630ef001830ef0052
:1024c8001e30ef000000eb008089880055800a006c
:1024d8001800000066000a00180000005acea90083
:1024e8005acea800e90f5500aeff3a00a700370002
:1024f8001938a300e6003a00190078004400de000d
:102508006140600011820a0018000000824f5000ec
:10251800040032001850a000908c80000000e800f1
:10252800908c88001828a3003a0032005acea800e0
:10253800e90f5500de00320018a8a300dc003a00bd
:102548005acea9005acea8001858a3000f0032008e
:102558001808a3000d003a001938a3000b003a0030
:102568001800a0000000eb00208c88001948a30088
:102578003d0132001898a30003003a0031c3a800b7
:102588003183a90031a3a8001850a100000a000057
:10259800000200001f0000001808a300110032000c
:1025a800208c80000000e800208c8800e90f500093
:1025b800060136001800a100e0012000208c8800e8
:1025c800e08c80000008a30006003a001948a30028
:1025d80023013200e70f5500020036005a2ea900e9
:1025e8005a0ea8005acea9001808a3000c003a00f9
:1025f8001938a3000a003a00e90f5500020032001a
:1026080018a8a300060032005acea800b1858000a1
:10261800c0762000808f5000f7003e005acea900f7
:102628005acea800a08480000000e00005003a000f
:10263800e08c80000008a300ce003200c0762000a5
:10264800b08588005acea9001938a30046003a0080
:10265800018b8000b08580000180b900608c880003
:10266800718c8800608c8000718c8000c10add004c
:102678004f00de0000807200cf08de00808c8800ea
:10268800708b80004400dd00808b8800e08c800027
:102698000008a30018003a005acea8003b90ab00ef
:1026a800aa003200b1858000f0ff2300808f50001f
:1026b800a6003e00b1858000f08a80000200240058
:1026c8000200400001005000c1cc2000810f5000e2
:1026d8009f003e00d0cc2000e08188005acea9009f
:1026e800308e8800828c8000631821000117210039
:1026f800401b2100f30807005acea8001898a30031
:1027080004003a0071848000c08a8000808f5000e5
:10271800a1003e005acea900318c8000f031200083
:10272800808f500002003e000000eb00308c8800d3
:10273800318c800000b02400808f500001003600ea
:10274800308c88001808a30007003a00eea00a00a1
:10275800220e000010c0b200ee200a00220e000077
:10276800328c8000721a880044800a001900000028
:1027780011000a00180000004f0578004f04be0041
:10278800000006000201e800128188002030ec00f9
:102798001e30ec00eafe370072848000c08580009d
:1027a800800f51000d003600000c210022c0b3003c
:1027b8001048710013c0b30010c8710031a3a800fd
:1027c8003183a80067a3a8006783a8009da3a80079
:1027d8009d83a8005a2ea9005a0ea9007284800071
:1027e800e0858000800f5100f1fe31007284800086
:1027f800f0858000800f5100edfe3600000c2100ae
:102808001014a1001004a1005acea900e919210052
:102818001928a300eafe320038ff370082898000b9
:1028280000fa2000800f5100d9fe3600848980000c
:10283800b2808000c38080000402e900050009001e
:102848004499d800908988001630ef001830ef00be
:102858001e30ef000000eb00808988001eff370063
:10286800d48b800000fa2000800f520008ff360049
:10287800d48b80000402e900050009004499d800bf
:10288800e08b88001a30ef001c30ef002030ef009a
:102898000000eb00d08b8800fdfe370031a3a800b4
:1028a8003183a8005a2ea9005a0ea9004e23ef0022
:1028b80010002000408c880012ff3700b28580008d
:1028c80070702000800f510003003e001898a3008c
:1028d80001003a001880a0001888a30012003200f6
:1028e8001858a3001000320011800a0018000000d8
:1028f8000004e0000c0032001890a0001880a1002d
:10290800c019210014c0b300104872000000eb0089
:10291800908c8800b08c880031a3a8003183a8006f
:102928005a2ea9005a0ea900908c8000e10f500081
:1029380006ff36001890a100c01921001004a1005c
:102948000000eb00908c880000ff3700c0cc20000e
:10295800e08188005acea900308e8800828c8000e1
:102968006318210001172100401b210055080700aa
:1029780061ff370092858000630b2100e108210088
:10298800c01d2100120807005acea9001938a3005b
:1029980075ff3a002eff370070848000c28a8000dd
:1029a80051188000020050000102b80072848000b3
:1029b8000500090042aad800318c80004200de00e0
:1029c80001004000308c880052ff3700228c8000c4
:1029d8004a11dd00d07280000050a2000002b2004f
:1029e800d37280000350a10083017000d372880065
:1029f800721a8800fbfe3700708b8000e10320000c
:102a0800810f500022003600408c80000000e80052
:102a1800408c8800408c8000e60f50000300360090
:102a280060002000408c88001870a000408c800056
:102a38000000e00003003a0010002000408c8800ed
:102a48001870a1001878a300180032001948a300d4
:102a58001b00320031a3a9005acea900f0fe3700ae
:102a6800e70f5500dffe36005a0ea9005a2ea800bf
:102a7800dcfe37001898a300c6fe3a0031c3a9004f
:102a880031a3a9003183a8001850a100c2fe370065
:102a9800d1032000810f5000deff3e00408c8000f3
:102aa8000000e900408c8800daff37001948a300cd
:102ab8000600320031a3a8005acea900d8fe37007c
:102ac8003183a9005acea900d5fe37003183a8006a
:102ad8005acea900d2fe370001eba800000006007c
:102ae80001eba9000000060008cba80000000600c2
:102af80008cba9000000060000000600e10f500006
:102b0800090032000000e0000b003200e20f500024
:102b180007003200e30f500002003a0070608000a6
:102b2800000006000000050050618000000006005b
:102b38006060800000000600006180000000060060
:102b4800e10f50000a0032000000e0000f003200e0
:102b5800e20f50000a003200e30f500003003a0071
:102b680011a00a00300b000000000600000005005c
:102b780080598000ff800a00000000000000060065
:102b8800805980006140600000000600aaa00a0089
:102b9800300b000000000600634060004801dd00c3
:102ba800f1cf2f00b45e8000848160008301710042
:102bb800b35e8800d35e800083806000810071006e
:102bc800d15e88004500dd0021b0200091407800ea
:102bd800f2c9b30082c0600000c0700002ebb70009
:102be800000006002b48a800000006002b48a9009a
:102bf800000006000b48a90000000600a8200a00f3
:102c08006c08000000000600e10f50000a003200c6
:102c18000000e0000e003200e20f50000900320010
:102c2800e30f500003003a002b88a800202ba800cf
:102c380000000600000006002d48a80021eba800af
:102c4800000006002b68a800200ba8000000060062
:102c58002ca8a800214ba80000000600e10f500096
:102c68000a0032000000e0000e003200e20f5000bf
:102c780009003200e30f500003003a002b88a90036
:102c8800202ba90000000600000006002d48a9001e
:102c980021eba900000006002b68a900200ba90061
:102ca800000006002ca8a900214ba900000006007e
:102cb800e10f5000090032000000e0000b00320074
:102cc800e20f500007003200e30f500002003a0004
:102cd8000b88a90000000600000006000d48a900a6
:102ce800000006000b68a900000006000ca8a90057
:102cf80000000600e10f50000a0032000000e0006a
:102d08000e003200e20f500009003200e30f5000bd
:102d180003003a0020210a006e08000000000600a7
:102d280000000600a8210a00740800000000060040
:102d3800ec210a006c0800000000060064210a006b
:102d4800720800000000060001eba9006060800026
:102d58000b68a9002b68a9000b48a9002b48a900fb
:102d6800002bef000006200010588800042bef000d
:102d7800062bef00082bef000a2bef000c2bef00bf
:102d88000e2bef00102bef00122bef00142bef008f
:102d9800202bef00222bef00000e000000020000a5
:102da8001f000000302bef00322bef00382bef0014
:102db800402bef00482bef00502bef003a2bef0091
:102dc800422bef004a2bef00522bef003c2bef0079
:102dd800442bef004c2bef00542bef003e2bef0061
:102de800462bef004e2bef00562bef00682bef0021
:102df8006c2bef00702bef00742bef006a2bef00a9
:102e08006e2bef00722bef00762bef00802bef007c
:102e1800822bef00842bef00862bef00882bef002e
:102e28008a2bef008c2bef008e2bef00902bef00fe
:102e3800922bef00942bef00a02bef00a42bef00b8
:102e4800a82bef00ac2bef00d02bef00d22bef001c
:102e5800d42bef00d82bef0000302000b05e8800a4
:102e6800d05e8800f02bef00f22bef00f82bef007c
:102e7800fa2bef00002cef00022cef000c2cef00d7
:102e88000e2cef00102cef00122cef00142cef008a
:102e9800162cef00182cef001a2cef001c2cef005a
:102ea8001e2cef00202cef00222cef00242cef002a
:102eb800262cef00282cef002a2cef002c2cef00fa
:102ec8002e2cef00302cef00322cef00342cef00ca
:102ed8000000060000eca800000ce200feff3d0028
:102ee8000aeba800000006000000e0000100320024
:102ef8008082880000000600000006000000e00054
:102f08000100320070828800000006000000060000
:102f1800e10f5000210032000000e00017003200ed
:102f2800e20f50000d003200e30f50000a003a0093
:102f380011a10a00300b00000104e0000500320076
:102f480071608000728280000200e000010032009f
:102f5800020001000000060000000600300bab0074
:102f6800fcff320061608000728280000200e00095
:102f7800f8ff320002000100f6ff3700314bab00ca
:102f8800f4ff320001618000728280000200e000dc
:102f9800f0ff32000000eb0002040100300be200f9
:102fa800ecff3d0051618000728280000200e00069
:102fb800e8ff320002000100e6ff370000000600cb
:102fc80000000600002bef000006200010588800c3
:102fd800042bef00062bef00082bef000a2bef0065
:102fe80030002000605888000e2bef00102bef00f7
:102ff800122bef00142bef0010002000005988005e
:10300800222bef00302bef00322bef00382bef0094
:10301800402bef00482bef00502bef003a2bef002e
:10302800422bef004a2bef00522bef003c2bef0016
:10303800442bef004c2bef00542bef003e2bef00fe
:10304800462bef004e2bef00562bef00682bef00be
:103058006c2bef00702bef00742bef00004020006a
:10306800505b8800705b8800905b8800b05b8800cc
:10307800a02bef00a42bef00a82bef00ac2bef0048
:10308800d02bef00d22bef00d42bef00d82bef0082
:1030980000302000b05e8800d05e8800f02bef0082
:1030a800f22bef00f82bef00fa2bef00022cef00c9
:1030b8000c2cef000e2cef00102cef00122cef0060
:1030c800142cef00162cef00182cef001a2cef0030
:1030d8001c2cef001e2cef00202cef00222cef0000
:1030e800242cef00262cef00282cef002a2cef00d0
:1030f8002c2cef002e2cef00302cef00322cef00a0
:10310800342cef00a0ea20008082880040eb2000e9
:10311800708288000b48a9002b48a8000b68a900fa
:103128002b68a80010608000b8400a00000f00005b
:103138001060880001eba800000ca800010cab008f
:10314800feff32000a0ba800002ca800012cab00df
:10315800feff32000a2ba80000eca800000ce200d9
:10316800feff3d000aeba80040402000005c8800fc
:10317800822bef00842bef00862bef00882bef00cb
:1031880040002000505c88008c2bef0000102000cd
:10319800705c8800902bef00922bef00942bef00cf
:1031a800000006000b48ab0001003a0000000600d2
:1031b800808280000000e000010032000000010071
:1031c8000b48a900000006000000e00008003200db
:1031d800e10f500005003a00002ca800012cab00bc
:1031e800feff32000a2ba8000000060000000600bf
:1031f800000ca800010cab00feff32000a0ba8006f
:10320800000006008e030700fae1ab00020032005e
:10321800fa01ab0043003a00b18180000100780058
:10322800f2ff2f00f3ff2f0002814000e0814900e8
:10323800e90f5100e08f590005003600e40f5000f7
:103248002d003e0000808800b08188000000060044
:1032580002060100a90037003d0037004000370092
:103268005600370061003700690037000300370057
:103278008e0037007a0037003500370091808000d3
:10328800220121000109e9000100e000a8003a003c
:10329800211821001128a300a5003200c3e8a900c5
:1032a800000000000000000010002000408c880092
:1032b8001170a100f0898800801321001070a1000e
:1032c800401b2100f6050700801c2100f4050700bb
:1032d800c01d2100f20507007084800090858800d9
:1032e800c3e8a800000000000000000080002000e3
:1032f80030808800b0818800f18c80000128a3000c
:10330800d0ff3a005bcea900e4030700a00020002c
:10331800008088003a10a9003a30a800b0818800df
:103328000000060082030700b181800001007800d8
:10333800f2ff2f00f3ff2f0002814000e0814900d7
:10334800e90f5100e08f5900bcff3e00c0ff370075
:1033580000000000e40f5000baff3600e6ff370017
:103368003a10ab00880032003a10a8003a50a90081
:103378003a70a9003a90a9003ab0a9003a30a900d9
:103388003ad0a900e01921001044a100201821001a
:103398001010a100401521001044a1008013210045
:1033a8001010a10000712200a080880040002000b9
:1033b8006080880000808800a3ff3700a18080001b
:1033c800420121000109e9000100e0006a003a0019
:1033d8005000200050808800b0818800f18c800067
:1033e8000128a30097ff3a00c6ff37005bcea8006c
:1033f800401f2000a080880060002000b081880065
:10340800f18c80000128a3008eff3a00bdff370031
:10341800a1808000420121000109e9000100e000cb
:103428004a003a00211821001128a30047003a0059
:103438001120a000801321001020a000401f2000b0
:10344800908088007000200040808800b08188004b
:10345800f18c80000128a3007aff3a00a9ff370009
:103468003a10ab0055003200a2858000918580009b
:10347800f4804000810f510047003e00a285800083
:1034880091858000f4805000810f5100420039007e
:103498009100200011808800b1818800f18c8000a3
:1034a8000128a30067ff3a0096ff37003a10ab00e7
:1034b8004c0032008100200021808800b181880002
:1034c80032848000918580006109b100828f5000ac
:1034d80089ff310032848000918580006109b00045
:1034e800810f510084ff310082030700b0818800fa
:1034f800e40f500053ff36007fff3700f18c800047
:103508000128a300180032008080800001012100fa
:103518008008e9000000e000470032007080800069
:10352800b0818800e40f500046ff360072ff370074
:103538007100200031808800b1818800f18c800002
:103548000128a3003fff3a006eff3700610020000a
:1035580041808800b1818800f18c80000128a30097
:1035680038ff3a0067ff370011002000718088009b
:103578000080880034ff3700410020005180880017
:103588000080880030ff370031002000618088000b
:10359800008088002cff37002018210010a0a00010
:1035a8008000200000120000000200001f00000040
:1035b80010808800b0818800f18c80000128a30069
:1035c80023ff3a0052ff3700201821001020a100e5
:1035d800801321001020a100330307005bcea9004f
:1035e80030002000108088000080880019ff370014
:1035f800201821001020a100801321001020a10014
:10360800290307005bcea900300020002080880035
:10361800b081880032848000918580006109b10002
:10362800810f51000aff36003284800091858000a6
:103638006109b000810f5100aeff39000080880099
:1036480004ff3700e18b8000407e2000808f50000f
:1036580008003c00e18b800050812000808f5000e2
:10366800040034002000200070808800008088005a
:10367800f8fe370030002000708088000080880045
:10368800f4fe370030002000001888000223ef0005
:103698000423ef000623ef000823ef0080e1240055
:1036a800501888000c23ef000e23ef001023ef00c2
:1036b8001223ef001423ef001623ef001823ef0066
:1036c8001a23ef001c23ef001e23ef002023ef0036
:1036d8002223ef002423ef002623ef002823ef0006
:1036e800c008200050198800001b8800b01c880002
:1036f800cc23ef000224ef003824ef006e24ef0003
:10370800a424ef0000802400601988000000240031
:10371800101b880010002400c01c8800ce23ef0076
:103728000424ef003a24ef007024ef00a624ef00f1
:103738002e23ef006423ef009a23ef00d023ef003d
:103748000624ef003c24ef007224ef00a824ef00c9
:103758000010230080198800301b8800e01c8800b6
:10376800d223ef000824ef003e24ef007424ef007a
:10377800aa24ef00c000200090198800401b880090
:10378800f01c8800d423ef000a24ef004024ef0047
:103798007624ef00ac24ef0080102000a0198800e8
:1037a80080002000501b8800001d8800d623ef00f1
:1037b8000c24ef004224ef007824ef00ae24ef0041
:1037c8003623ef006c23ef00a223ef00d823ef008d
:1037d8000e24ef004424ef007a24ef00b024ef0019
:1037e8003823ef006e23ef00a423ef00da23ef0065
:1037f8001024ef004624ef007c24ef00b224ef00f1
:103808003a23ef007023ef00a623ef00dc23ef003c
:103818001224ef004824ef007e24ef00b424ef00c8
:103828003c23ef007223ef00a823ef00de23ef0014
:103838001424ef004a24ef008024ef00b624ef00a0
:103848003e23ef007423ef00aa23ef00e023ef00ec
:103858001624ef004c24ef008224ef00b824ef0078
:103868004023ef007623ef00ac23ef00e223ef00c4
:103878001824ef004e24ef008424ef00ba24ef0050
:103888004223ef007823ef00ae23ef00e423ef009c
:103898001a24ef005024ef008624ef00bc24ef0028
:1038a8004423ef007a23ef00b023ef00e623ef0074
:1038b8001c24ef005224ef008824ef00be24ef0000
:1038c8004623ef007c23ef00b223ef00e823ef004c
:1038d8001e24ef005424ef008a24ef00c024ef00d8
:1038e8004823ef007e23ef00b423ef00ea23ef0024
:1038f8002024ef005624ef008c24ef00c224ef00b0
:103908004a23ef008023ef00b623ef00ec23ef00fb
:103918002224ef005824ef008e24ef00c424ef0087
:103928004c23ef008223ef00b823ef00ee23ef00d3
:103938002424ef005a24ef009024ef00c624ef005f
:103948004e23ef008423ef00ba23ef00f023ef00ab
:103958002624ef005c24ef009224ef00c824ef0037
:103968005023ef008623ef00bc23ef00f223ef0083
:103978002824ef005e24ef009424ef00ca24ef000f
:1039880080c32900901a8800401c8800f01d880018
:10399800f423ef002a24ef006024ef009624ef00c0
:1039a800cc24ef0080d52400a01a88008a23ef00d9
:1039b800c023ef00f623ef002c24ef006224ef0071
:1039c8009824ef00ce24ef005623ef008c23ef005d
:1039d800c223ef00f823ef002e24ef006424ef0049
:1039e8009a24ef00d024ef005823ef008e23ef0035
:1039f800c423ef00fa23ef003024ef006624ef0021
:103a08009c24ef00d224ef00401f2000d01a880029
:103a1800801c8800301e8800fc23ef003224ef0051
:103a28006824ef009e24ef00d424ef00e01a8800f9
:103a3800901c8800401e8800fe23ef003424ef000d
:103a48006a24ef00a024ef00d624ef005e23ef00e5
:103a58009423ef00ca23ef000024ef003624ef0080
:103a68006c24ef00a224ef00d824ef000000060029
:103a780000082000c01188003a22ef003c22ef0025
:103a880020022000f0118800800d2000001288001c
:103a98004222ef004c22ef004e22ef005022ef00ae
:103aa8005222ef005422ef005622ef005822ef0076
:103ab8005a22ef005c22ef0039e2a80038a2a800e1
:103ac8003882a800000006003822ef003a22ef00f2
:103ad80000082000e0118800e0022000f0118800b2
:103ae8004022ef004222ef000000060011a00a0069
:103af8003e020000e14f5000fcff320011a00a0016
:103b08003c020000e14f5000020032002012800009
:103b1800000006003c22a9002012800000000600d8
:103b28003e82ab00feff3a000080fb004012880096
:103b38000000060011a00a003e02000010c0b200fa
:103b4800000006000040eb003e82ab0003003a0094
:103b5800c01180004500de006140600000000600e2
:103b68000040eb003ce2ab0003003200f0118000a3
:103b78004500de00614060000000060038a2a80091
:103b88000000060038a2a900000006005cc2a900d7
:103b9800614160004211dd00c1252000914078009c
:103ba8000124a10082c07000c225200001497800cc
:103bb80066200a003802000000000600c0118000dc
:103bc8004600de006140600000000600e012800050
:103bd8004200de0061406000000006005a30ef003d
:103be8000000eb003c62ab0022003a003cc2ab0094
:103bf80019003a0011a10a003c020000e1cf500070
:103c08000f0032003c02ab0007003a003ca2ab00b8
:103c180001003a00000006000040a000d0828800a1
:103c28003ca2a900000006000030a000d082880055
:103c38003c02a9003ca2ab00f6ff3200f6ff3700b9
:103c48000020a000d08288003c22a9003c02ab00e2
:103c5800eeff3200f4ff37000010a000d082880089
:103c680011a10a003c020000e1cf5000e5ff3a0034
:103c7800f3ff370010002000d08288003cc2ab0060
:103c8800dcff3200f4ff370000128800ef8060008c
:103c98001112880000000600101280008000eb005e
:103ca800c001dd0002002000001280008000eb004f
:103cb8000200700083807000000006000002be0051
:103cc800e0052000800f5200e08f5a000a003600fd
:103cd8003b62a80038e2a9000401be0000102e00d3
:103ce800515f20000bf90700001288006f80600008
:103cf80010128800000006003b62a900f70f52006e
:103d0800e08f5a000e00360038e2a8004229dd0094
:103d1800ce21de00830171004221dd0000102e005b
:103d2800515f2000fbf8070061005000e080580058
:103d3800001288006f8060001012880000000600e2
:103d480038e2a9004429dd00cc21de00830171009e
:103d58004421dd0000102e00515f2000edf807001f
:103d680061005000e0805800001288006f806000f9
:103d78001012880000000600121280008001eb007b
:103d8800c012dd0004002000021280008001eb0058
:103d980004017100858171003b62ab000b003a00a1
:103da80061004100e080490038e2ab000d003a00b4
:103db80000160000000200001f0000004409dd009a
:103dc800cc01de00830171004401dd0000102e00eb
:103dd800515f2000d2f83700e00f5100e08f590002
:103de800f2ff320000102e00515f2000ccf837009f
:103df8004209dd00ce01de00830171004201dd00d1
:103e080000102e00515f2000c5f8370099a00a0065
:103e1800fa0100000000060088a00a00fa0100006c
:103e28000000060011a00a00fa01000000000600c8
:103e3800d00f800061406000000006000000e00034
:103e480006003200e10f500003003a0011a00a00fa
:103e5800d80100000000060000000500c00e800028
:103e680061406000000006000000e000070032002a
:103e7800e10f500004003a0011a00a00d801000028
:103e880010c0b2000000060000000500c00e80004f
:103e98006140600010c0b20000000600d221ef00af
:103ea80000000600d321a8000000060088a00a0030
:103eb800d401000000000600d321a900000006007c
:103ec80099a00a00d401000000000600d301a80050
:103ed80000000600d301a900000006000001eb0065
:103ee8000100e00007003200fb01ab0005003a00ca
:103ef800e31f2000131878000201e800828f5000a9
:103f0800f9ff3a0002007800000006000100e00016
:103f18001000320011a20a00fa0100000204e000b9
:103f28000001eb0009003a00b0017800e30f8800b7
:103f38000201e800828f50000400320011a30a0039
:103f4800fa0100000304e000f7ff320002007800e5
:103f580000000600000005000000050040002000e9
:103f6800d401e20005003500dca10a00d4010000fc
:103f780030002000e2cf50000100360000000600ab
:103f88008180fb0081804000207d28008100400066
:103f980011007800000006000000e0001e0032005a
:103fa800e10f50001b003a0011a20a00d8010000de
:103fb8000040eb000204e00015003200401e200023
:103fc80090087800300f800090009800400f800023
:103fd800a0009800500f8000b0009800600f80008b
:103fe800c0009800700f8000d0009800800f8000fb
:103ff800e0009800900f8000f0009800a00f80006b
:1040080080089800b00f80009008980010c0b30096
:1040180000000600000005000040eb00d801ab00de
:10402800fbff3200a01d200090087800e00e800001
:1040380090009800f00e8000a0009800000f80000b
:10404800b0009800100f8000c00098001000050014
:10405800d221ef0000000600011f21000000eb0044
:10406800cdff07000004e0000c003200021f210011
:1040780012007800c800de0053052000838f50002e
:1040880007003200f00e2000808f50000f00320031
:10409800c0cdb30080cf50000900320000000600f8
:1040a8000004e00014003a003a10ab0002003200ad
:1040b8003a10a9003a30a8000009eb0000000600f9
:1040c800908f8000e081880000000600908f8000bb
:1040d800a0858800a1858000c0da2000808f50006c
:1040e80001003600a08588000000eb000009780078
:1040f800908f880000000600e14f50000c0032004d
:1041080001cab300814f50000600320011cab30043
:10411800814f5000e8ff3a003b90a8000009eb00ef
:10412800000006003b90a9000009eb000000060013
:104138003a10ab00e0ff3a003a10a8003a30a90064
:104148000009eb00000006004010ec000082880027
:1041580021032000810f500001003e0000000600ee
:10416800308c8000e00f8800e0898000e00f880034
:10417800e0818000e00f880010132300e00f880022
:1041880000202300e00f8800808c8000e00f88006a
:10419800308a8000e00f8800b0858000e00f88003a
:1041a800b18180008100e900100020000100dd00dd
:1041b800e00f8800d0818000e00f880090858000a3
:1041c800e00f880070848000e00f8800c0002000a5
:1041d80001022000e00f88000000e800810f500075
:1041e800fcff3a00f08188004030ef000000060034
:1041f800308c8000e00f8800e0898000e00f8800a4
:10420800e0818000e00f880010132300e00f880091
:1042180000202300e00f8800808c8000e00f8800d9
:10422800308a8000e00f8800b0858000e00f8800a9
:10423800b18180008100e900100020000100dd004c
:10424800e00f8800d0818000e00f88009085800012
:10425800e00f880070848000e00f8800c000200014
:1042680001022000e00f88000000e800810f5000e4
:10427800fcff3a00f081880000000600bd0007003e
:10428800ef00070000142000e01a8800d01a880008
:104298002be3a800901c8800801c880061e3a8001c
:1042a8005a2ea9005a0ea9000000eb00908588003c
:1042b8000000060031a3a8003183a80067a3a80066
:1042c8006783a8009da3a8009d83a8005a2ea90073
:1042d8005a0ea9000000eb009085880070848800c1
:1042e800211821001190a100c11921001104a10079
:1042f800908c8800811321001190a10021152100c4
:104308001104a100408a8800000006005410ec0047
:10431800a0828800fe0f50003c0036009185800086
:10432800a0858000808f500090858000a185800046
:104338000e003e0064004000810f5000190031005b
:104348009085800064004000e30f5000150036009f
:10435800908580006400400090858800b0818000ce
:10436800908288005430ef0000000600640040008e
:10437800810f50000b0036009085800064004000db
:10438800e30f50000700360090858000640050005d
:1043980090858800b0818000908288005430ef00ba
:1043a800000006009000200090828800928580001e
:1043b80091858000c408de0082804000c1858800a5
:1043c80091858000928580004411de008280500033
:1043d800d18588009285800091858000c508de001f
:1043e80082804000e1858800918580009285800068
:1043f8004511de0082805000f185880021182100d7
:1044080011a0a1005430ef0000000600b081800028
:1044180090828800000006000000eb00a08488005d
:104428007084880030848800408488005084880024
:1044380080848800c0848800b0858800615d200081
:10444800a185880090858800208b8800f08a8800e4
:10445800b08a8800c08a8800d08a8800008b8800cb
:10446800508b8800d08b8800a08b8800608b8800d8
:10447800708b8800808b8800b08b88002118210001
:104488001100a1001110a1001120a1001130a100fc
:104498001140a1001150a1001160a1001170a100ec
:1044a8001180a1001190a10011a0a100208c88000a
:1044b800308c8800408c8800508c88006011b800cf
:1044c800628c8800738c8800808c8800908c8800af
:1044d800c11921001104a100d0888800a088880093
:1044e800608888007088880080888800b088880084
:1044f8000089880080898800508988001089880090
:10450800208988003089880060898800811321000b
:104518001100a1001110a1001120a1001130a1006b
:104528001140a1001150a1001160a1001170a1005b
:104538001180a1001190a10011a0a100d0898800cc
:10454800e0898800f0898800008a8800128a88003b
:10455800238a8800308a8800408a88002015210034
:104568001004a1003a30ef003b90a8003a30a800b0
:1045780000000600a0042100a08d88008706210005
:10458800b78d880060ff2400c08d8800a0ff24003c
:10459800d08d880060042100408e88002606210006
:1045a800568e8800c0fe2400608e880000ff24001c
:1045b800708e8800801a2100451e2100001a000014
:1045c800000200001f0000008000eb0044c8270024
:1045d800c3ff2f0002b024000108780024009800cf
:1045e80013009800310098004200980074004000c1
:1045f800850f5000f8ff3a00546620005482880066
:10460800331d200063828800c2ff2700820b7800d8
:10461800c14b200051838800004c2800608388002b
:104628003482880043828800020b78002183880046
:10463800308388003430ef003230ef00401b210017
:1046480020010700801c21001e013700c01d210029
:104658002104210001087800c1052100f18e88009d
:1046680022fe2400028f880062fe2400128f880038
:104678000001eb00228f880003a42500438f8800e7
:10468800a3ff2f00338f8800528f880002d02700a5
:10469800628f8800420a20001282880022232000ac
:1046a80022828800c2ff270082087800617b2100ef
:1046b800f1828800b17b2900018388003030ef0047
:1046c800000137006e100000320100008000000079
:1046d8003610000004000000820000000100010004
:1046e800000000003a1000000400000080000000f4
:1046f800f011000020000000800000003e100000c3
:1047080004000000800000005210000002000000b9
:1047180082000000010000005410000002000000a8
:1047280080000000a0110000500000008000000080
:104738003010000006000000800000005c1000003f
:104748001200000080000000e24f00001e00000080
:1047580080000000421000000400000080000000fb
:104768004610000004000000800000004a1000000d
:104778000400000080000000161000001200000075
:10478800800000004e1000000400000080000000bf
:104798005610000002000000800000001012000007
:1047a8002000000080000000281000000800000021
:1047b8008000000058100000020000008000000087
:1047c8005a100000020000008000000000100000e5
:1047d8001600000082000000010001000001000036
:1047e80001000100000100000100010000204e004e
:1047f800c80020004e000000000000000000060075
:10480800c3e8a9000000000000000000b201070092
:10481800c3e8a8000000000000000000a0b12100cb
:104828004081880025a8a800000006000000280094
:10483800e002880000000600000024000003880051
:1048480010c0b3002ef0b700000006002e70ef0075
:104858006800ab00feff32008000200020038800c3
:104868000000060040038000614060000000060070
:10487800e102210091407800014078000000060024
:10488800b0038000a20380008000eb00c000dd00c0
:10489800000020008001eb0002007000838070009f
:1048a80000000600d0038000c20380008000eb00f7
:1048b800c000dd00000020008001eb000200700055
:1048c8008380700000000600100e20006800b6000b
:1048d8000000060070038000620380008000eb0087
:1048e800c000dd00000020008001eb000200700025
:1048f80083807000000006000000e0000100320024
:104908004081880000000600000420000064880040
:10491800a00820003064880050052000206488002a
:104928008a2cef000020280040648800d00c20006a
:104938007064880060648800922cef00902cef006f
:10494800942cef0080c02100b082880081eca80080
:104958000000060081eca900802cef00a0082000d0
:104968003064880050052000206488008a2cef00fd
:10497800882cef008e2cef008c2cef00922cef008f
:10498800902cef00942cef0000000600406480009b
:104998004700de00614060000000060081eca800ce
:1049a8000000060081eca9000000060089eca800c0
:1049b8000000060089eca90000000600b0200a00eb
:1049c8008e0c0000000006000000e000010032002c
:1049d800b0828800000006000000060009c8ab008d
:1049e80001003a0000000600b08280000000e000ec
:1049f800010032000000010009c8a90000000600fb
:104a0800841f7800851f7800881f78008a1f780027
:104a18004400f800040a20002402880030059000b1
:104a2800400490009a029000250598008a029000a0
:104a38001505980091025100882add00050d7800bf
:104a4800100490004604c3004604c0000204c000dd
:104a58001201c00000049000200590004604c70021
:104a68000204c0001201c0000400cd00e002900062
:104a78001301c000d00290000500c8000400cd005a
:104a8800f00290001520e60005027800800a9000e8
:104a980015a0e60005027800faba9700050d78001f
:104aa80074bd9f00840978004400f9004f05780020
:104ab8004f047800cf0278004f0278000080fe0093
:104ac80000000600801f7800200090000018eb000e
:104ad8000008eb004f007800801f7800300090003d
:104ae8000018eb000018eb000008eb004f007800fe
:104af80000000600841f7800851f7800881f780052
:104b08008a1f78004400f800040a20002402880064
:104b180030059000400490009a0290002505980006
:104b28008a0290001505980091025100882add003c
:104b3800050d7800100490004604c3004604c00028
:104b48000204c0001201c0000400cd00900a9000c9
:104b58001201c3001301c00000049000200590005a
:104b68004604c7000204c0001201c0000400cd00c2
:104b7800e00290001301c000d00290000500c800b8
:104b88000400cd00f00290001520e6000502780030
:104b9800800a900015a0e60005027800faba97008e
:104ba800050d780074bd9f00840978004400f90061
:104bb8004f0578004f047800cf0278004f02780044
:104bc8000080fe0000000600062eef00222eef00f7
:104bd8003e2eef0000202000d0728800f001200057
:104be80010708800b1ff2900f1708800f1ff2900da
:104bf800d171880081c92900b17288000a2eef009e
:104c0800262eef00422eef005e2eef000c2eef0056
:104c1800282eef00442eef00602eef00082eef0044
:104c2800242eef00402eef005c2eef00007088006d
:104c380070382000e0708800f00c2000c0718800f7
:104c480000c02100a07288000000eb005105200080
:104c5800b1468800a10a2000b14688000068880093
:104c6800f0c3b30028edb7001000200050200a0060
:104c78009e0d00000080200051052000b1468800ec
:104c8800a10a2000b14688000068880000000600dc
:104c980010002300307c880040062000407c8800fb
:104ca80010022000507c880010102800707c8800ba
:104cb800d0072000807c880010222000907c88008b
:104cc800b82fef00ba2fef00be2fef00002def0036
:104cd800a42fef00a62fef00aa2fef00ae2fef00b2
:104ce800b02fef00b22fef00100020008107200046
:104cf800a209200053f820008149780082497800f1
:104d080080497800610420007205200043f82000e3
:104d1800814978008249780080497800840fab0087
:104d2800feff3a0084afab00feff32000000060031
:104d3800eea00a008e0f0000000006004008800068
:104d48008000eb0000000600200880008000eb00d7
:104d5800000006000021ef000421ef00f07022009f
:104d68004008880080df2100c0828800000006001b
:104d780001e1a9000021ef000421ef000821ef0064
:104d88000000060001e1a8000000060001e1a900fa
:104d980000000600400888000000060064200a00a1
:104da80040080000000006000000e000010032009a
:104db800c0828800000006000000060011a00a005a
:104dc80000080000e14f5000001e000088000000ad
:104dd8001f0000000100320000000600c0828000b1
:104de800000001000028a900000006004008880013
:104df8000000060070838000c08a8800c18a800095
:104e0800508b8000808f500002003600c08a8000de
:104e1800508b8800a0838000008b880080838000ee
:104e280070888800b0838000b0888800d0838000b4
:104e3800ff006000f18c880095800a0000000000e7
:104e4800a08a8800e0838000f08a8800f0838000d0
:104e5800a088880000000600007c80000000060092
:104e6800007c80000000e0001000350000e8a3008e
:104e78000100320081cfa9000098a3000100320090
:104e8800812fa9000078a3000100320080efa9005b
:104e98000068a3000100320080cfa9000048a300e9
:104ea80001003200808fa9000000060081efa900f0
:104eb800eeff3700802fef00000006000000fe0024
:104ec80087fe0700821f78005281800000001100d1
:104ed80002002000810019004f0178000000060040
:104ee8000000fe00801f7800811f7800821f780074
:104ef80060038000801f780079fe07004f0178006a
:104f0800020150000201e900528188004f01780037
:104f1800cf0078004f007800000006001000200045
:104f2800a8200a006c08000040002000ec200a00bd
:104f38006c08000056c8bf0064400a000001000069
:104f480056e8b7000000060040002000a8200a002c
:104f58006c080000ec200a006c08000056c8bf006e
:104f680064400a000004000056e8b700000006008c
:104f78000f0007002efd0700c6fc070084ff07008e
:104f88003af0a80011a00a00000800000004e000a0
:104f9800fcff3200a7f807000028a90011a00a00aa
:104fa800000800000004e000f6ff3200f9ff3700b7
:104fb8003aff070007ff07000ef8070055fe070035
:104fc80012fe0700bbfb0700b7f9070064ff0700e4
:104fd800b0fa0700c3e8a8000000000000000000c5
:104fe800ceff37000000fe00000006000000fe00b3
:104ff8000000fe00000000000000000000000000ab
:020000040000fa
:105008006011b80062109800731098008000eb00df
:105018004110980001109800110098007100980044
:10502800410098005100980001089800610098001c
:105038002108980011089800000006000008eb00fd
:1050480000000600889fbe008a9fbe008c1f780063
:1050580000067800400a9000540898003008900034
:1050680090017800430e98007c0b90001680510048
:1050780000f0a7000000ea00f27f2000820f500035
:105088005c003c00600e980012c0b300830f520011
:1050980001003e000041eb00610161004610dd00a7
:1050a8001c0190000260a100020170001206980025
:1050b800ac1390000700e000070032006c0a900073
:1050c8008002eb00c122dd00040020000500090079
:1050d80047aad800301698001c007800e30f50004b
:1050e8007c003200e30f500022003e00e10f500028
:1050f8005f013200e10f5000ad013e006c099000e5
:105108006c109000fc10900000014100e081480004
:105118006216980073169800800220000c00400068
:105128001002e800441698000c109000dc12900061
:10513800850f5200470031000000e00009003200ee
:105148002c0190000218a30006003a0030ceb300ec
:10515800cc41900000c0610040469800100020003b
:10516800000e78004f0678004f05be004f04be00c1
:1051780000000600e50f5000d2013200e50f500094
:10518800b4003900e60f500084013a006e00460072
:105198009001e800730698006c0a90004006200011
:1051a800800f5200150036000c089000e20f5000e6
:1051b800f30236000000eb00000e9800700698001d
:1051c8004006980030002000000e78000200a10080
:1051d8001206980070ceb300cc40900000c060006a
:1051e800404698004f0678004f05be004f04be00a9
:1051f80000000600620e9800a3ff37000000eb00d5
:10520800000e9800429c2000828f5100d5ff360086
:105218006011b8006216980073169800401698003e
:10522800001698001006980070069800400698002e
:105238005006980060069800200e9800100e9800fe
:10524800000e78004f0678004f05be004f04be00e0
:105258000000060010169800050009004499d800bf
:1052680000017800001698006000b80060169800e9
:1052780071169800401698002c0090000018a300a2
:10528800b9023a0043172000830f510002003e0084
:105298000010a000200698000008a30045033a006b
:1052a80043e92000830f5100020036000000a000ef
:1052b800200698000211b800ca18dd004611de0069
:1052c80002817000c619de00221698000c109000aa
:1052d80099ff37006c0a90006c109000fc10900049
:1052e80000054200e08548006a1698007b16980081
:1052f800800220000c0040001004e80048169800c6
:105308005c109000800f54001f0039008c10900032
:10531800111698000500090048ddd800000478003f
:10532800001698006000b800601698007116980082
:10533800401698002c0090000018a30084023a0040
:1053480045172000850f540002003e000010a00001
:10535800200698000008a30023033a0045e920002e
:10536800850f5400020036000000a00020069800b7
:105378000844b800ca48dd004644de0008847000ce
:10538800c64cde002816980010032000800f52003b
:10539800ed013e001c009000c603de00e1c363007f
:1053a800c402de00e1c2620085cf53008d023200e4
:1053b8000038a300ee013a002c4090008042b30070
:1053c800204698001c009000680160000200e00080
:1053d8000d0232006c0146001201e800840c200026
:1053e800840f5100380236000001eb006206980075
:1053f8002c0190000240a000220698000030a10075
:1054080010069800160078006a015000828f51003b
:10541800020231001c0090000040a0001006980015
:105428002c0090000000e000a2023a009c019000cd
:105438000358a3004bff32004006980040002000ac
:10544800000e78004f0678004f05be004f04be00de
:10545800000006006c0a90006c109000fc10900090
:1054680000054200e08548006a1698007b169800ff
:10547800800220000c0040001004e8004816980044
:105488005c109000800f54001f0039008c109000b1
:10549800111698000500090048ddd80000047800be
:1054a800001698006000b800601698007116980001
:1054b800401698002c0090000018a30004023a003f
:1054c80045172000850f540002003e000010a00080
:1054d800200698000008a30092023a0045e920003f
:1054e800850f5400020036000000a0002006980036
:1054f8000844b800ca48dd004644de00088470004d
:10550800c64cde002816980010032000800f5200b9
:105518009a013e001c009000c603de00e1c3630050
:10552800c402de00e1c2620085cf53003a023200b5
:105538000038a3009b013a002c4090008042b30041
:10554800204698001c009000680160000200e000fe
:10555800b90132006c0146001201e800840c2000f9
:10556800840f5100d60136000001eb006206980056
:105578002c0190000240a000220698000030a100f3
:1055880010069800160078006a015000828f5100ba
:10559800ae0131001c0090000040a00010069800e9
:1055a800680046001001e800420698001c009000c0
:1055b800800178000302b2000300e000aa01320073
:1055c800320698008001eb00430698000330200063
:1055d800830f5100ae013e0032cfb300cc419000a2
:1055e80002c161000234a000424698000028a300ce
:1055f80013003a000c1090004401de002302200042
:105608008c8141001300500000f0a7000000ea0060
:10561800800f5100800236005c0090006a0146004d
:105628000009e800f40f500005003a001c00900043
:105638000020a000100698000000eb00500698001b
:10564800ac0190000300e0008c003a009c00900040
:105658000128a300c3fe320050002000000e78008d
:105668004f0678004f05be004f04be00000006003c
:105678006c0a90006c109000fc109000000342002f
:10568800e08348006616980077169800800220008c
:105698000c0040009001e800431698005c10900050
:1056a800808f51001f0039008c109000111698004f
:1056b8000500090043bbd8000003780000169800d5
:1056c8006000b8006016980071169800401698009f
:1056d8002c0090000018a30083013a004317200013
